:10165C0000A8C0003F065B4F666D7D077F6F0008DA
:10166C0040014148BF86DBCFE6EDFD87FFEF07C6A3
:10167C0004A4039D030E02AC0261022401F001C319
:10168C00019A017501530133011400F700DB00C00E
:10169C0000A5008A00700055003A001E0002FFE40D
:1016AC00FFC4FFA1FF7BFF4FFF1AFED6FE6BFCE1D0
:1016BC005B30303A30303A30305D20542B303030A3
:1016CC00204C3020463030302044303030204130F7
:1016DC00204F303020453030300D0A0043414C2033
:1016EC0052543D3030303020524F503D303030303D
:0316FC000D0A00D4
:080D550041006D1C410072FF1A
:08000E00E0FEA3E0FFFDAC06DB
:0B001600EC120169ED90000102017B7B
:081D31008B0F8A1089118D123D
:101D390074FFF513F514E4FDEDC39512503EAB0F96
:101D4900AA10A9118D8275830012013C6214E4FC6A
:101D5900E51430E015E513C313FEE51413FFEE6433
:101D6900A0F513EF6401F514800BE513C313F51304
:101D7900E51413F5140CBC08D70D80BCAE13AF14D1
:011D89002237
:082149008B098A0A890B8D0C39
:10215100C3E50C9402FD121D318E0D8F0EE50C7C32
:102161000024FEF582EC34FFF583AB09AA0AA90B22
:10217100EF12017BE50DFFE50C24FFF582EC34FF46
:06218100F583EF02017B73
:081ED8008D0C8B098A0A890BAD
:101EE000C3E50C9402FD121D318E0D8F0EE50CFD25
:101EF0007C0024FEF582EC34FFF583AB09AA0AA925
:101F00000B12013C650E60037F002274FF2DF582E9
:101F100074FF3CF58312013CFDE50D6D60037F000D
:031F2000227F011C
:011F2300229B
:041CCF00AD07AC06AB
:101CD300D3ED94FFEC940340047C037DFFEDAE044D
:101CE3007805CEC313CE13D8F9FFED541FF9EF25B2
:101CF300E0247AF582E43416F583E493FC740193CB
:101D0300FBAA04EF25E0247CF582E43416F583E492
:101D130093FE740193C39BFFEE9AFEAD017C001208
:0D1D2300019D7D20120204EF2BFFEE3AFE21
:011D30002290
:1021C500C3EF9437EE94005004E4FD8029C3EF94E7
:1021D5005FEE940050047D01801CC3EF9482EE9461
:1021E5000050047D02800FC3EF94B4EE94005004B8
:0821F5007D0380027D04AF05AB
:0121FD0022BF
:1015B800900072E0FFD3946450048F13807E9000F3
:1015C8006DE0FF7E007C007D0A12019DC3900074CF
:1015D800E09FFF900073E09EFE90004BE07012C306
:1015E800EE6480948040047D1E80027D008D13800F
:1015F80013C3EF94F6EE6480947F40047D1E80024E
:101608007D008D13E5136034D3EF9400EE6480946D
:03161800804029E6
:10161B007C007D0712019D7D0A1202048E148F152A
:10162B00D3E5159446E51464809480400675140048
:09163B00751546E515241EF51392
:1016440090004BE06513600FE513F0751964E4FB3B
:071654007D64AF131218C6FC
:01165B00226C
:101B680090006DE0FF7E007C007D0A12019DC3900D
:101B78000074E09FF514900073E09EF5137F021245
:101B8800226AEF64016050900054E07023C3E514AA
:101B9800941EE5136480948040167B407A007D147F
:101BA8007F02121465EF6402702D90005404F02235
:101BB800900054E0B40120D3E51494F6E513648052
:101BC800947F50137BC07AFF7D147F02121465BF87
:071BD8000205E4900054F047
:011BDF0022E3
:02179A00AB079B
:10179C00E4FA90004BE0D3940040010A900054E02E
:1017AC00600343020290006DE0FF7E007C007D0A26
:1017BC0012019D900073E0FCA3E0FDC39FEE6480DA
:1017CC00F8EC6480984003430204900049E0D39401
:1017DC0001500343020890005D7402F0A3EBF0A3E8
:1017EC00740BF0A3EAF07B017A0079611200169079
:1017FC000049E0900063F090004BE0900064F07AB8
:10180C0000796590007012000E7A00796790006E76
:10181C0012000E90004AE0900069F0E4A3F07A0008
:07182C00795D7D10022149E6
:101A6D00900055E0640270757B017A0079557D0810
:101A7D00121ED8EF700F900001E004F0705F90001F
:101A8D0000E004F02290001BE004F0700690001AB4
:101A9D00E004F0900056E024FA602524F660082456
:101AAD000D703A7F038026900057E0FFC3940A40E3
:101ABD000BEFD39428500590006DEFF07F10800D43
:101ACD00900057E0900072F01215B87F0612179A29
:0E1ADD007B017A00795D7D107C0012232F22A0
:10240300AE031BEE601BED75F00A84EF2B244CF535
:1024130082E43400F583E5F0F0ED75F00A84FD8085
:02242300DF22B6
:1021FE008C138D14AA07AF031BEF6029AE13AF1417
:10220E007C007D0A1201AFEA2B244CF582E43400E7
:10221E00F583EDF0AE13AF147C007D0A1201AF8E84
:06222E00138F1480D12281
:100B0D007F0890004C740AF0A3DFFCE51B146053C2
:100B1D0014605B24027073900073E0FEA3E0FFC3CA
:100B2D00EE64809480500D90004C740CF0C3E49FE3
:100B3D00FFE49EFED3EF94E7EE6480948340047E41
:100B4D00037FE7AD07AC067B037F011221FE90000A
:100B5D004EE02410F090004BE0FD7B037F05122446
:100B6D0003804B90004C7401F09000708011900048
:100B7D004C7402F0900049E090004EF090006EE051
:100B8D00FCA3E0FD7B047F04802190004C7403F0F6
:100B9D0090001AE0FCA3E0FD7B027F021221FE9083
:100BAD000000E0FCA3E0FD7B027F061221FE900019
:100BBD004CE0FFA3E0FDA3E0FBA3E0F516A3E0F5F9
:100BCD0017A3E0F518A3E0F519A3E0F51A122445D3
:100BDD007F0212226AEF6401604AE4FB90004BE051
:100BED00D3940040010B900054E060034303029046
:100BFD00006DE0FF7E007C007D0A12019DC3900018
:100C0D0074E09FEE6480F8900073E0648098400378
:100C1D00430304900049E0D394015003430308AF0C
:040C2D000312256E1B
:010C310022A0
:1016FF0012000378097C007D007E007F0A1201161C
:10170F00900070E50DF0A3E50EF090006EE50FF080
:10171F00A3E510F0C3E50E9401E50D94005006A368
:10172F00E4F0A304F0D3900071E094FE900070E019
:10173F00940340077403F0A374FEF0900070E0FE72
:10174F00A3E0FF121CCF900073EEF0A3EFF0900018
:10175F006EE0FEA3E0FF1221C5900049EFF0051CDB
:10176F00E51CC394054009E4F51C1215B8121B685B
:10177F00120B0D900048E004F0C3940A4002E4F00D
:0A178F00900048E0B40503120E605C
:01179900222D
:04238900E0FD7B02F6
:10238D00AE031BEE601FED75F00A84E5F02430FE00
:10239D00EF2B241DF582E43400F583EEF0ED75F09E
:0623AD000A84FD80DB2222
:1012FA00122529EF60030213AF9000027F01122327
:10130A00899000197F0412238990001CE0FD7B025A
:10131A007F0712238D900073E0F50EA3E0F50FC34B
:10132A00E50E6480948050047F2D80027F2B90000C
:10133A0029EFF0C3E50E64809480500BC3E4950F47
:10134A00F50FE4950EF50ED3E50F94E7E50E6480EC
:10135A0094834006750E03750FE7AE0EAF0F7C003F
:10136A007D64120204AD077B017F0D12238DAE0E40
:10137A00AF0F7C007D641202047B027F0E12238D64
:10138A00900049E0FD7B017F1212238D90004BE013
:10139A00FD7B037F1512238D7B017A00791D7D2B3E
:0513AA007C001223DBB2
:0113AF00221B
:100E6000122529EF6003020F4E900070E0FEA3E010
:100E7000FBAA067C007D0AFF1201AFED2430900032
:100E80000DF07C007D0AAF03AE021201AFAA06ABE3
:100E9000077C007D0A1201AFED243090000CF07C3D
:100EA000007D0AAF03AE021201AFAA06AB077C00B9
:100EB0007D0A1201AFED243090000BF07C007D0A1A
:100EC000AF03AE021201AF7C007D0A1201AFED2428
:100ED0003090000AF090006EE0FAA3E0FB7C007D09
:100EE0000AFFAE021201AFED2430900016F07C0034
:100EF0007D0AAF03AE021201AFAA06AB077C007DEC
:100F00000A1201AFED2430900015F07C007D0AAF8D
:100F100003AE021201AFAA06AB077C007D0A1201E4
:100F2000AFED2430900014F07C007D0AAF03AE02D8
:100F30001201AF7C007D0A1201AFED243090001346
:0E0F4000F07B017A0079037D167C001223DB22
:010F4E002280
:101E880012256178097C007D007E007F051201160D
:101E980090004AE50DF090001CE004F0C3943C402B
:101EA8001AE4F0900019E004F0943C400EE4F0903D
:101EB8000002E004F094184002E4F01212FA9000D4
:0F1EC8004AE0600B7D037C007FA07E0F121BE0C1
:011ED70022E8
:10208700E4FF1220CABF0112E51B045403F51B7DB0
:10209700037C007FB87E0B121BE07F011220CABFB2
:1020A7000120900072E0B4FF047F6480027FFF90FC
:1020B7000072EFF01215B87D057C007FD07E071205
:0320C7001BE022F9
:101F24007F05121FFDBF011790006DE0C394285078
:101F340003E004F07D037C007FAC7E0D121BE07F88
:101F440002121FFDBF011790006DE0D3940A4003F5
:101F5400E014F07D037C007FC47E09121BE07F0344
:0A1F6400121FFDBF0103E4F51B226C
:100F4F001224827D07E4FF12253D12246512242509
:100F5F0012249D7F9812229C7F01122234751964EE
:100F6F00E4FB7D64FF1218C6750D027F807E257D20
:100F7F00007C001213B0750E00750F00751000E4A1
:100F8F00F511F5127B017A0079557D08FC1222CDFF
:100F9F00E4F508E5089016BC93FF741D2508F5824B
:100FAF00E43400F583EFF00508E508B42BE5900075
:100FBF003F7431F0A314F0E4F508E5089016E893B8
:100FCF00FF74032508F582E43400F583EFF005087C
:050FDF00E508B416E571
:100FE400E4900002F0900019F090001CF09000488A
:100FF400F07F807E25FDFC121C587BFF7A1679FF5A
:101004007F02121AEB7BFF7A1E79887F03121AEB98
:101014007BFF7A2079877F04121AEB7BFF7A1F7992
:10102400247F07121AEB7BFF7A1A796D7F0A121A52
:09103400EB12257412218780FBE8
:092534008B88898C88898F8889C5
:100D5D005200EF868600868600868600868600868F
:090D6D0086008686004100E409BD
:03002B0002256843
:0625680053BCEFD20F325C
:02083100154868
:10083300200F030209DAC20F9000E3E0B40900407D
:10084300030209BC90084EF8282873020895020891
:100853006902087B0208A702086902087B0208BE36
:1008630002086902087BAFBDEFFEADBE7C00E42D3C
:10087300FFEC3E9000E5803CAFBDEFFEADBE7C00DB
:10088300E42DFFEC3E9000E7F0A3EFF0751D0102AD
:1008930009C2AFBDEFFEADBE7C00E42DFFEC3E9080
:1008A30000E98010AFBDEFFEADBE7C00E42DFFEC90
:1008B3003E9000EBF0A3EFF00209C2AFBDEFFEAD37
:1008C300BE7C00E42DFFEC3E9000EDF0A3EFF09032
:1008D30000EDE0FEA3E07807CEC313CE13D8F9A84A
:1008E30048F6C394065013A848E675F003A424EF12
:1008F300F582E43400F583E014F09000E4E014F0B2
:1009030060030209C27409F0A848E4F6A848E6FFA8
:10091300C3940640030209C2EF75F003A424EFF564
:1009230082E43400F583E0C39480502AE6FF75F037
:1009330003A424F0F582E43400F583E0D3948040EB
:1009430040EF75F003A424F1F582E43400F58374D9
:1009530001F0F51E802BA848E6FF75F003A424F0F0
:10096300F582E43400F583E0C394805014EF75F00E
:1009730003A424F1F582E43400F5837402F0751EB8
:1009830001A848E6FF75F003A424EFF582E43400E0
:10099300F583E0FEEF75F003A424F0F582E4340060
:1009A300F583EEF0E675F003A424EFF582E434005A
:1009B300F5837486F00602090F9000E374FFF0904C
:1009C30000E3E0D39407400374FFF09000E3E004F6
:0709D300F090253493F5BC00
:0309DA00054822AB
:0224F400154889
:0924F600A848A61EE4F51EE6FF4D
:0324FF000548226B
:0225020015487A
:09250400A848A61DE4F51DE6FF40
:03250D000548225C
:10229C008F9D75BC88439720D2AD9000BA74FFF027
:1022AC00A37408F0A37431F0A374FFF0A37424F0AA
:1022BC00A374F4F0A374FFF0A37425F0A37402F0DC
:0122CC0022EF
:070003007B017A0079E52280
:101FFD00C3EF64809480403BD3EF6480948550336D
:10200D00EFFD3395E0FC9000F175F003ED1203D96F
:10201D00EC75F003A42583F583E0FE9000F175F0D7
:10202D0003ED1203D9EC75F003A42583F583E4F0D9
:05203D00AF06227F0345
:01204200227B
:0423B300154815486C
:1023B700122546A848A60608A607A848E6FE08E686
:0F23C700FF4E600BEF24FFFFEE34FFFE12254F99
:0523D600054805482246
:1024250053B1EF43B21012003EE4F5D975DA49D243
:10243500DE9000B474FFF0A37423F0A374B3F0220C
:081BE0008E0E8F0F8C108D1189
:101BE800122546EF4E7066AF11AE1012254FC3E5B1
:101BF8000F940AE50E9400404BE47B18FAF9F8902C
:101C0800165C1203BD1202F1C006C007AE0EAF0F7C
:101C1800AB07AA06E4F9F8D007D0061202F1AB0721
:101C2800AA06AFF9EFFEADE97C00E42DFFEC3ECF4C
:101C38002BCF3AAD07FCAF03AE021224B5D2D8437E
:0F1C4800DA01800612003E53DAFE7F02227F038C
:011C5700226A
:0C002E00122546EF4E7002FF227F0122D7
:10112A00E4F58090014CE0FFB40800505F90113E56
:10113A00F828287302115602115C02116202116822
:10114A0002116E02117802118202118CC2A3C2A28C
:10115A008016C2A3C2A2801AC2A3C2A2801EC2A3C0
:10116A00C2A28022C2A3D2A2C2A1C2A08020C2A3CC
:10117A00D2A2C2A1D2A08016C2A3D2A2D2A1C2A0D8
:10118A00800CC2A3D2A2D2A1D2A08002D2A3C3EF62
:10119A0064809488502990014CE0FF3395E0FE74F6
:1011AA00432FF58274013EF583E0FF3395E0FE7428
:1011BA00602FF58274163EF583E493F580801E90C5
:1011CA00014CE0FFB408133395E0FE74432FF58217
:1011DA0074013EF583E0F5808003E4F580900142D6
:1011EA00E0FF90014CE004FEF0D3EF6480F8EE6477
:1011FA0080984014E0D36480948850047408F022E4
:09120A00900141E090014CF0223A
:10248200E4F5937594FF5395F043960F90009F7473
:0B249200FFF0A37411F0A3742AF022E5
:09253D00900141EFF0A3EDF02242
:10244500900143EFF0A3EDF0A3EBF0A3E516F0A3A5
:10245500E517F0A3E518F0A3E519F0A3E51AF022B6
:06256E0090014BEFF0228A
:100D7600011F0049015994940094940094940041F1
:030D860001581EF3
:020C3200154863
:100C340020B206900159E014F020B30690015CE064
:100C440014F020970690015FE014F0900158E0142E
:100C5400F06003020D52741EF0A848E4F6A848E6BA
:100C6400FFC3648094834003020D52EF3395E0FE8A
:100C740090015975F003EF1203D9EE75F003A42522
:100C840083F583E0C39480503990015A75F003EFE3
:100C94001203D9EE75F003A42583F583E0D3948081
:100CA400405AE6FF3395E0FE90015B75F003EF12C6
:100CB40003D9EE75F003A42583F5837401F0F51FC1
:100CC400803AA848E6FF3395E0FE90015A75F00398
:100CD400EF1203D9EE75F003A42583F583E0C394E2
:100CE40080501990015B75F003EF1203D9EE75F093
:100CF40003A42583F5837402F0751F01A848E6FF59
:100D0400FD3395E0FC90015975F003ED1203D9EC25
:100D140075F003A42583F583E0FE90015A75F00372
:100D2400ED1203D9EC75F003A42583F583EEF0EFFF
:100D34003395E0FE90015975F003EF1203D9EE7577
:0E0D4400F003A42583F5837494F006020C617D
:030D52000548222F
:0225100015486C
:09251200A848A61FE4F51FE6FF2E
:03251B000548224E
:102465009000A574FFF0A37425F0A37410F09000FC
:0D247500A274FFF0A3740CF0A37432F022E7
:1020CA00EF600764016003BF0233EFFD3395E0FC64
:1020DA0090015B75F003ED1203D9EC75F003A425AA
:1020EA0083F583E0FE90015B75F003ED1203D9ECF2
:0F20FA0075F003A42583F583E4F0AF06227F037E
:0121090022B3
:100D89005501020000000000000000000000000002
:0C0D99000000000000000000410101000B
:0203EB001548B3
:1003ED00A848E4F6A848E6FFC3648094834003025E
:1003FD00065CEF3395E0FE90010275F007EF1203F6
:10040D00D9EE75F007A42583F583E0FCA3E04C70CD
:10041D000302065690010475F007EF1203D9EE752D
:10042D00F007A42583F583E0FEA3E04E70030206DA
:10043D0056E6FFFD3395E0FC90010675F007ED12D1
:10044D0003D9EC75F007A42583F58374FFF5F0123D
:10045D00023A45F0600302065690010475F007ED6F
:10046D001203D9EC75F007A42583F583E0FAA3E018
:10047D00FB90010675F007ED1203D9EC75F007A49A
:10048D002583F583EAF0A3EBF0EF3395E0FE9001C1
:10049D000275F007EF1203D9EE75F007A42583F569
:1004AD0083E0FCA3E0D39400EC648094804056A8D4
:1004BD0048E6FD3395E0FC90010275F007ED12035F
:1004CD00D9EC75F007A42583F58374FFF5F01202BE
:1004DD003A90010875F007ED1203D9EC75F007A4F9
:1004ED002583F583E004F0D36480948340729001FA
:1004FD000875F007EF1203D9EE75F007A42583F503
:10050D0083E4F0805BA848E6FFFD3395E0FC9001A5
:10051D000275F007ED1203D9EC75F007A42583F5EC
:10052D0083E475F00112023A90010875F007ED129F
:10053D0003D9EC75F007A42583F583E014F0C364AB
:10054D00809480501BEF3395E0FE90010875F00705
:10055D00EF1203D9EE75F007A42583F5837403F02C
:10056D00A848E6FFFD3395E0FC90010875F007ED16
:10057D001203D9EC75F007A42583F583E014603CD4
:10058D001460661470030206232403600302064EF2
:10059D00EF1460101460192402600302064ED2C1DC
:1005AD00C2C28029900101E054F04401F002064ED0
:1005BD00900101E0540F4410F002064EA848E614D5
:1005CD00601114601924027078C2C1D2C2C2C3C2B4
:1005DD00C4806E900101E054F04402F080639001FC
:1005ED0001E0540F4420F08058A848E6146011141F
:1005FD0060192402704BC2C1C2C2D2C3C2C48041B1
:10060D00900101E054F04404F08036900101E05473
:10061D000F4440F0802BA848E61460111460192493
:10062D0002701EC2C1C2C2C2C3D2C48014900101E5
:10063D00E054F04408F08009900101E0540F44802B
:0F064D00F0900101E0FF12256EA848060203F1AC
:03065C000548222C
:10249D0053B3E143B41E53C0E19000C974FFF0A3E0
:0824AD007403F0A374EBF022AC
:101465008F15EF3395E0FE90010275F007EF12033B
:10147500D9EE75F007A42583F583E0FEA3E04E6061
:101485000302150DE515600A64016006E5156402A1
:101495007076ED60737C007E037FE81201AFAD15B9
:1014A500ED3395E0FC90010475F007ED1203D9ECDE
:1014B50075F007A42583F583EEF0A3EFF090010402
:1014C50075F007ED1203D9EC75F007A42583F583B4
:1014D500E0FEA3E0FF90010675F007ED1203D9ECDD
:1014E50075F007A42583F583EEF0A3EFF0900102D4
:1014F50075F007ED1203D9EC75F007A42583F58384
:0B150500EAF0A3EBF07F02227F03223C
:101F6E00EF600764016003BF023AEFFD3395E0FCBA
:101F7E0090010275F007ED1203D9EC75F007A42558
:101F8E0083F583E0FAA3E0FB90010275F007ED12F2
:101F9E0003D9EC75F007A42583F583E4F0A3F0AE26
:071FAE0002AF0322E4FEFF75
:011FB5002209
:10226A00EF600764016003BF0225EF3395E0FE903B
:10227A00010275F007EF1203D9EE75F007A4258362
:10228A00F583E0FEA3E04E60037F01227F00227FF8
:02229A0003221D
:100DA5004100750A41009E0A4100E20A042800003C
:100DB5000000012E004600DC0000FFFF8FFFC10D83
:100DC500C105C108C101C10E6024007AFF000AFFF8
:100DD500000AFF000AFF000AFF000AFF000AFF00E1
:100DE5000AFF000AFF000AFF000AFF000AFF000AC7
:100DF5006036009FFF000AFF000AFF0026FF000A79
:100E0500FF0026FF000AFF0026FF000AFF000AFF79
:100E1500000AFF0026FF0026FF0026FF0026FF0030
:0A0E25000AFF000AFF000AFF000A9E
:01000A0022D3
:030026007F002236
:101FB600438E805389F07BE07A2879017800901669
:101FC6005C1203BD122043EFF404F58A7BE07A2805
:101FD6007901780090165C1203BD122043C3E49F7A
:101FE600FFE49EFE74019DFDE49CFC7808120396B6
:071FF6008F8CD28CD2A922CE
:03000B00021E369C
:041E3600C0E0C0D078
:101E3A00D5220A75224C300D02052ED20DA203724C
:101E4A000450361524E5247030852624D207300A3A
:101E5A0017E52760071527438F01801D538FFEC2A0
:101E6A00B5D53015C20A80110525E525D39406405B
:091E7A0008C203E52D6002D20646
:051E8300D0D0D0E032D8
:101DE300300E47C20E90165C1203BD781012039694
:101DF3008E448F45900078E0FEA3E0FFE4FCFD7B7A
:101E030019FAF9F8120266C006C007AE44AF45AB33
:101E130007AA06E4F9F8D007D00612204378031284
:101E230003969000DAEEF0A3EFF09000DAE0FEA361
:021E3300E0FFCE
:011E3500228A
:092546009000DCE0FEA3E0FF229E
:09254F009000DCEEF0A3EFF02295
:1024B5009000E0EEF0A3EFF09000DEECF0A3EDF07D
:0124C50022F4
:03003E00C2B42227
:03003B000215109B
:10151000C0E0C083C082C0D075D000C004C005C088
:0315200006C007FB
:1015230030DF04C2DF807D30DA04C2DA807630D95E
:101533003DC2D9AFFBEFFEADEB7C00E42DFFEC3EEB
:1015430020000E900076F0A3EFF075DB11D200803F
:1015530053FE900076E0FCA3E0FDC3EF9DFFEE9CFD
:10156300A3F0A3EFF075DB00C200D20E803630D8B3
:1015730033C2D89000DCE07002A3E06022B2B490E2
:1015830000DEE0FEA3E0F5EAEEF5FAA3E0FEA3E059
:10159300FF9000DFE02FF09000DEE03EF08005C218
:0415A300B453DAFE65
:1015A700D007D006D005D004D0D0D082D083D0E0E9
:0115B7003201
:06257400121FB6D2AF22D7
:1019E2003004047F0180027F00200A047E0180020D
:1019F2007E00EE5F6074E52FC39523506830023697
:101A0200752701E52F131313541FAB31AA32A933E3
:101A1200F58275830012013CFFE52F540704FEEFA7
:101A2200A806088002C333D8FC30D705753003807E
:101A32002F753001802AAB31AA32A93375F002E545
:101A42002FA4F58285F08312013CF527E52F75F06E
:101A520002A429F9EA35F0FA90000112013CF530AE
:0A1A6200052FD20A22C204438F10A0
:011A6C002257
:10103D00900075E014F0701F740AF0D20590009EB8
:10104D00E014F07012740AF0D2089000E2E014F08F
:10105D007005740AF0D20190009FA3E0FAA3E0F9A5
:10106D001203E59000A2A3E0FAA3E0F91203E590C4
:10107D0000AEA3E0FAA3E0F91203E59000BAA3E0F5
:10108D00FAA3E0F91203E59000C9A3E0FAA3E0F991
:10109D001203E59000D2A3E0FAA3E0F91203E59064
:1010AD0000C0A3E0FAA3E0F91203E5EF600C900095
:1010BD0092A3E0FAA3E0F91203E59000C3A3E0FACE
:1010CD00A3E0F91203E5EF600E900095A3E0FAA3FB
:1010DD00E0F91203E5D20BE52CD394004016D52C84
:1010ED003030090C900098A3E0FAA3E0F91203E563
:1010FD00D20C801D9000C6A3E0FAA3E0F91203E51F
:10110D00EF600E900098A3E0FAA3E0F91203E5D288
:0D111D000C90007AA3E0FAA3E0F90203E5CC
:101833009000B4A3E0FAA3E0F91203E59000B7A384
:10184300E0FAA3E0F91203E59000A8A3E0FAA3E00D
:10185300F91203E590007DA3E0FAA3E0F91203E592
:101863009000A5A3E0FAA3E0F91203E5EF600C9062
:101873000086A3E0FAA3E0F91203E59000ABA3E02E
:10188300FAA3E0F91203E5EF600C90008CA3E0FAF1
:10189300A3E0F91203E59000BDA3E0FAA3E0F91277
:1018A30003E5EF600C90008FA3E0FAA3E0F91203C5
:1018B300E530060EC20690009BA3E0FAA3E0F912FE
:0318C30003E52218
:10210A00900080A3E0FAA3E0F91203E59000B1A3DE
:10211A00E0FAA3E0F91203E5EF600C900089A3E06E
:10212A00FAA3E0F91203E59000CCA3E0FAA3E0F9E0
:0F213A001203E59000CFA3E0FAA3E0F90203E55A
:10235E00AF2BAE2AAD29AC289000D51203CD90003C
:10236E00D9E52EF0E4F52BF52AF529F528F52E9072
:0B237E000083A3E0FAA3E0F90203E5EE
:10218700300705C2071219E2300D05C20D12103DC6
:10219700300505C205121833300805C20812210A96
:1021A700300105C20112235EE52B2401F52BE4352E
:0E21B7002AF52AE43529F529E43528F52822F1
:101AEB008B098A0A890BEFB40C005070901AFEF820
:101AFB00282873021B22021B27021B2C021B3102FC
:101B0B001B36021B3B021B40021B45021B4A021BDE
:101B1B004F021B54021B5990007A803590007D8038
:101B2B0030900080802B900083802690008680214F
:101B3B0090008C801C900089801790008F801290F1
:101B4B000092800D90009580089000988003900083
:0D1B5B009BE509F0A3E50AF0A3E50BF022DD
:072561007B017A0079D5220D
:1018C6008B18AA077C007E037FE81201AF900154B3
:1018D600EEF0A3EFF0E519FD7C007E037FE8120130
:1018E600AFA3EEF0A3EFF0AF02AB07E4FAF9F8907E
:1018F6000154E0FEA3E0FFE4FCFD120266EF243291
:10190600FFE43EFEE43DFDE43CFCE47B64FAF9F8CA
:1019160012204390014EEEF0A3EFF0AF18AB07E4B0
:10192600FAF9F8900156E0FEA3E0FFE4FCFD12028E
:1019360066EF2432FFE43EFEE43DFDE43CFCE47B3E
:1019460064FAF9F8122043900150EEF0A3EFF0226A
:101D8A00E4F50CF50BF50AF509F50DD291AF0CAE99
:101D9A000BAD0AAC0978011203AA8F0C8E0B8D0ABF
:101DAA008C0900C291309015E4FAF9F8EF2401F594
:101DBA000CEA3EF50BE93DF50AE83CF509050DE5A7
:101DCA000DB418C700D2910000C291AF0CAE0BAD92
:081DDA000AAC09780812039617
:011DE20022DE
:09255800900152E0FEA3E0FF2215
:0F24C600900152E0FEA3E0FFE4900152F0A3F07A
:0124D50022E4
:1012130090014DE0700F30900122121D8A9001520F
:10122300EEF0A3EFF090014DE0FF64017062053F23
:10123300E53F7002053EFDD3900155E09D900154BA
:10124300E0953E5005E4F53EF53FD390014FE09520
:101253003F90014EE0953E4004D2908002C290053B
:1012630041E54170020540FDD3900157E09D900197
:1012730056E095405005E4F540F541D3900151E027
:101283009541900150E095404004D2918002C29173
:10129300EF6402703E2090047F0180027F00E542EC
:1012A30060047E0180027E00EE5F60213091109029
:1012B3000153E004F07016900152E004F0800E90A8
:1012C3000153E024FFF0900152E034FFF0A290E4D8
:1012D30033F54290014DE0B4031CE5437002D29113
:1012E300E543B40105C29175DB210543E543C3948E
:0612F300C84003E4F543CE
:0112F90022D2
:1022340090014DEFF07004C2918002D29190014D53
:10224400E0B40310E5A254CFF5A2E4F5D975DB019F
:10225400D2DE8003E4F5DB9000D274FFF0A37412A5
:06226400F0A37413F02248
:100E2F005501170000000000000000000000000046
:080E3F000000010000000000AA
:0300430002065F53
:10065F00C0E0C0F0C083C082C0D075D000C000C061
:10066F0001C002C003C004C005C006C007E59A3030
:10067F00E142539AFD90011CE0FEA3E0FFC39001FD
:10068F001BE09F90011AE09E501F900117E0FBA303
:10069F00E0FAA3E0F9A3E475F00112025085F082AD
:1006AF00F58312013CF59B800B90011EE4F0E547AA
:1006BF006002C2B7E59A20E003020816539AFE3093
:1006CF000C0BC20C900124E4F0A3F0D209E54764AF
:1006DF00026003020770900122E0FEA3E0FFA3E097
:1006EF00FCA3E0FDC39FEC9E507190011FE0FBA3A4
:1006FF00E0FAA3E0F98D828C83E59B12017B9001D8
:10070F002AE0FEA3E0FFC3ED9FEC9E504090012234
:10071F00E0FCA3E0FDEF9DEE9C5032900127E0FB43
:10072F00A3E0FAA3E0F9900124E0FEA3E0FFF58235
:10073F008E8312013CFD90011FE0FBA3E0FAA3E0C2
:10074F00F98F828E8312013C6D6002C209900125E0
:10075F00E004F07006900124E004F085462C0208B6
:10076F0016900122E0FEA3E0FFA3E0FCA3E0FDC38F
:10077F009FEC9E507790011FE0FBA3E0FAA3E0F9F6
:10078F008D828C83E59B12017B90012AE0FEA3E012
:10079F00FFC3ED9FEC9E5046900122E0FCA3E0FDCD
:1007AF00EF9DEE9C5038900127E0FBA3E0FAA3E009
:1007BF00F9900124E0FEA3E0FFF5828E8312013C45
:1007CF00FD90011FE0FBA3E0FAA3E0F98F828E8377
:1007DF0012013C6D600890012474FFF0A3F09001AA
:1007EF0025E004F07006900124E004F0900122E06F
:1007FF00FEA3E0FFC3900125E09F900124E09E40FF
:10080F00069001267401F0D007D006D005D004D091
:10081F0003D002D001D000D0D0D082D083D0F0D07E
:02082F00E032B5
:0224D6001548A7
:0A24D800900126E0A848F6FFE4F0AA
:0324E20005482288
:0100210022BC
:1013B0008F0C8E0B8D0A8C09850D47E547700280D6
:1013C0000343BA01E54770179000D274FFF0A3748D
:1013D00000F0A37421F0E4F5DBD290D2918020C21A
:1013E000B7AB0CAA0BA90AA809E47F407E9CFDFCC0
:1013F0001202F18F46E546700375460185462C754D
:101400009A10E47B04FAF9F890165C1203BD1202FC
:10141000F1AB0CAA0BA90AA8091202F1EFF404F52A
:10142000D7E47B04FAF9F890165C1203BD1202F1BE
:10143000AB0CAA0BA90AA8091202F1C3E49FFFE4AE
:101440009EFE74019DFDE49CFC78081203838FD6F8
:10145000438E1443AF019000C674FFF0A37424F0D0
:05146000A374D6F02288
:1022CD0090011FEBF0A3EAF0A3E9F0A3ECF0A3ED6E
:1022DD00F090012AE511F0A3E512F0900127E50E2B
:1022ED00F0A3E50FF0A3E510F0D20CE4900126F079
:0122FD0022BE
:10232F0090011EE07026900117EBF0A3EAF0A3E9ED
:10233F00F0E4A3F0A3F0A3ECF0A3EDF0A37401F08D
:0F234F00E5476002D2B7439A027F02227F032242
:0B251E0090011EE07002FF227F0122EE
:100E470055012C0000000000000000000000000019
:080E5700000001000000000092
:030023000209DDF2
:1009DD00C0E0C0F0C083C082C0D075D000C000C0E0
:1009ED0001C002C003C004C005C006C00730993B5A
:1009FD00C299900131E0FEA3E0FFC3900130E09F6A
:100A0D0090012FE09E501F90012CE0FBA3E0FAA374
:100A1D00E0F9A3E475F00112025085F082F583121E
:100A2D00013CF5998005900133E4F0209803020A0A
:100A3D00F2C298300B09C20B900139E4F0A3F0908B
:100A4D000137E0FEA3E0FFA3E0FCA3E0FDC39FECB4
:100A5D009E5077900134E0FBA3E0FAA3E0F98D827C
:100A6D008C83E59912017B90013FE0FEA3E0FFC36B
:100A7D00ED9FEC9E5046900137E0FCA3E0FDEF9D0D
:100A8D00EE9C503890013CE0FBA3E0FAA3E0F99016
:100A9D000139E0FEA3E0FFF5828E8312013CFD904B
:100AAD000134E0FBA3E0FAA3E0F98F828E831201FB
:100ABD003C6D600890013974FFF0A3F090013AE0AD
:100ACD0004F07006900139E004F0900137E0FEA3C8
:100ADD00E0FFC390013AE09F900139E09E400690FF
:100AED00013B7401F0D007D006D005D004D003D05F
:100AFD0002D001D000D0D0D082D083D0F0D0E0325F
:0224E500154898
:0A24E70090013BE0A848F6FFE4F086
:0324F10005482279
:101C58008F0C8E0B8D0A8C09759850438E40538ECD
:101C6800FE53890FE47B04FAF9F890165C1203BD61
:101C78001202F1AB0CAA0BA90AA8091202F1EFF49F
:101C880004F58BE47B04FAF9F890165C1203BD1294
:101C980002F1AB0CAA0BA90AA8091202F1C3E49F2E
:101CA800FFE49EFE74019DFDE49CFC78081203830A
:101CB8008F8DC2ABD28ED2AC9000C374FFF0A374E8
:071CC80024F0A374E5F022F3
:1022FE00900134EBF0A3EAF0A3E9F0A3ECF0A3ED28
:10230E00F090013FE53CF0A3E53DF090013CE5394E
:10231E00F0A3E53AF0A3E53BF0D20BE490013BF0DD
:01232E00228C
:1023DB00900133E0701F90012CEBF0A3EAF0A3E91E
:1023EB00F0E4A3F0A3F0A3ECF0A3EDF0A37401F0E1
:0823FB00D2997F02227F032228
:0B252900900133E07002FF227F0122CE
:030000000219568C
:0C195600787FE4F6D8FD75814802199DE9
:10004600E709F608DFFA8046E709F208DFFA803E9C
:1000560088828C83E709F0A3DFFA8032E309F60889
:10006600DFFA8078E309F208DFFA807088828C83F1
:10007600E309F0A3DFFA806489828A83E0A3F608A5
:10008600DFFA805889828A83E0A3F208DFFA804C7F
:1000960080D280FA80C680D4806980F28033801056
:1000A60080A680EA809A80A880DA80E280CA8033BF
:1000B60089828A83ECFAE493A3C8C582C8CCC58337
:1000C600CCF0A3C8C582C8CCC583CCDFE9DEE78007
:1000D6000D89828A83E493A3F608DFF9ECFAA9F086
:1000E600EDFB2289828A83ECFAE0A3C8C582C8CCDC
:1000F600C583CCF0A3C8C582C8CCC583CCDFEADEF5
:10010600E880DB89828A83E493A3F208DFF980CC56
:1001160088F0EF60010E4E60C388F0ED2402B4044F
:100126000050B9F582EB2402B4040050AF232345F6
:0601360082239000967385
:10013C00BB010CE58229F582E5833AF583E0225078
:10014C0006E92582F8E622BBFE06E92582F8E222C2
:0D015C00E58229F582E5833AF583E49322DC
:10016900BB010689828A83F0225002F722BBFE0175
:02017900F3226F
:10017B00F8BB010DE58229F582E5833AF583E8F0BA
:10018B00225006E92582C8F622BBFE05E92582C866
:02019B00F2224E
:10019D00EF8DF0A4A8F0CF8CF0A428CE8DF0A42E76
:0201AD00FE2230
:1001AF00BC000BBE0029EF8DF084FFADF022E4CC34
:1001BF00F875F008EF2FFFEE33FEEC33FCEE9DECFD
:1001CF00984005FCEE9DFE0FD5F0E9E4CEFD22ED43
:1001DF00F8F5F0EE8420D21CFEADF075F008EF2F8D
:1001EF00FFED33FD4007985006D5F0F222C398FD7E
:0501FF000FD5F0EA221B
:10020400C2D5EC30E709B2D5E4C39DFDE49CFCEE15
:1002140030E715B2D5E4C39FFFE49EFE1201AFC3DD
:10022400E49DFDE49CFC80031201AF30D507C3E4D8
:060234009FFFE49EFE2284
:10023A00C5F0F8A3E028F0C5F0F8E582158270024F
:06024A001583E038F022EC
:10025000A3F8E0C5F025F0F0E58215827002158361
:06026000E0C838F0E822BE
:10026600E88FF0A4CC8BF0A42CFCE98EF0A42CFC37
:100276008AF0EDA42CFCEA8EF0A4CDA8F08BF0A4B5
:100286002DCC3825F0FDE98FF0A42CCD35F0FCEB14
:100296008EF0A4FEA9F0EB8FF0A4CFC5F02ECD39D9
:0F02A600FEE43CFCEAA42DCE35F0FDE43CFC2246
:1002B50075F008758200EF2FFFEE33FECD33CDCC00
:1002C50033CCC58233C5829BED9AEC99E582984083
:1002D5000CF582EE9BFEED9AFDEC99FC0FD5F0D660
:1002E500E4CEFBE4CDFAE4CCF9A88222B800C1B98A
:1002F5000059BA002DEC8BF084CFCECDFCE5F0CBC8
:10030500F97818EF2FFFEE33FEED33FDEC33FCEB00
:1003150033FB10D703994004EB99FB0FD8E5E4F9BB
:10032500FA227818EF2FFFEE33FEED33FDEC33FCA8
:10033500C933C910D7059BE99A4007EC9BFCE99A9C
:10034500F90FD8E0E4C9FAE4CCFB2275F010EF2FE1
:10035500FFEE33FEED33FDCC33CCC833C810D707E1
:100365009BEC9AE899400AED9BFDEC9AFCE899F81C
:0E0375000FD5F0DAE4CDFBE4CCFAE4C8F922AF
:10204300C2D5E830E70FB2D5E4C39BFBE49AFAE4C8
:1020530099F9E498F8EC30E717B2D5122079120217
:10206300F1E4C39BFBE49AFAE499F9E498F880035A
:102073001202F130D50DE4C39FFFE49EFEE49DFD03
:04208300E49CFC22BB
:10038300E8600FECC313FCED13FDEE13FEEF13FF58
:03039300D8F1227C
:10039600E86010ECA2E713FCED13FDEE13FEEF137D
:0403A600FFD8F0226A
:1003AA00E8600FEFC333FFEE33FEED33FDEC33FCB1
:0303BA00D8F12255
:1003BD00E493FC740193FD740293FE740393FF2286
:0C03CD00ECF0A3EDF0A3EEF0A3EFF022A3
:0C03D900A42582F582E5F03583F583222F
:0603E5008A838982E473A3
:10196200020F4FE493A3F8E493A34003F68001F23D
:1019720008DFF48029E493A3F85407240CC8C33386
:10198200C4540F4420C8834004F456800146F6DF55
:10199200E4800B0102040810204080900D55E47E83
:1019A200019360BCA3FF543F30E509541FFEE4934A
:1019B200A360010ECF54C025E060A840B8E493A311
:1019C200FAE493A3F8E493A3C8C582C8CAC583CA3C
:1019D200F0A3C8C582C8CAC583CADFE9DEE780BEF4
:010E5F000092
:00000001FF
