:10194F0000A8C0003F065B4F666D7D077F6F0008E4
:10195F0040014148BF86DBCFE6EDFD87FFEF07C6AD
:10196F0004A4039D030E02AC0261022401F001C323
:10197F00019A017501530133011400F700DB00C018
:10198F0000A5008A00700055003A001E0002FFE417
:10199F00FFC4FFA1FF7BFF4FFF1AFED6FE6BFCE1DA
:1019AF005B30303A30303A30305D20542B303030AD
:1019BF00204C302046303030204430303020413001
:1019CF00204F303020453030300D0A0043414C203D
:1019DF0052543D3030303020524F503D3030303047
:0319EF000D0A00DE
:080EBF0041006E1C410073FFAD
:08000E00E0FEA3E0FFFDAC06DB
:0B001600EC120169ED90000102017B7B
:081F21008B108A1189128D1347
:101F290074FFF514F515E4FDEDC39513503EAB10A0
:101F3900AA11A9128D8275830012013C6215E4FC75
:101F4900E51530E015E514C313FEE51513FFEE643E
:101F5900A0F514EF6401F515800BE514C313F5140E
:101F6900E51513F5150CBC08D70D80BCAE14AF15DB
:011F79002245
:0822EF008B0A8A0B890C8D0D8E
:1022F700C3E50D9402FD121F218E0E8F0FE50D7C95
:102307000024FEF582EC34FFF583AB0AAA0BA90C77
:10231700EF12017BE50EFFE50D24FFF582EC34FF9C
:06232700F583EF02017BCB
:0820C8008D0D8B0A8A0B890CB7
:1020D000C3E50D9402FD121F218E0E8F0FE50DFD3D
:1020E0007C0024FEF582EC34FFF583AB0AAA0BA931
:1020F0000C12013C650F60037F002274FF2DF582F6
:1021000074FF3CF58312013CFDE50E6D60037F001A
:03211000227F012A
:0121130022A9
:041EBF00AD07AC06B9
:101EC300D3ED94FFEC940340047C037DFFEDAE045B
:101ED3007805CEC313CE13D8F9FFED541FF9EF25C0
:101EE300E0246DF582E43419F583E493FC740193E3
:101EF300FBAA04EF25E0246FF582E43419F583E4AB
:101F030093FE740193C39BFFEE9AFEAD017C001216
:0D1F1300019D7D20120204EF2BFFEE3AFE2F
:011F2000229E
:10236B00C3EF9437EE94005004E4FD8029C3EF943F
:10237B005FEE940050047D01801CC3EF9482EE94B9
:10238B000050047D02800FC3EF94B4EE9400500410
:08239B007D0380027D04AF0503
:0123A3002217
:1018AB00900073E0FFD3946450048F13807E9000FC
:1018BB006EE0FF7E007C007D0A12019DC3900075D7
:1018CB00E09FFF900074E09EFE90004CE07012C30E
:1018DB00EE6480948040047D1E80027D008D138019
:1018EB0013C3EF94F6EE6480947F40047D1E800258
:1018FB007D008D13E5136034D3EF9400EE64809478
:03190B00804029F0
:10190E007C007D0712019D7D0A1202048E148F1534
:10191E00D3E5159446E51464809480400675140052
:09192E00751546E515241EF5139C
:1019370090004CE06513600FE513F0751964E4FB44
:071947007D64AF13121BBA0F
:01194E002276
:101CD50090006EE0FF7E007C007D0A12019DC3909E
:101CE5000075E09FF514900074E09EF513900019BF
:101CF500E0705AE4FF122410EF6401605090005523
:101D0500E07023C3E514941EE513648094804016A7
:101D15007B407A007D14E4FF121758EF6402702DA2
:101D250090005504F022900055E0B40120D3E5144D
:101D350094F6E5136480947F50137BC07AFF7D147D
:0D1D4500E4FF121758BF0205E4900055F0AE
:011D5200226E
:0216AA00AB078C
:1016AC00E4FA90004CE0D3940040010A900055E01D
:1016BC00600343020290006EE0FF7E007C007D0A16
:1016CC0012019D900074E0FCA3E0FDC39FEE6480CA
:1016DC00F8EC648098400343020490004AE0D394F1
:1016EC00015003430208900073E0D3946450034309
:1016FC000210900019E0600343022090005E740217
:10170C00F0A3EBF0A3740BF0A3EAF07B017A007961
:10171C006212001690004AE0900064F090004CE0D9
:10172C00900065F07A00796690007112000E7A00D4
:10173C00796890006F12000E90004BE090006AF0F8
:0C174C00E4A3F07A00795E7D100222EF29
:100FCA00900056E0640260030210BF7B017A007948
:100FDA00567D081220C8EF700F900001E004F070EF
:100FEA0006900000E004F02290001CE004F0700675
:100FFA0090001BE004F0900057E024FA602924F6E0
:10100A00600C240D60030210BF7F030210AF900032
:10101A0058E0FFC3940A400BEFD394285005900080
:10102A006EEFF07F10807E900058E0FFD39464400A
:10103A0004EFB4FF0A900073EFF01218AB806490CB
:10104A000058E0B4FE0AE4900019F0121CD580534F
:0E105A00900058E0FF64FD6005EF64FC7045F7
:10106800900058E0B4FD047F0180027F008F099052
:1010780000197401F0900055E065096028E4FF123A
:101088002410EF6401601EE50960067A007B408049
:10109800047AFF7BC07D14E4FF121758BF02069044
:0510A8000055E509F010
:1010AD007F061216AA7B017A00795E7D107C0012F4
:0310BD0024D52215
:1025A900AE031BEE601BED75F00A84EF2B244DF58D
:1025B90082E43400F583E5F0F0ED75F00A84FD80DE
:0225C900DF220F
:1023A4008C158D16AA07AF031BEF6029AE15AF1667
:1023B4007C007D0A1201AFEA2B244DF582E434003F
:1023C400F583EDF0AE15AF167C007D0A1201AF8ED9
:0623D400158F1680D122D6
:1009DD007F0890004D740AF0A3DFFCE51D14700331
:1009ED00020A8A147003020A9524026003020AB1F6
:1009FD00900074E0F513A3E0F514C3E5136480943F
:100A0D0080503490004D740CF0C3E49514F514E44B
:100A1D009513F513D3E51494E7E51364809483409F
:100A2D00067513037514E7AC13AD147B037F011228
:100A3D0023A490004F8034D3E51494E7E51364802C
:100A4D00948340067513037514E7AC13AD147B0343
:100A5D00E4FF1223A490004EE02410F090006EE00D
:100A6D00FD7B027F031225A9900051E02410F09028
:100A7D00004CE0FD7B037F051225A9804B90004DB6
:100A8D007401F0900071801190004D7402F090008F
:100A9D004AE090004FF090006FE0FCA3E0FD7B0476
:100AAD007F04802190004D7403F090001BE0FCA3A7
:100ABD00E0FD7B027F021223A4900000E0FCA3E086
:100ACD00FD7B027F061223A490004DE0FFA3E0FD05
:100ADD00A3E0FBA3E0F518A3E0F519A3E0F51AA335
:100AED00E0F51BA3E0F51C1225EBE4FF122410EF3B
:100AFD006401604AE4FB90004CE0D3940040010B8C
:100B0D00900055E0600343030290006EE0FF7E000D
:100B1D007C007D0A12019DC3900075E09FEE6480FC
:100B2D00F8900074E0648098400343030490004AF9
:0E0B3D00E0D394015003430308AF03122714C2
:010B4B002287
:1019F20012000378097C007D007E007F0A12011626
:101A0200900071E50DF0A3E50EF090006FE50FF088
:101A1200A3E510F0C3E50E9401E50D94005006A372
:101A2200E4F0A304F0D3900072E094FE900071E021
:101A3200940340077403F0A374FEF0900071E0FE7B
:101A4200A3E0FF121EBF900074EEF0A3EFF090002F
:101A52006FE0FEA3E0FF12236B90004AEFF0051E39
:101A6200E51EC394054009E4F51E1218AB121CD5FD
:101A72001209DD900049E004F0C3940A4002E4F048
:0A1A8200900049E0B405031210C003
:011A8C002237
:04252F00E0FD7B024E
:10253300AE031BEE601FED75F00A84E5F02430FE58
:10254300EF2B241EF582E43400F583EEF0ED75F0F5
:062553000A84FD80DB227A
:10153F001226CFEF60030215F49000027F011225EF
:10154F002F90001A7F0412252F90001DE0FD7B02C3
:10155F007F07122533900074E0F50EA3E0F50FC35B
:10156F00E50E6480948050047F2D80027F2B9000C5
:10157F002AEFF0C3E50E64809480500BC3E4950FFF
:10158F00F50FE4950EF50ED3E50F94E7E50E6480A5
:10159F0094834006750E03750FE7AE0EAF0F7C00F8
:1015AF007D64120204AD077B017F0D122533AE0E51
:1015BF00AF0F7C007D641202047B027F0E12253375
:1015CF0090004AE0FD7B017F1212253390004CE022
:1015DF00FD7B037F151225337B017A00791E7D2B4E
:0515EF007C00122581C3
:0115F40022D4
:1010C0001226CFEF60030211AE900071E0FEA3E0A4
:1010D000FBAA067C007D0AFF1201AFED24309000D0
:1010E0000DF07C007D0AAF03AE021201AFAA06AB81
:1010F000077C007D0A1201AFED243090000CF07CDB
:10110000007D0AAF03AE021201AFAA06AB077C0056
:101110007D0A1201AFED243090000BF07C007D0AB7
:10112000AF03AE021201AF7C007D0A1201AFED24C5
:101130003090000AF090006FE0FAA3E0FB7C007DA5
:101140000AFFAE021201AFED2430900016F07C00D1
:101150007D0AAF03AE021201AFAA06AB077C007D89
:101160000A1201AFED2430900015F07C007D0AAF2B
:1011700003AE021201AFAA06AB077C007D0A120182
:10118000AFED2430900014F07C007D0AAF03AE0276
:101190001201AF7C007D0A1201AFED2430900013E4
:0E11A000F07B017A0079037D167C0012258118
:0111AE00221E
:1020780012270778097C007D007E007F0512011673
:1020880090004BE50DF090001DE004F0C3943C4037
:102098001AE4F090001AE004F0943C400EE4F0904A
:1020A8000002E004F094184002E4F012153F90009A
:0F20B8004BE0600B7D037C007FA07E0F121DD0DC
:0120C70022F6
:10222D00E4FF122270BF0112E51D045403F51D7D5C
:10223D00037C007FB87E0B121DD07F01122270BF70
:10224D000120900073E0B4FF047F6480027FFF9053
:10225D000073EFF01218AB7D057C007FD07E071266
:03226D001DD0225F
:10146C007F011221A3EF6401703390001904F090F6
:10147C000055E0701DFF122410EF640160147B40D6
:10148C007A007D14E4FF121758BF020690005574C1
:10149C0001F07D037C007FB87E0B121DD07F0412FF
:1014AC0021A3EF6401703490001904F0900055E012
:1014BC00B4011DE4FF122410EF640160137BC07AA9
:1014CC00FF7D14E4FF121758BF0205E4900055F09D
:1014DC007D037C007FD07E07121DD07F051221A3D7
:1014EC00BF011790006EE0C394285003E004F07D18
:1014FC00037C007FAC7E0D121DD07F021221A3BF96
:10150C00011790006EE0D3940A4003E014F07D03C1
:10151C007C007FC47E09121DD07F031221A3BF0162
:10152C0011E4F51D900019F07D03FC7FA07E0F12D5
:03153C001DD0229D
:100D9F001226287D07E4FF1226E312260B1225CB1D
:100DAF001226437F981224427F011223DA751964A9
:100DBF00E4FB7D64FF121BBA750D027F807E257DDB
:100DCF00007C001215F5750E00750F00751000E40C
:100DDF00F511F5127B017A0079567D08FC12247308
:100DEF00E4F508E5089019AF93FF741E2508F58206
:100DFF00E43400F583EFF00508E508B42BE5900027
:100E0F00407431F0A314F0E4F508E5089019DB9372
:100E1F00FF74032508F582E43400F583EFF005082D
:050E2F00E508B416E522
:100E3400E4900002F090001AF090001DF090004938
:100E4400F090004CF0900055F0900019F090004B99
:100E5400F090001BF0A3F0900000F0A3F090007459
:100E6400F0A3F090004AF0900071F0A3F090006FAE
:100E7400F0A3F07F807E25FDFC121E487BFF7A19CB
:100E840079F27F02121D537BFF7A2079787F031257
:100E94001D537BFF7A22792D7F04121D537BFF7A29
:100EA40014796C7F07121D537BFF7A0F79CA7F0A6E
:0B0EB400121D5312271A12232D80FB81
:0926DA008B88898C88898F88891E
:100EC7005200F08686008686008686008686008623
:090ED70086008686004100E50951
:03002B0002270E9B
:06270E0053BCEFD20F32B4
:02083100154A66
:10083300200F030209DAC20F9000E4E0B40900407C
:10084300030209BC90084EF8282873020895020891
:100853006902087B0208A702086902087B0208BE36
:1008630002086902087BAFBDEFFEADBE7C00E42D3C
:10087300FFEC3E9000E6803CAFBDEFFEADBE7C00DA
:10088300E42DFFEC3E9000E8F0A3EFF07544010285
:1008930009C2AFBDEFFEADBE7C00E42DFFEC3E9080
:1008A30000EA8010AFBDEFFEADBE7C00E42DFFEC8F
:1008B3003E9000ECF0A3EFF00209C2AFBDEFFEAD36
:1008C300BE7C00E42DFFEC3E9000EEF0A3EFF09031
:1008D30000EEE0FEA3E07807CEC313CE13D8F9A849
:1008E3004AF6C394065013A84AE675F003A424F00D
:1008F300F582E43400F583E014F09000E5E014F0B1
:1009030060030209C27409F0A84AE4F6A84AE6FFA4
:10091300C3940640030209C2EF75F003A424F0F563
:1009230082E43400F583E0C39480502AE6FF75F037
:1009330003A424F1F582E43400F583E0D3948040EA
:1009430040EF75F003A424F2F582E43400F58374D8
:1009530001F0F545802BA84AE6FF75F003A424F1C6
:10096300F582E43400F583E0C394805014EF75F00E
:1009730003A424F2F582E43400F5837402F0754590
:1009830001A84AE6FF75F003A424F0F582E43400DD
:10099300F583E0FEEF75F003A424F1F582E434005F
:1009A300F583EEF0E675F003A424F0F582E4340059
:1009B300F5837486F00602090F9000E474FFF0904B
:1009C30000E4E0D39407400374FFF09000E4E004F4
:0709D300F09026DA93F5BC59
:0309DA00054A22A9
:02269A00154ADF
:09269C00A84AA645E4F545E6FF55
:0326A500054A22C1
:0226A800154AD1
:0926AA00A84AA644E4F544E6FF49
:0326B300054A22B3
:102442008F9D75BC88439720D2AD9000BB74FFF07E
:10245200A37408F0A37431F0A374FFF0A37426F000
:10246200A3749AF0A374FFF0A37426F0A374A8F0E7
:012472002247
:070003007B017A0079E6227F
:1021A300C3EF64809480403BD3EF648094855033C5
:1021B300EFFD3395E0FC9000F275F003ED1203D9C7
:1021C300EC75F003A42583F583E0FE9000F275F02F
:1021D30003ED1203D9EC75F003A42583F583E4F032
:0521E300AF06227F039E
:0121E80022D4
:04255900154A154AC0
:10255D001226ECA84AA60608A607A84AE6FE08E633
:0F256D00FF4E600BEF24FFFFEE34FFFE1226F54A
:05257C00054A054A229A
:1025CB0053B1EF43B21012003EE4F5D975DA49D29C
:1025DB00DE9000B574FFF0A37425F0A37459F022BC
:081DD0008E0E8F0F8C108D1197
:101DD8001226ECEF4E7066AF11AE101226F5C3E571
:101DE8000F940AE50E9400404BE47B18FAF9F8903A
:101DF800194F1203BD1202F1C006C007AE0EAF0F95
:101E0800AB07AA06E4F9F8D007D0061202F1AB072F
:101E1800AA06AFF9EFFEADE97C00E42DFFEC3ECF5A
:101E28002BCF3AAD07FCAF03AE0212265BD2D843E4
:0F1E3800DA01800612003E53DAFE7F02227F039A
:011E47002278
:0C002E001226ECEF4E7002FF227F012230
:10129C00E4F58090014DE0FFB40800505F9012B06F
:1012AC00F82828730212C80212CE0212D40212DAE3
:1012BC000212E00212EA0212F40212FEC2A3C2A24D
:1012CC008016C2A3C2A2801AC2A3C2A2801EC2A34D
:1012DC00C2A28022C2A3D2A2C2A1C2A08020C2A359
:1012EC00D2A2C2A1D2A08016C2A3D2A2D2A1C2A065
:1012FC00800CC2A3D2A2D2A1D2A08002D2A3C3EFEF
:10130C0064809488502990014DE0FF3395E0FE7481
:10131C00442FF58274013EF583E0FF3395E0FE74B3
:10132C00532FF58274193EF583E493F580801E905B
:10133C00014DE0FFB408133395E0FE74442FF582A1
:10134C0074013EF583E0F5808003E4F58090014361
:10135C00E0FF90014DE004FEF0D3EF6480F8EE6402
:10136C0080984014E0D36480948850047408F02270
:09137C00900142E090014DF022C5
:10262800E4F5937594FF5395F043960F9000A074CA
:0B263800FFF0A37412F0A3749CF022CA
:0926E300900142EFF0A3EDF0229A
:1025EB00900144EFF0A3EDF0A3EBF0A3E518F0A3FB
:1025FB00E519F0A3E51AF0A3E51BF0A3E51CF02207
:0627140090014CEFF022E1
:100EE000011F0049015A9494009494009494004185
:030EF00001591E87
:020C7C00154A17
:100C7E0020B20690015AE014F020B30690015DE018
:100C8E0014F0209706900160E014F0900159E014E2
:100C9E00F06003020D9C741EF0A84AE4F6A84AE622
:100CAE00FFC3648094834003020D9CEF3395E0FEF6
:100CBE0090015A75F003EF1203D9EE75F003A425D7
:100CCE0083F583E0C39480503990015B75F003EF98
:100CDE001203D9EE75F003A42583F583E0D3948037
:100CEE00405AE6FF3395E0FE90015C75F003EF127B
:100CFE0003D9EE75F003A42583F5837401F0F51F77
:100D0E00803AA84AE6FF3395E0FE90015B75F0034A
:100D1E00EF1203D9EE75F003A42583F583E0C39497
:100D2E0080501990015C75F003EF1203D9EE75F047
:100D3E0003A42583F5837402F0751F01A84AE6FF0C
:100D4E00FD3395E0FC90015A75F003ED1203D9ECDA
:100D5E0075F003A42583F583E0FE90015B75F00327
:100D6E00ED1203D9EC75F003A42583F583EEF0EFB5
:100D7E003395E0FE90015A75F003EF1203D9EE752C
:0E0D8E00F003A42583F5837494F006020CABE9
:030D9C00054A22E3
:0226B600154AC3
:0926B800A84AA61FE4F51FE6FF85
:0326C100054A22A5
:10260B009000A674FFF0A37426F0A374B6F09000AC
:0D261B00A374FFF0A3740CF0A3747CF022F4
:10227000EF600764016003BF0233EFFD3395E0FCBC
:1022800090015C75F003ED1203D9EC75F003A42501
:1022900083F583E0FE90015C75F003ED1203D9EC49
:0F22A00075F003A42583F583E4F0AF06227F03D6
:0122AF00220C
:100EF3005501030000000000000000000000000096
:0C0F03000000000000000000410102009E
:0203EB00154AB1
:1003ED00A84AE4F6A84AE6FFC3648094834003025A
:1003FD00065CEF3395E0FE90010375F007EF1203F5
:10040D00D9EE75F007A42583F583E0FCA3E04C70CD
:10041D000302065690010575F007EF1203D9EE752C
:10042D00F007A42583F583E0FEA3E04E70030206DA
:10043D0056E6FFFD3395E0FC90010775F007ED12D0
:10044D0003D9EC75F007A42583F58374FFF5F0123D
:10045D00023A45F0600302065690010575F007ED6E
:10046D001203D9EC75F007A42583F583E0FAA3E018
:10047D00FB90010775F007ED1203D9EC75F007A499
:10048D002583F583EAF0A3EBF0EF3395E0FE9001C1
:10049D000375F007EF1203D9EE75F007A42583F568
:1004AD0083E0FCA3E0D39400EC648094804056A8D4
:1004BD004AE6FD3395E0FC90010375F007ED12035C
:1004CD00D9EC75F007A42583F58374FFF5F01202BE
:1004DD003A90010975F007ED1203D9EC75F007A4F8
:1004ED002583F583E004F0D36480948340729001FA
:1004FD000975F007EF1203D9EE75F007A42583F502
:10050D0083E4F0805BA84AE6FFFD3395E0FC9001A3
:10051D000375F007ED1203D9EC75F007A42583F5EB
:10052D0083E475F00112023A90010975F007ED129E
:10053D0003D9EC75F007A42583F583E014F0C364AB
:10054D00809480501BEF3395E0FE90010975F00704
:10055D00EF1203D9EE75F007A42583F5837403F02C
:10056D00A84AE6FFFD3395E0FC90010975F007ED13
:10057D001203D9EC75F007A42583F583E014603CD4
:10058D001460661470030206232403600302064EF2
:10059D00EF1460101460192402600302064ED2C1DC
:1005AD00C2C28029900102E054F04401F002064ECF
:1005BD00900102E0540F4410F002064EA84AE614D2
:1005CD00601114601924027078C2C1D2C2C2C3C2B4
:1005DD00C4806E900102E054F04402F080639001FB
:1005ED0002E0540F4420F08058A84AE6146011141C
:1005FD0060192402704BC2C1C2C2D2C3C2C48041B1
:10060D00900102E054F04404F08036900102E05471
:10061D000F4440F0802BA84AE61460111460192491
:10062D0002701EC2C1C2C2C2C3D2C48014900102E4
:10063D00E054F04408F08009900102E0540F44802A
:0F064D00F0900102E0FF122714A84A060203F101
:03065C00054A222A
:1026430053B3E143B41E53C0E19000CA74FFF0A337
:082653007403F0A374EBF02204
:101758008F15EF3395E0FE90010375F007EF120344
:10176800D9EE75F007A42583F583E0FEA3E04E606B
:1017780003021800E515600A64016006E5156402B5
:101788007076ED60737C007E037FE81201AFAD15C3
:10179800ED3395E0FC90010575F007ED1203D9ECE7
:1017A80075F007A42583F583EEF0A3EFF09001050B
:1017B80075F007ED1203D9EC75F007A42583F583BE
:1017C800E0FEA3E0FF90010775F007ED1203D9ECE6
:1017D80075F007A42583F583EEF0A3EFF0900103DD
:1017E80075F007ED1203D9EC75F007A42583F5838E
:0B17F800EAF0A3EBF07F02227F032247
:10211400EF600764016003BF023AEFFD3395E0FC12
:1021240090010375F007ED1203D9EC75F007A425AF
:1021340083F583E0FAA3E0FB90010375F007ED1249
:1021440003D9EC75F007A42583F583E4F0A3F0AE7E
:0721540002AF0322E4FEFFCD
:01215B002261
:10241000EF600764016003BF0225EF3395E0FE9093
:10242000010375F007EF1203D9EE75F007A42583B9
:10243000F583E0FEA3E04E60037F01227F00227F50
:02244000032275
:100F0F004100760A41009F0A4100E30A04280000CD
:100F1F000000012E004600DD0000FFFF8FFFC10D16
:100F2F00C105C108C101C10E6024007BFF000AFF8B
:100F3F00000AFF000AFF000AFF000AFF000AFF0075
:100F4F000AFF000AFF000AFF000AFF000AFF000A5B
:100F5F00603600A0FF000AFF000AFF0026FF000A0C
:100F6F00FF0026FF000AFF0026FF000AFF000AFF0E
:100F7F00000AFF0026FF0026FF0026FF0026FF00C5
:0A0F8F000AFF000AFF000AFF000A33
:01000A0022D3
:030026007F002236
:10215C00438E805389F07BE07A28790178009019BE
:10216C004F1203BD1221E9EFF404F58A7BE07A28C3
:10217C007901780090194F1203BD1221E9C3E49F35
:10218C00FFE49EFE74019DFDE49CFC78081203960E
:07219C008F8CD28CD2A92226
:03000B00022026AA
:04202600C0E0C0D086
:10202A00D5220A75224C300D02052ED20DA203725A
:10203A000450361524E5247030852624D207300A48
:10204A0017E52760071527438F01801D538FFEC2AE
:10205A00B5D53015C20A80110525E525D394064069
:09206A0008C203E52D6002D20654
:05207300D0D0D0E032E6
:101FD300300E47C20E90194F1203BD7810120396AC
:101FE3008E468F47900079E0FEA3E0FFE4FCFD7B83
:101FF30019FAF9F8120266C006C007AE46AF47AB3E
:1020030007AA06E4F9F8D007D0061221E9780312EB
:1020130003969000DBEEF0A3EFF09000DBE0FEA36D
:02202300E0FFDC
:012025002298
:0926EC009000DDE0FEA3E0FF22F6
:0926F5009000DDEEF0A3EFF022ED
:10265B009000E1EEF0A3EFF09000DFECF0A3EDF0D3
:01266B00224C
:03003E00C2B42227
:03003B00021803A5
:10180300C0E0C083C082C0D075D000C004C005C092
:0318130006C00705
:1018160030DF04C2DF807D30DA04C2DA807630D968
:101826003DC2D9AFFBEFFEADEB7C00E42DFFEC3EF5
:1018360020000E900077F0A3EFF075DB11D2008048
:1018460053FE900077E0FCA3E0FDC3EF9DFFEE9C06
:10185600A3F0A3EFF075DB00C200D20E803630D8BD
:1018660033C2D89000DDE07002A3E06022B2B490EB
:1018760000DFE0FEA3E0F5EAEEF5FAA3E0FEA3E062
:10188600FF9000E0E02FF09000DFE03EF08005C220
:04189600B453DAFE6F
:10189A00D007D006D005D004D0D0D082D083D0E0F3
:0118AA00320B
:06271A0012215CD2AF2287
:101C4A003004047F0180027F00200A047E018002A2
:101C5A007E00EE5F6074E52FC3952350683002362C
:101C6A00752701E52F131313541FAB31AA32A93379
:101C7A00F58275830012013CFFE52F540704FEEF3D
:101C8A00A806088002C333D8FC30D7057530038014
:101C9A002F753001802AAB31AA32A93375F002E5DB
:101CAA002FA4F58285F08312013CF527E52F75F004
:101CBA0002A429F9EA35F0FA90000112013CF53044
:0A1CCA00052FD20A22C204438F1036
:011CD40022ED
:1011AF00900076E014F0701F740AF0D20590009F43
:1011BF00E014F07012740AF0D2089000E3E014F01B
:1011CF007005740AF0D2019000A0A3E0FAA3E0F931
:1011DF001203E59000A3A3E0FAA3E0F91203E59050
:1011EF0000AFA3E0FAA3E0F91203E59000BBA3E080
:1011FF00FAA3E0F91203E59000CAA3E0FAA3E0F91D
:10120F001203E59000D3A3E0FAA3E0F91203E590EF
:10121F0000C1A3E0FAA3E0F91203E5EF600C900020
:10122F0093A3E0FAA3E0F91203E59000C4A3E0FA58
:10123F00A3E0F91203E5EF600E900096A3E0FAA386
:10124F00E0F91203E5D20BE52CD394004016D52C10
:10125F003030090C900099A3E0FAA3E0F91203E5EE
:10126F00D20C801D9000C7A3E0FAA3E0F91203E5AA
:10127F00EF600E900099A3E0FAA3E0F91203E5D214
:0D128F000C90007BA3E0FAA3E0F90203E558
:101B27009000B5A3E0FAA3E0F91203E59000B8A38B
:101B3700E0FAA3E0F91203E59000A9A3E0FAA3E015
:101B4700F91203E590007EA3E0FAA3E0F91203E59A
:101B57009000A6A3E0FAA3E0F91203E5EF600C906A
:101B67000087A3E0FAA3E0F91203E59000ACA3E035
:101B7700FAA3E0F91203E5EF600C90008DA3E0FAF9
:101B8700A3E0F91203E59000BEA3E0FAA3E0F9127F
:101B970003E5EF600C900090A3E0FAA3E0F91203CD
:101BA700E530060EC20690009CA3E0FAA3E0F91206
:031BB70003E52221
:1022B000900081A3E0FAA3E0F91203E59000B2A335
:1022C000E0FAA3E0F91203E5EF600C90008AA3E0C6
:1022D000FAA3E0F91203E59000CDA3E0FAA3E0F938
:0F22E0001203E59000D0A3E0FAA3E0F90203E5B2
:10250400AF2BAE2AAD29AC289000D61203CD900093
:10251400DAE52EF0E4F52BF52AF529F528F52E90C9
:0B2524000084A3E0FAA3E0F90203E545
:10232D00300705C207121C4A300D05C20D1211AF40
:10233D00300505C205121B27300805C2081222B050
:10234D00300105C201122504E52B2401F52BE435DE
:0E235D002AF52AE43529F529E43528F5282249
:101D53008B098A0A890BEFB40C005070901D66F84A
:101D6300282873021D8A021D8F021D94021D9902E9
:101D73001D9E021DA3021DA8021DAD021DB2021D60
:101D8300B7021DBC021DC190007B803590007E8090
:101D930030900081802B90008480269000878021E2
:101DA30090008D801C90008A801790009080129084
:101DB3000093800D90009680089000998003900016
:0D1DC3009CE509F0A3E50AF0A3E50BF02272
:072707007B017A0079D62264
:101BBA008B18AA077C007E037FE81201AF900155BB
:101BCA00EEF0A3EFF0E519FD7C007E037FE8120139
:101BDA00AFA3EEF0A3EFF0AF02AB07E4FAF9F89087
:101BEA000155E0FEA3E0FFE4FCFD120266EF243299
:101BFA00FFE43EFEE43DFDE43CFCE47B64FAF9F8D4
:101C0A001221E990014FEEF0A3EFF0AF18AB07E411
:101C1A00FAF9F8900157E0FEA3E0FFE4FCFD120296
:101C2A0066EF2432FFE43EFEE43DFDE43CFCE47B47
:101C3A0064FAF9F81221E9900151EEF0A3EFF022CB
:101F7A00E4F50CF50BF50AF509F50DD291AF0CAEA7
:101F8A000BAD0AAC0978011203AA8F0C8E0B8D0ACD
:101F9A008C0900C291309015E4FAF9F8EF2401F5A2
:101FAA000CEA3EF50BE93DF50AE83CF509050DE5B5
:101FBA000DB418C700D2910000C291AF0CAE0BADA0
:081FCA000AAC09780812039625
:011FD20022EC
:0926FE00900153E0FEA3E0FF226D
:0F266C00900153E0FEA3E0FFE4900153F0A3F0D0
:01267B00223C
:1013850090014EE0700F30900122121F7A900153A8
:10139500EEF0A3EFF090014EE0FF64017062053FAF
:1013A500E53F7002053EFDD3900156E09D90015545
:1013B500E0953E5005E4F53EF53FD3900150E095AC
:1013C5003F90014FE0953E4004D2908002C29005C7
:1013D50041E54170020540FDD3900158E09D900123
:1013E50057E095405005E4F540F541D3900152E0B2
:1013F5009541900151E095404004D2918002C291FF
:10140500EF6402703E2090047F0180027F00E54278
:1014150060047E0180027E00EE5F602130911090B5
:101425000154E004F07016900153E004F0800E9032
:101435000154E024FFF0900153E034FFF0A290E462
:1014450033F54290014EE0B4031CE5437002D2919E
:10145500E543B40105C29175DB210543E543C3941A
:06146500C84003E4F5435A
:01146B00225E
:1023DA0090014EEFF07004C2918002D29190014EAA
:1023EA00E0B40310E5A254CFF5A2E4F5D975DB01F8
:1023FA00D2DE8003E4F5DB9000D374FFF0A37413FC
:06240A00F0A37485F0222E
:100F990055011800000000000000000000000000DA
:080FA90000000100000000003F
:0300430002065F53
:10065F00C0E0C0F0C083C082C0D075D000C000C061
:10066F0001C002C003C004C005C006C007E59A3030
:10067F00E142539AFD90011DE0FEA3E0FFC39001FC
:10068F001CE09F90011BE09E501F900118E0FBA300
:10069F00E0FAA3E0F9A3E475F00112025085F082AD
:1006AF00F58312013CF59B800B90011FE4F0E549A7
:1006BF006002C2B7E59A20E003020816539AFE3093
:1006CF000C0BC20C900125E4F0A3F0D209E54964AC
:1006DF00026003020770900123E0FEA3E0FFA3E096
:1006EF00FCA3E0FDC39FEC9E5071900120E0FBA3A3
:1006FF00E0FAA3E0F98D828C83E59B12017B9001D8
:10070F002BE0FEA3E0FFC3ED9FEC9E504090012332
:10071F00E0FCA3E0FDEF9DEE9C5032900128E0FB42
:10072F00A3E0FAA3E0F9900125E0FEA3E0FFF58234
:10073F008E8312013CFD900120E0FBA3E0FAA3E0C1
:10074F00F98F828E8312013C6D6002C209900126DF
:10075F00E004F07006900125E004F085482C0208B3
:10076F0016900123E0FEA3E0FFA3E0FCA3E0FDC38E
:10077F009FEC9E5077900120E0FBA3E0FAA3E0F9F5
:10078F008D828C83E59B12017B90012BE0FEA3E011
:10079F00FFC3ED9FEC9E5046900123E0FCA3E0FDCC
:1007AF00EF9DEE9C5038900128E0FBA3E0FAA3E008
:1007BF00F9900125E0FEA3E0FFF5828E8312013C44
:1007CF00FD900120E0FBA3E0FAA3E0F98F828E8376
:1007DF0012013C6D600890012574FFF0A3F09001A9
:1007EF0026E004F07006900125E004F0900123E06C
:1007FF00FEA3E0FFC3900126E09F900125E09E40FD
:10080F00069001277401F0D007D006D005D004D090
:10081F0003D002D001D000D0D0D082D083D0F0D07E
:02082F00E032B5
:02267C00154AFD
:0A267E00900127E0A84AF6FFE4F0FF
:03268800054A22DE
:0100210022BC
:1015F5008F0C8E0B8D0A8C09850D49E5497002808B
:101605000343BA01E54970179000D374FFF0A37442
:1016150000F0A37421F0E4F5DBD290D2918020C2D2
:10162500B7AB0CAA0BA90AA809E47F407E9CFDFC78
:101635001202F18F48E548700375480185482C75FD
:101645009A10E47B04FAF9F890194F1203BD1202BF
:10165500F1AB0CAA0BA90AA8091202F1EFF404F5E3
:10166500D7E47B04FAF9F890194F1203BD1202F181
:10167500AB0CAA0BA90AA8091202F1C3E49FFFE467
:101685009EFE74019DFDE49CFC78081203838FD6B1
:10169500438E1443AF019000C774FFF0A37426F086
:0516A500A3747CF0229B
:10247300900120EBF0A3EAF0A3E9F0A3ECF0A3EDC5
:10248300F090012BE511F0A3E512F0900128E50E81
:10249300F0A3E50FF0A3E510F0D20CE4900127F0D0
:0124A3002216
:1024D50090011FE07026900118EBF0A3EAF0A3E944
:1024E500F0E4A3F0A3F0A3ECF0A3EDF0A37401F0E6
:0F24F500E5496002D2B7439A027F02227F032299
:0B26C40090011FE07002FF227F012246
:100FB10055012D00000000000000000000000000AD
:080FC100000001000000000027
:03002300020B4C81
:100B4C00C0E0C0F0C083C082C0D075D000C000C06F
:100B5C0001C002C003C004C005C006C00730993BE9
:100B6C00C299900132E0FEA3E0FFC3900131E09FF7
:100B7C00900130E09E501F90012DE0FBA3E0FAA302
:100B8C00E0F9A3E475F00112025085F082F58312AE
:100B9C00013CF5998005900134E4F0209803020C97
:100BAC0061C298300B09C20B90013AE4F0A3F090AB
:100BBC000138E0FEA3E0FFA3E0FCA3E0FDC39FEC43
:100BCC009E5077900135E0FBA3E0FAA3E0F98D820B
:100BDC008C83E59912017B900140E0FEA3E0FFC3FA
:100BEC00ED9FEC9E5046900138E0FCA3E0FDEF9D9C
:100BFC00EE9C503890013DE0FBA3E0FAA3E0F990A5
:100C0C00013AE0FEA3E0FFF5828E8312013CFD90D9
:100C1C000135E0FBA3E0FAA3E0F98F828E83120189
:100C2C003C6D600890013A74FFF0A3F090013BE03A
:100C3C0004F0700690013AE004F0900138E0FEA355
:100C4C00E0FFC390013BE09F90013AE09E4006908C
:100C5C00013C7401F0D007D006D005D004D003D0ED
:100C6C0002D001D000D0D0D082D083D0F0D0E032EE
:02268B00154AEE
:0A268D0090013CE0A84AF6FFE4F0DB
:03269700054A22CF
:101E48008F0C8E0B8D0A8C09759850438E40538EDB
:101E5800FE53890FE47B04FAF9F890194F1203BD79
:101E68001202F1AB0CAA0BA90AA8091202F1EFF4AD
:101E780004F58BE47B04FAF9F890194F1203BD12AC
:101E880002F1AB0CAA0BA90AA8091202F1C3E49F3C
:101E9800FFE49EFE74019DFDE49CFC780812038318
:101EA8008F8DC2ABD28ED2AC9000C474FFF0A374F5
:071EB80026F0A3748BF02259
:1024A400900135EBF0A3EAF0A3E9F0A3ECF0A3ED7F
:1024B400F0900140E53CF0A3E53DF090013DE539A5
:1024C400F0A3E53AF0A3E53BF0D20BE490013CF035
:0124D40022E5
:10258100900134E0701F90012DEBF0A3EAF0A3E974
:10259100F0E4A3F0A3F0A3ECF0A3EDF0A37401F039
:0825A100D2997F02227F032280
:0B26CF00900134E07002FF227F012226
:03000000021A8D54
:101A8D00787FE4F6D8FD9000007F007E07E4F0A398
:0A1A9D00DFFCDEFA75814A021AE24E
:101AA700020D9FE493A3F8E493A34003F68001F2A9
:101AB70008DFF48029E493A3F85407240CC8C33340
:101AC700C4540F4420C8834004F456800146F6DF0F
:101AD700E4800B0102040810204080900EBFE47ED2
:101AE700019360BCA3FF543F30E509541FFEE49304
:101AF700A360010ECF54C025E060A840B8E493A3CB
:101B0700FAE493A3F8E493A3C8C582C8CAC583CAF5
:101B1700F0A3C8C582C8CAC583CADFE9DEE780BEAD
:010FC9000027
:10004600E709F608DFFA8046E709F208DFFA803E9C
:1000560088828C83E709F0A3DFFA8032E309F60889
:10006600DFFA8078E309F208DFFA807088828C83F1
:10007600E309F0A3DFFA806489828A83E0A3F608A5
:10008600DFFA805889828A83E0A3F208DFFA804C7F
:1000960080D280FA80C680D4806980F28033801056
:1000A60080A680EA809A80A880DA80E280CA8033BF
:1000B60089828A83ECFAE493A3C8C582C8CCC58337
:1000C600CCF0A3C8C582C8CCC583CCDFE9DEE78007
:1000D6000D89828A83E493A3F608DFF9ECFAA9F086
:1000E600EDFB2289828A83ECFAE0A3C8C582C8CCDC
:1000F600C583CCF0A3C8C582C8CCC583CCDFEADEF5
:10010600E880DB89828A83E493A3F208DFF980CC56
:1001160088F0EF60010E4E60C388F0ED2402B4044F
:100126000050B9F582EB2402B4040050AF232345F6
:0601360082239000967385
:10013C00BB010CE58229F582E5833AF583E0225078
:10014C0006E92582F8E622BBFE06E92582F8E222C2
:0D015C00E58229F582E5833AF583E49322DC
:10016900BB010689828A83F0225002F722BBFE0175
:02017900F3226F
:10017B00F8BB010DE58229F582E5833AF583E8F0BA
:10018B00225006E92582C8F622BBFE05E92582C866
:02019B00F2224E
:10019D00EF8DF0A4A8F0CF8CF0A428CE8DF0A42E76
:0201AD00FE2230
:1001AF00BC000BBE0029EF8DF084FFADF022E4CC34
:1001BF00F875F008EF2FFFEE33FEEC33FCEE9DECFD
:1001CF00984005FCEE9DFE0FD5F0E9E4CEFD22ED43
:1001DF00F8F5F0EE8420D21CFEADF075F008EF2F8D
:1001EF00FFED33FD4007985006D5F0F222C398FD7E
:0501FF000FD5F0EA221B
:10020400C2D5EC30E709B2D5E4C39DFDE49CFCEE15
:1002140030E715B2D5E4C39FFFE49EFE1201AFC3DD
:10022400E49DFDE49CFC80031201AF30D507C3E4D8
:060234009FFFE49EFE2284
:10023A00C5F0F8A3E028F0C5F0F8E582158270024F
:06024A001583E038F022EC
:10025000A3F8E0C5F025F0F0E58215827002158361
:06026000E0C838F0E822BE
:10026600E88FF0A4CC8BF0A42CFCE98EF0A42CFC37
:100276008AF0EDA42CFCEA8EF0A4CDA8F08BF0A4B5
:100286002DCC3825F0FDE98FF0A42CCD35F0FCEB14
:100296008EF0A4FEA9F0EB8FF0A4CFC5F02ECD39D9
:0F02A600FEE43CFCEAA42DCE35F0FDE43CFC2246
:1002B50075F008758200EF2FFFEE33FECD33CDCC00
:1002C50033CCC58233C5829BED9AEC99E582984083
:1002D5000CF582EE9BFEED9AFDEC99FC0FD5F0D660
:1002E500E4CEFBE4CDFAE4CCF9A88222B800C1B98A
:1002F5000059BA002DEC8BF084CFCECDFCE5F0CBC8
:10030500F97818EF2FFFEE33FEED33FDEC33FCEB00
:1003150033FB10D703994004EB99FB0FD8E5E4F9BB
:10032500FA227818EF2FFFEE33FEED33FDEC33FCA8
:10033500C933C910D7059BE99A4007EC9BFCE99A9C
:10034500F90FD8E0E4C9FAE4CCFB2275F010EF2FE1
:10035500FFEE33FEED33FDCC33CCC833C810D707E1
:100365009BEC9AE899400AED9BFDEC9AFCE899F81C
:0E0375000FD5F0DAE4CDFBE4CCFAE4C8F922AF
:1021E900C2D5E830E70FB2D5E4C39BFBE49AFAE421
:1021F90099F9E498F8EC30E717B2D512221F1202C8
:10220900F1E4C39BFBE49AFAE499F9E498F88003B2
:102219001202F130D50DE4C39FFFE49EFEE49DFD5B
:04222900E49CFC2213
:10038300E8600FECC313FCED13FDEE13FEEF13FF58
:03039300D8F1227C
:10039600E86010ECA2E713FCED13FDEE13FEEF137D
:0403A600FFD8F0226A
:1003AA00E8600FEFC333FFEE33FEED33FDEC33FCB1
:0303BA00D8F12255
:1003BD00E493FC740193FD740293FE740393FF2286
:0C03CD00ECF0A3EDF0A3EEF0A3EFF022A3
:0C03D900A42582F582E5F03583F583222F
:0603E5008A838982E473A3
:00000001FF
