:1019540000A8C0003F065B4F666D7D077F6F0008DF
:1019640040014148BF86DBCFE6EDFD87FFEF07C6A8
:1019740004A4039D030E02AC0261022401F001C31E
:10198400019A017501530133011400F700DB00C013
:1019940000A5008A00700055003A001E0002FFE412
:1019A400FFC4FFA1FF7BFF4FFF1AFED6FE6BFCE1D5
:1019B4005B30303A30303A30305D20542B303030A8
:1019C400204C3020463030302044303030204130FC
:1019D400204F303020453030300D0A0043414C2038
:1019E40052543D3030303020524F503D3030303042
:0319F4000D0A00D9
:080EBF0041006E1C410073FFAD
:08000E00E0FEA3E0FFFDAC06DB
:0B001600EC120169ED90000102017B7B
:081F26008B108A1189128D1342
:101F2E0074FFF514F515E4FDEDC39513503EAB109B
:101F3E00AA11A9128D8275830012013C6215E4FC70
:101F4E00E51530E015E514C313FEE51513FFEE6439
:101F5E00A0F514EF6401F515800BE514C313F51409
:101F6E00E51513F5150CBC08D70D80BCAE14AF15D6
:011F7E002240
:0822F4008B0A8A0B890C8D0D89
:1022FC00C3E50D9402FD121F268E0E8F0FE50D7C8B
:10230C000024FEF582EC34FFF583AB0AAA0BA90C72
:10231C00EF12017BE50EFFE50D24FFF582EC34FF97
:06232C00F583EF02017BC6
:0820CD008D0D8B0A8A0B890CB2
:1020D500C3E50D9402FD121F268E0E8F0FE50DFD33
:1020E5007C0024FEF582EC34FFF583AB0AAA0BA92C
:1020F5000C12013C650F60037F002274FF2DF582F1
:1021050074FF3CF58312013CFDE50E6D60037F0015
:03211500227F0125
:0121180022A4
:041EC400AD07AC06B4
:101EC800D3ED94FFEC940340047C037DFFEDAE0456
:101ED8007805CEC313CE13D8F9FFED541FF9EF25BB
:101EE800E02472F582E43419F583E493FC740193D9
:101EF800FBAA04EF25E02474F582E43419F583E4A1
:101F080093FE740193C39BFFEE9AFEAD017C001211
:0D1F1800019D7D20120204EF2BFFEE3AFE2A
:011F25002299
:10237000C3EF9437EE94005004E4FD8029C3EF943A
:102380005FEE940050047D01801CC3EF9482EE94B4
:102390000050047D02800FC3EF94B4EE940050040B
:0823A0007D0380027D04AF05FE
:0123A8002212
:1018B000900073E0FFD3946450048F13807E9000F7
:1018C0006EE0FF7E007C007D0A12019DC3900075D2
:1018D000E09FFF900074E09EFE90004CE07012C309
:1018E000EE6480948040047D1E80027D008D138014
:1018F00013C3EF94F6EE6480947F40047D1E800253
:101900007D008D13E5136034D3EF9400EE64809472
:03191000804029EB
:101913007C007D0712019D7D0A1202048E148F152F
:10192300D3E5159446E5146480948040067514004D
:09193300751546E515241EF51397
:10193C0090004CE06513600FE513F0751964E4FB3F
:07194C007D64AF13121BBF05
:011953002271
:101CDA0090006EE0FF7E007C007D0A12019DC39099
:101CEA000075E09FF514900074E09EF513900019BA
:101CFA00E0705AE4FF122415EF6401605090005519
:101D0A00E07023C3E514941EE513648094804016A2
:101D1A007B407A007D14E4FF12175DEF6402702D98
:101D2A0090005504F022900055E0B40120D3E51448
:101D3A0094F6E5136480947F50137BC07AFF7D1478
:0D1D4A00E4FF12175DBF0205E4900055F0A4
:011D57002269
:0216AA00AB078C
:1016AC00E4FA90004CE0D3940040010A900055E01D
:1016BC00600343020290006EE0FF7E007C007D0A16
:1016CC0012019D900074E0FCA3E0FDC39FEE6480CA
:1016DC00F8EC648098400343020490004AE0D394F1
:1016EC00015003430208900073E0D3946450034309
:1016FC000210900019E0600343022090005E740217
:10170C00F0A3EBF0A3740BF0A3EAF07B017A007961
:10171C006212001690004AE0900064F090004CE0D9
:10172C00900065F07A00796690007112000E7A00D4
:10173C00796890006F12000E90004BE090006AF0F8
:10174C0090006EE090006BF07A00795E7D100222C2
:01175C00F498
:100FCA00900056E0640260030210BF7B017A007948
:100FDA00567D081220CDEF700F900001E004F070EA
:100FEA0006900000E004F02290001CE004F0700675
:100FFA0090001BE004F0900057E024FA602924F6E0
:10100A00600C240D60030210BF7F030210AF900032
:10101A0058E0FFC3940A400BEFD394285005900080
:10102A006EEFF07F10807E900058E0FFD39464400A
:10103A0004EFB4FF0A900073EFF01218B0806490C6
:10104A000058E0B4FE0AE4900019F0121CDA80534A
:0E105A00900058E0FF64FD6005EF64FC7045F7
:10106800900058E0B4FD047F0180027F008F099052
:1010780000197401F0900055E065096028E4FF123A
:101088002415EF6401601EE50960067A007B408044
:10109800047AFF7BC07D14E4FF12175DBF0206903F
:0510A8000055E509F010
:1010AD007F061216AA7B017A00795E7D107C0012F4
:0310BD0024DA2210
:1025AE00AE031BEE601BED75F00A84EF2B244DF588
:1025BE0082E43400F583E5F0F0ED75F00A84FD80D9
:0225CE00DF220A
:1023A9008C158D16AA07AF031BEF6029AE15AF1662
:1023B9007C007D0A1201AFEA2B244DF582E434003A
:1023C900F583EDF0AE15AF167C007D0A1201AF8ED4
:0623D900158F1680D122D1
:1009DD007F0890004D740AF0A3DFFCE51D14700331
:1009ED00020A8A147003020A9524026003020AB1F6
:1009FD00900074E0F513A3E0F514C3E5136480943F
:100A0D0080503490004D740CF0C3E49514F514E44B
:100A1D009513F513D3E51494E7E51364809483409F
:100A2D00067513037514E7AC13AD147B037F011228
:100A3D0023A990004F8034D3E51494E7E513648027
:100A4D00948340067513037514E7AC13AD147B0343
:100A5D00E4FF1223A990004EE02410F090006EE008
:100A6D00FD7B027F031225AE900051E02410F09023
:100A7D00004CE0FD7B037F051225AE804B90004DB1
:100A8D007401F0900071801190004D7402F090008F
:100A9D004AE090004FF090006FE0FCA3E0FD7B0476
:100AAD007F04802190004D7403F090001BE0FCA3A7
:100ABD00E0FD7B027F021223A9900000E0FCA3E081
:100ACD00FD7B027F061223A990004DE0FFA3E0FD00
:100ADD00A3E0FBA3E0F518A3E0F519A3E0F51AA335
:100AED00E0F51BA3E0F51C1225F0E4FF122415EF31
:100AFD006401604AE4FB90004CE0D3940040010B8C
:100B0D00900055E0600343030290006EE0FF7E000D
:100B1D007C007D0A12019DC3900075E09FEE6480FC
:100B2D00F8900074E0648098400343030490004AF9
:0E0B3D00E0D394015003430308AF03122719BD
:010B4B002287
:1019F70012000378097C007D007E007F0A12011621
:101A0700900071E50DF0A3E50EF090006FE50FF083
:101A1700A3E510F0C3E50E9401E50D94005006A36D
:101A2700E4F0A304F0D3900072E094FE900071E01C
:101A3700940340077403F0A374FEF0900071E0FE76
:101A4700A3E0FF121EC4900074EEF0A3EFF0900025
:101A57006FE0FEA3E0FF12237090004AEFF0051E2F
:101A6700E51EC394054009E4F51E1218B0121CDAEE
:101A77001209DD900049E004F0C3940A4002E4F043
:0A1A8700900049E0B405031210C0FE
:011A91002232
:04253400E0FD7B0249
:10253800AE031BEE601FED75F00A84E5F02430FE53
:10254800EF2B241EF582E43400F583EEF0ED75F0F0
:062558000A84FD80DB2275
:10153F001226D4EF60030215F49000027F011225EA
:10154F003490001A7F0412253490001DE0FD7B02B9
:10155F007F07122538900074E0F50EA3E0F50FC356
:10156F00E50E6480948050047F2D80027F2B9000C5
:10157F002AEFF0C3E50E64809480500BC3E4950FFF
:10158F00F50FE4950EF50ED3E50F94E7E50E6480A5
:10159F0094834006750E03750FE7AE0EAF0F7C00F8
:1015AF007D64120204AD077B017F0D122538AE0E4C
:1015BF00AF0F7C007D641202047B027F0E12253870
:1015CF0090004AE0FD7B017F1212253890004CE01D
:1015DF00FD7B037F151225387B017A00791E7D2B49
:0515EF007C00122586BE
:0115F40022D4
:1010C0001226D4EF60030211AE900071E0FEA3E09F
:1010D000FBAA067C007D0AFF1201AFED24309000D0
:1010E0000DF07C007D0AAF03AE021201AFAA06AB81
:1010F000077C007D0A1201AFED243090000CF07CDB
:10110000007D0AAF03AE021201AFAA06AB077C0056
:101110007D0A1201AFED243090000BF07C007D0AB7
:10112000AF03AE021201AF7C007D0A1201AFED24C5
:101130003090000AF090006FE0FAA3E0FB7C007DA5
:101140000AFFAE021201AFED2430900016F07C00D1
:101150007D0AAF03AE021201AFAA06AB077C007D89
:101160000A1201AFED2430900015F07C007D0AAF2B
:1011700003AE021201AFAA06AB077C007D0A120182
:10118000AFED2430900014F07C007D0AAF03AE0276
:101190001201AF7C007D0A1201AFED2430900013E4
:0E11A000F07B017A0079037D167C0012258613
:0111AE00221E
:10207D0012270C78097C007D007E007F0512011669
:10208D0090004BE50DF090001DE004F0C3943C4032
:10209D001AE4F090001AE004F0943C400EE4F09045
:1020AD000002E004F094184002E4F012153F900095
:0F20BD004BE0600B7D037C007FA07E0F121DD5D2
:0120CC0022F1
:10223200E4FF122275BF0112E51D045403F51D7D52
:10224200037C007FB87E0B121DD57F01122275BF61
:102252000120900073E0B4FF047F6480027FFF904E
:102262000073EFF01218B07D057C007FD07E07125C
:032272001DD52255
:10146C007F011221A8EF6401703390001904F090F1
:10147C000055E0701DFF122415EF640160147B40D1
:10148C007A007D14E4FF12175DBF020690005574BC
:10149C0001F07D037C007FB87E0B121DD57F0412FA
:1014AC0021A8EF6401703490001904F0900055E00D
:1014BC00B4011DE4FF122415EF640160137BC07AA4
:1014CC00FF7D14E4FF12175DBF0205E4900055F098
:1014DC007D037C007FD07E07121DD57F051221A8CD
:1014EC00BF011790006EE0C394285003E004F07D18
:1014FC00037C007FAC7E0D121DD57F021221A8BF8C
:10150C00011790006EE0D3940A4003E014F07D03C1
:10151C007C007FC47E09121DD57F031221A8BF0158
:10152C0011E4F51D900019F07D03FC7FA07E0F12D5
:03153C001DD52298
:100D9F0012262D7D07E4FF1226E81226101225D009
:100DAF001226487F981224477F011223DF7519649A
:100DBF00E4FB7D64FF121BBF750D027F807E257DD6
:100DCF00007C001215F5750E00750F00751000E40C
:100DDF00F511F5127B017A0079567D08FC12247803
:100DEF00E4F508E5089019B493FF741E2508F58201
:100DFF00E43400F583EFF00508E508B42BE5900027
:100E0F00407431F0A314F0E4F508E5089019E0936D
:100E1F00FF74032508F582E43400F583EFF005082D
:050E2F00E508B416E522
:100E3400E4900002F090001AF090001DF090004938
:100E4400F090004CF0900055F0900019F090004B99
:100E5400F090001BF0A3F0900000F0A3F090007459
:100E6400F0A3F090004AF0900071F0A3F090006FAE
:100E7400F0A3F07F807E25FDFC121E4D7BFF7A19C6
:100E840079F77F02121D587BFF7A20797D7F031248
:100E94001D587BFF7A2279327F04121D587BFF7A1A
:100EA40014796C7F07121D587BFF7A0F79CA7F0A69
:0B0EB400121D5812271F12233280FB72
:0926DF008B88898C88898F888919
:100EC7005200F08686008686008686008686008623
:090ED70086008686004100E50951
:03002B0002271396
:0627130053BCEFD20F32AF
:02083100154A66
:10083300200F030209DAC20F9000E4E0B40900407C
:10084300030209BC90084EF8282873020895020891
:100853006902087B0208A702086902087B0208BE36
:1008630002086902087BAFBDEFFEADBE7C00E42D3C
:10087300FFEC3E9000E6803CAFBDEFFEADBE7C00DA
:10088300E42DFFEC3E9000E8F0A3EFF07544010285
:1008930009C2AFBDEFFEADBE7C00E42DFFEC3E9080
:1008A30000EA8010AFBDEFFEADBE7C00E42DFFEC8F
:1008B3003E9000ECF0A3EFF00209C2AFBDEFFEAD36
:1008C300BE7C00E42DFFEC3E9000EEF0A3EFF09031
:1008D30000EEE0FEA3E07807CEC313CE13D8F9A849
:1008E3004AF6C394065013A84AE675F003A424F00D
:1008F300F582E43400F583E014F09000E5E014F0B1
:1009030060030209C27409F0A84AE4F6A84AE6FFA4
:10091300C3940640030209C2EF75F003A424F0F563
:1009230082E43400F583E0C39480502AE6FF75F037
:1009330003A424F1F582E43400F583E0D3948040EA
:1009430040EF75F003A424F2F582E43400F58374D8
:1009530001F0F545802BA84AE6FF75F003A424F1C6
:10096300F582E43400F583E0C394805014EF75F00E
:1009730003A424F2F582E43400F5837402F0754590
:1009830001A84AE6FF75F003A424F0F582E43400DD
:10099300F583E0FEEF75F003A424F1F582E434005F
:1009A300F583EEF0E675F003A424F0F582E4340059
:1009B300F5837486F00602090F9000E474FFF0904B
:1009C30000E4E0D39407400374FFF09000E4E004F4
:0709D300F09026DF93F5BC54
:0309DA00054A22A9
:02269F00154ADA
:0926A100A84AA645E4F545E6FF50
:0326AA00054A22BC
:0226AD00154ACC
:0926AF00A84AA644E4F544E6FF44
:0326B800054A22AE
:102447008F9D75BC88439720D2AD9000BB74FFF079
:10245700A37408F0A37431F0A374FFF0A37426F0FB
:10246700A3749FF0A374FFF0A37426F0A374ADF0D8
:012477002242
:070003007B017A0079E6227F
:1021A800C3EF64809480403BD3EF648094855033C0
:1021B800EFFD3395E0FC9000F275F003ED1203D9C2
:1021C800EC75F003A42583F583E0FE9000F275F02A
:1021D80003ED1203D9EC75F003A42583F583E4F02D
:0521E800AF06227F0399
:0121ED0022CF
:04255E00154A154ABB
:102562001226F1A84AA60608A607A84AE6FE08E629
:0F257200FF4E600BEF24FFFFEE34FFFE1226FA40
:05258100054A054A2295
:1025D00053B1EF43B21012003EE4F5D975DA49D297
:1025E000DE9000B574FFF0A37425F0A3745EF022B2
:081DD5008E0E8F0F8C108D1192
:101DDD001226F1EF4E7066AF11AE101226FAC3E562
:101DED000F940AE50E9400404BE47B18FAF9F89035
:101DFD0019541203BD1202F1C006C007AE0EAF0F8B
:101E0D00AB07AA06E4F9F8D007D0061202F1AB072A
:101E1D00AA06AFF9EFFEADE97C00E42DFFEC3ECF55
:101E2D002BCF3AAD07FCAF03AE02122660D2D843DA
:0F1E3D00DA01800612003E53DAFE7F02227F0395
:011E4C002273
:0C002E001226F1EF4E7002FF227F01222B
:10129C00E4F58090014DE0FFB40800505F9012B06F
:1012AC00F82828730212C80212CE0212D40212DAE3
:1012BC000212E00212EA0212F40212FEC2A3C2A24D
:1012CC008016C2A3C2A2801AC2A3C2A2801EC2A34D
:1012DC00C2A28022C2A3D2A2C2A1C2A08020C2A359
:1012EC00D2A2C2A1D2A08016C2A3D2A2D2A1C2A065
:1012FC00800CC2A3D2A2D2A1D2A08002D2A3C3EFEF
:10130C0064809488502990014DE0FF3395E0FE7481
:10131C00442FF58274013EF583E0FF3395E0FE74B3
:10132C00582FF58274193EF583E493F580801E9056
:10133C00014DE0FFB408133395E0FE74442FF582A1
:10134C0074013EF583E0F5808003E4F58090014361
:10135C00E0FF90014DE004FEF0D3EF6480F8EE6402
:10136C0080984014E0D36480948850047408F02270
:09137C00900142E090014DF022C5
:10262D00E4F5937594FF5395F043960F9000A074C5
:0B263D00FFF0A37412F0A3749CF022C5
:0926E800900142EFF0A3EDF02295
:1025F000900144EFF0A3EDF0A3EBF0A3E518F0A3F6
:10260000E519F0A3E51AF0A3E51BF0A3E51CF02201
:0627190090014CEFF022DC
:100EE000011F0049015A9494009494009494004185
:030EF00001591E87
:020C7C00154A17
:100C7E0020B20690015AE014F020B30690015DE018
:100C8E0014F0209706900160E014F0900159E014E2
:100C9E00F06003020D9C741EF0A84AE4F6A84AE622
:100CAE00FFC3648094834003020D9CEF3395E0FEF6
:100CBE0090015A75F003EF1203D9EE75F003A425D7
:100CCE0083F583E0C39480503990015B75F003EF98
:100CDE001203D9EE75F003A42583F583E0D3948037
:100CEE00405AE6FF3395E0FE90015C75F003EF127B
:100CFE0003D9EE75F003A42583F5837401F0F51F77
:100D0E00803AA84AE6FF3395E0FE90015B75F0034A
:100D1E00EF1203D9EE75F003A42583F583E0C39497
:100D2E0080501990015C75F003EF1203D9EE75F047
:100D3E0003A42583F5837402F0751F01A84AE6FF0C
:100D4E00FD3395E0FC90015A75F003ED1203D9ECDA
:100D5E0075F003A42583F583E0FE90015B75F00327
:100D6E00ED1203D9EC75F003A42583F583EEF0EFB5
:100D7E003395E0FE90015A75F003EF1203D9EE752C
:0E0D8E00F003A42583F5837494F006020CABE9
:030D9C00054A22E3
:0226BB00154ABE
:0926BD00A84AA61FE4F51FE6FF80
:0326C600054A22A0
:102610009000A674FFF0A37426F0A374BBF09000A2
:0D262000A374FFF0A3740CF0A3747CF022EF
:10227500EF600764016003BF0233EFFD3395E0FCB7
:1022850090015C75F003ED1203D9EC75F003A425FC
:1022950083F583E0FE90015C75F003ED1203D9EC44
:0F22A50075F003A42583F583E4F0AF06227F03D1
:0122B4002207
:100EF3005501030000000000000000000000000096
:0C0F03000000000000000000410102009E
:0203EB00154AB1
:1003ED00A84AE4F6A84AE6FFC3648094834003025A
:1003FD00065CEF3395E0FE90010375F007EF1203F5
:10040D00D9EE75F007A42583F583E0FCA3E04C70CD
:10041D000302065690010575F007EF1203D9EE752C
:10042D00F007A42583F583E0FEA3E04E70030206DA
:10043D0056E6FFFD3395E0FC90010775F007ED12D0
:10044D0003D9EC75F007A42583F58374FFF5F0123D
:10045D00023A45F0600302065690010575F007ED6E
:10046D001203D9EC75F007A42583F583E0FAA3E018
:10047D00FB90010775F007ED1203D9EC75F007A499
:10048D002583F583EAF0A3EBF0EF3395E0FE9001C1
:10049D000375F007EF1203D9EE75F007A42583F568
:1004AD0083E0FCA3E0D39400EC648094804056A8D4
:1004BD004AE6FD3395E0FC90010375F007ED12035C
:1004CD00D9EC75F007A42583F58374FFF5F01202BE
:1004DD003A90010975F007ED1203D9EC75F007A4F8
:1004ED002583F583E004F0D36480948340729001FA
:1004FD000975F007EF1203D9EE75F007A42583F502
:10050D0083E4F0805BA84AE6FFFD3395E0FC9001A3
:10051D000375F007ED1203D9EC75F007A42583F5EB
:10052D0083E475F00112023A90010975F007ED129E
:10053D0003D9EC75F007A42583F583E014F0C364AB
:10054D00809480501BEF3395E0FE90010975F00704
:10055D00EF1203D9EE75F007A42583F5837403F02C
:10056D00A84AE6FFFD3395E0FC90010975F007ED13
:10057D001203D9EC75F007A42583F583E014603CD4
:10058D001460661470030206232403600302064EF2
:10059D00EF1460101460192402600302064ED2C1DC
:1005AD00C2C28029900102E054F04401F002064ECF
:1005BD00900102E0540F4410F002064EA84AE614D2
:1005CD00601114601924027078C2C1D2C2C2C3C2B4
:1005DD00C4806E900102E054F04402F080639001FB
:1005ED0002E0540F4420F08058A84AE6146011141C
:1005FD0060192402704BC2C1C2C2D2C3C2C48041B1
:10060D00900102E054F04404F08036900102E05471
:10061D000F4440F0802BA84AE61460111460192491
:10062D0002701EC2C1C2C2C2C3D2C48014900102E4
:10063D00E054F04408F08009900102E0540F44802A
:0F064D00F0900102E0FF122719A84A060203F1FC
:03065C00054A222A
:1026480053B3E143B41E53C0E19000CA74FFF0A332
:082658007403F0A374EBF022FF
:10175D008F15EF3395E0FE90010375F007EF12033F
:10176D00D9EE75F007A42583F583E0FEA3E04E6066
:10177D0003021805E515600A64016006E5156402AB
:10178D007076ED60737C007E037FE81201AFAD15BE
:10179D00ED3395E0FC90010575F007ED1203D9ECE2
:1017AD0075F007A42583F583EEF0A3EFF090010506
:1017BD0075F007ED1203D9EC75F007A42583F583B9
:1017CD00E0FEA3E0FF90010775F007ED1203D9ECE1
:1017DD0075F007A42583F583EEF0A3EFF0900103D8
:1017ED0075F007ED1203D9EC75F007A42583F58389
:0B17FD00EAF0A3EBF07F02227F032242
:10211900EF600764016003BF023AEFFD3395E0FC0D
:1021290090010375F007ED1203D9EC75F007A425AA
:1021390083F583E0FAA3E0FB90010375F007ED1244
:1021490003D9EC75F007A42583F583E4F0A3F0AE79
:0721590002AF0322E4FEFFC8
:01216000225C
:10241500EF600764016003BF0225EF3395E0FE908E
:10242500010375F007EF1203D9EE75F007A42583B4
:10243500F583E0FEA3E04E60037F01227F00227F4B
:02244500032270
:100F0F004100760A41009F0A4100E30A04280000CD
:100F1F000000012E004600DD0000FFFF8FFFC10D16
:100F2F00C105C108C101C10E6024007BFF000AFF8B
:100F3F00000AFF000AFF000AFF000AFF000AFF0075
:100F4F000AFF000AFF000AFF000AFF000AFF000A5B
:100F5F00603600A0FF000AFF000AFF0026FF000A0C
:100F6F00FF0026FF000AFF0026FF000AFF000AFF0E
:100F7F00000AFF0026FF0026FF0026FF0026FF00C5
:0A0F8F000AFF000AFF000AFF000A33
:01000A0022D3
:030026007F002236
:10216100438E805389F07BE07A28790178009019B9
:10217100541203BD1221EEEFF404F58A7BE07A28B4
:10218100790178009019541203BD1221EEC3E49F26
:10219100FFE49EFE74019DFDE49CFC780812039609
:0721A1008F8CD28CD2A92221
:03000B0002202BA5
:04202B00C0E0C0D081
:10202F00D5220A75224C300D02052ED20DA2037255
:10203F000450361524E5247030852624D207300A43
:10204F0017E52760071527438F01801D538FFEC2A9
:10205F00B5D53015C20A80110525E525D394064064
:09206F0008C203E52D6002D2064F
:05207800D0D0D0E032E1
:101FD800300E47C20E9019541203BD7810120396A2
:101FE8008E468F47900079E0FEA3E0FFE4FCFD7B7E
:101FF80019FAF9F8120266C006C007AE46AF47AB39
:1020080007AA06E4F9F8D007D0061221EE780312E1
:1020180003969000DBEEF0A3EFF09000DBE0FEA368
:02202800E0FFD7
:01202A002293
:0926F1009000DDE0FEA3E0FF22F1
:0926FA009000DDEEF0A3EFF022E8
:102660009000E1EEF0A3EFF09000DFECF0A3EDF0CE
:012670002247
:03003E00C2B42227
:03003B00021808A0
:10180800C0E0C083C082C0D075D000C004C005C08D
:0318180006C00700
:10181B0030DF04C2DF807D30DA04C2DA807630D963
:10182B003DC2D9AFFBEFFEADEB7C00E42DFFEC3EF0
:10183B0020000E900077F0A3EFF075DB11D2008043
:10184B0053FE900077E0FCA3E0FDC3EF9DFFEE9C01
:10185B00A3F0A3EFF075DB00C200D20E803630D8B8
:10186B0033C2D89000DDE07002A3E06022B2B490E6
:10187B0000DFE0FEA3E0F5EAEEF5FAA3E0FEA3E05D
:10188B00FF9000E0E02FF09000DFE03EF08005C21B
:04189B00B453DAFE6A
:10189F00D007D006D005D004D0D0D082D083D0E0EE
:0118AF003206
:06271F00122161D2AF227D
:101C4F003004047F0180027F00200A047E0180029D
:101C5F007E00EE5F6074E52FC39523506830023627
:101C6F00752701E52F131313541FAB31AA32A93374
:101C7F00F58275830012013CFFE52F540704FEEF38
:101C8F00A806088002C333D8FC30D705753003800F
:101C9F002F753001802AAB31AA32A93375F002E5D6
:101CAF002FA4F58285F08312013CF527E52F75F0FF
:101CBF0002A429F9EA35F0FA90000112013CF5303F
:0A1CCF00052FD20A22C204438F1031
:011CD90022E8
:1011AF00900076E014F0701F740AF0D20590009F43
:1011BF00E014F07012740AF0D2089000E3E014F01B
:1011CF007005740AF0D2019000A0A3E0FAA3E0F931
:1011DF001203E59000A3A3E0FAA3E0F91203E59050
:1011EF0000AFA3E0FAA3E0F91203E59000BBA3E080
:1011FF00FAA3E0F91203E59000CAA3E0FAA3E0F91D
:10120F001203E59000D3A3E0FAA3E0F91203E590EF
:10121F0000C1A3E0FAA3E0F91203E5EF600C900020
:10122F0093A3E0FAA3E0F91203E59000C4A3E0FA58
:10123F00A3E0F91203E5EF600E900096A3E0FAA386
:10124F00E0F91203E5D20BE52CD394004016D52C10
:10125F003030090C900099A3E0FAA3E0F91203E5EE
:10126F00D20C801D9000C7A3E0FAA3E0F91203E5AA
:10127F00EF600E900099A3E0FAA3E0F91203E5D214
:0D128F000C90007BA3E0FAA3E0F90203E558
:101B2C009000B5A3E0FAA3E0F91203E59000B8A386
:101B3C00E0FAA3E0F91203E59000A9A3E0FAA3E010
:101B4C00F91203E590007EA3E0FAA3E0F91203E595
:101B5C009000A6A3E0FAA3E0F91203E5EF600C9065
:101B6C000087A3E0FAA3E0F91203E59000ACA3E030
:101B7C00FAA3E0F91203E5EF600C90008DA3E0FAF4
:101B8C00A3E0F91203E59000BEA3E0FAA3E0F9127A
:101B9C0003E5EF600C900090A3E0FAA3E0F91203C8
:101BAC00E530060EC20690009CA3E0FAA3E0F91201
:031BBC0003E5221C
:1022B500900081A3E0FAA3E0F91203E59000B2A330
:1022C500E0FAA3E0F91203E5EF600C90008AA3E0C1
:1022D500FAA3E0F91203E59000CDA3E0FAA3E0F933
:0F22E5001203E59000D0A3E0FAA3E0F90203E5AD
:10250900AF2BAE2AAD29AC289000D61203CD90008E
:10251900DAE52EF0E4F52BF52AF529F528F52E90C4
:0B2529000084A3E0FAA3E0F90203E540
:10233200300705C207121C4F300D05C20D1211AF36
:10234200300505C205121B2C300805C2081222B541
:10235200300105C201122509E52B2401F52BE435D4
:0E2362002AF52AE43529F529E43528F5282244
:101D58008B098A0A890BEFB40C005070901D6BF840
:101D6800282873021D8F021D94021D99021D9E02D0
:101D78001DA3021DA8021DAD021DB2021DB7021D42
:101D8800BC021DC1021DC690007B803590007E807C
:101D980030900081802B90008480269000878021DD
:101DA80090008D801C90008A80179000908012907F
:101DB8000093800D90009680089000998003900011
:0D1DC8009CE509F0A3E50AF0A3E50BF0226D
:07270C007B017A0079D6225F
:101BBF008B18AA077C007E037FE81201AF900155B6
:101BCF00EEF0A3EFF0E519FD7C007E037FE8120134
:101BDF00AFA3EEF0A3EFF0AF02AB07E4FAF9F89082
:101BEF000155E0FEA3E0FFE4FCFD120266EF243294
:101BFF00FFE43EFEE43DFDE43CFCE47B64FAF9F8CF
:101C0F001221EE90014FEEF0A3EFF0AF18AB07E407
:101C1F00FAF9F8900157E0FEA3E0FFE4FCFD120291
:101C2F0066EF2432FFE43EFEE43DFDE43CFCE47B42
:101C3F0064FAF9F81221EE900151EEF0A3EFF022C1
:101F7F00E4F50CF50BF50AF509F50DD291AF0CAEA2
:101F8F000BAD0AAC0978011203AA8F0C8E0B8D0AC8
:101F9F008C0900C291309015E4FAF9F8EF2401F59D
:101FAF000CEA3EF50BE93DF50AE83CF509050DE5B0
:101FBF000DB418C700D2910000C291AF0CAE0BAD9B
:081FCF000AAC09780812039620
:011FD70022E7
:09270300900153E0FEA3E0FF2267
:0F267100900153E0FEA3E0FFE4900153F0A3F0CB
:012680002237
:1013850090014EE0700F30900122121F7F900153A3
:10139500EEF0A3EFF090014EE0FF64017062053FAF
:1013A500E53F7002053EFDD3900156E09D90015545
:1013B500E0953E5005E4F53EF53FD3900150E095AC
:1013C5003F90014FE0953E4004D2908002C29005C7
:1013D50041E54170020540FDD3900158E09D900123
:1013E50057E095405005E4F540F541D3900152E0B2
:1013F5009541900151E095404004D2918002C291FF
:10140500EF6402703E2090047F0180027F00E54278
:1014150060047E0180027E00EE5F602130911090B5
:101425000154E004F07016900153E004F0800E9032
:101435000154E024FFF0900153E034FFF0A290E462
:1014450033F54290014EE0B4031CE5437002D2919E
:10145500E543B40105C29175DB210543E543C3941A
:06146500C84003E4F5435A
:01146B00225E
:1023DF0090014EEFF07004C2918002D29190014EA5
:1023EF00E0B40310E5A254CFF5A2E4F5D975DB01F3
:1023FF00D2DE8003E4F5DB9000D374FFF0A37413F7
:06240F00F0A37485F02229
:100F990055011800000000000000000000000000DA
:080FA90000000100000000003F
:0300430002065F53
:10065F00C0E0C0F0C083C082C0D075D000C000C061
:10066F0001C002C003C004C005C006C007E59A3030
:10067F00E142539AFD90011DE0FEA3E0FFC39001FC
:10068F001CE09F90011BE09E501F900118E0FBA300
:10069F00E0FAA3E0F9A3E475F00112025085F082AD
:1006AF00F58312013CF59B800B90011FE4F0E549A7
:1006BF006002C2B7E59A20E003020816539AFE3093
:1006CF000C0BC20C900125E4F0A3F0D209E54964AC
:1006DF00026003020770900123E0FEA3E0FFA3E096
:1006EF00FCA3E0FDC39FEC9E5071900120E0FBA3A3
:1006FF00E0FAA3E0F98D828C83E59B12017B9001D8
:10070F002BE0FEA3E0FFC3ED9FEC9E504090012332
:10071F00E0FCA3E0FDEF9DEE9C5032900128E0FB42
:10072F00A3E0FAA3E0F9900125E0FEA3E0FFF58234
:10073F008E8312013CFD900120E0FBA3E0FAA3E0C1
:10074F00F98F828E8312013C6D6002C209900126DF
:10075F00E004F07006900125E004F085482C0208B3
:10076F0016900123E0FEA3E0FFA3E0FCA3E0FDC38E
:10077F009FEC9E5077900120E0FBA3E0FAA3E0F9F5
:10078F008D828C83E59B12017B90012BE0FEA3E011
:10079F00FFC3ED9FEC9E5046900123E0FCA3E0FDCC
:1007AF00EF9DEE9C5038900128E0FBA3E0FAA3E008
:1007BF00F9900125E0FEA3E0FFF5828E8312013C44
:1007CF00FD900120E0FBA3E0FAA3E0F98F828E8376
:1007DF0012013C6D600890012574FFF0A3F09001A9
:1007EF0026E004F07006900125E004F0900123E06C
:1007FF00FEA3E0FFC3900126E09F900125E09E40FD
:10080F00069001277401F0D007D006D005D004D090
:10081F0003D002D001D000D0D0D082D083D0F0D07E
:02082F00E032B5
:02268100154AF8
:0A268300900127E0A84AF6FFE4F0FA
:03268D00054A22D9
:0100210022BC
:1015F5008F0C8E0B8D0A8C09850D49E5497002808B
:101605000343BA01E54970179000D374FFF0A37442
:1016150000F0A37421F0E4F5DBD290D2918020C2D2
:10162500B7AB0CAA0BA90AA809E47F407E9CFDFC78
:101635001202F18F48E548700375480185482C75FD
:101645009A10E47B04FAF9F89019541203BD1202BA
:10165500F1AB0CAA0BA90AA8091202F1EFF404F5E3
:10166500D7E47B04FAF9F89019541203BD1202F17C
:10167500AB0CAA0BA90AA8091202F1C3E49FFFE467
:101685009EFE74019DFDE49CFC78081203838FD6B1
:10169500438E1443AF019000C774FFF0A37426F086
:0516A500A37481F02296
:10247800900120EBF0A3EAF0A3E9F0A3ECF0A3EDC0
:10248800F090012BE511F0A3E512F0900128E50E7C
:10249800F0A3E50FF0A3E510F0D20CE4900127F0CB
:0124A8002211
:1024DA0090011FE07026900118EBF0A3EAF0A3E93F
:1024EA00F0E4A3F0A3F0A3ECF0A3EDF0A37401F0E1
:0F24FA00E5496002D2B7439A027F02227F032294
:0B26C90090011FE07002FF227F012241
:100FB10055012D00000000000000000000000000AD
:080FC100000001000000000027
:03002300020B4C81
:100B4C00C0E0C0F0C083C082C0D075D000C000C06F
:100B5C0001C002C003C004C005C006C00730993BE9
:100B6C00C299900132E0FEA3E0FFC3900131E09FF7
:100B7C00900130E09E501F90012DE0FBA3E0FAA302
:100B8C00E0F9A3E475F00112025085F082F58312AE
:100B9C00013CF5998005900134E4F0209803020C97
:100BAC0061C298300B09C20B90013AE4F0A3F090AB
:100BBC000138E0FEA3E0FFA3E0FCA3E0FDC39FEC43
:100BCC009E5077900135E0FBA3E0FAA3E0F98D820B
:100BDC008C83E59912017B900140E0FEA3E0FFC3FA
:100BEC00ED9FEC9E5046900138E0FCA3E0FDEF9D9C
:100BFC00EE9C503890013DE0FBA3E0FAA3E0F990A5
:100C0C00013AE0FEA3E0FFF5828E8312013CFD90D9
:100C1C000135E0FBA3E0FAA3E0F98F828E83120189
:100C2C003C6D600890013A74FFF0A3F090013BE03A
:100C3C0004F0700690013AE004F0900138E0FEA355
:100C4C00E0FFC390013BE09F90013AE09E4006908C
:100C5C00013C7401F0D007D006D005D004D003D0ED
:100C6C0002D001D000D0D0D082D083D0F0D0E032EE
:02269000154AE9
:0A26920090013CE0A84AF6FFE4F0D6
:03269C00054A22CA
:101E4D008F0C8E0B8D0A8C09759850438E40538ED6
:101E5D00FE53890FE47B04FAF9F89019541203BD6F
:101E6D001202F1AB0CAA0BA90AA8091202F1EFF4A8
:101E7D0004F58BE47B04FAF9F89019541203BD12A2
:101E8D0002F1AB0CAA0BA90AA8091202F1C3E49F37
:101E9D00FFE49EFE74019DFDE49CFC780812038313
:101EAD008F8DC2ABD28ED2AC9000C474FFF0A374F0
:071EBD0026F0A37490F0224F
:1024A900900135EBF0A3EAF0A3E9F0A3ECF0A3ED7A
:1024B900F0900140E53CF0A3E53DF090013DE539A0
:1024C900F0A3E53AF0A3E53BF0D20BE490013CF030
:0124D90022E0
:10258600900134E0701F90012DEBF0A3EAF0A3E96F
:10259600F0E4A3F0A3F0A3ECF0A3EDF0A37401F034
:0825A600D2997F02227F03227B
:0B26D400900134E07002FF227F012221
:03000000021A924F
:101A9200787FE4F6D8FD9000007F007E07E4F0A393
:0A1AA200DFFCDEFA75814A021AE744
:101AAC00020D9FE493A3F8E493A34003F68001F2A4
:101ABC0008DFF48029E493A3F85407240CC8C3333B
:101ACC00C4540F4420C8834004F456800146F6DF0A
:101ADC00E4800B0102040810204080900EBFE47ECD
:101AEC00019360BCA3FF543F30E509541FFEE493FF
:101AFC00A360010ECF54C025E060A840B8E493A3C6
:101B0C00FAE493A3F8E493A3C8C582C8CAC583CAF0
:101B1C00F0A3C8C582C8CAC583CADFE9DEE780BEA8
:010FC9000027
:10004600E709F608DFFA8046E709F208DFFA803E9C
:1000560088828C83E709F0A3DFFA8032E309F60889
:10006600DFFA8078E309F208DFFA807088828C83F1
:10007600E309F0A3DFFA806489828A83E0A3F608A5
:10008600DFFA805889828A83E0A3F208DFFA804C7F
:1000960080D280FA80C680D4806980F28033801056
:1000A60080A680EA809A80A880DA80E280CA8033BF
:1000B60089828A83ECFAE493A3C8C582C8CCC58337
:1000C600CCF0A3C8C582C8CCC583CCDFE9DEE78007
:1000D6000D89828A83E493A3F608DFF9ECFAA9F086
:1000E600EDFB2289828A83ECFAE0A3C8C582C8CCDC
:1000F600C583CCF0A3C8C582C8CCC583CCDFEADEF5
:10010600E880DB89828A83E493A3F208DFF980CC56
:1001160088F0EF60010E4E60C388F0ED2402B4044F
:100126000050B9F582EB2402B4040050AF232345F6
:0601360082239000967385
:10013C00BB010CE58229F582E5833AF583E0225078
:10014C0006E92582F8E622BBFE06E92582F8E222C2
:0D015C00E58229F582E5833AF583E49322DC
:10016900BB010689828A83F0225002F722BBFE0175
:02017900F3226F
:10017B00F8BB010DE58229F582E5833AF583E8F0BA
:10018B00225006E92582C8F622BBFE05E92582C866
:02019B00F2224E
:10019D00EF8DF0A4A8F0CF8CF0A428CE8DF0A42E76
:0201AD00FE2230
:1001AF00BC000BBE0029EF8DF084FFADF022E4CC34
:1001BF00F875F008EF2FFFEE33FEEC33FCEE9DECFD
:1001CF00984005FCEE9DFE0FD5F0E9E4CEFD22ED43
:1001DF00F8F5F0EE8420D21CFEADF075F008EF2F8D
:1001EF00FFED33FD4007985006D5F0F222C398FD7E
:0501FF000FD5F0EA221B
:10020400C2D5EC30E709B2D5E4C39DFDE49CFCEE15
:1002140030E715B2D5E4C39FFFE49EFE1201AFC3DD
:10022400E49DFDE49CFC80031201AF30D507C3E4D8
:060234009FFFE49EFE2284
:10023A00C5F0F8A3E028F0C5F0F8E582158270024F
:06024A001583E038F022EC
:10025000A3F8E0C5F025F0F0E58215827002158361
:06026000E0C838F0E822BE
:10026600E88FF0A4CC8BF0A42CFCE98EF0A42CFC37
:100276008AF0EDA42CFCEA8EF0A4CDA8F08BF0A4B5
:100286002DCC3825F0FDE98FF0A42CCD35F0FCEB14
:100296008EF0A4FEA9F0EB8FF0A4CFC5F02ECD39D9
:0F02A600FEE43CFCEAA42DCE35F0FDE43CFC2246
:1002B50075F008758200EF2FFFEE33FECD33CDCC00
:1002C50033CCC58233C5829BED9AEC99E582984083
:1002D5000CF582EE9BFEED9AFDEC99FC0FD5F0D660
:1002E500E4CEFBE4CDFAE4CCF9A88222B800C1B98A
:1002F5000059BA002DEC8BF084CFCECDFCE5F0CBC8
:10030500F97818EF2FFFEE33FEED33FDEC33FCEB00
:1003150033FB10D703994004EB99FB0FD8E5E4F9BB
:10032500FA227818EF2FFFEE33FEED33FDEC33FCA8
:10033500C933C910D7059BE99A4007EC9BFCE99A9C
:10034500F90FD8E0E4C9FAE4CCFB2275F010EF2FE1
:10035500FFEE33FEED33FDCC33CCC833C810D707E1
:100365009BEC9AE899400AED9BFDEC9AFCE899F81C
:0E0375000FD5F0DAE4CDFBE4CCFAE4C8F922AF
:1021EE00C2D5E830E70FB2D5E4C39BFBE49AFAE41C
:1021FE0099F9E498F8EC30E717B2D51222241202BE
:10220E00F1E4C39BFBE49AFAE499F9E498F88003AD
:10221E001202F130D50DE4C39FFFE49EFEE49DFD56
:04222E00E49CFC220E
:10038300E8600FECC313FCED13FDEE13FEEF13FF58
:03039300D8F1227C
:10039600E86010ECA2E713FCED13FDEE13FEEF137D
:0403A600FFD8F0226A
:1003AA00E8600FEFC333FFEE33FEED33FDEC33FCB1
:0303BA00D8F12255
:1003BD00E493FC740193FD740293FE740393FF2286
:0C03CD00ECF0A3EDF0A3EEF0A3EFF022A3
:0C03D900A42582F582E5F03583F583222F
:0603E5008A838982E473A3
:00000001FF
