:1018320000A8C0003F065B4F666D7D077F6F000802
:1018420040014148BF86DBCFE6EDFD87FFEF07C6CB
:1018520004A4039D030E02AC0261022401F001C341
:10186200019A017501530133011400F700DB00C036
:1018720000A5008A00700055003A001E0002FFE435
:10188200FFC4FFA1FF7BFF4FFF1AFED6FE6BFCE1F8
:101892005B30303A30303A30305D20542B303030CB
:1018A200204C30204630303020443030302041301F
:1018B200204F303020453030300D0A0043414C205B
:1018C20052543D3030303020524F503D3030303065
:0318D2000D0A00FC
:080E750041006E1C410073FFF7
:08000E00E0FEA3E0FFFDAC06DB
:0B001600EC120169ED90000102017B7B
:081E04008B108A1189128D1365
:101E0C0074FFF514F515E4FDEDC39513503EAB10BE
:101E1C00AA11A9128D8275830012013C6215E4FC93
:101E2C00E51530E015E514C313FEE51513FFEE645C
:101E3C00A0F514EF6401F515800BE514C313F5142C
:101E4C00E51513F5150CBC08D70D80BCAE14AF15F9
:011E5C002263
:08221C008B0A8A0B890C8D0D61
:10222400C3E50D9402FD121E048E0E8F0FE50D7C86
:102234000024FEF582EC34FFF583AB0AAA0BA90C4B
:10224400EF12017BE50EFFE50D24FFF582EC34FF70
:06225400F583EF02017B9F
:081FAB008D0D8B0A8A0B890CD5
:101FB300C3E50D9402FD121E048E0E8F0FE50DFD79
:101FC3007C0024FEF582EC34FFF583AB0AAA0BA94F
:101FD3000C12013C650F60037F002274FF2DF58214
:101FE30074FF3CF58312013CFDE50E6D60037F0039
:031FF300227F0149
:011FF60022C8
:041DA200AD07AC06D7
:101DA600D3ED94FFEC940340047C037DFFEDAE0479
:101DB6007805CEC313CE13D8F9FFED541FF9EF25DE
:101DC600E02450F582E43418F583E493FC7401931F
:101DD600FBAA04EF25E02452F582E43418F583E4E7
:101DE60093FE740193C39BFFEE9AFEAD017C001235
:0D1DF600019D7D20120204EF2BFFEE3AFE4E
:011E030022BC
:10229800C3EF9437EE94005004E4FD8029C3EF9413
:1022A8005FEE940050047D01801CC3EF9482EE948D
:1022B8000050047D02800FC3EF94B4EE94005004E4
:0822C8007D0380027D04AF05D7
:0122D00022EB
:10178E00900073E0FFD3946450048F13807E90001A
:10179E006EE0FF7E007C007D0A12019DC3900075F5
:1017AE00E09FFF900074E09EFE90004CE07012C32C
:1017BE00EE6480948040047D1E80027D008D138037
:1017CE0013C3EF94F6EE6480947F40047D1E800276
:1017DE007D008D13E5136034D3EF9400EE64809496
:0317EE008040290F
:1017F1007C007D0712019D7D0A1202048E148F1553
:10180100D3E5159446E51464809480400675140070
:09181100751546E515241EF513BA
:10181A0090004CE06513600FE513F0751964E4FB62
:07182A007D64AF13121A9D4B
:011831002294
:101BB80090006EE0FF7E007C007D0A12019DC390BC
:101BC8000075E09FF514900074E09EF513900019DD
:101BD800E0705A7F0212233DEF6401605090005577
:101BE800E07023C3E514941EE513648094804016C6
:101BF8007B407A007D147F0212163BEF6402702D41
:101C080090005504F022900055E0B40120D3E5146B
:101C180094F6E5136480947F50137BC07AFF7D149B
:0D1C28007F0212163BBF0205E4900055F04C
:011C3500228C
:02158D00AB07AA
:10158F00E4FA90004CE0D3940040010A900055E03B
:10159F00600343020290006EE0FF7E007C007D0A34
:1015AF0012019D900074E0FCA3E0FDC39FEE6480E8
:1015BF00F8EC648098400343020490004AE0D3940F
:1015CF00015003430208900073E0D3946450034327
:1015DF000210900019E0600343022090005E740235
:1015EF00F0A3EBF0A3740BF0A3EAF07B017A007980
:1015FF006212001690004AE0900064F090004CE0F8
:10160F00900065F07A00796690007112000E7A00F2
:10161F00796890006F12000E90004BE090006AF016
:0C162F00E4A3F07A00795E7D1002221C1A
:100F8000900056E0640260030210757B017A0079DC
:100F9000567D08121FABEF700F900001E004F07057
:100FA00006900000E004F02290001CE004F07006BF
:100FB00090001BE004F0900057E024FA602924F62A
:100FC000600C240D60030210757F03021065900011
:100FD00058E0FFC3940A400BEFD3942850059000CB
:100FE0006EEFF07F10807E900058E0FFD394644055
:100FF00004EFB4FF0A900073EFF012178E80649034
:101000000058E0B4FE0AE4900019F0121BB88053B7
:0E101000900058E0FF64FD6005EF64FC704541
:10101E00900058E0B4FD047F0180027F008F09909C
:10102E0000197401F0900055E0650960287F0212E6
:10103E00233DEF6401601EE50960067A007B408067
:10104E00047AFF7BC07D147F0212163BBF0206900E
:05105E000055E509F05A
:101063007F0612158D7B017A00795E7D107C00125C
:0310730024022232
:1024D600AE031BEE601BED75F00A84EF2B244DF561
:1024E60082E43400F583E5F0F0ED75F00A84FD80B2
:0224F600DF22E3
:1022D1008C138D14AA07AF031BEF6029AE13AF1443
:1022E1007C007D0A1201AFEA2B244DF582E4340013
:1022F100F583EDF0AE13AF147C007D0A1201AF8EB1
:06230100138F1480D122AD
:100B0D007F0890004D740AF0A3DFFCE51B146053C1
:100B1D0014605B24027073900074E0FEA3E0FFC3C9
:100B2D00EE64809480500D90004D740CF0C3E49FE2
:100B3D00FFE49EFED3EF94E7EE6480948340047E41
:100B4D00037FE7AD07AC067B037F011222D1900036
:100B5D004FE02410F090004CE0FD7B037F05122444
:100B6D00D6804B90004D7401F09000718011900073
:100B7D004D7402F090004AE090004FF090006FE04D
:100B8D00FCA3E0FD7B047F04802190004D7403F0F5
:100B9D0090001BE0FCA3E0FD7B027F021222D190AE
:100BAD000000E0FCA3E0FD7B027F061222D1900045
:100BBD004DE0FFA3E0FDA3E0FBA3E0F516A3E0F5F8
:100BCD0017A3E0F518A3E0F519A3E0F51A122518FF
:100BDD007F0212233DEF6401604AE4FB90004CE07C
:100BED00D3940040010B900055E060034303029045
:100BFD00006EE0FF7E007C007D0A12019DC3900017
:100C0D0075E09FEE6480F8900074E0648098400376
:100C1D0043030490004AE0D394015003430308AF0B
:040C2D000312264147
:010C310022A0
:1018D50012000378097C007D007E007F0A12011644
:1018E500900071E50DF0A3E50EF090006FE50FF0A7
:1018F500A3E510F0C3E50E9401E50D94005006A391
:10190500E4F0A304F0D3900072E094FE900071E03F
:10191500940340077403F0A374FEF0900071E0FE99
:10192500A3E0FF121DA2900074EEF0A3EFF090006B
:101935006FE0FEA3E0FF12229890004AEFF0051C2D
:10194500E51CC394054009E4F51C12178E121BB85B
:10195500120B0D900049E004F0C3940A4002E4F034
:0A196500900049E0B405031210766B
:01196F002255
:04245C00E0FD7B0222
:10246000AE031BEE601FED75F00A84E5F02430FE2C
:10247000EF2B241EF582E43400F583EEF0ED75F0C9
:062480000A84FD80DB224E
:101422001225FCEF60030214D79000027F01122400
:101432005C90001A7F0412245C90001DE0FD7B0288
:101442007F07122460900074E0F50EA3E0F50FC34D
:10145200E50E6480948050047F2D80027F2B9000E3
:101462002AEFF0C3E50E64809480500BC3E4950F1D
:10147200F50FE4950EF50ED3E50F94E7E50E6480C3
:1014820094834006750E03750FE7AE0EAF0F7C0016
:101492007D64120204AD077B017F0D122460AE0E43
:1014A200AF0F7C007D641202047B027F0E12246067
:1014B20090004AE0FD7B017F1212246090004CE014
:1014C200FD7B037F151224607B017A00791E7D2B40
:0514D2007C001224AEB5
:0114D70022F2
:101076001225FCEF6003021164900071E0FEA3E00C
:10108600FBAA067C007D0AFF1201AFED243090001A
:101096000DF07C007D0AAF03AE021201AFAA06ABCB
:1010A600077C007D0A1201AFED243090000CF07C25
:1010B600007D0AAF03AE021201AFAA06AB077C00A1
:1010C6007D0A1201AFED243090000BF07C007D0A02
:1010D600AF03AE021201AF7C007D0A1201AFED2410
:1010E6003090000AF090006FE0FAA3E0FB7C007DF0
:1010F6000AFFAE021201AFED2430900016F07C001C
:101106007D0AAF03AE021201AFAA06AB077C007DD3
:101116000A1201AFED2430900015F07C007D0AAF75
:1011260003AE021201AFAA06AB077C007D0A1201CC
:10113600AFED2430900014F07C007D0AAF03AE02C0
:101146001201AF7C007D0A1201AFED24309000132E
:0E115600F07B017A0079037D167C001224AE36
:011164002268
:101F5B0012263478097C007D007E007F0512011665
:101F6B0090004BE50DF090001DE004F0C3943C4055
:101F7B001AE4F090001AE004F0943C400EE4F09068
:101F8B000002E004F094184002E4F01214229000D6
:0F1F9B004BE0600B7D037C007FA07E0F121CB318
:011FAA002214
:10215A00E4FF12219DBF0112E51B045403F51B7D08
:10216A00037C007FB87E0B121CB37F0112219DBF36
:10217A000120900073E0B4FF047F6480027FFF9027
:10218A000073EFF012178E7D057C007FD07E071258
:03219A001CB32251
:101FF7007F051220D0BF011790006EE0C3942850D0
:1020070003E004F07D037C007FAC7E0D121CB37FE0
:10201700021220D0BF011790006EE0D3940A40034C
:10202700E014F07D037C007FC47E09121CB37F039C
:0A2037001220D0BF0103E4F51B22C4
:100D55001225557D07E4FF1226101225381224F8B6
:100D65001225707F9812236F7F011223077519646E
:100D7500E4FB7D64FF121A9D750D027F807E257D43
:100D8500007C001214D8750E00750F00751000E474
:100D9500F511F5127B017A0079567D08FC1223A026
:100DA500E4F508E50890189293FF741E2508F5826E
:100DB500E43400F583EFF00508E508B42BE5900071
:100DC500407431F0A314F0E4F508E5089018BE93DB
:100DD500FF74032508F582E43400F583EFF0050878
:050DE500E508B416E56D
:100DEA00E4900002F090001AF090001DF090004983
:100DFA00F090004CF0900055F0900019F090004BE4
:100E0A00F090001BF0A3F0900000F0A3F0900074A3
:100E1A00F0A3F090004AF0900071F0A3F090006FF8
:100E2A00F0A3F07F807E25FDFC121D2B7BFF7A1834
:100E3A0079D57F02121C367BFF7A1F795B7F0312FA
:100E4A001C367BFF7A21795A7F04121C367BFF7A83
:100E5A001F79F77F07121C367BFF7A0F79807F0A8A
:0B0E6A00121C3612264712225A80FB91
:092607008B88898C88898F8889F1
:100E7D005200F0868600868600868600868600866D
:090E8D0086008686004100E5099B
:03002B0002263B6F
:06263B0053BCEFD20F3288
:02083100154868
:10083300200F030209DAC20F9000E4E0B40900407C
:10084300030209BC90084EF8282873020895020891
:100853006902087B0208A702086902087B0208BE36
:1008630002086902087BAFBDEFFEADBE7C00E42D3C
:10087300FFEC3E9000E6803CAFBDEFFEADBE7C00DA
:10088300E42DFFEC3E9000E8F0A3EFF0751D0102AC
:1008930009C2AFBDEFFEADBE7C00E42DFFEC3E9080
:1008A30000EA8010AFBDEFFEADBE7C00E42DFFEC8F
:1008B3003E9000ECF0A3EFF00209C2AFBDEFFEAD36
:1008C300BE7C00E42DFFEC3E9000EEF0A3EFF09031
:1008D30000EEE0FEA3E07807CEC313CE13D8F9A849
:1008E30048F6C394065013A848E675F003A424F011
:1008F300F582E43400F583E014F09000E5E014F0B1
:1009030060030209C27409F0A848E4F6A848E6FFA8
:10091300C3940640030209C2EF75F003A424F0F563
:1009230082E43400F583E0C39480502AE6FF75F037
:1009330003A424F1F582E43400F583E0D3948040EA
:1009430040EF75F003A424F2F582E43400F58374D8
:1009530001F0F51E802BA848E6FF75F003A424F1EF
:10096300F582E43400F583E0C394805014EF75F00E
:1009730003A424F2F582E43400F5837402F0751EB7
:1009830001A848E6FF75F003A424F0F582E43400DF
:10099300F583E0FEEF75F003A424F1F582E434005F
:1009A300F583EEF0E675F003A424F0F582E4340059
:1009B300F5837486F00602090F9000E474FFF0904B
:1009C30000E4E0D39407400374FFF09000E4E004F4
:0709D300F090260793F5BC2C
:0309DA00054822AB
:0225C7001548B5
:0925C900A848A61EE4F51EE6FF79
:0325D20005482297
:0225D5001548A7
:0925D700A848A61DE4F51DE6FF6D
:0325E00005482289
:10236F008F9D75BC88439720D2AD9000BB74FFF052
:10237F00A37408F0A37431F0A374FFF0A37425F0D5
:10238F00A374C7F0A374FFF0A37425F0A374D5F062
:01239F00221B
:070003007B017A0079E6227F
:1020D000C3EF64809480403BD3EF64809485503399
:1020E000EFFD3395E0FC9000F275F003ED1203D99B
:1020F000EC75F003A42583F583E0FE9000F275F003
:1021000003ED1203D9EC75F003A42583F583E4F005
:05211000AF06227F0371
:0121150022A7
:042486001548154898
:10248A00122619A848A60608A607A848E6FE08E6DE
:0F249A00FF4E600BEF24FFFFEE34FFFE122622F1
:0524A900054805482272
:1024F80053B1EF43B21012003EE4F5D975DA49D270
:10250800DE9000B574FFF0A37424F0A37486F02263
:081CB3008E0E8F0F8C108D11B5
:101CBB00122619EF4E7066AF11AE10122622C3E535
:101CCB000F940AE50E9400404BE47B18FAF9F89058
:101CDB0018321203BD1202F1C006C007AE0EAF0FD1
:101CEB00AB07AA06E4F9F8D007D0061202F1AB074E
:101CFB00AA06AFF9EFFEADE97C00E42DFFEC3ECF79
:101D0B002BCF3AAD07FCAF03AE02122588D2D843D6
:0F1D1B00DA01800612003E53DAFE7F02227F03B8
:011D2A002296
:0C002E00122619EF4E7002FF227F012203
:10125200E4F58090014DE0FFB40800505F90126603
:10126200F828287302127E02128402128A02129055
:101272000212960212A00212AA0212B4C2A3C2A2BF
:101282008016C2A3C2A2801AC2A3C2A2801EC2A397
:10129200C2A28022C2A3D2A2C2A1C2A08020C2A3A3
:1012A200D2A2C2A1D2A08016C2A3D2A2D2A1C2A0AF
:1012B200800CC2A3D2A2D2A1D2A08002D2A3C3EF39
:1012C20064809488502990014DE0FF3395E0FE74CC
:1012D200442FF58274013EF583E0FF3395E0FE74FE
:1012E200362FF58274183EF583E493F580801E90C4
:1012F200014DE0FFB408133395E0FE74442FF582EC
:1013020074013EF583E0F5808003E4F580900143AB
:10131200E0FF90014DE004FEF0D3EF6480F8EE644C
:1013220080984014E0D36480948850047408F022BA
:09133200900142E090014DF0220F
:10255500E4F5937594FF5395F043960F9000A0749E
:0B256500FFF0A37412F0A37452F022E8
:09261000900142EFF0A3EDF0226D
:10251800900144EFF0A3EDF0A3EBF0A3E516F0A3D0
:10252800E517F0A3E518F0A3E519F0A3E51AF022E2
:0626410090014CEFF022B5
:100E9600011F0049015A94940094940094940041CF
:030EA60001591ED1
:020C3200154863
:100C340020B20690015AE014F020B30690015DE062
:100C440014F0209706900160E014F0900159E0142C
:100C5400F06003020D52741EF0A848E4F6A848E6BA
:100C6400FFC3648094834003020D52EF3395E0FE8A
:100C740090015A75F003EF1203D9EE75F003A42521
:100C840083F583E0C39480503990015B75F003EFE2
:100C94001203D9EE75F003A42583F583E0D3948081
:100CA400405AE6FF3395E0FE90015C75F003EF12C5
:100CB40003D9EE75F003A42583F5837401F0F51FC1
:100CC400803AA848E6FF3395E0FE90015B75F00397
:100CD400EF1203D9EE75F003A42583F583E0C394E2
:100CE40080501990015C75F003EF1203D9EE75F092
:100CF40003A42583F5837402F0751F01A848E6FF59
:100D0400FD3395E0FC90015A75F003ED1203D9EC24
:100D140075F003A42583F583E0FE90015B75F00371
:100D2400ED1203D9EC75F003A42583F583EEF0EFFF
:100D34003395E0FE90015A75F003EF1203D9EE7576
:0E0D4400F003A42583F5837494F006020C617D
:030D52000548222F
:0225E300154899
:0925E500A848A61FE4F51FE6FF5B
:0325EE000548227B
:102538009000A674FFF0A37425F0A374E3F0900054
:0D254800A374FFF0A3740CF0A37432F02212
:10219D00EF600764016003BF0233EFFD3395E0FC90
:1021AD0090015C75F003ED1203D9EC75F003A425D5
:1021BD0083F583E0FE90015C75F003ED1203D9EC1D
:0F21CD0075F003A42583F583E4F0AF06227F03AA
:0121DC0022E0
:100EA90055010300000000000000000000000000E0
:0C0EB900000000000000000041010200E9
:0203EB001548B3
:1003ED00A848E4F6A848E6FFC3648094834003025E
:1003FD00065CEF3395E0FE90010375F007EF1203F5
:10040D00D9EE75F007A42583F583E0FCA3E04C70CD
:10041D000302065690010575F007EF1203D9EE752C
:10042D00F007A42583F583E0FEA3E04E70030206DA
:10043D0056E6FFFD3395E0FC90010775F007ED12D0
:10044D0003D9EC75F007A42583F58374FFF5F0123D
:10045D00023A45F0600302065690010575F007ED6E
:10046D001203D9EC75F007A42583F583E0FAA3E018
:10047D00FB90010775F007ED1203D9EC75F007A499
:10048D002583F583EAF0A3EBF0EF3395E0FE9001C1
:10049D000375F007EF1203D9EE75F007A42583F568
:1004AD0083E0FCA3E0D39400EC648094804056A8D4
:1004BD0048E6FD3395E0FC90010375F007ED12035E
:1004CD00D9EC75F007A42583F58374FFF5F01202BE
:1004DD003A90010975F007ED1203D9EC75F007A4F8
:1004ED002583F583E004F0D36480948340729001FA
:1004FD000975F007EF1203D9EE75F007A42583F502
:10050D0083E4F0805BA848E6FFFD3395E0FC9001A5
:10051D000375F007ED1203D9EC75F007A42583F5EB
:10052D0083E475F00112023A90010975F007ED129E
:10053D0003D9EC75F007A42583F583E014F0C364AB
:10054D00809480501BEF3395E0FE90010975F00704
:10055D00EF1203D9EE75F007A42583F5837403F02C
:10056D00A848E6FFFD3395E0FC90010975F007ED15
:10057D001203D9EC75F007A42583F583E014603CD4
:10058D001460661470030206232403600302064EF2
:10059D00EF1460101460192402600302064ED2C1DC
:1005AD00C2C28029900102E054F04401F002064ECF
:1005BD00900102E0540F4410F002064EA848E614D4
:1005CD00601114601924027078C2C1D2C2C2C3C2B4
:1005DD00C4806E900102E054F04402F080639001FB
:1005ED0002E0540F4420F08058A848E6146011141E
:1005FD0060192402704BC2C1C2C2D2C3C2C48041B1
:10060D00900102E054F04404F08036900102E05471
:10061D000F4440F0802BA848E61460111460192493
:10062D0002701EC2C1C2C2C2C3D2C48014900102E4
:10063D00E054F04408F08009900102E0540F44802A
:0F064D00F0900102E0FF122641A848060203F1D7
:03065C000548222C
:1025700053B3E143B41E53C0E19000CA74FFF0A30B
:082580007403F0A374EBF022D8
:10163B008F15EF3395E0FE90010375F007EF120362
:10164B00D9EE75F007A42583F583E0FEA3E04E6089
:10165B00030216E3E515600A64016006E5156402F2
:10166B007076ED60737C007E037FE81201AFAD15E1
:10167B00ED3395E0FC90010575F007ED1203D9EC05
:10168B0075F007A42583F583EEF0A3EFF090010529
:10169B0075F007ED1203D9EC75F007A42583F583DC
:1016AB00E0FEA3E0FF90010775F007ED1203D9EC04
:1016BB0075F007A42583F583EEF0A3EFF0900103FB
:1016CB0075F007ED1203D9EC75F007A42583F583AC
:0B16DB00EAF0A3EBF07F02227F032265
:10204100EF600764016003BF023AEFFD3395E0FCE6
:1020510090010375F007ED1203D9EC75F007A42583
:1020610083F583E0FAA3E0FB90010375F007ED121D
:1020710003D9EC75F007A42583F583E4F0A3F0AE52
:0720810002AF0322E4FEFFA1
:012088002235
:10233D00EF600764016003BF0225EF3395E0FE9067
:10234D00010375F007EF1203D9EE75F007A425838D
:10235D00F583E0FEA3E04E60037F01227F00227F24
:02236D00032249
:100EC5004100760A41009F0A4100E30A0428000018
:100ED5000000012E004600DD0000FFFF8FFFC10D61
:100EE500C105C108C101C10E6024007BFF000AFFD6
:100EF500000AFF000AFF000AFF000AFF000AFF00C0
:100F05000AFF000AFF000AFF000AFF000AFF000AA5
:100F1500603600A0FF000AFF000AFF0026FF000A56
:100F2500FF0026FF000AFF0026FF000AFF000AFF58
:100F3500000AFF0026FF0026FF0026FF0026FF000F
:0A0F45000AFF000AFF000AFF000A7D
:01000A0022D3
:030026007F002236
:10208900438E805389F07BE07A2879017800901893
:10209900321203BD122116EFF404F58A7BE07A2887
:1020A900790178009018321203BD122116C3E49FFA
:1020B900FFE49EFE74019DFDE49CFC7808120396E2
:0720C9008F8CD28CD2A922FA
:03000B00021F09C8
:041F0900C0E0C0D0A4
:101F0D00D5220A75224C300D02052ED20DA2037278
:101F1D000450361524E5247030852624D207300A66
:101F2D0017E52760071527438F01801D538FFEC2CC
:101F3D00B5D53015C20A80110525E525D394064087
:091F4D0008C203E52D6002D20672
:051F5600D0D0D0E03204
:101EB600300E47C20E9018321203BD7810120396E8
:101EC6008E448F45900079E0FEA3E0FFE4FCFD7BA5
:101ED60019FAF9F8120266C006C007AE44AF45AB60
:101EE60007AA06E4F9F8D007D006122116780312DD
:101EF60003969000DBEEF0A3EFF09000DBE0FEA38C
:021F0600E0FFFA
:011F080022B6
:092619009000DDE0FEA3E0FF22C9
:092622009000DDEEF0A3EFF022C0
:102588009000E1EEF0A3EFF09000DFECF0A3EDF0A7
:012598002220
:03003E00C2B42227
:03003B000216E6C4
:1016E600C0E0C083C082C0D075D000C004C005C0B1
:0316F60006C00724
:1016F90030DF04C2DF807D30DA04C2DA807630D987
:101709003DC2D9AFFBEFFEADEB7C00E42DFFEC3E13
:1017190020000E900077F0A3EFF075DB11D2008066
:1017290053FE900077E0FCA3E0FDC3EF9DFFEE9C24
:10173900A3F0A3EFF075DB00C200D20E803630D8DB
:1017490033C2D89000DDE07002A3E06022B2B49009
:1017590000DFE0FEA3E0F5EAEEF5FAA3E0FEA3E080
:10176900FF9000E0E02FF09000DFE03EF08005C23E
:04177900B453DAFE8D
:10177D00D007D006D005D004D0D0D082D083D0E011
:01178D003229
:06264700122089D2AF222F
:101B2D003004047F0180027F00200A047E018002C0
:101B3D007E00EE5F6074E52FC3952350683002364A
:101B4D00752701E52F131313541FAB31AA32A93397
:101B5D00F58275830012013CFFE52F540704FEEF5B
:101B6D00A806088002C333D8FC30D7057530038032
:101B7D002F753001802AAB31AA32A93375F002E5F9
:101B8D002FA4F58285F08312013CF527E52F75F022
:101B9D0002A429F9EA35F0FA90000112013CF53062
:0A1BAD00052FD20A22C204438F1054
:011BB700220B
:10116500900076E014F0701F740AF0D20590009F8D
:10117500E014F07012740AF0D2089000E3E014F065
:101185007005740AF0D2019000A0A3E0FAA3E0F97B
:101195001203E59000A3A3E0FAA3E0F91203E5909A
:1011A50000AFA3E0FAA3E0F91203E59000BBA3E0CA
:1011B500FAA3E0F91203E59000CAA3E0FAA3E0F967
:1011C5001203E59000D3A3E0FAA3E0F91203E5903A
:1011D50000C1A3E0FAA3E0F91203E5EF600C90006B
:1011E50093A3E0FAA3E0F91203E59000C4A3E0FAA3
:1011F500A3E0F91203E5EF600E900096A3E0FAA3D1
:10120500E0F91203E5D20BE52CD394004016D52C5A
:101215003030090C900099A3E0FAA3E0F91203E538
:10122500D20C801D9000C7A3E0FAA3E0F91203E5F4
:10123500EF600E900099A3E0FAA3E0F91203E5D25E
:0D1245000C90007BA3E0FAA3E0F90203E5A2
:101A0A009000B5A3E0FAA3E0F91203E59000B8A3A9
:101A1A00E0FAA3E0F91203E59000A9A3E0FAA3E033
:101A2A00F91203E590007EA3E0FAA3E0F91203E5B8
:101A3A009000A6A3E0FAA3E0F91203E5EF600C9088
:101A4A000087A3E0FAA3E0F91203E59000ACA3E053
:101A5A00FAA3E0F91203E5EF600C90008DA3E0FA17
:101A6A00A3E0F91203E59000BEA3E0FAA3E0F9129D
:101A7A0003E5EF600C900090A3E0FAA3E0F91203EB
:101A8A00E530060EC20690009CA3E0FAA3E0F91224
:031A9A0003E5223F
:1021DD00900081A3E0FAA3E0F91203E59000B2A309
:1021ED00E0FAA3E0F91203E5EF600C90008AA3E09A
:1021FD00FAA3E0F91203E59000CDA3E0FAA3E0F90C
:0F220D001203E59000D0A3E0FAA3E0F90203E585
:10243100AF2BAE2AAD29AC289000D61203CD900067
:10244100DAE52EF0E4F52BF52AF529F528F52E909D
:0B2451000084A3E0FAA3E0F90203E519
:10225A00300705C207121B2D300D05C20D1211657C
:10226A00300505C205121A0A300805C2081221DD16
:10227A00300105C201122431E52B2401F52BE43586
:0E228A002AF52AE43529F529E43528F528221D
:101C36008B098A0A890BEFB40C005070901C49F886
:101C4600282873021C6D021C72021C77021C7C027F
:101C56001C81021C86021C8B021C90021C95021C15
:101C66009A021C9F021CA490007B803590007E8007
:101C760030900081802B9000848026900087802100
:101C860090008D801C90008A8017900090801290A2
:101C96000093800D90009680089000998003900034
:0D1CA6009CE509F0A3E50AF0A3E50BF02290
:072634007B017A0079D62238
:101A9D008B18AA077C007E037FE81201AF900155D9
:101AAD00EEF0A3EFF0E519FD7C007E037FE8120157
:101ABD00AFA3EEF0A3EFF0AF02AB07E4FAF9F890A5
:101ACD000155E0FEA3E0FFE4FCFD120266EF2432B7
:101ADD00FFE43EFEE43DFDE43CFCE47B64FAF9F8F2
:101AED0012211690014FEEF0A3EFF0AF18AB07E403
:101AFD00FAF9F8900157E0FEA3E0FFE4FCFD1202B5
:101B0D0066EF2432FFE43EFEE43DFDE43CFCE47B65
:101B1D0064FAF9F8122116900151EEF0A3EFF022BC
:101E5D00E4F50CF50BF50AF509F50DD291AF0CAEC5
:101E6D000BAD0AAC0978011203AA8F0C8E0B8D0AEB
:101E7D008C0900C291309015E4FAF9F8EF2401F5C0
:101E8D000CEA3EF50BE93DF50AE83CF509050DE5D3
:101E9D000DB418C700D2910000C291AF0CAE0BADBE
:081EAD000AAC09780812039643
:011EB500220A
:09262B00900153E0FEA3E0FF2240
:0F259900900153E0FEA3E0FFE4900153F0A3F0A4
:0125A8002210
:10133B0090014EE0700F30900122121E5D90015310
:10134B00EEF0A3EFF090014EE0FF64017062053FF9
:10135B00E53F7002053EFDD3900156E09D9001558F
:10136B00E0953E5005E4F53EF53FD3900150E095F6
:10137B003F90014FE0953E4004D2908002C2900511
:10138B0041E54170020540FDD3900158E09D90016D
:10139B0057E095405005E4F540F541D3900152E0FC
:1013AB009541900151E095404004D2918002C29149
:1013BB00EF6402703E2090047F0180027F00E542C3
:1013CB0060047E0180027E00EE5F60213091109000
:1013DB000154E004F07016900153E004F0800E907D
:1013EB000154E024FFF0900153E034FFF0A290E4AD
:1013FB0033F54290014EE0B4031CE5437002D291E9
:10140B00E543B40105C29175DB210543E543C39464
:06141B00C84003E4F543A4
:0114210022A8
:1023070090014EEFF07004C2918002D29190014E7D
:10231700E0B40310E5A254CFF5A2E4F5D975DB01CB
:10232700D2DE8003E4F5DB9000D374FFF0A37413CF
:06233700F0A3743BF0224C
:100F4F005501180000000000000000000000000024
:080F5F00000001000000000089
:0300430002065F53
:10065F00C0E0C0F0C083C082C0D075D000C000C061
:10066F0001C002C003C004C005C006C007E59A3030
:10067F00E142539AFD90011DE0FEA3E0FFC39001FC
:10068F001CE09F90011BE09E501F900118E0FBA300
:10069F00E0FAA3E0F9A3E475F00112025085F082AD
:1006AF00F58312013CF59B800B90011FE4F0E547A9
:1006BF006002C2B7E59A20E003020816539AFE3093
:1006CF000C0BC20C900125E4F0A3F0D209E54764AE
:1006DF00026003020770900123E0FEA3E0FFA3E096
:1006EF00FCA3E0FDC39FEC9E5071900120E0FBA3A3
:1006FF00E0FAA3E0F98D828C83E59B12017B9001D8
:10070F002BE0FEA3E0FFC3ED9FEC9E504090012332
:10071F00E0FCA3E0FDEF9DEE9C5032900128E0FB42
:10072F00A3E0FAA3E0F9900125E0FEA3E0FFF58234
:10073F008E8312013CFD900120E0FBA3E0FAA3E0C1
:10074F00F98F828E8312013C6D6002C209900126DF
:10075F00E004F07006900125E004F085462C0208B5
:10076F0016900123E0FEA3E0FFA3E0FCA3E0FDC38E
:10077F009FEC9E5077900120E0FBA3E0FAA3E0F9F5
:10078F008D828C83E59B12017B90012BE0FEA3E011
:10079F00FFC3ED9FEC9E5046900123E0FCA3E0FDCC
:1007AF00EF9DEE9C5038900128E0FBA3E0FAA3E008
:1007BF00F9900125E0FEA3E0FFF5828E8312013C44
:1007CF00FD900120E0FBA3E0FAA3E0F98F828E8376
:1007DF0012013C6D600890012574FFF0A3F09001A9
:1007EF0026E004F07006900125E004F0900123E06C
:1007FF00FEA3E0FFC3900126E09F900125E09E40FD
:10080F00069001277401F0D007D006D005D004D090
:10081F0003D002D001D000D0D0D082D083D0F0D07E
:02082F00E032B5
:0225A9001548D3
:0A25AB00900127E0A848F6FFE4F0D5
:0325B500054822B4
:0100210022BC
:1014D8008F0C8E0B8D0A8C09850D47E547700280AD
:1014E8000343BA01E54770179000D374FFF0A37463
:1014F80000F0A37421F0E4F5DBD290D2918020C2F1
:10150800B7AB0CAA0BA90AA809E47F407E9CFDFC96
:101518001202F18F46E546700375460185462C7523
:101528009A10E47B04FAF9F89018321203BD1202FB
:10153800F1AB0CAA0BA90AA8091202F1EFF404F501
:10154800D7E47B04FAF9F89018321203BD1202F1BD
:10155800AB0CAA0BA90AA8091202F1C3E49FFFE485
:101568009EFE74019DFDE49CFC78081203838FD6CF
:10157800438E1443AF019000C774FFF0A37425F0A5
:05158800A374A9F0228C
:1023A000900120EBF0A3EAF0A3E9F0A3ECF0A3ED99
:1023B000F090012BE511F0A3E512F0900128E50E55
:1023C000F0A3E50FF0A3E510F0D20CE4900127F0A4
:0123D00022EA
:1024020090011FE07026900118EBF0A3EAF0A3E917
:10241200F0E4A3F0A3F0A3ECF0A3EDF0A37401F0B9
:0F242200E5476002D2B7439A027F02227F03226E
:0B25F10090011FE07002FF227F01221A
:100F670055012D00000000000000000000000000F7
:080F7700000001000000000071
:030023000209DDF2
:1009DD00C0E0C0F0C083C082C0D075D000C000C0E0
:1009ED0001C002C003C004C005C006C00730993B5A
:1009FD00C299900132E0FEA3E0FFC3900131E09F68
:100A0D00900130E09E501F90012DE0FBA3E0FAA372
:100A1D00E0F9A3E475F00112025085F082F583121E
:100A2D00013CF5998005900134E4F0209803020A09
:100A3D00F2C298300B09C20B90013AE4F0A3F0908A
:100A4D000138E0FEA3E0FFA3E0FCA3E0FDC39FECB3
:100A5D009E5077900135E0FBA3E0FAA3E0F98D827B
:100A6D008C83E59912017B900140E0FEA3E0FFC36A
:100A7D00ED9FEC9E5046900138E0FCA3E0FDEF9D0C
:100A8D00EE9C503890013DE0FBA3E0FAA3E0F99015
:100A9D00013AE0FEA3E0FFF5828E8312013CFD904A
:100AAD000135E0FBA3E0FAA3E0F98F828E831201FA
:100ABD003C6D600890013A74FFF0A3F090013BE0AB
:100ACD0004F0700690013AE004F0900138E0FEA3C6
:100ADD00E0FFC390013BE09F90013AE09E400690FD
:100AED00013C7401F0D007D006D005D004D003D05E
:100AFD0002D001D000D0D0D082D083D0F0D0E0325F
:0225B8001548C4
:0A25BA0090013CE0A848F6FFE4F0B1
:0325C400054822A5
:101D2B008F0C8E0B8D0A8C09759850438E40538EF9
:101D3B00FE53890FE47B04FAF9F89018321203BDB5
:101D4B001202F1AB0CAA0BA90AA8091202F1EFF4CB
:101D5B0004F58BE47B04FAF9F89018321203BD12E8
:101D6B0002F1AB0CAA0BA90AA8091202F1C3E49F5A
:101D7B00FFE49EFE74019DFDE49CFC780812038336
:101D8B008F8DC2ABD28ED2AC9000C474FFF0A37413
:071D9B0025F0A374B8F0224B
:1023D100900135EBF0A3EAF0A3E9F0A3ECF0A3ED53
:1023E100F0900140E53CF0A3E53DF090013DE53979
:1023F100F0A3E53AF0A3E53BF0D20BE490013CF009
:0124010022B8
:1024AE00900134E0701F90012DEBF0A3EAF0A3E948
:1024BE00F0E4A3F0A3F0A3ECF0A3EDF0A37401F00D
:0824CE00D2997F02227F032254
:0B25FC00900134E07002FF227F0122FA
:0300000002197072
:10197000787FE4F6D8FD9000007F007E07E4F0A3B6
:0A198000DFFCDEFA7581480219C58C
:10198A00020D55E493A3F8E493A34003F68001F211
:10199A0008DFF48029E493A3F85407240CC8C3335E
:1019AA00C4540F4420C8834004F456800146F6DF2D
:1019BA00E4800B0102040810204080900E75E47E3A
:1019CA00019360BCA3FF543F30E509541FFEE49322
:1019DA00A360010ECF54C025E060A840B8E493A3E9
:1019EA00FAE493A3F8E493A3C8C582C8CAC583CA14
:1019FA00F0A3C8C582C8CAC583CADFE9DEE780BECC
:010F7F000071
:10004600E709F608DFFA8046E709F208DFFA803E9C
:1000560088828C83E709F0A3DFFA8032E309F60889
:10006600DFFA8078E309F208DFFA807088828C83F1
:10007600E309F0A3DFFA806489828A83E0A3F608A5
:10008600DFFA805889828A83E0A3F208DFFA804C7F
:1000960080D280FA80C680D4806980F28033801056
:1000A60080A680EA809A80A880DA80E280CA8033BF
:1000B60089828A83ECFAE493A3C8C582C8CCC58337
:1000C600CCF0A3C8C582C8CCC583CCDFE9DEE78007
:1000D6000D89828A83E493A3F608DFF9ECFAA9F086
:1000E600EDFB2289828A83ECFAE0A3C8C582C8CCDC
:1000F600C583CCF0A3C8C582C8CCC583CCDFEADEF5
:10010600E880DB89828A83E493A3F208DFF980CC56
:1001160088F0EF60010E4E60C388F0ED2402B4044F
:100126000050B9F582EB2402B4040050AF232345F6
:0601360082239000967385
:10013C00BB010CE58229F582E5833AF583E0225078
:10014C0006E92582F8E622BBFE06E92582F8E222C2
:0D015C00E58229F582E5833AF583E49322DC
:10016900BB010689828A83F0225002F722BBFE0175
:02017900F3226F
:10017B00F8BB010DE58229F582E5833AF583E8F0BA
:10018B00225006E92582C8F622BBFE05E92582C866
:02019B00F2224E
:10019D00EF8DF0A4A8F0CF8CF0A428CE8DF0A42E76
:0201AD00FE2230
:1001AF00BC000BBE0029EF8DF084FFADF022E4CC34
:1001BF00F875F008EF2FFFEE33FEEC33FCEE9DECFD
:1001CF00984005FCEE9DFE0FD5F0E9E4CEFD22ED43
:1001DF00F8F5F0EE8420D21CFEADF075F008EF2F8D
:1001EF00FFED33FD4007985006D5F0F222C398FD7E
:0501FF000FD5F0EA221B
:10020400C2D5EC30E709B2D5E4C39DFDE49CFCEE15
:1002140030E715B2D5E4C39FFFE49EFE1201AFC3DD
:10022400E49DFDE49CFC80031201AF30D507C3E4D8
:060234009FFFE49EFE2284
:10023A00C5F0F8A3E028F0C5F0F8E582158270024F
:06024A001583E038F022EC
:10025000A3F8E0C5F025F0F0E58215827002158361
:06026000E0C838F0E822BE
:10026600E88FF0A4CC8BF0A42CFCE98EF0A42CFC37
:100276008AF0EDA42CFCEA8EF0A4CDA8F08BF0A4B5
:100286002DCC3825F0FDE98FF0A42CCD35F0FCEB14
:100296008EF0A4FEA9F0EB8FF0A4CFC5F02ECD39D9
:0F02A600FEE43CFCEAA42DCE35F0FDE43CFC2246
:1002B50075F008758200EF2FFFEE33FECD33CDCC00
:1002C50033CCC58233C5829BED9AEC99E582984083
:1002D5000CF582EE9BFEED9AFDEC99FC0FD5F0D660
:1002E500E4CEFBE4CDFAE4CCF9A88222B800C1B98A
:1002F5000059BA002DEC8BF084CFCECDFCE5F0CBC8
:10030500F97818EF2FFFEE33FEED33FDEC33FCEB00
:1003150033FB10D703994004EB99FB0FD8E5E4F9BB
:10032500FA227818EF2FFFEE33FEED33FDEC33FCA8
:10033500C933C910D7059BE99A4007EC9BFCE99A9C
:10034500F90FD8E0E4C9FAE4CCFB2275F010EF2FE1
:10035500FFEE33FEED33FDCC33CCC833C810D707E1
:100365009BEC9AE899400AED9BFDEC9AFCE899F81C
:0E0375000FD5F0DAE4CDFBE4CCFAE4C8F922AF
:10211600C2D5E830E70FB2D5E4C39BFBE49AFAE4F4
:1021260099F9E498F8EC30E717B2D512214C12026F
:10213600F1E4C39BFBE49AFAE499F9E498F8800386
:102146001202F130D50DE4C39FFFE49EFEE49DFD2F
:04215600E49CFC22E7
:10038300E8600FECC313FCED13FDEE13FEEF13FF58
:03039300D8F1227C
:10039600E86010ECA2E713FCED13FDEE13FEEF137D
:0403A600FFD8F0226A
:1003AA00E8600FEFC333FFEE33FEED33FDEC33FCB1
:0303BA00D8F12255
:1003BD00E493FC740193FD740293FE740393FF2286
:0C03CD00ECF0A3EDF0A3EEF0A3EFF022A3
:0C03D900A42582F582E5F03583F583222F
:0603E5008A838982E473A3
:00000001FF
