:101AEA0000A8C0003F065B4F666D7D077F6F000848
:101AFA0040014148BF86DBCFE6EDFD87FFEF1C0AB8
:101B0A002801000000010101070017010200003B43
:101B1A0001023C0AC80A010203AA41434B20733D51
:101B2A0030303020743D303020723D303020643DFA
:101B3A003030300D0A0043464720543D30302041B2
:101B4A003D3020483D3030204D3D3030204E3D3034
:101B5A0030300D0A00003021010902265B30303A8C
:101B6A0030303A30305D20542B303030204C302029
:101B7A00463030302044303030204130204F303031
:081B8A0020453030300D0A0047
:031413000138019C
:062A31007B017A0079AA86
:0D2A3700900001120155FD12013CFEEDFF63
:012A4400226F
:08225D008B2B8A2C892D8D2E9C
:1022650074FFF52FF530E4FDEDC3952E503EAB2BF5
:10227500AA2CA92D8D827583001201556230E4FCCC
:10228500E53030E015E52FC313FEE53013FFEE64AE
:10229500A0F52FEF6401F530800BE52FC313F52F63
:1022A500E53013F5300CBC08D70D80BCAE2FAF3030
:0122B5002206
:0F2A7800EFC4540F75F00AA4FEEF540F2EFF2287
:1028D700AE031BEE601BED75F00A84EF2B2479F530
:1028E70082E43400F583E5F0F0ED75F00A84FD80AD
:0228F700DF22DE
:102309008C248D25AA07C3E524648094805005E4B4
:10231900F524F525D3E52594E7E5246480948340E5
:10232900067524037525E7AE24AF257C007D64126C
:1023390001F9AD07AF027B011228D7EA04FFC007F4
:10234900AE24AF257C007D641201F9D0077B02021F
:0223590028D783
:101D8500E4FF122998EF64A56003021E1EE4F52402
:101D9500F523E52304FF12299874252523F8A607C2
:101DA50074252523F8E62524F5240523E523C39486
:101DB5000540DF7F06122998EF6524705CE4F52362
:101DC500E52375F005A42409F582E4341BF583E4C5
:101DD50093FF74252523F8E6FEC39F403CE5237554
:101DE500F005A4240AF582E4341BF583E493FFEEA1
:101DF500D39F50250523E523B405C5E4F5237425B4
:101E05002523F8E6FF74002523F582E43400F583E5
:091E1500EFF00523E523B405E517
:011E1E0022A1
:1021A500853723E523B401067DA5E4FF8035E523C6
:1021B500D394065013E52314FF74FE2523F582E41A
:1021C50034FFF583E0FD801BE4FDF5237400252332
:1021D500F582E43400F583E02DFD0523E523B40500
:1021E500EB7F0612000E0537E537D39407400DE463
:0C21F500F5377D0FFC7FA07E0F12204606
:0122010022BA
:10213500EF901B219390008BF0E490008DF0A3F0BD
:10214500A3F0A3F074062FF582E43400F583E06074
:102155002590008C7410F0EF700A900000E090005C
:102165008DF08018900001E090008DF0900004E063
:1021750090008EF0800690008C7403F07B017A004D
:10218500798B7D0612225DAC06EF900091F0AF04CD
:10219500A3EFF07B017A00798B7D087C000227187C
:10284300AE031BEE601FED75F00A84E5F02430FE45
:10285300EF2B2434F582E43400F583EEF0ED75F0CC
:062863000A84FD80DB2267
:1025D700AC05AA079000A6E0FD7B037F06122843FF
:1025E7009000A7E0FD7B027F0C122843AD027B021F
:1025F7007F11122843AD047B037F161228439000F6
:0E260700A47401F0E49000A6F0900093F0227D
:101C3A00122AE6EF6003021CDF900000E0FD75F057
:101C4A000A842430900055F0ED75F00A84E5F024FA
:101C5A0030A3F0900001E060047F0180027F00EF72
:101C6A00243090005AF0900002E0FD75F00A8424B6
:101C7A003090005EF0ED75F00A84E5F02430A3F0B0
:101C8A00900003E0FD75F00A842430900063F0EDC3
:101C9A0075F00A84E5F02430A3F0900004E0FD75A5
:101CAA00F064842430900068F0ED75F00A8475F0D1
:101CBA000A84E5F02430A3F0900004E075F00A8469
:101CCA00E5F0243090006AF07B017A00794F7D1E9E
:061CDA007C0012281B2211
:100D43007B017A00796E7D0812225D900076E06F58
:100D53006003020EEDAF06900077E06F6003020EB2
:100D6300ED90006FE0FF7003020EED9000A6EFF030
:100D7300900070E09000A7F0900071E064116003B0
:030D8300020E3726
:100D8600A3E0FDD394174003020E8A900073E0FDA2
:100D9600D3943B4003020E8A900074E0FDD3943B4B
:100DA6004003020E8A122B1C78247C007D007E00F4
:100DB6007F07120116900072E0FF75F00A84C45492
:100DC600F0FEEF75F00A84E5F04EF526A3E0FF7518
:100DD600F00A84C454F0FEEF75F00A84E5F04EF58F
:100DE60025A3E0FF75F00A84C454F0FEEF75F00AFF
:100DF60084E5F04EF524782B7C007D007B007A009C
:100E060079247E007F071201161229E878847C0077
:100E16007D017B007A0079247E007F07120116E4AB
:100E26009000A5F07D08FC7FB87E0B122046020ECE
:010E3600BDFE
:100E3700900071E0FD641060057F04020EDF9000F2
:100E470072E0F523A3E0FDE523C394054007AD2336
:100E57007F01020EDFE52375F005A42409F582E47E
:100E6700341BF583E493FFEDC39F4017E52375F02B
:100E770005A4240AF582E4341BF583E493FFEDD33C
:100E87009F40047F01805174002523F582E43400DC
:100E9700F583EDF07D057C007FB87E0B122046E5DB
:100EA7002375F005A4240CF582E4341BF583E49341
:100EB700F9C394024005E4FDFF801D740629F582FD
:100EC700E43400F5837401F0A801088002C333D825
:100ED700FC55407006FD7F020225D790006DE9F0B2
:060EE7009000937496F0E8
:010EED0022E2
:1017F100900094E0FFB40205E4F523800BEF64034D
:1018010060030218CC752301E523653A60030218D1
:10181100CC900096E0FFE52360047E0C80027E0BF5
:10182100EE6F60030218CCE4FF74962FF582E43466
:1018310000F583E0FEE52375F00CA424A8F582E40D
:101841003400F583E5822FF582E43583F583EEF0EC
:101851000FBF0CD574822523F582E43400F583E4AF
:10186100F0AF2304A807088002C333D8FC4240909C
:101871000095E0FFB4100D74062523F582E43400D1
:10188100F583E4F0900093E0601190006DE0B523E2
:101891000AEFB41006E4FDFF1225D7E523640170B9
:1018A1002A9000B8E0C39402400B7D147C007FB8FD
:1018B1007E0B122046900007E070109000BBE07094
:0B18C10003FF80027F01900001EFF0A8
:0118CC0022F9
:1027A0007B017A0079947D0E12225D9000A2E0B543
:1027B000070BAF06A3E0B507047536012290008130
:0927C000E0C394FF5003E004F0B3
:0127C90022ED
:1018CD00E534146016047070122ADBEF7079AF3AAC
:1018DD00122135E4F535753401806CE5366008E488
:1018ED00F5361217F180490535E535C3940F40578C
:1018FD007482253AF582E43400F583E0C3940350F5
:10190D000E7482253AF582E43400F583E004F07418
:10191D0082253AF582E43400F583E0C39403401048
:10192D00AF3A7401A807088002C333D8FCF45240C3
:10193D00E4F535753402800F0535E535C394054062
:10194D0006633A01E4F5349000A4E06017122AE62C
:10195D00EF70117B017A0079347D1BFC12281BE49A
:10196D009000A4F0900093E0600B14F0E07006FD81
:0D197D007F031225D7E53760031221A52254
:10081300E4F52374792523F582E43400F583740A1F
:10082300F00523E523B408EBE5321460511470039B
:100833000208CE14700302092C2403600302095238
:10084300900086E0FFC4540F900079F0EF540FA39B
:10085300F0A3740CF0900085E0FFC4540F90007C6B
:10086300F0EF540FA3F0A3740CF0900084E0FFC4E6
:10087300540F90007FF0EF540FA3F002098AE54074
:1008830020E01BE4F52374792523F582E43400F595
:1008930083740CF00523E523B408EB02098A122ABA
:1008A30031AD07AC06C3EC64809480500D900079A1
:1008B300740CF0C3E49DFDE49CFC7F0112230990BA
:1008C300007BE02410F09000AD807CE54020E11B2C
:1008D300E4F52374792523F582E43400F583740C5D
:1008E300F00523E523B408EB02098A9000B5E0FF85
:1008F30030E0047E0180027E00900079EEF0EF305C
:10090300E1047F0180027F0090007BEFF09000B84C
:10091300E090007DF07B017A0079B6122A37AC06AD
:10092300AD077F05122309805EE53D6008E53F6062
:10093300047F0A8002AF38900079EFF074FF253806
:10094300F582E434FFF583E0FD7B037F058035E525
:100953004030E0047F0180027F00900079EFF0E5F2
:100963004030E1047F0180027F0090007AEFF09035
:1009730000B2E0FD7B027F031228D79000BFE0FDA9
:100983007B027F061228D7900079E0FFA3E0FDA346
:10099300E0FBA3E0F527A3E0F528A3E0F529A3E016
:1009A300F52AA3E0F52B12293B7F02122653EF64AD
:1009B300016028E4FFE54030E0010FE54030E1034A
:1009C300430702900001E060034307049000B8E08E
:0B09D300C394024003430708122B29C5
:0109DE0022F6
:10286900AE031BEE601FED75F00A84E5F02430FE1F
:10287900EF2B2408F582E43400F583EEF0ED75F0D2
:062889000A84FD80DB2241
:10107E00122AE6EF60030211BF7B02AD397F011227
:10108E0028697B02AD3B7F041228697B02AD3C7F51
:10109E0007122869122A318E238F24C3E523648018
:1010AE00948050047F2D80027F2B900014EFF0C3AC
:1010BE00E52364809480500BC3E49524F524E495D5
:1010CE0023F523D3E52494E7E52364809483400637
:1010DE007523037524E7AE23AF247C007D641201D3
:1010EE00F9AD077B017F0D122869AE23AF247C007A
:1010FE007D641201F97B027F0E1228699000ACE02C
:10110E00FD7B017F121228699000ADE0FD7B037F0D
:10111E00151228697B017A0079B6122A378E238F31
:10112E0024C3E523648094805005E4F523F524D38D
:10113E00E52494E7E52364809483400675230375C4
:10114E0024E7AE23AF247C007D641201F9AD077B4A
:10115E00017F1A122869AE23AF247C007D64120130
:10116E00F97B027F1B1228699000B8E0FD7B017F9E
:10117E001F122869E54030E0047F0180027F00EFF6
:10118E00243090002AF0E54030E1047F0180027F98
:10119E0000EF243090002BF0900081E0FD7B037F68
:1011AE00261228697B017A0079087D2B7C00122893
:0111BE001B15
:0111BF00220D
:1023AD00053EE53EC394024013E4F53E122B1C7826
:1023BD00847C007D017E007F071201160533E53315
:1023CD00C39403400FE4F533E53F70047F018002B1
:1023DD007F008F3F900078E004F0C3940A4002E440
:0E23ED00F0900078E0B40303121C3A020813CB
:10220200900086E0FF122A788F39900085E0FF1255
:102212002A788F3B900084E0FF122A788F3C90004E
:1022220002E065397025A3E0B53B20E53CC394028A
:1022320050199000A5E0702004F0E4900033F07D86
:1022420014FC7FB87E0B122046800D900003E065DF
:0B2252003B6005E49000A5F002107E48
:1024D000E4FF122558BF0111E537700D7537017DF6
:1024E00005FC7FB87E0B1220467F01122558BF01E4
:1024F00022900001E070047F0180027F00900001C3
:10250000EFF09000077401F07D0A7C007FD07E0719
:04251000122046222D
:100EEE00E4FF12248ABF01119000337401F07D05D6
:100EFE007C007FDC7E0502107A7F0312248AEF6469
:100F0E00017024E532B4030EE53D70047F018002CA
:100F1E007F008F3D8006753203E4F53D7D057C0034
:100F2E007FB87E0B02107A7F0112248ABF011EE564
:100F3E003D600E0538E538D39405401175380180B3
:100F4E000C0532E532D394044003E4F5327F0412EB
:100F5E00248ABF011DE53D600E1538E538C39401A6
:100F6E005010753805800BE532700575320480021D
:100F7E001532E53D700302107DE4F5247F05122441
:100F8E008ABF0105752401800D7F0212248AEF6449
:100F9E0001600302107DC3E5389401F523E524605A
:100FAE0050E52375F005A4240BF582E4341BF5837C
:100FBE00E493FFFD74002523F582E43400F583E00D
:100FCE002DFDE433FCE52375F005A4240AF582E437
:100FDE00341BF583E493FBD3ED9B7480F86C98502F
:100FEE005574002523F582E43400F583E02FF0805C
:100FFE0045E52375F005A4240BF582E4341BF58337
:10100E00E493FFE52375F005A42409F582E4341B6F
:10101E00F583E4932FFE74002523F582E43400F566
:10102E0083E0FDC39E400F74002523F582E4340057
:10103E00F583C3ED9FF0E52375F005A4240CF5822E
:10104E00E4341BF583E493FFC39402500D74062F12
:10105E00F582E43400F5837401F0E52460067E0D1C
:0F106E007FAC80047E097FC47D037C0012204686
:01107D002250
:1009DF001229B47D07E4FF122AFA12297B12291B70
:1009EF00122A017F9812268578237C007D007BFFD9
:1009FF007A1B795F7E007F0712011612151D122BCD
:100A0F001C78847C007D017E007F07120116E4FFB5
:100A1F0074A82FF582E43400F583E4F074B42FF555
:100A2F0082E43400F583E4F00FBF0CE4E49000821D
:100A3F00F0A3F0900081F09000A5F0900033F090BB
:100A4F000005F0FFEF75F005A42408F582E4341BD0
:100A5F00F583E493FE74002FF582E43400F583EE02
:100A6F00F00FBF05DF121D859000067401F0A3F093
:100A7F009000B674FFF0A3F0E4FFEF901B6693FEB7
:100A8F0074082FF582E43400F583EEF00FBF2BEAE4
:100A9F007F807E257D007C001220BEE49000A6F0B2
:100AAF00900093F09000A7F090006DF09000A4F0EC
:040ABF00900078F03B
:100AC300F522E522901B2493FF74342522F582E45A
:100AD3003400F583EFF00522E522B41BE5E4F522AB
:100AE300E522901B4093FF744F2522F582E43400E6
:0B0AF300F583EFF00522E522B41EE5BC
:100AFE007528FF75291B752A23752B00752C017B14
:100B0E00017A00796E7D0A7C001226E77527027F36
:100B1E00807E257D007C0012198A752800752900BB
:100B2E00752A00E4F52BF52C7B017A0079947D1063
:100B3E00FC1226B67BFF7A1879CD7F01121FC97B76
:100B4E00FF7A2379AD7F02121FC97BFF7A227902C9
:100B5E007F03121FC97BFF7A2479D07F04121FC92D
:100B6E007BFF7A0E79EE7F07121FC97BFF7A2779FA
:100B7E00A07F0A121FC97BFF7A0D79437F09121FCE
:090B8E00C9122B2F12261580FB61
:092AF1008B88898C88898F888903
:1014160052013A8686008686008686008686008683
:09142600860086860041012F09B1
:03002B00022B2382
:062B230053BCEFD20F329B
:020B9700154304
:100B9900200F03020D40C20F90012EE0B40900405E
:100BA90003020D22900BB4F8282873020BFB020BE9
:100BB900CF020BE1020C0D020BCF020BE1020C2458
:100BC900020BCF020BE1AFBDEFFEADBE7C00E42D01
:100BD900FFEC3E900130803CAFBDEFFEADBE7C0026
:100BE900E42DFFEC3E900132F0A3EFF0751A0102FB
:100BF9000D28AFBDEFFEADBE7C00E42DFFEC3E90AD
:100C090001348010AFBDEFFEADBE7C00E42DFFECDA
:100C19003E900136F0A3EFF0020D28AFBDEFFEAD17
:100C2900BE7C00E42DFFEC3E900138F0A3EFF0907C
:100C39000138E0FEA3E07807CEC313CE13D8F9A894
:100C490043F6C394065013A843E675F003A4243A67
:100C5900F582E43401F583E014F090012FE014F0FB
:100C69006003020D287409F0A843E4F6A843E6FFDF
:100C7900C394064003020D28EF75F003A4243AF546
:100C890082E43401F583E0C39480502AE6FF75F0CD
:100C990003A4243BF582E43401F583E0D394804036
:100CA90040EF75F003A4243CF582E43401F5837424
:100CB90001F0F51B802BA843E6FF75F003A4243B44
:100CC900F582E43401F583E0C394805014EF75F0A4
:100CD90003A4243CF582E43401F5837402F0751B06
:100CE90001A843E6FF75F003A4243AF582E4340130
:100CF900F583E0FEEF75F003A4243BF582E43401AB
:100D0900F583EEF0E675F003A4243AF582E43401A4
:100D1900F5837486F006020C7590012E74FFF0902D
:100D2900012EE0D39407400374FFF090012EE004F4
:070D3900F0902AF193F5BCD4
:030D400005432246
:022AA5001543D7
:092AA700A843A61BE4F51BE6FFA1
:032AB000054322B9
:022AB3001543C9
:092AB500A843A61AE4F51AE6FF95
:032ABE00054322AB
:102685008F9D75BC88439720D2AD90010574FFF0EE
:10269500A3740BF0A37497F0A374FFF0A3742AF04E
:1026A500A374A5F0A374FFF0A3742AF0A374B3F088
:0126B5002202
:070003007B017A0179302234
:10248A00C3EF64809480403BD3EF648094855033DB
:10249A00EFFD3395E0FC90013C75F003ED1203BBB0
:1024AA00EC75F003A42583F583E0FE90013C75F0FA
:1024BA0003ED1203BBEC75F003A42583F583E4F066
:0524CA00AF06227F03B4
:0124CF0022EA
:0427F3001543154332
:1027F700122B03A843A60608A607A843E6FE08E689
:0F280700FF4E600BEF24FFFFEE34FFFE122B0C91
:0528160005430543220B
:10291B0053B1EF43B21012003EE4F5D975DA49D248
:10292B00DE9000FF74FFF0A37427F0A374F3F02282
:082046008E2B8F2C8C2D8D2EAA
:10204E00122B03EF4E7066AF2EAE2D122B0CC3E586
:10205E002C940AE52B9400404BE47B18FAF9F89087
:10206E001AEA12039F1202E6C006C007AE2BAF2C6F
:10207E00AB07AA06E4F9F8D007D0061202E6AB07C2
:10208E00AA06AFF9EFFEADE97C00E42DFFEC3ECFE2
:10209E002BCF3AAD07FCAF03AE02122A57D2D8436C
:0F20AE00DA01800612003E53DAFE7F02227F0322
:0120BD002200
:0C2ACF00122B03EF4E7002FF227F012249
:10170800E4F580900197E0FFB40800505F90171C43
:10171800F828287302173402173A021740021746AE
:1017280002174C02175602176002176AC2A3C2A218
:101738008016C2A3C2A2801AC2A3C2A2801EC2A3DC
:10174800C2A28022C2A3D2A2C2A1C2A08020C2A3E8
:10175800D2A2C2A1D2A08016C2A3D2A2D2A1C2A0F4
:10176800800CC2A3D2A2D2A1D2A08002D2A3C3EF7E
:10177800648094885029900197E0FF3395E0FE74C7
:101788008E2FF58274013EF583E0FF3395E0FE74F9
:10179800EE2FF582741A3EF583E493F580801E904F
:1017A8000197E0FFB408133395E0FE748E2FF5829D
:1017B80074013EF583E0F5808003E4F58090018DA7
:1017C800E0FF900197E004FEF0D3EF6480F8EE6448
:1017D80080984014E0D36480948850047408F02200
:0917E80090018CE0900197F022C1
:1029B400E4F5937594FF5395F043960F9000EA74F1
:0B29C400FFF0A37417F0A37408F022CA
:092AFA0090018CEFF0A3EDF02235
:10293B0090018EEFF0A3EDF0A3EBF0A3E527F0A34E
:10294B00E528F0A3E529F0A3E52AF0A3E52BF02277
:062B2900900196EFF0227E
:10142F0001410049019994940094940094940041CF
:03143F0001981EF3
:0212F0001543A4
:1012F20020B206900199E014F020B30690019CE020
:1013020014F020970690019FE014F0900198E014E9
:10131200F06003021410741EF0A843E4F6A843E63A
:10132200FFC3648094834003021410EF3395E0FE00
:1013320090019975F003EF1203BBEE75F003A4253B
:1013420083F583E0C39480503990019A75F003EFDE
:101352001203BBEE75F003A42583F583E0D39480DA
:10136200405AE6FF3395E0FE90019B75F003EF12C1
:1013720003BBEE75F003A42583F5837401F0F541F8
:10138200803AA843E6FF3395E0FE90019A75F00398
:10139200EF1203BBEE75F003A42583F583E0C3943B
:1013A20080501990019B75F003EF1203BBEE75F0AC
:1013B20003A42583F5837402F0754101A843E6FF77
:1013C200FD3395E0FC90019975F003ED1203BBEC3F
:1013D20075F003A42583F583E0FE90019A75F0036E
:1013E200ED1203BBEC75F003A42583F583EEF0EF59
:1013F2003395E0FE90019975F003EF1203BBEE7591
:0E140200F003A42583F5837494F00602131FF3
:031410000543226F
:022AC1001543BB
:092AC300A843A641E4F541E6FF39
:032ACC000543229D
:10297B009000F074FFF0A3742AF0A374C1F09000E0
:0D298B00ED74FFF0A37412F0A374F0F022BD
:10255800EF600764016003BF0233EFFD3395E0FCD1
:1025680090019B75F003ED1203BBEC75F003A425F5
:1025780083F583E0FE90019B75F003ED1203BBEC3D
:0F25880075F003A42583F583E4F0AF06227F03EB
:012597002221
:1014420055014D00000000000000000000000000F7
:0C145200000000000000000041014C0000
:0203CD001543D6
:1003CF00A843E4F6A843E6FFC36480948340030286
:1003DF00063EEF3395E0FE90014D75F007EF1203E7
:1003EF00BBEE75F007A42583F583E0FCA3E04C700A
:1003FF000302063890014F75F007EF1203BBEE753D
:10040F00F007A42583F583E0FEA3E04E70030206F8
:10041F0038E6FFFD3395E0FC90015175F007ED12C2
:10042F0003BBEC75F007A42583F58374FFF5F01279
:10043F00022F45F0600302063890014F75F007ED6B
:10044F001203BBEC75F007A42583F583E0FAA3E054
:10045F00FB90015175F007ED1203BBEC75F007A48B
:10046F002583F583EAF0A3EBF0EF3395E0FE9001DF
:10047F004D75F007EF1203BBEE75F007A42583F55A
:10048F0083E0FCA3E0D39400EC648094804056A8F2
:10049F0043E6FD3395E0FC90014D75F007ED120337
:1004AF00BBEC75F007A42583F58374FFF5F01202FA
:1004BF002F90015375F007ED1203BBEC75F007A4F5
:1004CF002583F583E004F0D3648094834072900118
:1004DF005375F007EF1203BBEE75F007A42583F5F4
:1004EF0083E4F0805BA843E6FFFD3395E0FC9001C9
:1004FF004D75F007ED1203BBEC75F007A42583F5DE
:10050F0083E475F00112022F90015375F007ED127D
:10051F0003BBEC75F007A42583F583E014F0C364E7
:10052F00809480501BEF3395E0FE90015375F007D8
:10053F00EF1203BBEE75F007A42583F5837403F068
:10054F00A843E6FFFD3395E0FC90015375F007EDEE
:10055F001203BBEC75F007A42583F583E014603C10
:10056F00146066147003020605240360030206304C
:10057F00EF14601014601924026003020630D2C118
:10058F00C2C2802990014CE054F04401F0020630C1
:10059F0090014CE0540F4410F0020630A843E614CB
:1005AF00601114601924027078C2C1D2C2C2C3C2D2
:1005BF00C4806E90014CE054F04402F080639001CF
:1005CF004CE0540F4420F08058A843E614601114F7
:1005DF0060192402704BC2C1C2C2D2C3C2C48041CF
:1005EF0090014CE054F04404F0803690014CE054FC
:1005FF000F4440F0802BA843E614601114601924B7
:10060F0002701EC2C1C2C2C2C3D2C4801490014CB8
:10061F00E054F04408F0800990014CE0540F4480FE
:0F062F00F090014CE0FF122B29A843060203D3E1
:03063E000543224F
:102A010053B3E143B41E53C0E190011474FFF0A32A
:082A11007403F0A374CDF02260
:101A3F008F42EF3395E0FE90014D75F007EF1203E3
:101A4F00BBEE75F007A42583F583E0FEA3E04E609F
:101A5F0003021AE7E542600A64016006E542640288
:101A6F007076ED60737C007E037FE81201A4AD42B7
:101A7F00ED3395E0FC90014F75F007ED1203BBECD1
:101A8F0075F007A42583F583EEF0A3EFF090014FD7
:101A9F0075F007ED1203BBEC75F007A42583F583F2
:101AAF00E0FEA3E0FF90015175F007ED1203BBECD0
:101ABF0075F007A42583F583EEF0A3EFF090014DA9
:101ACF0075F007ED1203BBEC75F007A42583F583C2
:0B1ADF00EAF0A3EBF07F02227F03225D
:1023FB00EF600764016003BF023AEFFD3395E0FC29
:10240B0090014D75F007ED1203BBEC75F007A42599
:10241B0083F583E0FAA3E0FB90014D75F007ED1215
:10242B0003BBEC75F007A42583F583E4F0A3F0AEB2
:07243B0002AF0322E4FEFFE3
:012442002277
:10265300EF600764016003BF0225EF3395E0FE904E
:10266300014D75F007EF1203BBEE75F007A4258348
:10267300F583E0FEA3E04E60037F01227F00227F0B
:02268300032230
:10145E004100C00A4100E90A41012D0A040E0000B4
:10146E0000000114004601270000FFFF8FFFC10D91
:10147E00C105C108C101C10E602400C5FF000AFFED
:10148E00000AFF000AFF000AFF000AFF000AFF0021
:10149E000AFF000AFF000AFF000AFF000AFF000A07
:1014AE00603600EAFF000AFF000AFF0026FF000A6E
:1014BE00FF0026FF000AFF0026FF000AFF000AFFBA
:1014CE00000AFF0026FF0026FF0026FF0026FF0071
:0A14DE000AFF000AFF000AFF000ADF
:01000A0022D3
:030026007F002236
:10244300438E805389F07BE07A2879017800901AD3
:10245300EA12039F122514EFF404F58A7BE07A282D
:1024630079017800901AEA12039F122514C3E49F9E
:10247300FFE49EFE74019DFDE49CFC780812038B2F
:072483008F8CD28CD2A9223C
:03000B0002235B72
:04235B00C0E0C0D04E
:10235F00D5080A75084C300D020514D20DA2037270
:10236F00045036150AE50A7030850C0AD207300A78
:10237F0017E50D6007150D438F01801D538FFEC2AA
:10238F00B5D51615C20A8011050BE50BD39406407F
:09239F0008C203E5136002D20636
:0523A800D0D0D0E032AE
:1022B600300E47C20E901AEA12039F781012038B53
:1022C6008E1C8F1D9000C3E0FEA3E0FFE4FCFD7BA7
:1022D60019FAF9F812025BC006C007AE1CAF1DABB7
:1022E60007AA06E4F9F8D007D006122514780312D7
:1022F600038B900125EEF0A3EFF0900125E0FEA3FD
:02230600E0FFF6
:0123080022B2
:092B0300900127E0FEA3E0FF228F
:092B0C00900127EEF0A3EFF02286
:102A570090012BEEF0A3EFF0900129ECF0A3EDF03D
:012A6700224C
:03003E00C2B42227
:03003B00021B9213
:101B9200C0E0C083C082C0D075D000C004C005C000
:031BA20006C00773
:101BA50030DF04C2DF807D30DA04C2DA807630D9D6
:101BB5003DC2D9AFFBEFFEADEB7C00E42DFFEC3E63
:101BC50020000E9000C1F0A3EFF075DB11D200806C
:101BD50053FE9000C1E0FCA3E0FDC3EF9DFFEE9C2A
:101BE500A3F0A3EFF075DB00C200D20E803630D82B
:101BF50033C2D8900127E07002A3E06022B2B4900E
:101C05000129E0FEA3E0F5EAEEF5FAA3E0FEA3E084
:101C1500FF90012AE02FF0900129E03EF08005C2F7
:041C2500B453DAFEDC
:101C2900D007D006D005D004D0D0D082D083D0E060
:011C39003278
:062B2F00122443D2AF2284
:101F3E003004047F0180027F00200A047E018002AB
:101F4E007E00EE5F6074E515C39509506830023669
:101F5E00750D01E515131313541FAB17AA18A91904
:101F6E00F582758300120155FFE515540704FEEF47
:101F7E00A806088002C333D8FC30D7057516038037
:101F8E002F751601802AAB17AA18A91975F002E54C
:101F9E0015A4F58285F083120155F50DE51575F042
:101FAE0002A429F9EA35F0FA900001120155F5164E
:0A1FBE000515D20A22C204438F1059
:011FC80022F6
:10161B009000C0E014F0701F740AF0D2059000E93E
:10162B00E014F07012740AF0D20890012DE014F05F
:10163B007005740AF0D2019000EAA3E0FAA3E0F976
:10164B001203C79000EDA3E0FAA3E0F91203C790D1
:10165B0000F9A3E0FAA3E0F91203C7900105A3E098
:10166B00FAA3E0F91203C7900114A3E0FAA3E0F97F
:10167B001203C790011DA3E0FAA3E0F91203C79070
:10168B00010BA3E0FAA3E0F91203C7EF600C900083
:10169B00DDA3E0FAA3E0F91203C790010EA3E0FA71
:1016AB00A3E0F91203C7EF600E9000E0A3E0FAA3EA
:1016BB00E0F91203C7D20BE512D394004016D512F2
:1016CB003030090C9000E3A3E0FAA3E0F91203C752
:1016DB00D20C801D900111A3E0FAA3E0F91203C70D
:1016EB00EF600E9000E3A3E0FAA3E0F91203C7D278
:0D16FB000C9000C5A3E0FAA3E0F90203C7BC
:101E1F009000FFA3E0FAA3E0F91203C7900102A319
:101E2F00E0FAA3E0F91203C79000F3A3E0FAA3E0EE
:101E3F00F91203C79000C8A3E0FAA3E0F91203C791
:101E4F009000F0A3E0FAA3E0F91203C7EF600C9043
:101E5F0000D1A3E0FAA3E0F91203C79000F6A3E0C4
:101E6F00FAA3E0F91203C7EF600C9000D7A3E0FAD2
:101E7F00A3E0F91203C7900108A3E0FAA3E0F91257
:101E8F0003C7EF600C9000DAA3E0FAA3E0F91203A6
:101E9F00C730060EC2069000E6A3E0FAA3E0F912DF
:031EAF0003C72244
:102598009000CBA3E0FAA3E0F91203C79000FCA3D4
:1025A800E0FAA3E0F91203C7EF600C9000D4A3E0AF
:1025B800FAA3E0F91203C7900117A3E0FAA3E0F920
:0F25C8001203C790011AA3E0FAA3E0F90203C7B8
:10277500AF11AE10AD0FAC0E9001201203AF90015A
:1027850024E514F0E4F511F510F50FF50EF51490A8
:0B27950000CEA3E0FAA3E0F90203C7A6
:10261500300705C207121F3E300D05C20D12161BED
:10262500300505C205121E1F300805C2081225987F
:10263500300105C201122775E5112401F511E435B4
:0E26450010F510E4350FF50FE4350EF50E22FA
:101FC9008B238A248925EFB40C005070901FDCF80C
:101FD90028287302200002200502200A02200F028D
:101FE900201402201902201E022023022028022088
:101FF9002D0220320220379000C580359000C8801C
:10200900309000CB802B9000CE80269000D180218B
:102019009000D7801C9000D480179000DA8012902D
:1020290000DD800D9000E080089000E380039000BF
:0D203900E6E523F0A3E524F0A3E525F02261
:072B15007B017A0179202207
:0414E8004101AA0113
:1029CF00C295E4FEEF1392CC000000D29500EFC346
:0829DF0013FFC2950EBE08ECC7
:0129E70022CD
:102A1900E4FEEFC313FF30CC03430780D2950000D7
:072A290000C2950EBE08EB90
:012A30002283
:10274700F07F8512275AA3EFF07F8712275AA3EF4E
:03275700F07F8987
:10275A00C296000000C295000000D296001229CF4E
:0A276A00122A19D295000000C29651
:012774002242
:03295B00A3E0FDF9
:10295E00C296000000C295000000D296001229CF48
:0D296E00AF051229CFD295000000C29622BD
:072B1C007B017A0179A3227D
:1029E80078A37C017D017B007A00792B7E007F072C
:0929F800120116E49001AAF0227C
:102A4500EFD3941F5009EF25E044C1FF02275A7FB9
:022A550001225C
:1027CA00AC07AB05ECD3941F501CE4FD7F8E122995
:1027DA005EEC25E044C0FFAD0312295E7D807F8E4A
:0927EA0012295E7F00227F01220A
:021CE0001543AA
:101CE2009001AAE060447F8112275AA843EFF69040
:101CF20001A3E06F7003021D82A843E6F07F831206
:101D0200275AA843EFF6A3E06F6075A843E61227AF
:101D120047A3EFF07F8D12275A9001A9EFF07F8B36
:101D220012275A9001A8EFF080569001A2E0FF041A
:101D3200F0EFC3940A4049E4F09001AA04F0E4FDF4
:101D42007F8E12295E9001A3E0FD7F8012295E7FC3
:101D52008212295B7F8412295BA3E0FD7F86122910
:101D62005EA3E0FD7F8812295EA3E0FD7F8A12292F
:101D72005EA3E0FD7F8C12295E7D807F8E12295E3C
:031D8200054322F4
:10151D007F8112275A9001A3EFF07F8312275AA3E0
:10152D00EF122747A3EFF07F8B12275AA3EFF07F1F
:10153D008D12275AA3EFF0E4FD7F8E12295E7F1ED8
:10154D00122A45EF64A560047F0180027F0090019F
:10155D00A3E05480FEA3E0D3945940047D018002A2
:10156D007D00ED4EFE9001A5E0D394A440047D01D5
:10157D0080027D00ED4EFE9001A6E0D39431400433
:10158D007D0180027D00ED4EFE9001A7E0D3941207
:10159D0040047D0180027D00ED4EFE9001A8E0D358
:1015AD00940740047D0180027D00ED4EFE9001A95F
:1015BD00E0D3949940047D0180027D00ED4E4F6093
:1015CD0030782B7C007D007B007A0079237E007FB4
:1015DD00071201161229E87DA57F1E1227CA78A3CE
:1015ED007C017D017B007A0079237E007F0712014B
:1015FD00167DA97F9012295E7D807F8E12295E90C7
:0E160D00011A74FFF0A3741CF0A374E0F02225
:102A6800D2C0000000D2CD000000C2C00000002289
:0D002E00C2C0000000D2CD000000D2C022F0
:0B288F001228B312289AAF051228B3DC
:10289A00E4FFD2CD30C009EFC394FF50030F80F498
:0828AA00000000C2CD00000097
:0128B2002203
:1028B300E4FEEF25E0FFC2CD00000092C00000005F
:1028C300D2CD0000000EBE08E9C2CD000000D2C088
:0328D30000000002
:0128D60022DF
:1028F900C2CD000000D2C000E4FED2CD0000EF2519
:10290900E0FDA2C0E4334DFF0000C2CD000EBE08B9
:01291900E9D4
:01291A00229A
:10000E00AC07122A687FA01228B312289AAF0412E6
:05001E00288F02002EF6
:02299800AD0789
:10299A00122A687FA012288F122A687FA11228B3F0
:0929AA0012289A1228F912002EDD
:0129B3002201
:1014EC005501620000000000000000000000000038
:0814FC000000010000000000E7
:0300430002064171
:10064100C0E0C0F0C083C082C0D075D000C000C07F
:1006510001C002C003C004C005C006C007E59A304E
:10066100E142539AFD900167E0FEA3E0FFC39001D0
:1006710066E09F900165E09E501F900162E0FBA340
:10068100E0FAA3E0F9A3E475F00112024585F082D6
:10069100F583120155F59B800B900169E4F0E51F8C
:1006A1006002C2B7E59A20E0030207F8539AFE30D0
:1006B1000C0BC20C90016FE4F0A3F0D209E51F64AA
:1006C10002600302075290016DE0FEA3E0FFA3E088
:1006D100FCA3E0FDC39FEC9E507190016AE0FBA377
:1006E100E0FAA3E0F98D828C83E59B1201829001EF
:1006F10075E0FEA3E0FFC3ED9FEC9E504090016DBD
:10070100E0FCA3E0FDEF9DEE9C5032900172E0FB16
:10071100A3E0FAA3E0F990016FE0FEA3E0FFF58208
:100721008E83120155FD90016AE0FBA3E0FAA3E07C
:10073100F98F828E831201556D6002C2099001709A
:10074100E004F0700690016FE004F0851E120207CC
:10075100F890016DE0FEA3E0FFA3E0FCA3E0FDC380
:100761009FEC9E507790016AE0FBA3E0FAA3E0F9C9
:100771008D828C83E59B120182900175E0FEA3E0DE
:10078100FFC3ED9FEC9E504690016DE0FCA3E0FDA0
:10079100EF9DEE9C5038900172E0FBA3E0FAA3E0DC
:1007A100F990016FE0FEA3E0FFF5828E83120155FF
:1007B100FD90016AE0FBA3E0FAA3E0F98F828E834A
:1007C1001201556D600890016F74FFF0A3F0900164
:1007D10070E004F0700690016FE004F090016DE0AC
:1007E100FEA3E0FFC3900170E09F90016FE09E4087
:1007F100069001717401F0D007D006D005D004D065
:1008010003D002D001D000D0D0D082D083D0F0D09C
:02081100E032D3
:022A87001543F5
:0A2A8900900171E0A843F6FFE4F0AD
:032A9300054322D6
:0100290022B4
:10198A008F268E258D248C2385271FE51F700280C4
:10199A000343BA01E51F701790011D74FFF0A37489
:1019AA0000F0A37429F0E4F5DBD290D2918020C232
:1019BA00B7AB26AA25A924A823E47F407E9CFDFC78
:1019CA001202E68F1EE51E7003751E01851E127532
:1019DA009A10E47B04FAF9F8901AEA12039F1202A9
:1019EA00E6AB26AA25A924A8231202E6EFF404F5F9
:1019FA00D7E47B04FAF9F8901AEA12039F1202E676
:101A0A00AB26AA25A924A8231202E6C3E49FFFE471
:101A1A009EFE74019DFDE49CFC78081203788FD623
:101A2A00438E1443AF0190011174FFF0A3742AF09E
:051A3A00A37487F022F7
:1026B60090016AEBF0A3EAF0A3E9F0A3ECF0A3ED36
:1026C600F0900175E52BF0A3E52CF0900172E5285A
:1026D600F0A3E529F0A3E52AF0D20CE4900171F00D
:0126E60022D1
:10271800900169E07026900162EBF0A3EAF0A3E96A
:10272800F0E4A3F0A3F0A3ECF0A3EDF0A37401F0A0
:0F273800E51F6002D2B7439A027F02227F03227D
:0B2ADB00900169E07002FF227F0122E1
:10150400550177000000000000000000000000000A
:081514000000010000000000CE
:030023000211C007
:1011C000C0E0C0F0C083C082C0D075D000C000C0F5
:1011D00001C002C003C004C005C006C00730993B6F
:1011E000C29990017CE0FEA3E0FFC390017BE09FE9
:1011F00090017AE09E501F900177E0FBA3E0FAA3F4
:10120000E0F9A3E475F00112024585F082F583123E
:101210000155F599800590017EE4F02098030212B3
:10122000D5C298300B09C20B900184E4F0A3F09072
:101230000182E0FEA3E0FFA3E0FCA3E0FDC39FEC7E
:101240009E507790017FE0FBA3E0FAA3E0F98D8246
:101250008C83E59912018290018AE0FEA3E0FFC32E
:10126000ED9FEC9E5046900182E0FCA3E0FDEF9DD7
:10127000EE9C5038900187E0FBA3E0FAA3E0F990E0
:101280000184E0FEA3E0FFF5828E83120155FD90FC
:10129000017FE0FBA3E0FAA3E0F98F828E831201C5
:1012A000556D600890018474FFF0A3F0900185E013
:1012B00004F07006900184E004F0900182E0FEA347
:1012C000E0FFC3900185E09F900184E09E4006907E
:1012D00001867401F0D007D006D005D004D003D029
:1012E00002D001D000D0D0D082D083D0F0D0E03274
:022A96001543E6
:0A2A9800900186E0A843F6FFE4F089
:032AA200054322C7
:1020BE008F268E258D248C23759850438E40538EFB
:1020CE00FE53890FE47B04FAF9F8901AEA12039F83
:1020DE001202E6AB26AA25A924A8231202E6EFF4E3
:1020EE0004F58BE47B04FAF9F8901AEA12039F12B6
:1020FE0002E6AB26AA25A924A8231202E6C3E49F72
:10210E00FFE49EFE74019DFDE49CFC7808120378AA
:10211E008F8DC2ABD28ED2AC90010E74FFF0A37431
:07212E002AF0A37496F022D1
:1026E70090017FEBF0A3EAF0A3E9F0A3ECF0A3EDF0
:1026F700F090018AE52BF0A3E52CF0900187E528FF
:10270700F0A3E529F0A3E52AF0D20BE4900186F0C7
:01271700229F
:10281B0090017EE0701F900177EBF0A3EAF0A3E943
:10282B00F0E4A3F0A3F0A3ECF0A3EDF0A37401F09C
:08283B00D2997F02227F0322E3
:0B2AE60090017EE07002FF227F0122C1
:03000000021EB22B
:0C1EB200787FE4F6D8FD758143021EF92C
:10004600E709F608DFFA8046E709F208DFFA803E9C
:1000560088828C83E709F0A3DFFA8032E309F60889
:10006600DFFA8078E309F208DFFA807088828C83F1
:10007600E309F0A3DFFA806489828A83E0A3F608A5
:10008600DFFA805889828A83E0A3F208DFFA804C7F
:1000960080D280FA80C680D4806980F28033801056
:1000A60080A680EA809A80A880DA80E280CA8033BF
:1000B60089828A83ECFAE493A3C8C582C8CCC58337
:1000C600CCF0A3C8C582C8CCC583CCDFE9DEE78007
:1000D6000D89828A83E493A3F608DFF9ECFAA9F086
:1000E600EDFB2289828A83ECFAE0A3C8C582C8CCDC
:1000F600C583CCF0A3C8C582C8CCC583CCDFEADEF5
:10010600E880DB89828A83E493A3F208DFF980CC56
:1001160088F0EF60010E4E60C388F0ED2402B4044F
:100126000050B9F582EB2402B4040050AF232345F6
:0601360082239000967385
:10013C00BB010689828A83E0225002E722BBFE02C1
:09014C00E32289828A83E49322F4
:10015500BB010CE58229F582E5833AF583E022505F
:1001650006E92582F8E622BBFE06E92582F8E222A9
:0D017500E58229F582E5833AF583E49322C3
:10018200F8BB010DE58229F582E5833AF583E8F0B3
:10019200225006E92582C8F622BBFE05E92582C85F
:0201A200F22247
:1001A400BC000BBE0029EF8DF084FFADF022E4CC3F
:1001B400F875F008EF2FFFEE33FEEC33FCEE9DEC08
:1001C400984005FCEE9DFE0FD5F0E9E4CEFD22ED4E
:1001D400F8F5F0EE8420D21CFEADF075F008EF2F98
:1001E400FFED33FD4007985006D5F0F222C398FD89
:0501F4000FD5F0EA2226
:1001F900C2D5EC30E709B2D5E4C39DFDE49CFCEE21
:1002090030E715B2D5E4C39FFFE49EFE1201A4C3F3
:10021900E49DFDE49CFC80031201A430D507C3E4EE
:060229009FFFE49EFE228F
:10022F00C5F0F8A3E028F0C5F0F8E582158270025A
:06023F001583E038F022F7
:10024500A3F8E0C5F025F0F0E5821582700215836C
:06025500E0C838F0E822C9
:10025B00E88FF0A4CC8BF0A42CFCE98EF0A42CFC42
:10026B008AF0EDA42CFCEA8EF0A4CDA8F08BF0A4C0
:10027B002DCC3825F0FDE98FF0A42CCD35F0FCEB1F
:10028B008EF0A4FEA9F0EB8FF0A4CFC5F02ECD39E4
:0F029B00FEE43CFCEAA42DCE35F0FDE43CFC2251
:1002AA0075F008758200EF2FFFEE33FECD33CDCC0B
:1002BA0033CCC58233C5829BED9AEC99E58298408E
:1002CA000CF582EE9BFEED9AFDEC99FC0FD5F0D66B
:1002DA00E4CEFBE4CDFAE4CCF9A88222B800C1B995
:1002EA000059BA002DEC8BF084CFCECDFCE5F0CBD3
:1002FA00F97818EF2FFFEE33FEED33FDEC33FCEB0C
:10030A0033FB10D703994004EB99FB0FD8E5E4F9C6
:10031A00FA227818EF2FFFEE33FEED33FDEC33FCB3
:10032A00C933C910D7059BE99A4007EC9BFCE99AA7
:10033A00F90FD8E0E4C9FAE4CCFB2275F010EF2FEC
:10034A00FFEE33FEED33FDCC33CCC833C810D707EC
:10035A009BEC9AE899400AED9BFDEC9AFCE899F827
:0E036A000FD5F0DAE4CDFBE4CCFAE4C8F922BA
:10251400C2D5E830E70FB2D5E4C39BFBE49AFAE4F2
:1025240099F9E498F8EC30E717B2D512254A12026B
:10253400E6E4C39BFBE49AFAE499F9E498F880038F
:102544001202E630D50DE4C39FFFE49EFEE49DFD38
:04255400E49CFC22E5
:10037800E8600FECC313FCED13FDEE13FEEF13FF63
:03038800D8F12287
:10038B00E86010ECA2E713FCED13FDEE13FEEF1388
:04039B00FFD8F02275
:10039F00E493FC740193FD740293FE740393FF22A4
:0C03AF00ECF0A3EDF0A3EEF0A3EFF022C1
:0C03BB00A42582F582E5F03583F583224D
:0603C7008A838982E473C1
:101EBE000209DFE493A3F8E493A34003F68001F252
:101ECE0008DFF48029E493A3F85407240CC8C33325
:101EDE00C4540F4420C8834004F456800146F6DFF4
:101EEE00E4800B0102040810204080901413E47E5D
:101EFE00019360BCA3FF543F30E509541FFEE493E9
:101F0E00A360010ECF54C025E060A840B8E493A3AF
:101F1E00FAE493A3F8E493A3C8C582C8CAC583CADA
:101F2E00F0A3C8C582C8CAC583CADFE9DEE780BE92
:01151C0000CE
:00000001FF
