:1016F30000A8C0003F065B4F666D7D077F6F000843
:1017030040014148BF86DBCFE6EDFD87FFEF1C0AB2
:101713002801000000010101070017010200003B3E
:1017230001023C0AC80A010203AA41434B20733D4C
:1017330030303020743D303020723D303020643DF5
:101743003030300D0A0043464720543D30302041AD
:101753003D3020483D3030204D3D3030204E3D302F
:1017630030300D0A00003021010902265B30303A87
:1017730030303A30305D20542B303030204C302024
:10178300463030302044303030204130204F30302C
:1017930020453030300D0A005354412042463D303D
:1017A30030302042503D3030302043463D303030E1
:1017B3002043533D3020563D30303020443D3030BF
:1017C300302043503D3030302041503D30303020C8
:1017D3004C3D30303030302052423D302052433D7A
:0417E300300D0A00BB
:0714E700013A014100FC0184
:062E94007B017A0079FFCA
:0D2E9A00900001120165FD12014CFEEDFFDC
:012EA7002208
:08261A008B2D8A2E892F8D30D3
:1026220074FFF531F532E4FDEDC39530503EAB2D2C
:10263200AA2EA92F8D827583001201656232E4FCF5
:10264200E53230E015E531C313FEE53213FFEE64E7
:10265200A0F531EF6401F532800BE531C313F5319A
:10266200E53213F5320CBC08D70D80BCAE31AF3267
:012672002245
:0F2EEB00EFC4540F75F00AA4FEEF540F2EFF2210
:102D1E00AE031BEE601BED75F00A84EF2B24C8F595
:102D2E0082E43400F583E5F0F0ED75F00A84FD8061
:022D3E00DF2292
:1026C6008C248D25AA07C3E524648094805005E4F4
:1026D600F524F525D3E52594E7E524648094834025
:1026E600067524037525E7AE24AF257C007D6412AC
:1026F6000209AD07AF027B01122D1EEA04FFC007D7
:10270600AE24AF257C007D64120209D0077B02024D
:022716002D1E76
:101F4C00E4FF122DDFEF64A56003021FE5E4F52426
:101F5C00F523E52304FF122DDF74252523F8A607AE
:101F6C0074252523F8E62524F5240523E523C394BD
:101F7C000540DF7F06122DDFEF6524705CE4F5234E
:101F8C00E52375F005A42412F582E43417F583E4F7
:101F9C0093FF74252523F8E6FEC39F403CE523758B
:101FAC00F005A42413F582E43417F583E493FFEED3
:101FBC00D39F50250523E523B405C5E4F5237425EB
:101FCC002523F8E6FF74002523F582E43400F5831D
:091FDC00EFF00523E523B405E54F
:011FE50022D9
:10256000853923E523B401067DA5E4FF8035E52305
:10257000D394065013E52314FF74FE2523F582E45B
:1025800034FFF583E0FD801BE4FDF5237400252373
:10259000F582E43400F583E02DFD0523E523B40541
:1025A000EB7F0612000E0539E539D39407400DE4A0
:0C25B000F5397D0FFC7FA07E0F12232B5D
:0125BC0022FC
:10222600EF90172A939000DAF0E49000DCF0A3F028
:10223600A3F0A3F09000FAE060129000BCE0B507AE
:102246000B9000DB7406F0900008801974092FF5D6
:1022560082E43400F583E060259000DB7410F0EF33
:10226600700A900000E09000DCF08018900001E019
:102276009000DCF0900004E09000DDF08006900015
:10228600DB7403F07B017A0079DA7D0612261AAC3C
:1022960006EF9000E0F0AF04A3EFF07B017A00793F
:0822A600DA7D087C00022B35F3
:102C8A00AE031BEE601FED75F00A84E5F02430FEFA
:102C9A00EF2B2483F582E43400F583EEF0ED75F032
:062CAA000A84FD80DB221C
:1028C700AC05AA079000F9E0FD7B037F06122C8A6E
:1028D7009000FBE0FD7B027F0C122C8AAD027B028D
:1028E7007F11122C8AAD047B037F16122C8A90006D
:1028F700F67401F0E49000F9F09000E2F09000FA2D
:02290700F022BC
:101D6600122F4DEF6003021E0B900000E0FD75F090
:101D76000A8424309000A4F0ED75F00A84E5F0247E
:101D860030A3F0900001E060047F0180027F00EF45
:101D960024309000A9F0900002E0FD75F00A84243A
:101DA600309000ADF0ED75F00A84E5F02430A3F034
:101DB600900003E0FD75F00A8424309000B2F0ED47
:101DC60075F00A84E5F02430A3F0900004E0FD7578
:101DD600F0648424309000B7F0ED75F00A8475F055
:101DE6000A84E5F02430A3F0900004E075F00A843C
:101DF600E5F024309000B9F07B017A00799E7D1ED3
:061E06007C00122C622298
:100662007B017A0079BD7D0812261A9000C5E06FE1
:100672006003020879AF069000C6E06F60030208CB
:10068200799000BEE0FF70030208799000F9EFF064
:100692009000BFE09000FBF09000C0E064116003A6
:0306A200020756F6
:1006A500A3E0FDD3941740030207D99000C2E0FDF3
:1006B500D3943B40030207D99000C3E0FDD3943B9C
:1006C50040030207D9122F8C78267C007D007E001E
:1006D5007F071201269000C1E0FF75F00A84C4541B
:1006E500F0FEEF75F00A84E5F04EF528A3E0FF75FE
:1006F500F00A84C454F0FEEF75F00A84E5F04EF577
:1007050027A3E0FF75F00A84C454F0FEEF75F00AE4
:1007150084E5F04EF526782D7C007D007B007A007F
:1007250079267E007F07120126122E4B78D37C0096
:100735007D017B007A0079267E007F07120126E481
:100745009000F8F07D08FC7FB87E0B12232B020881
:01075500455E
:100756009000C0E0F96406705BA3E0F525A3E0F520
:1007660024E525C394024004AD258067E525701174
:10077600E524D394644015E52494FC500FAD248001
:1007860052E524D394024004AD248047AF2574017A
:10079600A807088002C333D8FC55427003020867D5
:1007A6009000BCE525F0900008E524F09000FA746E
:1007B60001020872E964106007AD017F0402086A4D
:1007C6009000C1E0F523A3E0F524E523C39405409A
:1007D60007AD237F0102086AE52375F005A42412FC
:1007E600F582E43417F583E493FFE524C39F4018AC
:1007F600E52375F005A42413F582E43417F583E4A4
:1008060093FFE524D39F4006AD247F0180567400F4
:100816002523F582E43400F583E524F07D057C008C
:100826007FB87E0B12232BE52375F005A42415F55E
:1008360082E43417F583E493F525C394024005E476
:10084600FDFF802074092525F582E43400F58374C4
:1008560001F0AF25A807088002C333D8FC554270C3
:1008660006FD7F020228C79000BCE525F09000E255
:030876007496F085
:01087900225C
:1019BD009000E3E0FFB40205E4F523800BEF640330
:1019CD006003021AA0752301E523653C6003021A2A
:1019DD00A09000E5E0FFE52360047E0C80027E0B05
:1019ED00EE6F6003021AA0E4FF74E52FF582E43474
:1019FD0000F583E0FEE52375F00CA424FDF582E4EB
:101A0D003400F583E5822FF582E43583F583EEF01E
:101A1D000FBF0CD574D12523F582E43400F583E492
:101A2D00F0AF2304A807088002C333D8FC424290CC
:101A3D0000E4E0FFB4100D74092523F582E43400B1
:101A4D00F583E4F09000E2E060199000BCE0B5236E
:101A5D0012EF641060079000E4E0B40606E4FDFFA9
:101A6D001228C7E5236401702A90010DE0C394028A
:101A7D00400B7D147C007FB87E0B12232B90000A47
:101A8D00E07010900110E07003FF80027F01900064
:031A9D0001EFF066
:011AA0002223
:102BBD007B017A0079E37D0E12261A9000F1E0B5C3
:102BCD00070BAF06A3E0B50704753801229000D0BE
:092BDD00E0C394FF5003E004F092
:012BE60022CC
:101AA100E536146016047070122F42EF7079AF3C66
:101AB100122226E4F537753601806CE5386008E4BA
:101AC100F5381219BD80490537E537C3940F4057E2
:101AD10074D1253CF582E43400F583E0C3940350CE
:101AE1000E74D1253CF582E43400F583E004F074F2
:101AF100D1253CF582E43400F583E0C39403401022
:101B0100AF3C7401A807088002C333D8FCF45242E9
:101B1100E4F537753602800F0537E537C394054084
:101B210006633C01E4F5369000F6E06017122F4D94
:101B3100EF70117B017A0079837D1BFC122C62E42A
:101B41009000F6F09000E2E0600B14F0E07006FD0A
:0D1B51007F031228C7E539600312256022CA
:100C4A00E4F52374C82523F582E43400F583740A95
:100C5A00F00523E523B408EBE5341460511470035E
:100C6A00020D05147003020D6324036003020D894B
:100C7A009000D5E0FFC4540F9000C8F0EF540FA3C2
:100C8A00F0A3740CF09000D4E0FFC4540F9000CB92
:100C9A00F0EF540FA3F0A3740CF09000D3E0FFC45C
:100CAA00540F9000CEF0EF540FA3F0020DC1E542AD
:100CBA0020E01BE4F52374C82523F582E43400F50B
:100CCA0083740CF00523E523B408EB020DC1122E40
:100CDA0094AD07AC06C3EC64809480500D9000C8B4
:100CEA00740CF0C3E49DFDE49CFC7F011226C690BF
:100CFA0000CAE02410F0900102807CE54220E11B4A
:100D0A00E4F52374C82523F582E43400F583740CD2
:100D1A00F00523E523B408EB020DC190010AE0FFB8
:100D2A0030E0047E0180027E009000C8EEF0EF30D1
:100D3A00E1047F0180027F009000CAEFF090010D6C
:100D4A00E09000CCF07B017A01790B122E9AAC0666
:100D5A00AD077F051226C6805EE53F6008E5416063
:100D6A00047F0A8002AF3A9000C8EFF074FF253A78
:100D7A00F582E434FFF583E0FD7B037F058035E5EA
:100D8A004230E0047F0180027F009000C8EFF0E566
:100D9A004230E1047F0180027F009000C9EFF090A9
:100DAA000107E0FD7B027F03122D1E900114E0FD76
:100DBA007B027F06122D1E9000C8E0FFA3E0FDA370
:100DCA00E0FBA3E0F527A3E0F528A3E0F529A3E0DB
:100DDA00F52AA3E0F52B122D827F02122A3FEF6437
:100DEA00016028E4FFE54230E0010FE54230E1030B
:100DFA00430702900001E0600343070490010DE0FD
:0B0E0A00C394024003430708122F9915
:010E150022BA
:10249100E54230E0647F02122A3FEF6401605A9006
:1024A10000FCE06025900101E0D39401501CE53B64
:1024B100C3941640157BC07AFF7D147F02121C1352
:1024C100EF640270349000FCF0229000FCE070296F
:1024D100900101E0C394034020E53B9406401AE5D6
:1024E1003B941650147B407A007D147F02121C131A
:0A24F100BF02069000FC7401F02207
:102CB000AE031BEE601FED75F00A84E5F02430FED4
:102CC000EF2B240BF582E43400F583EEF0ED75F084
:062CD0000A84FD80DB22F6
:042BE700E0FD7B038F
:102BEB00AE031BEE601FED75F00A84E5F02430FE9A
:102BFB00EF2B2436F582E43400F583EEF0ED75F01F
:062C0B000A84FD80DB22BB
:102A05008C238D24AA07AF031BEF602DAE23AF24C3
:102A15007C007D0A1201B4ED2430FFEA2B2436F543
:102A250082E43400F583EFF0AE23AF247C007D0A09
:0A2A35001201B48E238F2480CD22FD
:10115200122F4DEF60030212937B02AD3B7F01120F
:101162002CB07B02AD3D7F04122CB07B02AD3E7FE2
:1011720007122CB0122E948E288F29C3E528648082
:10118200948050047F2D80027F2B900017EFF0C3D4
:10119200E52864809480500BC3E49529F529E495F1
:1011A20028F528D3E52994E7E5286480948340064E
:1011B2007528037529E7AE28AF297C007D641202E9
:1011C20009AD077B017F0D122CB0AE28AF297C0040
:1011D2007D641202097B027F0E122CB0900101E0A5
:1011E200FD7B017F12122CB0900102E0FD7B037F98
:1011F20015122CB07B017A01790B122E9A8E288F50
:1012020029C3E528648094805005E4F528F529D3A4
:10121200E52994E7E52864809483400675280375E0
:1012220029E7AE28AF297C007D64120209AD077B55
:10123200017F1A122CB0AE28AF297C007D64120205
:10124200097B027F1B122CB090010DE0FD7B017F18
:101252001F122CB0E54230E0047F0180027F00EFD4
:10126200243090002DF0E54230E1047F0180027FBE
:1012720000EF243090002EF09000D0E0FD7B037F41
:1012820026122CB07B017A00790B7D2B7C00122C6C
:0112920062F9
:011293002238
:101FE600122F4DEF600302207B9000FE7F07122B1D
:101FF600E79001077F0E122BE790010AE0FD7B03B5
:102006007F15122BEB900110E0FD7B017F1C122B3C
:10201600EB90010EE0FD7B037F20122BEB90010F6E
:10202600E0FD7B037F26122BEB900114E0FD7B0382
:102036007F2D122BEB9000F7E0FD7B037F34122BF4
:10204600EB900006E0FCA3E0FD7B057F3A122A0533
:102056009000D1E0FD7B017F43122BEB9000D2E094
:10206600FD7B017F48122BEB7B017A0079367D4B95
:062076007C00122C622226
:1024FB000540E540C394024013E4F540122F8C785D
:10250B00D37C007D017E007F071201260535E53562
:10251B00C39403400FE4F535E54170047F0180025D
:10252B007F008F419000C7E004F0C3940A4002E49F
:10253B00F09000C7E0B40303121D66900082E00424
:10254B00F0C3940A4002E4F0900082E0B406031258
:05255B001FE6020C4A1E
:101EB100122F8578237C007D007E007F051201268C
:101EC100E47FFF7EFFFDFCAB26AA25A924A823D32E
:101ED10012038840067EFF7FFF8004AE25AF269067
:101EE1000006EEF0A3EFF09000F7E527F09000D5A3
:101EF100E0FF122EEB8F3B9000D4E0FF122EEB8F10
:101F01003D9000D3E0FF122EEB8F3E900002E06582
:101F11003B7025A3E0B53D20E53EC39402501990E6
:101F210000F8E0702004F0E4900081F07D14FC7F63
:101F3100B87E0B12232B800D900003E0653D6005F8
:0B1F4100E49000F8F01224910211520D
:1025BD00122FA5EFC3940340539000F3E0645A70BB
:1025CD004B9000F4E0FF64A5FEA3E06E703EEF2497
:1025DD00FE602214603024027032900001E070041D
:1025ED007F0180027F00900001EFF090000A7401DE
:1025FD00F07D0A800890010D7402F07D147C007F3F
:0D260D00B87E0B02232B9000817401F02297
:10283F00E4FF122909BF0111E539700D7539017DCA
:10284F0005FC7FB87E0B12232B7F01122909BF01D4
:10285F0022900001E070047F0180027F0090000150
:10286F00EFF090000A7401F07D0A7C007FD07E07A4
:04287F0012232B22D3
:100FC200E4FF1227F9BF01119000817401F07D0541
:100FD2007C007FDC7E0502114E7F031227F9EF644D
:100FE200017024E534B4030EE53F70047F018002F2
:100FF2007F008F3F8006753403E4F53F7D057C005A
:101002007FB87E0B02114E7F011227F9BF011EE548
:101012003F600E053AE53AD394054011753A0180D6
:101022000C0534E534D394044003E4F5347F041210
:1010320027F9BF011DE53F600E153AE53AC3940159
:101042005010753A05800BE5347005753404800242
:101052001534E53F7003021151E4F5247F05122790
:10106200F9BF0105752401800D7F021227F9EF6493
:10107200016003021151C3E53A9401F523E52460AE
:1010820050E52375F005A42414F582E43417F583A2
:10109200E493FFFD74002523F582E43400F583E038
:1010A2002DFDE433FCE52375F005A42413F582E459
:1010B2003417F583E493FBD3ED9B7480F86C98505E
:1010C2005574002523F582E43400F583E02FF08087
:1010D20045E52375F005A42414F582E43417F5835D
:1010E200E493FFE52375F005A42412F582E4341796
:1010F200F583E4932FFE74002523F582E43400F592
:1011020083E0FDC39E400F74002523F582E4340082
:10111200F583C3ED9FF0E52375F005A42415F58250
:10112200E43417F583E493FFC39402500D74092F3E
:10113200F582E43400F5837401F0E52460067E0D47
:0F1142007FAC80047E097FC47D037C0012232BC9
:01115100227B
:10087A00122E177D07E4FF122F61122DC2122D626C
:10088A00122E647F98122A7178237C007D007BFFE8
:10089A007A1779687E007F071201261215F5122F42
:1008AA008C78D37C007D017E007F07120126E4FF4D
:1008BA0074FD2FF582E43400F583E4F074092FF512
:1008CA0082E43401F583E4F00FBF0CE4E49000D134
:1008DA00F0A3F09000D0F0900006F0A3F09000F79B
:1008EA00F0A3F0900081F0900005F0FFEF75F0059D
:1008FA00A42411F582E43417F583E493FE74002FDF
:10090A00F582E43400F583EEF00FBF05DF121F4CC9
:10091A009000097401F0A3F090010B74FFF0A3F0AA
:10092A00E4FFEF90176F93FE740B2FF582E4340007
:10093A00F583EEF00FBF2BEAE4FFEF90179B93FECF
:10094A0074362FF582E43400F583EEF00FBF4BEADC
:10095A00E4900082F07F807E25FDFC12241AE49048
:10096A0000F9F09000E2F09000FBF09000BCF090EB
:0F097A0000FAF0900008F09000F6F09000C7F03F
:10098900F522E52290172D93FF74832522F582E441
:100999003400F583EFF00522E522B41BE5E4F522E6
:1009A900E52290174993FF749E2522F582E43400CD
:0B09B900F583EFF00522E522B41EE5F7
:1009C4007528FF752917752A2C752B00752C017B4A
:1009D400017A0079BD7D0A7C00122B047527027F01
:1009E400807E257D007C00121B5E75280075290021
:1009F400752A00E4F52BF52C7B017A0079E37D1050
:100A0400FC122AD37F2B122EDB7B017A0079F37D33
:100A140003122F7C7BFF7A1A79A17F011222AE7B0D
:100A2400FF7A2479FB7F021222AE7BFF7A1E79B112
:100A34007F031222AE7BFF7A28793F7F041222AE15
:100A44007BFF7A0F79C27F071222AE7BFF7A25796A
:100A5400BD7F0B1222AE7BFF7A2B79BD7F0A122257
:100A6400AE7BFF7A0679627F091222AE122F9F12A3
:040A740029C780FB13
:092F58008B88898C88898F888997
:1014EE0052018F8686008686008686008686008656
:0914FE0086008686004101840984
:03002B00022F930E
:062F930053BCEFD20F3227
:020E1600154A7B
:100E1800200F03020FBFC20F900183E0B409004006
:100E280003020FA1900E33F8282873020E7A020EDF
:100E38004E020E60020E8C020E4E020E60020EA3CF
:100E4800020E4E020E60AFBDEFFEADBE7C00E42D7B
:100E5800FFEC3E900185803CAFBDEFFEADBE7C004F
:100E6800E42DFFEC3E900187F0A3EFF075430102FB
:100E78000FA7AFBDEFFEADBE7C00E42DFFEC3E90AA
:100E880001898010AFBDEFFEADBE7C00E42DFFEC04
:100E98003E90018BF0A3EFF0020FA7AFBDEFFEADC0
:100EA800BE7C00E42DFFEC3E90018DF0A3EFF090A6
:100EB800018DE0FEA3E07807CEC313CE13D8F9A8BE
:100EC8004AF6C394065013A84AE675F003A4248F83
:100ED800F582E43401F583E014F0900184E014F025
:100EE8006003020FA77409F0A84AE4F6A84AE6FFCF
:100EF800C394064003020FA7EF75F003A4248FF5EF
:100F080082E43401F583E0C39480502AE6FF75F04B
:100F180003A42490F582E43401F583E0D39480405F
:100F280040EF75F003A42491F582E43401F583744D
:100F380001F0F544802BA84AE6FF75F003A424903D
:100F4800F582E43401F583E0C394805014EF75F022
:100F580003A42491F582E43401F5837402F0754406
:100F680001A84AE6FF75F003A4248FF582E4340152
:100F7800F583E0FEEF75F003A42490F582E43401D4
:100F8800F583EEF0E675F003A4248FF582E43401CE
:100F9800F5837486F006020EF490018374FFF090D6
:100FA8000183E0D39407400374FFF0900183E004C9
:070FB800F0902F5893F5BCE7
:030FBF00054A22BE
:022F1800154A58
:092F1A00A84AA644E4F544E6FFD0
:032F2300054A223A
:022F2600154A4A
:092F2800A84AA643E4F543E6FFC4
:032F3100054A222C
:102A71008F9D75BC88439720D2AD90015A74FFF0A9
:102A8100A3740EF0A37416F0A374FFF0A3742FF0D7
:102A9100A37418F0A374FFF0A3742FF0A37426F0AD
:012AA1002212
:070003007B017A01798522DF
:1027F900C3EF64809480403BD3EF64809485503369
:10280900EFFD3395E0FC90019175F003ED1203DCC7
:10281900EC75F003A42583F583E0FE90019175F032
:1028290003ED1203DCEC75F003A42583F583E4F0D2
:05283900AF06227F0341
:01283E002277
:042C3A00154A154AD8
:102C3E00122F6AA84AA60608A607A84AE6FE08E6C4
:0F2C4E00FF4E600BEF24FFFFEE34FFFE122F73DB
:052C5D00054A054A22B2
:102D620053B1EF43B21012003EE4F5D975DA49D2FD
:102D7200DE90015474FFF0A3742CF0A3743AF02295
:08232B008E2D8F2E8C2F8D30BA
:10233300122F6AEF4E7066AF30AE2F122F73C3E5C4
:102343002E940AE52D9400404BE47B18FAF9F8909B
:1023530016F31203C01202F6C006C007AE2DAF2E4D
:10236300AB07AA06E4F9F8D007D0061202F6AB07CA
:10237300AA06AFF9EFFEADE97C00E42DFFEC3ECFFA
:102383002BCF3AAD07FCAF03AE02122EBAD2D8431D
:0F239300DA01800612003E53DAFE7F02227F033A
:0123A2002218
:0C004600122F6AEF4E7002FF227F012291
:1018D400E4F5809001ECE0FFB40800505F9018E854
:1018E400F828287302190002190602190C021912A9
:1018F40002191802192202192C021936C2A3C2A213
:101904008016C2A3C2A2801AC2A3C2A2801EC2A30E
:10191400C2A28022C2A3D2A2C2A1C2A08020C2A31A
:10192400D2A2C2A1D2A08016C2A3D2A2D2A1C2A026
:10193400800CC2A3D2A2D2A1D2A08002D2A3C3EFB0
:101944006480948850299001ECE0FF3395E0FE74A4
:10195400E32FF58274013EF583E0FF3395E0FE74D6
:10196400F72FF58274163EF583E493F580801E907C
:1019740001ECE0FFB408133395E0FE74E32FF58225
:1019840074013EF583E0F5808003E4F5809001E284
:10199400E0FF9001ECE004FEF0D3EF6480F8EE6425
:1019A40080984014E0D36480948850047408F02232
:0919B4009001E1E09001ECF02249
:102E1700E4F5937594FF5395F043960F90013F7433
:0B2E2700FFF0A37418F0A374D4F02295
:092F61009001E1EFF0A3EDF02274
:102D82009001E3EFF0A3EDF0A3EBF0A3E527F0A3AE
:102D9200E528F0A3E529F0A3E52AF0A3E52BF0222C
:062F99009001EBEFF022B5
:101507000149004901EE9494009494009494004199
:0315170001ED1EC5
:0213C400154AC8
:1013C60020B2069001EEE014F020B3069001F1E0A1
:1013D60014F02097069001F4E014F09001EDE0146B
:1013E600F060030214E4741EF0A84AE4F6A84AE684
:1013F600FFC36480948340030214E4EF3395E0FE58
:101406009001EE75F003EF1203DCEE75F003A425F0
:1014160083F583E0C3948050399001EF75F003EFB4
:101426001203DCEE75F003A42583F583E0D39480E4
:10143600405AE6FF3395E0FE9001F075F003EF1297
:1014460003DCEE75F003A42583F5837401F0F549FA
:10145600803AA84AE6FF3395E0FE9001EF75F00367
:10146600EF1203DCEE75F003A42583F583E0C39445
:101476008050199001F075F003EF1203DCEE75F061
:1014860003A42583F5837402F0754901A84AE6FF93
:10149600FD3395E0FC9001EE75F003ED1203DCECF4
:1014A60075F003A42583F583E0FE9001EF75F00344
:1014B600ED1203DCEC75F003A42583F583EEF0EF63
:1014C6003395E0FE9001EE75F003EF1203DCEE7546
:0E14D600F003A42583F5837494F0060213F34B
:0314E400054A2294
:022F3400154A3C
:092F3600A84AA649E4F549E6FFAA
:032F3F00054A221E
:102DC20090014574FFF0A3742FF0A37434F09001C6
:0D2DD2004274FFF0A37413F0A374C4F02248
:10290900EF600764016003BF0233EFFD3395E0FC1C
:102919009001F075F003ED1203DCEC75F003A425CA
:1029290083F583E0FE9001F075F003ED1203DCEC12
:0F29390075F003A42583F583E4F0AF06227F0336
:01294800226C
:10151A005501A200000000000000000000000000C9
:0C152A0000000000000000004101A100D2
:0203EE00154AAE
:1003F000A84AE4F6A84AE6FFC36480948340030257
:10040000065FEF3395E0FE9001A275F007EF12034F
:10041000DCEE75F007A42583F583E0FCA3E04C70C7
:10042000030206599001A475F007EF1203DCEE7584
:10043000F007A42583F583E0FEA3E04E70030206D7
:1004400059E6FFFD3395E0FC9001A675F007ED122B
:1004500003DCEC75F007A42583F58374FFF5F01237
:10046000023F45F060030206599001A475F007EDC4
:100470001203DCEC75F007A42583F583E0FAA3E012
:10048000FB9001A675F007ED1203DCEC75F007A4F4
:100490002583F583EAF0A3EBF0EF3395E0FE9001BE
:1004A000A275F007EF1203DCEE75F007A42583F5C3
:1004B00083E0FCA3E0D39400EC648094804056A8D1
:1004C0004AE6FD3395E0FC9001A275F007ED1203BA
:1004D000DCEC75F007A42583F58374FFF5F01202B8
:1004E0003F9001A875F007ED1203DCEC75F007A44E
:1004F0002583F583E004F0D36480948340729001F7
:10050000A875F007EF1203DCEE75F007A42583F55C
:1005100083E4F0805BA84AE6FFFD3395E0FC9001A0
:10052000A275F007ED1203DCEC75F007A42583F546
:1005300083E475F00112023F9001A875F007ED12F7
:1005400003DCEC75F007A42583F583E014F0C364A5
:10055000809480501BEF3395E0FE9001A875F00762
:10056000EF1203DCEE75F007A42583F5837403F026
:10057000A84AE6FFFD3395E0FC9001A875F007ED71
:100580001203DCEC75F007A42583F583E014603CCE
:1005900014606614700302062624036003020651E9
:1005A000EF14601014601924026003020651D2C1D6
:1005B000C2C280299001A1E054F04401F00206512A
:1005C0009001A1E0540F4410F0020651A84AE6142D
:1005D000601114601924027078C2C1D2C2C2C3C2B1
:1005E000C4806E9001A1E054F04402F08063900159
:1005F000A1E0540F4420F08058A84AE6146011147A
:1006000060192402704BC2C1C2C2D2C3C2C48041AD
:100610009001A1E054F04404F080369001A1E05430
:100620000F4440F0802BA84AE6146011146019248E
:1006300002701EC2C1C2C2C2C3D2C480149001A142
:10064000E054F04408F080099001A1E0540F448088
:0F065000F09001A1E0FF122F99A84A060203F4CF
:03065F00054A2227
:102E640053B3E143B41E53C0E190016974FFF0A36E
:082E74007403F0A374EEF022D8
:101C13008F28EF3395E0FE9001A275F007EF1203D2
:101C2300DCEE75F007A42583F583E0FEA3E04E60A8
:101C330003021CBBE528600A64016006E528640210
:101C43007076ED60737C007E037FE81201B4AD28EB
:101C5300ED3395E0FC9001A475F007ED1203DCEC85
:101C630075F007A42583F583EEF0A3EFF09001A4AC
:101C730075F007ED1203DCEC75F007A42583F583FB
:101C8300E0FEA3E0FF9001A675F007ED1203DCEC84
:101C930075F007A42583F583EEF0A3EFF09001A27E
:101CA30075F007ED1203DCEC75F007A42583F583CB
:0B1CB300EAF0A3EBF07F02227F032287
:10276A00EF600764016003BF023AEFFD3395E0FCB6
:10277A009001A275F007ED1203DCEC75F007A425B1
:10278A0083F583E0FAA3E0FB9001A275F007ED124E
:10279A0003DCEC75F007A42583F583E4F0A3F0AE1F
:0727AA0002AF0322E4FEFF71
:0127B1002205
:102A3F00EF600764016003BF0225EF3395E0FE905E
:102A4F0001A275F007EF1203DCEE75F007A42583E2
:102A5F00F583E0FEA3E04E60037F01227F00227F1B
:022A6F00032240
:101536004101150A41013E0A4101820A040E0000DA
:10154600000001140046017C0000FFFF8FFFC10D63
:10155600C105C108C101C10E6024011AFF000AFFBE
:10156600000AFF000AFF000AFF000AFF000AFF0048
:101576000AFF000AFF000AFF000AFF000AFF000A2E
:101586006036013FFF000AFF000AFF0026FF000A3F
:10159600FF0026FF000AFF0026FF000AFF000AFFE1
:1015A600000AFF0026FF0026FF0026FF0026FF0098
:0A15B6000AFF000AFF000AFF000A06
:01000A0022D3
:030026007F002236
:1027B200438E805389F07BE07A2879017800901665
:1027C200F31203C0122883EFF404F58A7BE07A281F
:1027D200790178009016F31203C0122883C3E49F94
:1027E200FFE49EFE74019DFDE49CFC78081203AC9C
:0727F2008F8CD28CD2A922CA
:03000B00022718B1
:04271800C0E0C0D08D
:10271C00D5080A75084C300D020514D20DA20372AF
:10272C00045036150AE50A7030850C0AD207300AB7
:10273C0017E50D6007150D438F01801D538FFEC2E9
:10274C00B5D51615C20A8011050BE50BD3940640BE
:09275C0008C203E5136002D20675
:05276500D0D0D0E032ED
:10267300300E47C20E9016F31203C078101203AC4B
:102683008E458F46900118E0FEA3E0FFE4FCFD7B3E
:1026930019FAF9F812026BC006C007AE45AF46AB94
:1026A30007AA06E4F9F8D007D006122883780312A4
:1026B30003AC90017AEEF0A3EFF090017AE0FEA371
:0226C300E0FF36
:0126C50022F2
:092F6A0090017CE0FEA3E0FF22CF
:092F730090017CEEF0A3EFF022C6
:102EBA00900180EEF0A3EFF090017EECF0A3EDF02C
:012ECA0022E5
:03003E00C2B42227
:03003B00021CBEE6
:101CBE00C0E0C083C082C0D075D000C004C005C0D3
:031CCE0006C00746
:101CD10030DF04C2DF807D30DA04C2DA807630D9A9
:101CE1003DC2D9AFFBEFFEADEB7C00E42DFFEC3E36
:101CF10020000E900116F0A3EFF075DB11D20080E9
:101D010053FE900116E0FCA3E0FDC3EF9DFFEE9CA6
:101D1100A3F0A3EFF075DB00C200D20E803630D8FD
:101D210033C2D890017CE07002A3E06022B2B4908B
:101D3100017EE0FEA3E0F5EAEEF5FAA3E0FEA3E002
:101D4100FF90017FE02FF090017EE03EF08005C220
:041D5100B453DAFEAF
:101D5500D007D006D005D004D0D0D082D083D0E033
:011D6500324B
:062F9F001227B2D2AF229E
:10219B003004047F0180027F00200A047E0180024C
:1021AB007E00EE5F6074E515C3950950683002360A
:1021BB00750D01E515131313541FAB17AA18A919A5
:1021CB00F582758300120165FFE515540704FEEFD8
:1021DB00A806088002C333D8FC30D70575160380D8
:1021EB002F751601802AAB17AA18A91975F002E5ED
:1021FB0015A4F58285F083120165F50DE51575F0D3
:10220B0002A429F9EA35F0FA900001120165F516DE
:0A221B000515D20A22C204438F10F9
:012225002296
:1017E700900115E014F0701F740AF0D20590013EC5
:1017F700E014F07012740AF0D208900182E014F03D
:101807007005740AF0D20190013FA3E0FAA3E0F952
:101817001203E8900142A3E0FAA3E0F91203E8906B
:10182700014EA3E0FAA3E0F91203E890015AA3E0FE
:10183700FAA3E0F91203E8900169A3E0FAA3E0F93B
:101847001203E8900172A3E0FAA3E0F91203E8900B
:101857000160A3E0FAA3E0F91203E8EF600C90013E
:1018670032A3E0FAA3E0F91203E8900163A3E0FAD8
:10187700A3E0F91203E8EF600E900135A3E0FAA3A5
:10188700E0F91203E8D20BE512D394004016D51203
:101897003030090C900138A3E0FAA3E0F91203E80D
:1018A700D20C801D900166A3E0FAA3E0F91203E8C9
:1018B700EF600E900138A3E0FAA3E0F91203E8D233
:0D18C7000C90011AA3E0FAA3E0F90203E877
:10207C00900154A3E0FAA3E0F91203E8900157A3EE
:10208C00E0FAA3E0F91203E8900148A3E0FAA3E018
:10209C00F91203E890011DA3E0FAA3E0F91203E89A
:1020AC00900145A3E0FAA3E0F91203E8EF600C906D
:1020BC000126A3E0FAA3E0F91203E890014BA3E098
:1020CC00FAA3E0F91203E8EF600C90012CA3E0FAFC
:1020DC00A3E0F91203E890015DA3E0FAA3E0F91282
:1020EC0003E8EF600C90012FA3E0FAA3E0F91203D0
:1020FC00E830060EC20690013BA3E0FAA3E0F91209
:03210C0003E822C3
:10294900900120A3E0FAA3E0F91203E8900151A352
:10295900E0FAA3E0F91203E8EF600C900129A3E083
:10296900FAA3E0F91203E890016CA3E0FAA3E0F9F5
:0F2979001203E890016FA3E0FAA3E0F90203E86C
:102B9200AF11AE10AD0FAC0E9001751203D09001C3
:102BA20079E514F0E4F511F510F50FF50EF5149032
:0B2BB2000123A3E0FAA3E0F90203E80E
:1029C700300705C20712219B300D05C20D1217E70C
:1029D700300505C20512207C300805C208122949B6
:1029E700300105C201122B92E5112401F511E435DE
:0E29F70010F510E4350FF50FE4350EF50E2245
:1022AE008B238A248925EFB40C0050709022C1F83C
:1022BE002828730222E50222EA0222EF0222F40209
:1022CE0022F90222FE02230302230802230D022317
:1022DE001202231702231C90011A803590011D80D3
:1022EE0030900120802B90012380269001268021A2
:1022FE0090012C801C900129801790012F80129044
:10230E000132800D900135800890013880039001D4
:0D231E003BE523F0A3E524F0A3E525F02224
:072F85007B017A017975223E
:0415C0004101FF01E5
:102E3200C295E4FEEF1392CC000000D29500EFC3DE
:082E420013FFC2950EBE08EC5F
:012E4A002265
:102E7C00E4FEEFC313FF30CC03430780D295000070
:072E8C0000C2950EBE08EB29
:012E9300221C
:102B6400F07F85122B77A3EFF07F87122B77A3EFEB
:032B7400F07F8966
:102B7700C296000000C295000000D29600122E32C5
:0A2B8700122E7CD295000000C296C9
:012B91002221
:032DA200A3E0FDAE
:102DA500C296000000C295000000D29600122E3295
:0D2DB500AF05122E32D295000000C296220A
:072F8C007B017A0179F822B4
:102E4B0078F87C017D017B007A00792D7E007F076D
:092E5B00120126E49001FFF022AF
:102EA800EFD3941F5009EF25E044C1FF022B777F31
:022EB8000122F5
:102C1100AC07AB05ECD3941F501CE4FD7F8E122D45
:102C2100A5EC25E044C0FFAD03122DA57D807F8E6C
:092C3100122DA57F00227F012273
:021E0C00154A75
:101E0E009001FFE060447F81122B77A84AEFF69095
:101E1E0001F8E06F7003021EAEA84AE6F07F83124F
:101E2E002B77A84AEFF6A3E06F6075A84AE6122B4F
:101E3E0064A3EFF07F8D122B779001FEEFF07F8B76
:101E4E00122B779001FDEFF080569001F7E0FF0422
:101E5E00F0EFC3940A4049E4F09001FF04F0E4FD72
:101E6E007F8E122DA59001F8E0FD7F80122DA57FAB
:101E7E0082122DA27F84122DA2A3E0FD7F86122D49
:101E8E00A5A3E0FD7F88122DA5A3E0FD7F8A122D6C
:101E9E00A5A3E0FD7F8C122DA57D807F8E122DA532
:031EAE00054A22C0
:1015F5007F81122B779001F8EFF07F83122B77A371
:10160500EF122B64A3EFF07F8B122B77A3EFF07F04
:101615008D122B77A3EFF0E4FD7F8E122DA57F1E93
:10162500122EA8EF64A560047F0180027F0090015F
:10163500F8E05480FEA3E0D3945940047D01800274
:101645007D00ED4EFE9001FAE0D394A440047D01A7
:1016550080027D00ED4EFE9001FBE0D39431400405
:101665007D0180027D00ED4EFE9001FCE0D39412D9
:1016750040047D0180027D00ED4EFE9001FDE0D32A
:10168500940740047D0180027D00ED4EFE9001FE31
:10169500E0D3949940047D0180027D00ED4E4F60BA
:1016A50030782D7C007D007B007A0079237E007FD9
:1016B50007120126122E4B7DA57F1E122C1178F8DC
:1016C5007C017D017B007A0079237E007F07120172
:1016D500267DA97F90122DA57D807F8E122DA59048
:0E16E500016F74FFF0A3741EF0A3740CF022CA
:102ECB00D2C0000000D2CD000000C2C00000002222
:0D002E00C2C0000000D2CD000000D2C022F0
:0B2CD600122CFA122CE1AF05122CFAB0
:102CE100E4FFD2CD30C009EFC394FF50030F80F44D
:082CF100000000C2CD0000004C
:012CF90022B8
:102CFA00E4FEEF25E0FFC2CD00000092C000000014
:102D0A00D2CD0000000EBE08E9C2CD000000D2C03C
:032D1A00000000B6
:012D1D002293
:102D4000C2CD000000D2C000E4FED2CD0000EF25CD
:102D5000E0FDA2C0E4334DFF0000C2CD000EBE086E
:012D6000E989
:012D6100224F
:10000E00AC07122ECB7FA0122CFA122CE1AF0412E9
:05001E002CD602002EAB
:022DDF00AD073E
:102DE100122ECB7FA0122CD6122ECB7FA1122CFA41
:092DF100122CE1122D4012002EFB
:012DFA0022B6
:102EDB0053B1DF43B220C2B5C20A8F0C438F10220D
:030053000223A3E2
:1023A300C0E0C083C082C0D075D000C000C001C0EF
:0323B30002C00362
:1023B600200313D203751B08751300751A00E50C6C
:1023C600C313F50A803AE50BC394014031E51A259B
:1023D600E0F51AE50BC394034002051AD51B21E567
:1023E60013C3951C501A751B08AB1DAA1EA91F8581
:1023F6001382758300E51A12019205138002C20347
:03240600750B0053
:10240900D003D002D001D000D0D0D082D083D0E088
:012419003290
:092F7C008B1D8A1E891F8D1C2289
:032FA500AF132245
:102AA2002003047F0180027F00200A047E0180024D
:102AB2007E00EE5F60188B178A188919EDC313F533
:102AC20009C202E4F515538FEFD2047F02227F037D
:012AD20022E1
:102988002003047F0180027F00200A047E01800268
:102998007E00EE5F6026538FEF750D10751608D216
:1029A8000A438F018B178A188919ED75F008A4045A
:0F29B800F509D202E4F515D2047F02227F032233
:102DFB002003047F0180027F00200A047E018002F1
:0C2E0B007E00EE5F60037F00227F01224A
:1015C4005501B7000000000000000000000000000A
:0815D40000000100000000000E
:03004300020A7836
:100A7800C0E0C0F0C083C082C0D075D000C000C044
:100A880001C002C003C004C005C006C007E59A3013
:100A9800E142539AFD9001BCE0FEA3E0FFC3900140
:100AA800BBE09F9001BAE09E501F9001B7E0FBA306
:100AB800E0FAA3E0F9A3E475F00112025585F0828B
:100AC800F583120165F59B800B9001BEE4F0E548C3
:100AD8006002C2B7E59A20E003020C2F539AFE3059
:100AE8000C0BC20C9001C4E4F0A3F0D209E54864F1
:100AF800026003020B899001C2E0FEA3E0FFA3E0BD
:100B0800FCA3E0FDC39FEC9E50719001BFE0FBA3E6
:100B1800E0FAA3E0F98D828C83E59B1201929001A3
:100B2800CAE0FEA3E0FFC3ED9FEC9E50409001C2D7
:100B3800E0FCA3E0FDEF9DEE9C50329001C7E0FB86
:100B4800A3E0FAA3E0F99001C4E0FEA3E0FFF58278
:100B58008E83120165FD9001BFE0FBA3E0FAA3E0DC
:100B6800F98F828E831201656D6002C2099001C5FA
:100B7800E004F070069001C4E004F0854712020C0E
:100B88002F9001C2E0FEA3E0FFA3E0FCA3E0FDC3B9
:100B98009FEC9E50779001BFE0FBA3E0FAA3E0F939
:100BA8008D828C83E59B1201929001CAE0FEA3E03E
:100BB800FFC3ED9FEC9E50469001C2E0FCA3E0FD10
:100BC800EF9DEE9C50389001C7E0FBA3E0FAA3E04C
:100BD800F99001C4E0FEA3E0FFF5828E831201655F
:100BE800FD9001BFE0FBA3E0FAA3E0F98F828E83BA
:100BF8001201656D60089001C474FFF0A3F09001C4
:100C0800C5E004F070069001C4E004F09001C2E071
:100C1800FEA3E0FFC39001C5E09F9001C4E09E40A1
:100C2800069001C67401F0D007D006D005D004D0D4
:100C380003D002D001D000D0D0D082D083D0F0D061
:020C4800E03298
:022EFA00154A77
:0A2EFC009001C6E0A84AF6FFE4F0DA
:032F0600054A2257
:0100290022B4
:101B5E008F268E258D248C23852748E5487002809C
:101B6E000343BA01E548701790017274FFF0A37435
:101B7E0000F0A37429F0E4F5DBD290D2918020C25C
:101B8E00B7AB26AA25A924A823E47F407E9CFDFCA2
:101B9E001202F68F47E547700375470185471275A8
:101BAE009A10E47B04FAF9F89016F31203C01202AD
:101BBE00F6AB26AA25A924A8231202F6EFF404F503
:101BCE00D7E47B04FAF9F89016F31203C01202F66A
:101BDE00AB26AA25A924A8231202F6C3E49FFFE48C
:101BEE009EFE74019DFDE49CFC78081203998FD62D
:101BFE00438E1443AF0190016674FFF0A3742EF070
:051C0E00A374FAF022AE
:102AD3009001BFEBF0A3EAF0A3E9F0A3ECF0A3EDC0
:102AE300F09001CAE52BF0A3E52CF09001C7E5288F
:102AF300F0A3E529F0A3E52AF0D20CE49001C6F097
:012B030022AF
:102B35009001BEE070269001B7EBF0A3EAF0A3E99F
:102B4500F0E4A3F0A3F0A3ECF0A3EDF0A37401F07F
:0F2B5500E5486002D2B7439A027F02227F032233
:0B2F42009001BEE07002FF227F012220
:1015DC005501CC00000000000000000000000000DD
:0815EC000000010000000000F6
:0300230002129432
:10129400C0E0C0F0C083C082C0D075D000C000C020
:1012A40001C002C003C004C005C006C00730993B9A
:1012B400C2999001D1E0FEA3E0FFC39001D0E09F6A
:1012C4009001CFE09E501F9001CCE0FBA3E0FAA375
:1012D400E0F9A3E475F00112025585F082F583125A
:1012E4000165F59980059001D3E4F0209803021379
:1012F400A9C298300B09C20B9001D9E4F0A3F09075
:1013040001D7E0FEA3E0FFA3E0FCA3E0FDC39FEC54
:101314009E50779001D4E0FBA3E0FAA3E0F98D821C
:101324008C83E5991201929001DFE0FEA3E0FFC3F4
:10133400ED9FEC9E50469001D7E0FCA3E0FDEF9DAD
:10134400EE9C50389001DCE0FBA3E0FAA3E0F990B6
:1013540001D9E0FEA3E0FFF5828E83120165FD90C2
:1013640001D4E0FBA3E0FAA3E0F98F828E8312019B
:10137400656D60089001D974FFF0A3F09001DAE084
:1013840004F070069001D9E004F09001D7E0FEA3C8
:10139400E0FFC39001DAE09F9001D9E09E400690FF
:1013A40001DB7401F0D007D006D005D004D003D0FF
:1013B40002D001D000D0D0D082D083D0F0D0E0329F
:022F0900154A67
:0A2F0B009001DBE0A84AF6FFE4F0B5
:032F1500054A2248
:10241A008F268E258D248C23759850438E40538E9B
:10242A00FE53890FE47B04FAF9F89016F31203C0FD
:10243A001202F6AB26AA25A924A8231202F6EFF463
:10244A0004F58BE47B04FAF9F89016F31203C01230
:10245A0002F6AB26AA25A924A8231202F6C3E49FF2
:10246A00FFE49EFE74019DFDE49CFC78081203992A
:10247A008F8DC2ABD28ED2AC90016374FFF0A3747D
:07248A002FF0A37409F022FA
:102B04009001D4EBF0A3EAF0A3E9F0A3ECF0A3ED79
:102B1400F09001DFE52BF0A3E52CF09001DCE52833
:102B2400F0A3E529F0A3E52AF0D20BE49001DBF051
:012B3400227E
:102C62009001D3E0701F9001CCEBF0A3EAF0A3E94E
:102C7200F0E4A3F0A3F0A3ECF0A3EDF0A37401F051
:082C8200D2997F02227F032298
:0B2F4D009001D3E07002FF227F012200
:0300000002210FCB
:0C210F00787FE4F6D8FD75814A02215665
:10005600E709F608DFFA8046E709F208DFFA803E8C
:1000660088828C83E709F0A3DFFA8032E309F60879
:10007600DFFA8078E309F208DFFA807088828C83E1
:10008600E309F0A3DFFA806489828A83E0A3F60895
:10009600DFFA805889828A83E0A3F208DFFA804C6F
:1000A60080D280FA80C680D4806980F28033801046
:1000B60080A680EA809A80A880DA80E280CA8033AF
:1000C60089828A83ECFAE493A3C8C582C8CCC58327
:1000D600CCF0A3C8C582C8CCC583CCDFE9DEE780F7
:1000E6000D89828A83E493A3F608DFF9ECFAA9F076
:1000F600EDFB2289828A83ECFAE0A3C8C582C8CCCC
:10010600C583CCF0A3C8C582C8CCC583CCDFEADEE4
:10011600E880DB89828A83E493A3F208DFF980CC46
:1001260088F0EF60010E4E60C388F0ED2402B4043F
:100136000050B9F582EB2402B4040050AF232345E6
:0601460082239000A67365
:10014C00BB010689828A83E0225002E722BBFE02B1
:09015C00E32289828A83E49322E4
:10016500BB010CE58229F582E5833AF583E022504F
:1001750006E92582F8E622BBFE06E92582F8E22299
:0D018500E58229F582E5833AF583E49322B3
:10019200F8BB010DE58229F582E5833AF583E8F0A3
:1001A200225006E92582C8F622BBFE05E92582C84F
:0201B200F22237
:1001B400BC000BBE0029EF8DF084FFADF022E4CC2F
:1001C400F875F008EF2FFFEE33FEEC33FCEE9DECF8
:1001D400984005FCEE9DFE0FD5F0E9E4CEFD22ED3E
:1001E400F8F5F0EE8420D21CFEADF075F008EF2F88
:1001F400FFED33FD4007985006D5F0F222C398FD79
:050204000FD5F0EA2215
:10020900C2D5EC30E709B2D5E4C39DFDE49CFCEE10
:1002190030E715B2D5E4C39FFFE49EFE1201B4C3D3
:10022900E49DFDE49CFC80031201B430D507C3E4CE
:060239009FFFE49EFE227F
:10023F00C5F0F8A3E028F0C5F0F8E582158270024A
:06024F001583E038F022E7
:10025500A3F8E0C5F025F0F0E5821582700215835C
:06026500E0C838F0E822B9
:10026B00E88FF0A4CC8BF0A42CFCE98EF0A42CFC32
:10027B008AF0EDA42CFCEA8EF0A4CDA8F08BF0A4B0
:10028B002DCC3825F0FDE98FF0A42CCD35F0FCEB0F
:10029B008EF0A4FEA9F0EB8FF0A4CFC5F02ECD39D4
:0F02AB00FEE43CFCEAA42DCE35F0FDE43CFC2241
:1002BA0075F008758200EF2FFFEE33FECD33CDCCFB
:1002CA0033CCC58233C5829BED9AEC99E58298407E
:1002DA000CF582EE9BFEED9AFDEC99FC0FD5F0D65B
:1002EA00E4CEFBE4CDFAE4CCF9A88222B800C1B985
:1002FA000059BA002DEC8BF084CFCECDFCE5F0CBC3
:10030A00F97818EF2FFFEE33FEED33FDEC33FCEBFB
:10031A0033FB10D703994004EB99FB0FD8E5E4F9B6
:10032A00FA227818EF2FFFEE33FEED33FDEC33FCA3
:10033A00C933C910D7059BE99A4007EC9BFCE99A97
:10034A00F90FD8E0E4C9FAE4CCFB2275F010EF2FDC
:10035A00FFEE33FEED33FDCC33CCC833C810D707DC
:10036A009BEC9AE899400AED9BFDEC9AFCE899F817
:0E037A000FD5F0DAE4CDFBE4CCFAE4C8F922AA
:10288300C2D5E830E70FB2D5E4C39BFBE49AFAE480
:1028930099F9E498F8EC30E717B2D51228B9120287
:1028A300F6E4C39BFBE49AFAE499F9E498F880030D
:1028B3001202F630D50DE4C39FFFE49EFEE49DFDB6
:0428C300E49CFC2273
:10038800EB9FF5F0EA9E42F0E99D42F0E89C45F0CB
:010398002242
:10039900E8600FECC313FCED13FDEE13FEEF13FF42
:0303A900D8F12266
:1003AC00E86010ECA2E713FCED13FDEE13FEEF1367
:0403BC00FFD8F02254
:1003C000E493FC740193FD740293FE740393FF2283
:0C03D000ECF0A3EDF0A3EEF0A3EFF022A0
:0C03DC00A42582F582E5F03583F583222C
:0603E8008A838982E473A0
:10211B0002087AE493A3F8E493A34003F68001F258
:10212B0008DFF48029E493A3F85407240CC8C333C5
:10213B00C4540F4420C8834004F456800146F6DF94
:10214B00E4800B01020408102040809014E7E47E29
:10215B00019360BCA3FF543F30E509541FFEE49389
:10216B00A360010ECF54C025E060A840B8E493A350
:10217B00FAE493A3F8E493A3C8C582C8CAC583CA7B
:10218B00F0A3C8C582C8CAC583CADFE9DEE780BE33
:0115F40000F6
:00000001FF
