:101D870000A8C0003F065B4F666D7D077F6F0008A8
:101D970040014148BF86DBCFE6EDFD87FFEF1C0A18
:101DA7002801000000010101070017010200003BA4
:101DB70001023C0AC80A010203AA41434B20733DB2
:101DC70030303020743D303020723D303020643D5B
:101DD7003030300D0A00003021010902265B303017
:101DE7003A30303A30305D20542B303030204C3090
:101DF70020463030302044303030204130204F30C2
:091E07003020453030300D0A0096
:031242000128017F
:06286E007B017A00798A6B
:0D287400900001120155FD12013CFEEDFF28
:012881002234
:0820A4008B358A3689378D382F
:1020AC0074FFF539F53AE4FDEDC39538503EAB3588
:1020BC00AA36A9378D82758300120155623AE4FC69
:1020CC00E53A30E015E539C313FEE53A13FFEE644B
:1020DC00A0F539EF6401F53A800BE539C313F539F6
:1020EC00E53A13F53A0CBC08D70D80BCAE39AF3AC3
:0120FC0022C1
:0F28B500EFC4540F75F00AA4FEEF540F2EFF224C
:10271400AE031BEE601BED75F00A84EF2B245AF513
:1027240082E43400F583E5F0F0ED75F00A84FD8071
:02273400DF22A2
:102150008C338D34AA07C3E533648094805005E442
:10216000F533F534D3E53494E7E533648094834064
:10217000067533037534E7AE33AF347C007D6412EB
:1021800001F9AD07AF027B01122714EA04FFC00773
:10219000AE33AF347C007D641201F9D0077B0202BC
:0221A000271402
:101B4300E4FF1227D5EF64A56003021BDCE4F53341
:101B5300F532E53204FF1227D574342532F8A6078F
:101B630074342532F8E62533F5330532E532C39470
:101B73000540DF7F061227D5EF6533705CE4F5324D
:101B8300E53275F005A424A6F582E4341DF583E45B
:101B930093FF74342532F8E6FEC39F403CE532756B
:101BA300F005A424A7F582E4341DF583E493FFEE46
:101BB300D39F50250532E532B405C5E4F5327434BC
:101BC3002532F8E6FF74002532F582E43400F5830C
:091BD300EFF00532E532B405E53E
:011BDC0022E6
:101FEC00852732E532B401067DA5E4FF8035E53264
:101FFC00D394065013E53214FF74FE2532F582E4B7
:10200C0034FFF583E0FD801BE4FDF53274002532CE
:10201C00F582E43400F583E02DFD0532E532B4059C
:10202C00EB7F0612000E0527E527D39407400DE43D
:0C203C00F5277D0FFC7FA07E0F121E8D8B
:012048002275
:101F7C00EF901DBE9390006CF0E490006EF0A3F017
:101F8C00A3F0A3F074062FF582E43400F583E0602F
:101F9C002590006D7410F0EF700A900000E0900036
:101FAC006EF08018900001E090006EF0900004E05C
:101FBC0090006FF0800690006D7403F07B017A0046
:101FCC00796C7D061220A4AC06EF900072F0AF0481
:101FDC00A3EFF07B017A00796C7D087C000225551B
:10268000AE031BEE601FED75F00A84E5F02430FE0A
:10269000EF2B2434F582E43400F583EEF0ED75F091
:0626A0000A84FD80DB222C
:1021F4008F358D36122923EF7037900086E0FD7BF2
:10220400037F06122680900087E0FD7B027F0C127C
:1022140026807B02AD357F111226807B03AD367F8D
:10222400161226807B017A0079347D1B7C001226ED
:0B22340058E4900086F0900074F02247
:10144A007B017A0079507D081220A4900058E06F41
:10145A006003021543AF06900059E06F600302155E
:10146A0043900051E0FF7003021543900086EFF0AD
:10147A00900052E0900087F0900053E0FD64106005
:10148A00057F04021534900054E0F532A3E0F533E9
:10149A00E532C394054007AD327F01021534E532C7
:1014AA0075F005A424A6F582E4341DF583E493FFC0
:1014BA00E533C39F4018E53275F005A424A7F582E9
:1014CA00E4341DF583E493FFE533D39F4006AD333F
:1014DA007F01805674002532F582E43400F583E5F5
:1014EA0033F07D057C007FB87E0B121E8DE53275C8
:1014FA00F005A424A9F582E4341DF583E493F534B8
:10150A00C394024005E4FDFF802074062534F58269
:10151A00E43400F5837401F0AF34A807088002C3ED
:10152A0033D8FC55307006FD7F020221F490004F3B
:09153A00E534F09000747496F0A1
:011543002285
:10171A00900075E0FFB40205E4F532800BEF640334
:10172A0060030217F5753201E532652A6003021774
:10173A00F5900077E0FFE53260047E0C80027E0BB4
:10174A00EE6F60030217F5E4FF74772FF582E43435
:10175A0000F583E0FEE53275F00CA42488F582E4F6
:10176A003400F583E5822FF582E43583F583EEF0C4
:10177A000FBF0CD574632532F582E43400F583E497
:10178A00F0AF3204A807088002C333D8FC42309075
:10179A000076E0FFB4100D74062532F582E43400B9
:1017AA00F583E4F0900074E0601190004FE0B532E8
:1017BA000AEFB41006E4FDFF1221F4E53264017069
:1017CA002A900098E0C39402400B7D147C007FB8F5
:1017DA007E0B121E8D900007E0701090009BE07047
:0B17EA0003FF80027F01900001EFF080
:0117F50022D1
:1025DD007B017A0079757D0E1220A4900083E0B501
:1025ED00070BAF06A3E0B507047526012290006224
:0925FD00E0C394FF5003E004F078
:0126060022B1
:101AA300E524146016047070122918EF7079AF2AB8
:101AB300121F7CE4F525752401806CE5266008E49B
:101AC300F52612171A80490525E525C3940F4057BB
:101AD3007463252AF582E43400F583E0C39403504C
:101AE3000E7463252AF582E43400F583E004F07470
:101AF30063252AF582E43400F583E0C394034010A0
:101B0300AF2A7401A807088002C333D8FCF452300B
:101B1300E4F525752402800F0525E525C3940540CA
:101B230006632A01E4F524900074E0600B14F0E0EE
:101B33007006FD7F031221F4E5276003121FEC22D8
:10081300E4F532745A2532F582E43400F583740A20
:10082300F00532E532B408EBE5221460511470038D
:100833000208CE14700302092C2403600302095238
:10084300900067E0FFC4540F90005AF0EF540FA3D9
:10085300F0A3740CF0900066E0FFC4540F90005DA9
:10086300F0EF540FA3F0A3740CF0900065E0FFC405
:10087300540F900060F0EF540FA3F002098AE530A3
:1008830020E01BE4F532745A2532F582E43400F596
:1008930083740CF00532E532B408EB02098A12289E
:1008A3006EAD07AC06C3EC64809480500D90005A83
:1008B300740CF0C3E49DFDE49CFC7F011221509075
:1008C300005CE02410F090008D807CE53020E11B7B
:1008D300E4F532745A2532F582E43400F583740C5E
:1008E300F00532E532B408EB02098A900095E0FF87
:1008F30030E0047E0180027E0090005AEEF0EF307B
:10090300E1047F0180027F0090005CEFF09000988B
:10091300E090005EF07B017A007996122874AC06B1
:10092300AD077F05122150805EE52D6008E52F603D
:10093300047F0A8002AF2890005AEFF074FF252845
:10094300F582E434FFF583E0FD7B037F058035E525
:100953003030E0047F0180027F0090005AEFF0E521
:100963003030E1047F0180027F0090005BEFF09064
:100973000092E0FD7B027F0312271490009FE0FDAD
:100983007B027F0612271490005AE0FFA3E0FDA329
:10099300E0FBA3E0F536A3E0F537A3E0F538A3E0E9
:1009A300F539A3E0F53A1227787F02122490EF6419
:1009B300016028E4FFE53030E0010FE53030E1036A
:1009C300430702900001E06003430704900098E0AE
:0B09D300C3940240034307081229668A
:0109DE0022F6
:1026A600AE031BEE601FED75F00A84E5F02430FEE4
:1026B600EF2B2408F582E43400F583EEF0ED75F097
:0626C6000A84FD80DB2206
:100EAD00122923EF6003020FEE7B02AD297F0112A1
:100EBD0026A67B02AD2B7F041226A67B02AD2C7FCE
:100ECD00071226A612286E8E328F33C3E532648048
:100EDD00948050047F2D80027F2B900014EFF0C37F
:100EED00E53264809480500BC3E49533F533E4957B
:100EFD0032F532D3E53394E7E532648094834006CE
:100F0D007532037533E7AE32AF337C007D64120169
:100F1D00F9AD077B017F0D1226A6AE32AF337C00F3
:100F2D007D641201F97B027F0E1226A690008CE0E3
:100F3D00FD7B017F121226A690008DE0FD7B037FC5
:100F4D00151226A67B017A0079961228748E328F9F
:100F5D0033C3E532648094805005E4F532F533D324
:100F6D00E53394E7E532648094834006753203756A
:100F7D0033E7AE32AF337C007D641201F9AD077BF0
:100F8D00017F1A1226A6AE32AF337C007D641201AA
:100F9D00F97B027F1B1226A6900098E0FD7B017F56
:100FAD001F1226A6E53030E0047F0180027F00EF9E
:100FBD00243090002AF0E53030E1047F0180027F7B
:100FCD0000EF243090002BF0900062E0FD7B037F5A
:100FDD00261226A67B017A0079087D2B7C0012262D
:010FED0058AB
:010FEE0022E0
:10245900052EE52EC394024013E4F52E122959786E
:10246900657C007D017E007F071201160523E523A7
:10247900C39403400FE4F523E52F70047F01800224
:072489007F008F2F020813F2
:10204900900067E0FF1228B58F29900066E0FF1223
:1020590028B58F2B900065E0FF1228B58F2C9000D2
:1020690002E065297025A3E0B52B20E52CC3940275
:102079005019900085E0702004F0E4900033F07D61
:1020890014FC7FB87E0B121E8D800D900003E06555
:0B2099002B6005E4900085F0020EAD06
:10231400E4FF12239CBF0111E527700D7527017D91
:1023240005FC7FB87E0B121E8D7F0112239CBF011A
:1023340022900001E070047F0180027F0090000180
:10234400EFF09000077401F07D0A7C007FD07E07D7
:04235400121E8D22A6
:100D1D00E4FF1222CEBF01119000337401F07D0566
:100D2D007C007FDC7E05020EA97F031222CEEF64CC
:100D3D00017024E522B4030EE52D70047F018002BD
:100D4D007F008F2D8006752203E4F52D7D057C0037
:100D5D007FB87E0B020EA97F011222CEBF011EE5C8
:100D6D002D600E0528E528D39405401175280180C6
:100D7D000C0522E522D394044003E4F5227F0412EE
:100D8D0022CEBF011DE52D600E1528E528C3940167
:100D9D005010752805800BE5227005752204800220
:100DAD001522E52D7003020EACE4F5337F051222FA
:100DBD00CEBF0105753301800D7F021222CEEF6487
:100DCD00016003020EACC3E5289401F532E53360F2
:100DDD0050E53275F005A424A8F582E4341DF583A1
:100DED00E493FFFD74002532F582E43400F583E0D1
:100DFD002DFDE433FCE53275F005A424A7F582E45E
:100E0D00341DF583E493FBD3ED9B7480F86C9850FF
:100E1D005574002532F582E43400F583E02FF0801F
:100E2D0045E53275F005A424A8F582E4341DF5835B
:100E3D00E493FFE53275F005A424A6F582E4341D94
:100E4D00F583E4932FFE74002532F582E43400F52A
:100E5D0083E0FDC39E400F74002532F582E434001B
:100E6D00F583C3ED9FF0E53275F005A424A9F58255
:100E7D00E4341DF583E493FFC39402500D74062FE3
:100E8D00F582E43400F5837401F0E53360067E0DE0
:0F0E9D007FAC80047E097FC47D037C00121E8D14
:010EAC002223
:100B8B001227F17D07E4FF1229371227B8122758D5
:100B9B0012283E7F981224C278327C007D007BFFA6
:100BAB007A1D79DD7E007F0712011612134C122974
:100BBB005978657C007D017E007F07120116E4FFEA
:100BCB0074882FF582E43400F583E4F074942FF5E8
:100BDB0082E43400F583E4F00FBF0CE4E49000638F
:100BEB00F0A3F0900062F0900085F0900033F0904D
:100BFB000005F0FFEF75F005A424A5F582E4341D84
:100C0B00F583E493FE74002FF582E43400F583EE54
:100C1B00F00FBF05DF121B439000067401F0A3F029
:100C2B0090009674FFF0A3F0E4FFEF901DE493FEA9
:100C3B0074082FF582E43400F583EEF00FBF2BEA36
:100C4B007F807E257D007C00121F05E4900086F0DE
:0C0C5B00900074F0900087F090004FF0C3
:100C6700F531E531901DC193FF74342531F582E4E8
:0D0C77003400F583EFF00531E531B41BE5E5
:100C84007537FF75381D7539C0753A00753B017BA2
:100C9400017A0079507D0A7C001225247536027F82
:100CA400807E257D007C001217F6753700753800AC
:100CB400753900E4F53AF53B7B017A0079757D10CE
:100CC400FC1224F37BFF7A1A79A37F01121E107B96
:100CD400FF7A2479597F02121E107BFF7A2079490A
:100CE4007F03121E107BFF7A2379147F04121E10D7
:100CF4007BFF7A0D791D7F07121E107BFF7A257901
:100D0400DD7F0A121E107BFF7A14794A7F09121EB6
:090D14001012296C12241B80FB53
:09292E008B88898C88898F8889C7
:1012450052011A8686008686008686008686008676
:09125500860086860041010F09A4
:03002B0002296047
:0629600053BCEFD20F3260
:0209DF001542BF
:1009E100200F03020B88C20F90010EE0B4090040F2
:1009F10003020B6A9009FCF8282873020A43020AD1
:100A010017020A29020A55020A17020A29020A6C68
:100A1100020A17020A29AFBDEFFEADBE7C00E42D2C
:100A2100FFEC3E900110803CAFBDEFFEADBE7C00FF
:100A3100E42DFFEC3E900112F0A3EFF0751A0102D4
:100A41000B70AFBDEFFEADBE7C00E42DFFEC3E9020
:100A510001148010AFBDEFFEADBE7C00E42DFFECB4
:100A61003E900116F0A3EFF0020B70AFBDEFFEADAB
:100A7100BE7C00E42DFFEC3E900118F0A3EFF09056
:100A81000118E0FEA3E07807CEC313CE13D8F9A86E
:100A910042F6C394065013A842E675F003A4241A43
:100AA100F582E43401F583E014F090010FE014F0D5
:100AB1006003020B707409F0A842E4F6A842E6FF55
:100AC100C394064003020B70EF75F003A4241AF5DA
:100AD10082E43401F583E0C39480502AE6FF75F087
:100AE10003A4241BF582E43401F583E0D394804010
:100AF10040EF75F003A4241CF582E43401F58374FE
:100B010001F0F51B802BA842E6FF75F003A4241B1E
:100B1100F582E43401F583E0C394805014EF75F05D
:100B210003A4241CF582E43401F5837402F0751BDF
:100B310001A842E6FF75F003A4241AF582E434010A
:100B4100F583E0FEEF75F003A4241BF582E4340184
:100B5100F583EEF0E675F003A4241AF582E434017E
:100B6100F5837486F006020ABD90010E74FFF090C1
:100B7100010EE0D39407400374FFF090010EE004EE
:070B8100F090292E93F5BC52
:030B880005422201
:0228E20015429D
:0928E400A842A61BE4F51BE6FF67
:0328ED000542227F
:0228F00015428F
:0928F200A842A61AE4F51AE6FF5B
:0328FB0005422271
:1024C2008F9D75BC88439720D2AD9000E574FFF0D4
:1024D200A37409F0A374DFF0A374FFF0A37428F0CF
:1024E200A374E2F0A374FFF0A37428F0A374F0F0D5
:0124F20022C7
:070003007B017A0179102254
:1022CE00C3EF64809480403BD3EF64809485503399
:1022DE00EFFD3395E0FC90011C75F003ED1203BB8E
:1022EE00EC75F003A42583F583E0FE90011C75F0D8
:1022FE0003ED1203BBEC75F003A42583F583E4F024
:05230E00AF06227F0371
:0123130022A7
:0426300015421542F8
:10263400122940A842A60608A607A842E6FE08E614
:0F264400FF4E600BEF24FFFFEE34FFFE1229491B
:052653000542054222D2
:1027580053B1EF43B21012003EE4F5D975DA49D20D
:10276800DE9000DF74FFF0A37426F0A37430F0222B
:081E8D008E358F368C378D383D
:101E9500122940EF4E7066AF38AE37122949C3E5B7
:101EA50036940AE5359400404BE47B18FAF9F8902E
:101EB5001D8712039F1202E6C006C007AE35AF3676
:101EC500AB07AA06E4F9F8D007D0061202E6AB077D
:101ED500AA06AFF9EFFEADE97C00E42DFFEC3ECF9D
:101EE5002BCF3AAD07FCAF03AE02122894D2D843EC
:0F1EF500DA01800612003E53DAFE7F02227F03DD
:011F040022BA
:0C290C00122940EF4E7002FF227F0122D2
:10163100E4F580900177E0FFB40800505F90164513
:10164100F828287302165D02166302166902166FE6
:1016510002167502167F021689021693C2A3C2A250
:101661008016C2A3C2A2801AC2A3C2A2801EC2A3B4
:10167100C2A28022C2A3D2A2C2A1C2A08020C2A3C0
:10168100D2A2C2A1D2A08016C2A3D2A2D2A1C2A0CC
:10169100800CC2A3D2A2D2A1D2A08002D2A3C3EF56
:1016A100648094885029900177E0FF3395E0FE74BF
:1016B1006E2FF58274013EF583E0FF3395E0FE74F1
:1016C1008B2FF582741D3EF583E493F580801E9087
:1016D1000177E0FFB408133395E0FE746E2FF582B5
:1016E10074013EF583E0F5808003E4F58090016D9F
:1016F100E0FF900177E004FEF0D3EF6480F8EE6440
:1017010080984014E0D36480948850047408F022D7
:0917110090016CE0900177F022D8
:1027F100E4F5937594FF5395F043960F9000CA74D6
:0B280100FFF0A37416F0A37431F02266
:0929370090016CEFF0A3EDF02219
:1027780090016EEFF0A3EDF0A3EBF0A3E536F0A324
:10278800E537F0A3E538F0A3E539F0A3E53AF02200
:06296600900176EFF02263
:10125E0001400049017994940094940094940041C3
:03126E0001781EE6
:02111F00154277
:1011210020B206900179E014F020B30690017CE032
:1011310014F020970690017FE014F0900178E014FC
:10114100F0600302123F741EF0A842E4F6A842E6E2
:10115100FFC364809483400302123FEF3395E0FEA6
:1011610090017975F003EF1203BBEE75F003A4252E
:1011710083F583E0C39480503990017A75F003EFD1
:101181001203BBEE75F003A42583F583E0D39480AD
:10119100405AE6FF3395E0FE90017B75F003EF12B4
:1011A10003BBEE75F003A42583F5837401F0F540CC
:1011B100803AA842E6FF3395E0FE90017A75F0038C
:1011C100EF1203BBEE75F003A42583F583E0C3940E
:1011D10080501990017B75F003EF1203BBEE75F09F
:1011E10003A42583F5837402F0754001A842E6FF4C
:1011F100FD3395E0FC90017975F003ED1203BBEC32
:1012010075F003A42583F583E0FE90017A75F00360
:10121100ED1203BBEC75F003A42583F583EEF0EF2B
:101221003395E0FE90017975F003EF1203BBEE7583
:0E123100F003A42583F5837494F00602114E99
:03123F0005422243
:0228FE00154281
:09290000A842A640E4F540E6FF00
:0329090005422262
:1027B8009000D074FFF0A37428F0A374FEF090008A
:0D27C800CD74FFF0A37411F0A3741FF02274
:10239C00EF600764016003BF0233EFFD3395E0FC8F
:1023AC0090017B75F003ED1203BBEC75F003A425D3
:1023BC0083F583E0FE90017B75F003ED1203BBEC1B
:0F23CC0075F003A42583F583E4F0AF06227F03A9
:0123DB0022DF
:1012710055012D00000000000000000000000000EA
:0C128100000000000000000041012C00F3
:0203CD001542D7
:1003CF00A842E4F6A842E6FFC36480948340030288
:1003DF00063EEF3395E0FE90012D75F007EF120307
:1003EF00BBEE75F007A42583F583E0FCA3E04C700A
:1003FF000302063890012F75F007EF1203BBEE755D
:10040F00F007A42583F583E0FEA3E04E70030206F8
:10041F0038E6FFFD3395E0FC90013175F007ED12E2
:10042F0003BBEC75F007A42583F58374FFF5F01279
:10043F00022F45F0600302063890012F75F007ED8B
:10044F001203BBEC75F007A42583F583E0FAA3E054
:10045F00FB90013175F007ED1203BBEC75F007A4AB
:10046F002583F583EAF0A3EBF0EF3395E0FE9001DF
:10047F002D75F007EF1203BBEE75F007A42583F57A
:10048F0083E0FCA3E0D39400EC648094804056A8F2
:10049F0042E6FD3395E0FC90012D75F007ED120358
:1004AF00BBEC75F007A42583F58374FFF5F01202FA
:1004BF002F90013375F007ED1203BBEC75F007A415
:1004CF002583F583E004F0D3648094834072900118
:1004DF003375F007EF1203BBEE75F007A42583F514
:1004EF0083E4F0805BA842E6FFFD3395E0FC9001CA
:1004FF002D75F007ED1203BBEC75F007A42583F5FE
:10050F0083E475F00112022F90013375F007ED129D
:10051F0003BBEC75F007A42583F583E014F0C364E7
:10052F00809480501BEF3395E0FE90013375F007F8
:10053F00EF1203BBEE75F007A42583F5837403F068
:10054F00A842E6FFFD3395E0FC90013375F007ED0F
:10055F001203BBEC75F007A42583F583E014603C10
:10056F00146066147003020605240360030206304C
:10057F00EF14601014601924026003020630D2C118
:10058F00C2C2802990012CE054F04401F0020630E1
:10059F0090012CE0540F4410F0020630A842E614EC
:1005AF00601114601924027078C2C1D2C2C2C3C2D2
:1005BF00C4806E90012CE054F04402F080639001EF
:1005CF002CE0540F4420F08058A842E61460111418
:1005DF0060192402704BC2C1C2C2D2C3C2C48041CF
:1005EF0090012CE054F04404F0803690012CE0543C
:1005FF000F4440F0802BA842E614601114601924B8
:10060F0002701EC2C1C2C2C2C3D2C4801490012CD8
:10061F00E054F04408F0800990012CE0540F44801E
:0F062F00F090012CE0FF122966A842060203D3C7
:03063E0005422250
:10283E0053B3E143B41E53C0E19000F474FFF0A310
:08284E007403F0A374CDF02225
:1018AB008F41EF3395E0FE90012D75F007EF12039A
:1018BB00BBEE75F007A42583F583E0FEA3E04E6035
:1018CB0003021953E541600A64016006E5416402B5
:1018DB007076ED60737C007E037FE81201A4AD414E
:1018EB00ED3395E0FC90012F75F007ED1203BBEC87
:1018FB0075F007A42583F583EEF0A3EFF090012F8D
:10190B0075F007ED1203BBEC75F007A42583F58387
:10191B00E0FEA3E0FF90013175F007ED1203BBEC85
:10192B0075F007A42583F583EEF0A3EFF090012D5E
:10193B0075F007ED1203BBEC75F007A42583F58357
:0B194B00EAF0A3EBF07F02227F0322F2
:10223F00EF600764016003BF023AEFFD3395E0FCE6
:10224F0090012D75F007ED1203BBEC75F007A42577
:10225F0083F583E0FAA3E0FB90012D75F007ED12F3
:10226F0003BBEC75F007A42583F583E4F0A3F0AE70
:07227F0002AF0322E4FEFFA1
:012286002235
:10249000EF600764016003BF0225EF3395E0FE9013
:1024A000012D75F007EF1203BBEE75F007A425832D
:1024B000F583E0FEA3E04E60037F01227F00227FD0
:0224C0000322F5
:10128D004100A00A4100C90A41010D0A040E0000E7
:10129D0000000114004601070000FFFF8FFFC10D84
:1012AD00C105C108C101C10E602400A5FF000AFFE0
:1012BD00000AFF000AFF000AFF000AFF000AFF00F4
:1012CD000AFF000AFF000AFF000AFF000AFF000ADA
:1012DD00603600CAFF000AFF000AFF0026FF000A61
:1012ED00FF0026FF000AFF0026FF000AFF000AFF8D
:1012FD00000AFF0026FF0026FF0026FF0026FF0044
:0A130D000AFF000AFF000AFF000AB1
:01000A0022D3
:030026007F002236
:10228700438E805389F07BE07A2879017800901D8E
:102297008712039F122358EFF404F58A7BE07A280C
:1022A70079017800901D8712039F122358C3E49F7A
:1022B700FFE49EFE74019DFDE49CFC780812038BED
:0722C7008F8CD28CD2A922FA
:03000B000221A22D
:0421A200C0E0C0D009
:1021A600D5080A75084C300D020514D20DA203722B
:1021B600045036150AE50A7030850C0AD207300A33
:1021C60017E50D6007150D438F01801D538FFEC265
:1021D600B5D51615C20A8011050BE50BD39406403A
:0921E60008C203E5136002D206F1
:0521EF00D0D0D0E03269
:1020FD00300E47C20E901D8712039F781012038B6E
:10210D008E1C8F1D9000A3E0FEA3E0FFE4FCFD7B81
:10211D0019FAF9F812025BC006C007AE1CAF1DAB71
:10212D0007AA06E4F9F8D007D0061223587803124F
:10213D00038B900105EEF0A3EFF0900105E0FEA3F7
:02214D00E0FFB1
:01214F00226D
:09294000900107E0FEA3E0FF2274
:09294900900107EEF0A3EFF0226B
:1028940090010BEEF0A3EFF0900109ECF0A3EDF042
:0128A4002211
:03003E00C2B42227
:03003B0002195651
:10195600C0E0C083C082C0D075D000C004C005C03E
:0319660006C007B1
:1019690030DF04C2DF807D30DA04C2DA807630D914
:101979003DC2D9AFFBEFFEADEB7C00E42DFFEC3EA1
:1019890020000E9000A1F0A3EFF075DB11D20080CA
:1019990053FE9000A1E0FCA3E0FDC3EF9DFFEE9C88
:1019A900A3F0A3EFF075DB00C200D20E803630D869
:1019B90033C2D8900107E07002A3E06022B2B4906C
:1019C9000109E0FEA3E0F5EAEEF5FAA3E0FEA3E0E3
:1019D900FF90010AE02FF0900109E03EF08005C276
:0419E900B453DAFE1B
:1019ED00D007D006D005D004D0D0D082D083D0E09F
:0119FD0032B7
:06296C00122287D2AF2207
:101CFC003004047F0180027F00200A047E018002F0
:101D0C007E00EE5F6074E515C395095068300236AD
:101D1C00750D01E515131313541FAB17AA18A91948
:101D2C00F582758300120155FFE515540704FEEF8B
:101D3C00A806088002C333D8FC30D705751603807B
:101D4C002F751601802AAB17AA18A91975F002E590
:101D5C0015A4F58285F083120155F50DE51575F086
:101D6C0002A429F9EA35F0FA900001120155F51692
:0A1D7C000515D20A22C204438F109D
:011D8600223A
:101544009000A0E014F0701F740AF0D2059000C956
:10155400E014F07012740AF0D20890010DE014F057
:101564007005740AF0D2019000CAA3E0FAA3E0F96E
:101574001203C79000CDA3E0FAA3E0F91203C790C9
:1015840000D9A3E0FAA3E0F91203C79000E5A3E0B1
:10159400FAA3E0F91203C79000F4A3E0FAA3E0F978
:1015A4001203C79000FDA3E0FAA3E0F91203C79069
:1015B40000EBA3E0FAA3E0F91203C7EF600C90007C
:1015C400BDA3E0FAA3E0F91203C79000EEA3E0FA8A
:1015D400A3E0F91203C7EF600E9000C0A3E0FAA3E2
:1015E400E0F91203C7D20BE512D394004016D512CA
:1015F4003030090C9000C3A3E0FAA3E0F91203C74A
:10160400D20C801D9000F1A3E0FAA3E0F91203C705
:10161400EF600E9000C3A3E0FAA3E0F91203C7D26F
:0D1624000C9000A5A3E0FAA3E0F90203C7B3
:101BDD009000DFA3E0FAA3E0F91203C79000E2A39F
:101BED00E0FAA3E0F91203C79000D3A3E0FAA3E053
:101BFD00F91203C79000A8A3E0FAA3E0F91203C7F6
:101C0D009000D0A3E0FAA3E0F91203C7EF600C90A7
:101C1D0000B1A3E0FAA3E0F91203C79000D6A3E048
:101C2D00FAA3E0F91203C7EF600C9000B7A3E0FA36
:101C3D00A3E0F91203C79000E8A3E0FAA3E0F912BC
:101C4D0003C7EF600C9000BAA3E0FAA3E0F912030A
:101C5D00C730060EC2069000C6A3E0FAA3E0F91243
:031C6D0003C72288
:1023DC009000ABA3E0FAA3E0F91203C79000DCA3D2
:1023EC00E0FAA3E0F91203C7EF600C9000B4A3E08D
:1023FC00FAA3E0F91203C79000F7A3E0FAA3E0F9FF
:0F240C001203C79000FAA3E0FAA3E0F90203C796
:1025B200AF11AE10AD0FAC0E9001001203AF90013F
:1025C20004E514F0E4F511F510F50FF50EF514908D
:0B25D20000AEA3E0FAA3E0F90203C78B
:10241B00300705C207121CFC300D05C20D12154406
:10242B00300505C205121BDD300805C2081223DC7E
:10243B00300105C2011225B2E5112401F511E43575
:0E244B0010F510E4350FF50FE4350EF50E22F6
:101E10008B328A338934EFB40C005070901E23F853
:101E2000282873021E47021E4C021E51021E560233
:101E30001E5B021E60021E65021E6A021E6F021EEB
:101E400074021E79021E7E9000A580359000A88045
:101E5000309000AB802B9000AE80269000B18021A6
:101E60009000B7801C9000B480179000BA80129048
:101E700000BD800D9000C080089000C380039000DA
:0D1E8000C6E532F0A3E533F0A3E534F0220F
:072952007B017A01790022EC
:0413170041018A0105
:10280C00C295E4FEEF1392CC000000D29500EFC30A
:08281C0013FFC2950EBE08EC8B
:012824002291
:10285600E4FEEFC313FF30CC03430780D29500009C
:0728660000C2950EBE08EB55
:01286D002248
:10258400F07F85122597A3EFF07F87122597A3EF9D
:03259400F07F894C
:10259700C296000000C295000000D2960012280CD7
:0A25A700122856D295000000C296DB
:0125B1002207
:03279800A3E0FDBE
:10279B00C296000000C295000000D2960012280CD1
:0D27AB00AF0512280CD295000000C2962246
:072959007B017A0179832262
:1028250078837C017D017B007A0079397E007F0702
:09283500120116E490018AF02260
:10288200EFD3941F5009EF25E044C1FF0225977F43
:02289200012221
:10260700AC07AB05ECD3941F501CE4FD7F8E12275B
:102617009BEC25E044C0FFAD0312279B7D807F8E96
:0926270012279B7F00227F012293
:0219FE00154290
:101A000090018AE060447F81122597A842EFF6900A
:101A10000183E06F7003021AA0A842E6F07F8312F0
:101A20002597A842EFF6A3E06F6075A842E612255D
:101A300084A3EFF07F8D122597900189EFF07F8BC3
:101A4000122597900188EFF08056900182E0FF0404
:101A5000F0EFC3940A4049E4F090018A04F0E4FDF9
:101A60007F8E12279B900183E0FD7F8012279B7F52
:101A7000821227987F84122798A3E0FD7F86122781
:101A80009BA3E0FD7F8812279BA3E0FD7F8A12279E
:101A90009BA3E0FD7F8C12279B7D807F8E12279B6E
:031AA000054222DA
:10134C007F81122597900183EFF07F83122597A35D
:10135C00EF122584A3EFF07F8B122597A3EFF07F7C
:10136C008D122597A3EFF0E4FD7F8E12279B7F1E35
:10137C00122882EF64A560047F0180027F00900137
:10138C0083E05480FEA3E0D3945940047D01800295
:10139C007D00ED4EFE900185E0D394A440047D01C8
:1013AC0080027D00ED4EFE900186E0D39431400426
:1013BC007D0180027D00ED4EFE900187E0D39412FA
:1013CC0040047D0180027D00ED4EFE900188E0D34B
:1013DC00940740047D0180027D00ED4EFE90018952
:1013EC00E0D3949940047D0180027D00ED4E4F6066
:1013FC003078397C007D007B007A0079327E007F6A
:10140C00071201161228257DA57F1E122607788348
:10141C007C017D017B007A0079327E007F0712010E
:10142C00167DA97F9012279B7D807F8E12279B9023
:0E143C0000FA74FFF0A37419F0A374FEF022FE
:1028A500D2C0000000D2CD000000C2C0000000224E
:0D002E00C2C0000000D2CD000000D2C022F0
:0B26CC001226F01226D7AF051226F0F0
:1026D700E4FFD2CD30C009EFC394FF50030F80F45D
:0826E700000000C2CD0000005C
:0126EF0022C8
:1026F000E4FEEF25E0FFC2CD00000092C000000024
:10270000D2CD0000000EBE08E9C2CD000000D2C04C
:03271000000000C6
:0127130022A3
:10273600C2CD000000D2C000E4FED2CD0000EF25DD
:10274600E0FDA2C0E4334DFF0000C2CD000EBE087E
:01275600E999
:01275700225F
:10000E00AC071228A57FA01226F01226D7AF041235
:05001E0026CC02002EBB
:0227D500AD074E
:1027D7001228A57FA01226CC1228A57FA11226F0C9
:0927E7001226D712273612002E2B
:0127F00022C6
:10131B00550142000000000000000000000000002A
:08132B000000010000000000B9
:0300430002064171
:10064100C0E0C0F0C083C082C0D075D000C000C07F
:1006510001C002C003C004C005C006C007E59A304E
:10066100E142539AFD900147E0FEA3E0FFC39001F0
:1006710046E09F900145E09E501F900142E0FBA3A0
:10068100E0FAA3E0F9A3E475F00112024585F082D6
:10069100F583120155F59B800B900149E4F0E51FAC
:1006A1006002C2B7E59A20E0030207F8539AFE30D0
:1006B1000C0BC20C90014FE4F0A3F0D209E51F64CA
:1006C10002600302075290014DE0FEA3E0FFA3E0A8
:1006D100FCA3E0FDC39FEC9E507190014AE0FBA397
:1006E100E0FAA3E0F98D828C83E59B1201829001EF
:1006F10055E0FEA3E0FFC3ED9FEC9E504090014DFD
:10070100E0FCA3E0FDEF9DEE9C5032900152E0FB36
:10071100A3E0FAA3E0F990014FE0FEA3E0FFF58228
:100721008E83120155FD90014AE0FBA3E0FAA3E09C
:10073100F98F828E831201556D6002C209900150BA
:10074100E004F0700690014FE004F0851E120207EC
:10075100F890014DE0FEA3E0FFA3E0FCA3E0FDC3A0
:100761009FEC9E507790014AE0FBA3E0FAA3E0F9E9
:100771008D828C83E59B120182900155E0FEA3E0FE
:10078100FFC3ED9FEC9E504690014DE0FCA3E0FDC0
:10079100EF9DEE9C5038900152E0FBA3E0FAA3E0FC
:1007A100F990014FE0FEA3E0FFF5828E831201551F
:1007B100FD90014AE0FBA3E0FAA3E0F98F828E836A
:1007C1001201556D600890014F74FFF0A3F0900184
:1007D10050E004F0700690014FE004F090014DE00C
:1007E100FEA3E0FFC3900150E09F90014FE09E40C7
:1007F100069001517401F0D007D006D005D004D085
:1008010003D002D001D000D0D0D082D083D0F0D09C
:02081100E032D3
:0228C4001542BB
:0A28C600900151E0A842F6FFE4F093
:0328D0000542229C
:0100290022B4
:1017F6008F358E348D338C3285361FE51F7002800F
:101806000343BA01E51F70179000FD74FFF0A3743F
:1018160000F0A37429F0E4F5DBD290D2918020C2C7
:10182600B7AB35AA34A933A832E47F407E9CFDFCD1
:101836001202E68F1EE51E7003751E01851E1275C7
:101846009A10E47B04FAF9F8901D8712039F12029E
:10185600E6AB35AA34A933A8321202E6EFF404F552
:10186600D7E47B04FAF9F8901D8712039F1202E66B
:10187600AB35AA34A933A8321202E6C3E49FFFE4CB
:101886009EFE74019DFDE49CFC78081203788FD6B9
:10189600438E1443AF019000F174FFF0A37428F057
:0518A600A374C4F02250
:1024F30090014AEBF0A3EAF0A3E9F0A3ECF0A3ED1B
:10250300F0900155E53AF0A3E53BF0900152E53731
:10251300F0A3E538F0A3E539F0D20CE4900151F0D3
:012523002295
:10255500900149E07026900142EBF0A3EAF0A3E96F
:10256500F0E4A3F0A3F0A3ECF0A3EDF0A37401F065
:0F257500E51F6002D2B7439A027F02227F032242
:0B291800900149E07002FF227F0122C5
:1013330055015700000000000000000000000000FD
:081343000000010000000000A1
:03002300020FEFDA
:100FEF00C0E0C0F0C083C082C0D075D000C000C0C8
:100FFF0001C002C003C004C005C006C00730993B42
:10100F00C29990015CE0FEA3E0FFC390015BE09FFB
:10101F0090015AE09E501F900157E0FBA3E0FAA306
:10102F00E0F9A3E475F00112024585F082F5831211
:10103F000155F599800590015EE4F02098030211A7
:10104F0004C298300B09C20B900164E4F0A3F09036
:10105F000162E0FEA3E0FFA3E0FCA3E0FDC39FEC71
:10106F009E507790015FE0FBA3E0FAA3E0F98D8239
:10107F008C83E59912018290016AE0FEA3E0FFC321
:10108F00ED9FEC9E5046900162E0FCA3E0FDEF9DCA
:10109F00EE9C5038900167E0FBA3E0FAA3E0F990D3
:1010AF000164E0FEA3E0FFF5828E83120155FD90EF
:1010BF00015FE0FBA3E0FAA3E0F98F828E831201B8
:1010CF00556D600890016474FFF0A3F0900165E026
:1010DF0004F07006900164E004F0900162E0FEA35A
:1010EF00E0FFC3900165E09F900164E09E40069091
:1010FF0001667401F0D007D006D005D004D003D01C
:10110F0002D001D000D0D0D082D083D0F0D0E03246
:0228D3001542AC
:0A28D500900166E0A842F6FFE4F06F
:0328DF000542228D
:101F05008F358E348D338C32759850438E40538E79
:101F1500FE53890FE47B04FAF9F8901D8712039F9D
:101F25001202E6AB35AA34A933A8321202E6EFF461
:101F350004F58BE47B04FAF9F8901D8712039F12D0
:101F450002E6AB35AA34A933A8321202E6C3E49FF0
:101F5500FFE49EFE74019DFDE49CFC780812037865
:101F65008F8DC2ABD28ED2AC9000EE74FFF0A3740D
:071F750028F0A374D3F02251
:1025240090015FEBF0A3EAF0A3E9F0A3ECF0A3EDD4
:10253400F090016AE53AF0A3E53BF0900167E537D6
:10254400F0A3E538F0A3E539F0D20BE4900166F08E
:012554002264
:1026580090015EE0701F900157EBF0A3EAF0A3E948
:10266800F0E4A3F0A3F0A3ECF0A3EDF0A37401F061
:08267800D2997F02227F0322A8
:0B29230090015EE07002FF227F0122A5
:03000000021C706F
:0C1C7000787FE4F6D8FD758142021CB7B5
:10004600E709F608DFFA8046E709F208DFFA803E9C
:1000560088828C83E709F0A3DFFA8032E309F60889
:10006600DFFA8078E309F208DFFA807088828C83F1
:10007600E309F0A3DFFA806489828A83E0A3F608A5
:10008600DFFA805889828A83E0A3F208DFFA804C7F
:1000960080D280FA80C680D4806980F28033801056
:1000A60080A680EA809A80A880DA80E280CA8033BF
:1000B60089828A83ECFAE493A3C8C582C8CCC58337
:1000C600CCF0A3C8C582C8CCC583CCDFE9DEE78007
:1000D6000D89828A83E493A3F608DFF9ECFAA9F086
:1000E600EDFB2289828A83ECFAE0A3C8C582C8CCDC
:1000F600C583CCF0A3C8C582C8CCC583CCDFEADEF5
:10010600E880DB89828A83E493A3F208DFF980CC56
:1001160088F0EF60010E4E60C388F0ED2402B4044F
:100126000050B9F582EB2402B4040050AF232345F6
:0601360082239000967385
:10013C00BB010689828A83E0225002E722BBFE02C1
:09014C00E32289828A83E49322F4
:10015500BB010CE58229F582E5833AF583E022505F
:1001650006E92582F8E622BBFE06E92582F8E222A9
:0D017500E58229F582E5833AF583E49322C3
:10018200F8BB010DE58229F582E5833AF583E8F0B3
:10019200225006E92582C8F622BBFE05E92582C85F
:0201A200F22247
:1001A400BC000BBE0029EF8DF084FFADF022E4CC3F
:1001B400F875F008EF2FFFEE33FEEC33FCEE9DEC08
:1001C400984005FCEE9DFE0FD5F0E9E4CEFD22ED4E
:1001D400F8F5F0EE8420D21CFEADF075F008EF2F98
:1001E400FFED33FD4007985006D5F0F222C398FD89
:0501F4000FD5F0EA2226
:1001F900C2D5EC30E709B2D5E4C39DFDE49CFCEE21
:1002090030E715B2D5E4C39FFFE49EFE1201A4C3F3
:10021900E49DFDE49CFC80031201A430D507C3E4EE
:060229009FFFE49EFE228F
:10022F00C5F0F8A3E028F0C5F0F8E582158270025A
:06023F001583E038F022F7
:10024500A3F8E0C5F025F0F0E5821582700215836C
:06025500E0C838F0E822C9
:10025B00E88FF0A4CC8BF0A42CFCE98EF0A42CFC42
:10026B008AF0EDA42CFCEA8EF0A4CDA8F08BF0A4C0
:10027B002DCC3825F0FDE98FF0A42CCD35F0FCEB1F
:10028B008EF0A4FEA9F0EB8FF0A4CFC5F02ECD39E4
:0F029B00FEE43CFCEAA42DCE35F0FDE43CFC2251
:1002AA0075F008758200EF2FFFEE33FECD33CDCC0B
:1002BA0033CCC58233C5829BED9AEC99E58298408E
:1002CA000CF582EE9BFEED9AFDEC99FC0FD5F0D66B
:1002DA00E4CEFBE4CDFAE4CCF9A88222B800C1B995
:1002EA000059BA002DEC8BF084CFCECDFCE5F0CBD3
:1002FA00F97818EF2FFFEE33FEED33FDEC33FCEB0C
:10030A0033FB10D703994004EB99FB0FD8E5E4F9C6
:10031A00FA227818EF2FFFEE33FEED33FDEC33FCB3
:10032A00C933C910D7059BE99A4007EC9BFCE99AA7
:10033A00F90FD8E0E4C9FAE4CCFB2275F010EF2FEC
:10034A00FFEE33FEED33FDCC33CCC833C810D707EC
:10035A009BEC9AE899400AED9BFDEC9AFCE899F827
:0E036A000FD5F0DAE4CDFBE4CCFAE4C8F922BA
:10235800C2D5E830E70FB2D5E4C39BFBE49AFAE4B0
:1023680099F9E498F8EC30E717B2D512238E1202E7
:10237800E6E4C39BFBE49AFAE499F9E498F880034D
:102388001202E630D50DE4C39FFFE49EFEE49DFDF6
:04239800E49CFC22A3
:10037800E8600FECC313FCED13FDEE13FEEF13FF63
:03038800D8F12287
:10038B00E86010ECA2E713FCED13FDEE13FEEF1388
:04039B00FFD8F02275
:10039F00E493FC740193FD740293FE740393FF22A4
:0C03AF00ECF0A3EDF0A3EEF0A3EFF022C1
:0C03BB00A42582F582E5F03583F583224D
:0603C7008A838982E473C1
:101C7C00020B8BE493A3F8E493A34003F68001F2E8
:101C8C0008DFF48029E493A3F85407240CC8C33369
:101C9C00C4540F4420C8834004F456800146F6DF38
:101CAC00E4800B0102040810204080901242E47E74
:101CBC00019360BCA3FF543F30E509541FFEE4932D
:101CCC00A360010ECF54C025E060A840B8E493A3F4
:101CDC00FAE493A3F8E493A3C8C582C8CAC583CA1F
:101CEC00F0A3C8C582C8CAC583CADFE9DEE780BED7
:01134B0000A1
:00000001FF
