:10164F0000A8C0003F065B4F666D7D077F6F0008E7
:10165F0040014148BF86DBCFE6EDFD87FFEF1C0A57
:10166F002801000000010101070017010200003BE3
:10167F0001023C0AC80A010203AA41434B20733DF1
:10168F0030303020743D303020723D303020643D9A
:10169F003030300D0A0043464720543D3030204152
:1016AF003D3020483D3030204D3D3030204E3D30D4
:1016BF0030300D0A00003021010902265B30303A2C
:1016CF0030303A30305D20542B303030204C3020C9
:1016DF00463030302044303030204130204F3030D1
:1016EF0020453030300D0A005354412042463D30E2
:1016FF0030302042503D3030302043463D30303086
:10170F002043533D3020563D30303020443D303063
:10171F00302043503D3030302041503D303030206C
:10172F004C3D30303030302052423D302052433D1E
:04173F00300D0A005F
:0314470001380168
:062BFF007B017A0079F968
:0D2C0500900001120155FD12013CFEEDFF93
:012C1200229F
:082415008B2B8A2C892D8D2EE2
:10241D0074FFF52FF530E4FDEDC3952E503EAB2B3B
:10242D00AA2CA92D8D827583001201556230E4FC12
:10243D00E53030E015E52FC313FEE53013FFEE64F4
:10244D00A0F52FEF6401F530800BE52FC313F52FA9
:10245D00E53013F5300CBC08D70D80BCAE2FAF3076
:01246D00224C
:0F2C4600EFC4540F75F00AA4FEEF540F2EFF22B7
:102AA500AE031BEE601BED75F00A84EF2B24C7F512
:102AB50082E43400F583E5F0F0ED75F00A84FD80DD
:022AC500DF220E
:1024C1008C248D25AA07C3E524648094805005E4FB
:1024D100F524F525D3E52594E7E52464809483402C
:1024E100067524037525E7AE24AF257C007D6412B3
:1024F10001F9AD07AF027B01122AA5EA04FFC0076B
:10250100AE24AF257C007D641201F9D0077B020265
:022511002AA5F9
:101E0500E4FF122B66EF64A56003021E9EE4F52431
:101E1500F523E52304FF122B6674252523F8A60771
:101E250074252523F8E62524F5240523E523C39405
:101E35000540DF7F06122B66EF6524705CE4F52311
:101E4500E52375F005A4246EF582E43416F583E4E4
:101E550093FF74252523F8E6FEC39F403CE52375D3
:101E6500F005A4246FF582E43416F583E493FFEEC0
:101E7500D39F50250523E523B405C5E4F523742533
:101E85002523F8E6FF74002523F582E43400F58365
:091E9500EFF00523E523B405E597
:011E9E002221
:1023B800853723E523B401067DA5E4FF8035E523B1
:1023C800D394065013E52314FF74FE2523F582E405
:1023D80034FFF583E0FD801BE4FDF523740025231D
:1023E800F582E43400F583E02DFD0523E523B405EB
:1023F800EB7F0612000E0537E537D39407400DE44E
:0C240800F5377D0FFC7FA07E0F1221F441
:0124140022A5
:1022E300EF901686939000D9F0E49000DBF0A3F012
:1022F300A3F0A3F074082FF582E43400F583E060C3
:10230300259000DA7410F0EF700A900000E090005E
:10231300DBF08018900001E09000DBF0900004E017
:102323009000DCF080069000DA7403F07B017A0001
:1023330079D97D06122415AC06EF9000DFF0AF04C7
:10234300A3EFF07B017A0079D97D087C000228BCD9
:102A1100AE031BEE601FED75F00A84E5F02430FE75
:102A2100EF2B2482F582E43400F583EEF0ED75F0AE
:062A31000A84FD80DB2297
:10274100AC05AA079000F5E0FD7B037F06122A1174
:102751009000F6E0FD7B027F0C122A11AD027B0294
:102761007F11122A11AD047B037F16122A119000EA
:0E277100F27401F0E49000F5F09000E1F02227
:101CBA00122CB4EF6003021D5F900000E0FD75F086
:101CCA000A8424309000A3F0ED75F00A84E5F0242C
:101CDA0030A3F0900001E060047F0180027F00EFF2
:101CEA0024309000A8F0900002E0FD75F00A8424E8
:101CFA00309000ACF0ED75F00A84E5F02430A3F0E2
:101D0A00900003E0FD75F00A8424309000B1F0EDF4
:101D1A0075F00A84E5F02430A3F0900004E0FD7524
:101D2A00F0648424309000B6F0ED75F00A8475F002
:101D3A000A84E5F02430A3F0900004E075F00A84E8
:101D4A00E5F024309000B8F07B017A00799D7D1E81
:061D5A007C001229E922C1
:100D77007B017A0079BC7D081224159000C4E06FCE
:100D87006003020F21AF069000C5E06F6003020FFA
:100D9700219000BDE0FF7003020F219000F5EFF0F6
:100DA7009000BEE09000F6F09000BFE06411600391
:030DB700020E6BBE
:100DBA00A3E0FDD394174003020EBE9000C1E0FDEC
:100DCA00D3943B4003020EBE9000C2E0FDD3943B95
:100DDA004003020EBE122CEA78247C007D007E00BD
:100DEA007F071201169000C0E0FF75F00A84C45410
:100DFA00F0FEEF75F00A84E5F04EF526A3E0FF75E4
:100E0A00F00A84C454F0FEEF75F00A84E5F04EF55A
:100E1A0025A3E0FF75F00A84C454F0FEEF75F00ACA
:100E2A0084E5F04EF524782B7C007D007B007A0067
:100E3A0079247E007F07120116122BB678D27C0025
:100E4A007D017B007A0079247E007F07120116E477
:100E5A009000F4F07D08FC7FB87E0B1221F4020E9C
:010E6A00F196
:100E6B009000BFE0FD641060057F04020F1390003B
:100E7B00C0E0F523A3E0FDE523C394054007AD23B4
:100E8B007F01020F13E52375F005A4246EF582E4B0
:100E9B003416F583E493FFEDC39F4017E52375F0FC
:100EAB0005A4246FF582E43416F583E493FFEDD3A8
:100EBB009F40047F01805174002523F582E43400A8
:100ECB00F583EDF07D057C007FB87E0B1221F4E5F8
:100EDB002375F005A42471F582E43416F583E493AD
:100EEB00F9C394024005E4FDFF801D740829F582C7
:100EFB00E43400F5837401F0A801088002C333D8F1
:100F0B00FC55407006FD7F020227419000BBE9F0C3
:060F1B009000E17496F065
:010F210022AD
:101919009000E2E0FFB40205E4F523800BEF6403D5
:1019290060030219F4752301E523653A600302197E
:10193900F49000E4E0FFE52360047E0C80027E0B56
:10194900EE6F60030219F4E4FF74E42FF582E434C6
:1019590000F583E0FEE52375F00CA424F7F582E495
:101969003400F583E5822FF582E43583F583EEF0C3
:101979000FBF0CD574D02523F582E43400F583E438
:10198900F0AF2304A807088002C333D8FC42409073
:1019990000E3E0FFB4100D74082523F582E4340058
:1019A900F583E4F09000E1E060119000BBE0B5231D
:1019B9000AEFB41006E4FDFF122741E52364017024
:1019C9002A900107E0C39402400B7D147C007FB884
:1019D9007E0B1221F4900009E0701090010AE0706A
:0B19E90003FF80027F01900001EFF07F
:0119F40022D0
:102944007B017A0079E27D0E1224159000F0E0B547
:10295400070BAF06A3E0B50704753601229000CF3C
:09296400E0C394FF5003E004F00D
:01296D002247
:1019F500E534146016047070122CA9EF7079AF3AB3
:101A05001222E3E4F535753401806CE5366008E4AF
:101A1500F53612191980490535E535C3940F405738
:101A250074D0253AF582E43400F583E0C39403507D
:101A35000E74D0253AF582E43400F583E004F074A1
:101A4500D0253AF582E43400F583E0C394034010D1
:101A5500AF3A7401A807088002C333D8FCF452409A
:101A6500E4F535753402800F0535E535C394054039
:101A750006633A01E4F5349000F2E06017122CB4E5
:101A8500EF70117B017A0079827D1BFC1229E9E454
:101A95009000F2F09000E1E0600B14F0E07006FDBC
:0D1AA5007F03122741E53760031223B822AA
:1009FF00E4F52374C72523F582E43400F583740AE4
:100A0F00F00523E523B408EBE532146051147003AD
:100A1F00020ABA147003020B1824036003020B3E80
:100A2F009000D4E0FFC4540F9000C7F0EF540FA311
:100A3F00F0A3740CF09000D3E0FFC4540F9000CAE1
:100A4F00F0EF540FA3F0A3740CF09000D2E0FFC4AA
:100A5F00540F9000CDF0EF540FA3F0020B76E5404A
:100A6F0020E01BE4F52374C72523F582E43400F559
:100A7F0083740CF00523E523B408EB020B76122BDD
:100A8F00FFAD07AC06C3EC64809480500D9000C797
:100A9F00740CF0C3E49DFDE49CFC7F011224C19013
:100AAF0000C9E02410F09000FC807CE54020E11BA1
:100ABF00E4F52374C72523F582E43400F583740C21
:100ACF00F00523E523B408EB020B76900104E0FF59
:100ADF0030E0047E0180027E009000C7EEF0EF3020
:100AEF00E1047F0180027F009000C9EFF0900107C1
:100AFF00E09000CBF07B017A017905122C05AC0652
:100B0F00AD077F051224C1805EE53D6008E53F60BB
:100B1F00047F0A8002AF389000C7EFF074FF2538CA
:100B2F00F582E434FFF583E0FD7B037F058035E537
:100B3F004030E0047F0180027F009000C7EFF0E5B6
:100B4F004030E1047F0180027F009000C8EFF090F9
:100B5F000101E0FD7B027F03122AA590010EE0FD4B
:100B6F007B027F06122AA59000C7E0FFA3E0FDA33A
:100B7F00E0FBA3E0F527A3E0F528A3E0F529A3E028
:100B8F00F52AA3E0F52B122B097F021227F7EF644A
:100B9F00016028E4FFE54030E0010FE54030E1035C
:100BAF00430702900001E06003430704900107E050
:0B0BBF00C394024003430708122CF708
:010BCA002208
:102A3700AE031BEE601FED75F00A84E5F02430FE4F
:102A4700EF2B240AF582E43400F583EEF0ED75F000
:062A57000A84FD80DB2271
:04296E00E0FD7B030A
:10297200AE031BEE601FED75F00A84E5F02430FE15
:10298200EF2B2435F582E43400F583EEF0ED75F09B
:062992000A84FD80DB2237
:1027BD008C238D24AA07AF031BEF602DAE23AF240E
:1027CD007C007D0A1201A4ED2430FFEA2B2435F59F
:1027DD0082E43400F583EFF0AE23AF247C007D0A54
:0A27ED001201A48E238F2480CD2258
:1010B200122CB4EF60030211F37B02AD397F0112EF
:1010C2002A377B02AD3B7F04122A377B02AD3C7F7D
:1010D20007122A37122BFF8E288F29C3E528648036
:1010E200948050047F2D80027F2B900016EFF0C376
:1010F200E52864809480500BC3E49529F529E49592
:1011020028F528D3E52994E7E528648094834006EE
:101112007528037529E7AE28AF297C007D6412018A
:10112200F9AD077B017F0D122A37AE28AF297C006B
:101132007D641201F97B027F0E122A379000FBE0D8
:10114200FD7B017F12122A379000FCE0FD7B037FBA
:1011520015122A377B017A017905122C058E288F08
:1011620029C3E528648094805005E4F528F529D345
:10117200E52994E7E5286480948340067528037581
:1011820029E7AE28AF297C007D641201F9AD077B07
:10119200017F1A122A37AE28AF297C007D64120122
:1011A200F97B027F1B122A37900107E0FD7B017F4A
:1011B2001F122A37E54030E0047F0180027F00EFF2
:1011C200243090002CF0E54030E1047F0180027F62
:1011D20000EF243090002DF09000CFE0FD7B037FE4
:1011E20026122A377B017A00790A7D2B7C0012298C
:0111F200E913
:0111F30022D9
:101F3700122CB4EF6003021FCC9000F87F07122920
:101F47006E9001017F0E12296E900104E0FD7B0364
:101F57007F1512297290010AE0FD7B017F1C12296F
:101F670072900108E0FD7B037F201229729001091E
:101F7700E0FD7B037F2612297290010EE0FD7B03B3
:101F87007F2D1229729000F3E0FD7B037F34122925
:101F970072900006E0FCA3E0FD7B057F3A1227BDA7
:101FA7009000D0E0FD7B017F431229729000D1E0C1
:101FB700FD7B017F481229727B017A0079357D4BC1
:061FC7007C001229E92252
:10235300053EE53EC394024013E4F53E122CEA78B1
:10236300D27C007D017E007F071201160533E53321
:10237300C39403400FE4F533E53F70047F0180020B
:102383007F008F3F9000C6E004F0C3940A4002E44C
:10239300F09000C6E0B40303121CBA900081E0047D
:1023A300F0C3940A4002E4F0900081E0B406031203
:0523B3001F370209FFC5
:101E9F00122CE378237C007D007E007F0512011653
:101EAF00E47FFF7EFFFDFCAB26AA25A924A823D340
:101EBF0012037840067EFF7FFF8004AE25AF269089
:101ECF000006EEF0A3EFF09000F3E527F09000D4BA
:101EDF00E0FF122C468F399000D3E0FF122C468F73
:101EEF003B9000D2E0FF122C468F3C900002E06541
:101EFF00397025A3E0B53B20E53CC39402501990FF
:101F0F0000F4E0702004F0E4900080F07D14FC7F7A
:101F1F00B87E0B1221F4800D900003E0653B600545
:081F2F00E49000F4F00210B28E
:10263A00E4FF1226C2BF0111E537700D7537017D1F
:10264A0005FC7FB87E0B1221F47F011226C2BF015E
:10265A0022900001E070047F0180027F0090000157
:10266A00EFF09000097401F07D0A7C007FD07E07AC
:04267A001221F42213
:100F2200E4FF1225F4BF01119000807401F07D05E9
:100F32007C007FDC7E050210AE7F031225F4EF6495
:100F4200017024E532B4030EE53D70047F01800296
:100F52007F008F3D8006753203E4F53D7D057C0000
:100F62007FB87E0B0210AE7F011225F4BF011EE591
:100F72003D600E0538E538D394054011753801807F
:100F82000C0532E532D394044003E4F5327F0412B7
:100F920025F4BF011DE53D600E1538E538C3940107
:100FA2005010753805800BE53270057532048002E9
:100FB2001532E53D70030210B1E4F5247F051225D8
:100FC200F4BF0105752401800D7F021225F4EF6440
:100FD2000160030210B1C3E5389401F523E52460F2
:100FE20050E52375F005A42470F582E43416F583E8
:100FF200E493FFFD74002523F582E43400F583E0D9
:101002002DFDE433FCE52375F005A4246FF582E49D
:101012003416F583E493FBD3ED9B7480F86C9850FF
:101022005574002523F582E43400F583E02FF08027
:1010320045E52375F005A42470F582E43416F583A2
:10104200E493FFE52375F005A4246EF582E43416DB
:10105200F583E4932FFE74002523F582E43400F532
:1010620083E0FDC39E400F74002523F582E4340023
:10107200F583C3ED9FF0E52375F005A42471F58295
:10108200E43416F583E493FFC39402500D74082FE1
:10109200F582E43400F5837401F0E52460067E0DE8
:0F10A2007FAC80047E097FC47D037C001221F4A3
:0110B100221C
:10065200122B827D07E4FF122CC8122B49122AE9C1
:10066200122BCF7F9812282978237C007D007BFFF4
:100672007A1679C47E007F07120116121551122CC8
:10068200EA78D27C007D017E007F07120116E4FF2A
:1006920074F72FF582E43400F583E4F074032FF548
:1006A20082E43401F583E4F00FBF0CE4E49000D05F
:1006B200F0A3F09000CFF0900006F0A3F09000F3CA
:1006C200F0A3F0900080F0900005F0FFEF75F005C8
:1006D200A4246DF582E43416F583E493FE74002FAE
:1006E200F582E43400F583EEF00FBF05DF121E053C
:1006F2009000087401F0A3F090010574FFF0A3F0DC
:10070200E4FFEF9016CB93FE740A2FF582E43400D7
:10071200F583EEF00FBF2BEAE4FFEF9016F793FE9E
:1007220074352FF582E43400F583EEF00FBF4BEA07
:10073200E4900081F07F807E25FDFC12226CE49023
:1007420000F5F09000E1F09000F6F09000BBF09020
:0707520000F2F09000C6F078
:10075900F522E52290168993FF74822522F582E419
:100769003400F583EFF00522E522B41BE5E4F52218
:10077900E5229016A593FF749D2522F582E43400A5
:0B078900F583EFF00522E522B41EE529
:100794007528FF752916752A88752B00752C017B21
:1007A400017A0079BC7D0A7C0012288B7527027FB0
:1007B400807E257D007C00121AB275280075290000
:1007C400752A00E4F52BF52C7B017A0079E27D1083
:1007D400FC12285A7BFF7A1979F57F011221777B65
:1007E400FF7A2379537F021221777BFF7A1E799F48
:1007F4007F031221777BFF7A26793A7F04122177CF
:100804007BFF7A0F79227F071221777BFF7A297980
:10081400447F0A1221777BFF7A0D79777F091221B1
:0908240077122CFD12277F80FBE6
:092CBF008B88898C88898F888933
:10144A005201898686008686008686008686008600
:09145A00860086860041017E092E
:03002B00022CF1B3
:062CF10053BCEFD20F32CC
:020BCB001543D0
:100BCD00200F03020D74C20F90017DE0B4090040A7
:100BDD0003020D56900BE8F8282873020C2F020C17
:100BED0003020C15020C41020C03020C15020C58E9
:100BFD00020C03020C15AFBDEFFEADBE7C00E42D63
:100C0D00FFEC3E90017F803CAFBDEFFEADBE7C00A2
:100C1D00E42DFFEC3E900181F0A3EFF0751A010277
:100C2D000D5CAFBDEFFEADBE7C00E42DFFEC3E9044
:100C3D0001838010AFBDEFFEADBE7C00E42DFFEC57
:100C4D003E900185F0A3EFF0020D5CAFBDEFFEAD60
:100C5D00BE7C00E42DFFEC3E900187F0A3EFF090F9
:100C6D000187E0FEA3E07807CEC313CE13D8F9A811
:100C7D0043F6C394065013A843E675F003A42489E4
:100C8D00F582E43401F583E014F090017EE014F078
:100C9D006003020D5C7409F0A843E4F6A843E6FF77
:100CAD00C394064003020D5CEF75F003A42489F58F
:100CBD0082E43401F583E0C39480502AE6FF75F099
:100CCD0003A4248AF582E43401F583E0D3948040B3
:100CDD0040EF75F003A4248BF582E43401F58374A1
:100CED0001F0F51B802BA843E6FF75F003A4248AC1
:100CFD00F582E43401F583E0C394805014EF75F070
:100D0D0003A4248BF582E43401F5837402F0751B82
:100D1D0001A843E6FF75F003A42489F582E43401AC
:100D2D00F583E0FEEF75F003A4248AF582E4340127
:100D3D00F583EEF0E675F003A42489F582E4340121
:100D4D00F5837486F006020CA990017D74FFF09076
:100D5D00017DE0D39407400374FFF090017DE00422
:070D6D00F0902CBF93F5BCD0
:030D740005432212
:022C7300154307
:092C7500A843A61BE4F51BE6FFD1
:032C7E00054322E9
:022C81001543F9
:092C8300A843A61AE4F51AE6FFC5
:032C8C00054322DB
:102829008F9D75BC88439720D2AD90015474FFF0F9
:10283900A3740BF0A374CBF0A374FFF0A3742CF072
:10284900A37473F0A374FFF0A3742CF0A37481F044
:01285900225C
:070003007B017A01797F22E5
:1025F400C3EF64809480403BD3EF64809485503370
:10260400EFFD3395E0FC90018B75F003ED1203CCE4
:10261400EC75F003A42583F583E0FE90018B75F03F
:1026240003ED1203CCEC75F003A42583F583E4F0E9
:05263400AF06227F0348
:01263900227E
:0429C1001543154362
:1029C500122CD1A843A60608A607A843E6FE08E6EA
:0F29D500FF4E600BEF24FFFFEE34FFFE122CDAF3
:0529E40005430543223C
:102AE90053B1EF43B21012003EE4F5D975DA49D279
:102AF900DE90014E74FFF0A37429F0A374C1F02293
:0821F4008E2B8F2C8C2D8D2EFB
:1021FC00122CD1EF4E7066AF2EAE2D122CDAC3E539
:10220C002C940AE52B9400404BE47B18FAF9F890D7
:10221C00164F1203B01202E6C006C007AE2BAF2C4D
:10222C00AB07AA06E4F9F8D007D0061202E6AB0712
:10223C00AA06AFF9EFFEADE97C00E42DFFEC3ECF32
:10224C002BCF3AAD07FCAF03AE02122C25D2D843EC
:0F225C00DA01800612003E53DAFE7F02227F0372
:01226B002250
:0C2C9D00122CD1EF4E7002FF227F0122AA
:10183000E4F5809001E6E0FFB40800505F901844A2
:10184000F828287302185C02186202186802186EE1
:1018500002187402187E021888021892C2A3C2A24B
:101860008016C2A3C2A2801AC2A3C2A2801EC2A3B3
:10187000C2A28022C2A3D2A2C2A1C2A08020C2A3BF
:10188000D2A2C2A1D2A08016C2A3D2A2D2A1C2A0CB
:10189000800CC2A3D2A2D2A1D2A08002D2A3C3EF55
:1018A0006480948850299001E6E0FF3395E0FE744F
:1018B000DD2FF58274013EF583E0FF3395E0FE7481
:1018C000532FF58274163EF583E493F580801E90C5
:1018D00001E6E0FFB408133395E0FE74DD2FF582D6
:1018E00074013EF583E0F5808003E4F5809001DC2F
:1018F000E0FF9001E6E004FEF0D3EF6480F8EE64D0
:1019000080984014E0D36480948850047408F022D6
:091910009001DBE09001E6F022F9
:102B8200E4F5937594FF5395F043960F90013974D1
:0B2B9200FFF0A37418F0A37430F022D1
:092CC8009001DBEFF0A3EDF02216
:102B09009001DDEFF0A3EDF0A3EBF0A3E527F0A32F
:102B1900E528F0A3E529F0A3E52AF0A3E52BF022A7
:062CF7009001E5EFF02260
:101463000141004901E8949400949400949400414C
:0314730001E71E70
:0213240015436F
:1013260020B2069001E8E014F020B3069001EBE04D
:1013360014F02097069001EEE014F09001E7E01417
:10134600F06003021444741EF0A843E4F6A843E6D2
:10135600FFC3648094834003021444EF3395E0FE98
:101366009001E875F003EF1203CCEE75F003A425A7
:1013760083F583E0C3948050399001E975F003EF5B
:101386001203CCEE75F003A42583F583E0D3948095
:10139600405AE6FF3395E0FE9001EA75F003EF123E
:1013A60003CCEE75F003A42583F5837401F0F541B3
:1013B600803AA843E6FF3395E0FE9001E975F00315
:1013C600EF1203CCEE75F003A42583F583E0C394F6
:1013D6008050199001EA75F003EF1203CCEE75F018
:1013E60003A42583F5837402F0754101A843E6FF43
:1013F600FD3395E0FC9001E875F003ED1203CCECAB
:1014060075F003A42583F583E0FE9001E975F003EA
:10141600ED1203CCEC75F003A42583F583EEF0EF13
:101426003395E0FE9001E875F003EF1203CCEE75FC
:0E143600F003A42583F5837494F0060213538B
:031444000543223B
:022C8F001543EB
:092C9100A843A641E4F541E6FF69
:032C9A00054322CD
:102B490090013F74FFF0A3742CF0A3748FF09001EF
:0D2B59003C74FFF0A37413F0A37424F02269
:1026C200EF600764016003BF0233EFFD3395E0FC66
:1026D2009001EA75F003ED1203CCEC75F003A4252A
:1026E20083F583E0FE9001EA75F003ED1203CCEC72
:0F26F20075F003A42583F583E4F0AF06227F0380
:0127010022B5
:1014760055019C0000000000000000000000000074
:0C148600000000000000000041019B007D
:0203DE001543C5
:1003E000A843E4F6A843E6FFC36480948340030275
:1003F000064FEF3395E0FE90019C75F007EF120376
:10040000CCEE75F007A42583F583E0FCA3E04C70E7
:100410000302064990019E75F007EF1203CCEE75BA
:10042000F007A42583F583E0FEA3E04E70030206E7
:1004300049E6FFFD3395E0FC9001A075F007ED1251
:1004400003CCEC75F007A42583F58374FFF5F01257
:10045000022F45F0600302064990019E75F007EDFA
:100460001203CCEC75F007A42583F583E0FAA3E032
:10047000FB9001A075F007ED1203CCEC75F007A41A
:100480002583F583EAF0A3EBF0EF3395E0FE9001CE
:100490009C75F007EF1203CCEE75F007A42583F5E9
:1004A00083E0FCA3E0D39400EC648094804056A8E1
:1004B00043E6FD3395E0FC90019C75F007ED1203D7
:1004C000CCEC75F007A42583F58374FFF5F01202D8
:1004D0002F9001A275F007ED1203CCEC75F007A484
:1004E0002583F583E004F0D3648094834072900107
:1004F000A275F007EF1203CCEE75F007A42583F583
:1005000083E4F0805BA843E6FFFD3395E0FC9001B7
:100510009C75F007ED1203CCEC75F007A42583F56C
:1005200083E475F00112022F9001A275F007ED121D
:1005300003CCEC75F007A42583F583E014F0C364C5
:10054000809480501BEF3395E0FE9001A275F00778
:10055000EF1203CCEE75F007A42583F5837403F046
:10056000A843E6FFFD3395E0FC9001A275F007ED8E
:100570001203CCEC75F007A42583F583E014603CEE
:100580001460661470030206162403600302064119
:10059000EF14601014601924026003020641D2C1F6
:1005A000C2C2802990019BE054F04401F002064150
:1005B00090019BE0540F4410F0020641A843E6145A
:1005C000601114601924027078C2C1D2C2C2C3C2C1
:1005D000C4806E90019BE054F04402F0806390016F
:1005E0009BE0540F4420F08058A843E61460111497
:1005F00060192402704BC2C1C2C2D2C3C2C48041BE
:1006000090019BE054F04404F0803690019BE0544C
:100610000F4440F0802BA843E614601114601924A5
:1006200002701EC2C1C2C2C2C3D2C4801490019B58
:10063000E054F04408F0800990019BE0540F44809E
:0F064000F090019BE0FF122CF7A843060203E4A1
:03064F000543223E
:102BCF0053B3E143B41E53C0E190016374FFF0A30C
:082BDF007403F0A374DEF02280
:101B67008F42EF3395E0FE90019C75F007EF12036B
:101B7700CCEE75F007A42583F583E0FEA3E04E6065
:101B870003021C0FE542600A64016006E542640235
:101B97007076ED60737C007E037FE81201A4AD428E
:101BA700ED3395E0FC90019E75F007ED1203CCEC48
:101BB70075F007A42583F583EEF0A3EFF090019E5F
:101BC70075F007ED1203CCEC75F007A42583F583B8
:101BD700E0FEA3E0FF9001A075F007ED1203CCEC47
:101BE70075F007A42583F583EEF0A3EFF090019C31
:101BF70075F007ED1203CCEC75F007A42583F58388
:0B1C0700EAF0A3EBF07F02227F032233
:10256500EF600764016003BF023AEFFD3395E0FCBD
:1025750090019C75F007ED1203CCEC75F007A425CE
:1025850083F583E0FAA3E0FB90019C75F007ED125B
:1025950003CCEC75F007A42583F583E4F0A3F0AE36
:0725A50002AF0322E4FEFF78
:0125AC00220C
:1027F700EF600764016003BF0225EF3395E0FE90A9
:10280700019C75F007EF1203CCEE75F007A4258342
:10281700F583E0FEA3E04E60037F01227F00227F65
:0228270003228A
:1014920041010F0A4101380A41017C0A040E000091
:1014A20000000114004601760000FFFF8FFFC10D0E
:1014B200C105C108C101C10E60240114FF000AFF69
:1014C200000AFF000AFF000AFF000AFF000AFF00ED
:1014D2000AFF000AFF000AFF000AFF000AFF000AD3
:1014E20060360139FF000AFF000AFF0026FF000AEA
:1014F200FF0026FF000AFF0026FF000AFF000AFF86
:10150200000AFF0026FF0026FF0026FF0026FF003C
:0A1512000AFF000AFF000AFF000AAA
:01000A0022D3
:030026007F002236
:1025AD00438E805389F07BE07A287901780090166C
:1025BD004F1203B012267EEFF404F58A7BE07A28E1
:1025CD007901780090164F1203B012267EC3E49F56
:1025DD00FFE49EFE74019DFDE49CFC780812039CB3
:0725ED008F8CD28CD2A922D1
:03000B00022513B8
:04251300C0E0C0D094
:10251700D5080A75084C300D020514D20DA20372B6
:10252700045036150AE50A7030850C0AD207300ABE
:1025370017E50D6007150D438F01801D538FFEC2F0
:10254700B5D51615C20A8011050BE50BD3940640C5
:0925570008C203E5136002D2067C
:05256000D0D0D0E032F4
:10246E00300E47C20E90164F1203B0781012039C16
:10247E008E1C8F1D900112E0FEA3E0FFE4FCFD7B9D
:10248E0019FAF9F812025BC006C007AE1CAF1DABFD
:10249E0007AA06E4F9F8D007D00612267E780312B2
:1024AE00039C900174EEF0A3EFF0900174E0FEA394
:0224BE00E0FF3D
:0124C00022F9
:092CD100900176E0FEA3E0FF2271
:092CDA00900176EEF0A3EFF02268
:102C250090017AEEF0A3EFF0900178ECF0A3EDF0CF
:012C3500227C
:03003E00C2B42227
:03003B00021C1292
:101C1200C0E0C083C082C0D075D000C004C005C07F
:031C220006C007F2
:101C250030DF04C2DF807D30DA04C2DA807630D955
:101C35003DC2D9AFFBEFFEADEB7C00E42DFFEC3EE2
:101C450020000E900110F0A3EFF075DB11D200809B
:101C550053FE900110E0FCA3E0FDC3EF9DFFEE9C59
:101C6500A3F0A3EFF075DB00C200D20E803630D8AA
:101C750033C2D8900176E07002A3E06022B2B4903E
:101C85000178E0FEA3E0F5EAEEF5FAA3E0FEA3E0B5
:101C9500FF900179E02FF0900178E03EF08005C2D9
:041CA500B453DAFE5C
:101CA900D007D006D005D004D0D0D082D083D0E0E0
:011CB90032F8
:062CFD001225ADD2AF224A
:1020EC003004047F0180027F00200A047E018002FC
:1020FC007E00EE5F6074E515C395095068300236BA
:10210C00750D01E515131313541FAB17AA18A91954
:10211C00F582758300120155FFE515540704FEEF97
:10212C00A806088002C333D8FC30D7057516038087
:10213C002F751601802AAB17AA18A91975F002E59C
:10214C0015A4F58285F083120155F50DE51575F092
:10215C0002A429F9EA35F0FA900001120155F5169E
:0A216C000515D20A22C204438F10A9
:012176002246
:1017430090010FE014F0701F740AF0D20590013875
:10175300E014F07012740AF0D20890017CE014F0E7
:101763007005740AF0D201900139A3E0FAA3E0F9FD
:101773001203D890013CA3E0FAA3E0F91203D89036
:101783000148A3E0FAA3E0F91203D8900154A3E0BF
:10179300FAA3E0F91203D8900163A3E0FAA3E0F9F6
:1017A3001203D890016CA3E0FAA3E0F91203D890D6
:1017B300015AA3E0FAA3E0F91203D8EF600C9001F9
:1017C3002CA3E0FAA3E0F91203D890015DA3E0FA99
:1017D300A3E0F91203D8EF600E90012FA3E0FAA360
:1017E300E0F91203D8D20BE512D394004016D512B8
:1017F3003030090C900132A3E0FAA3E0F91203D8C8
:10180300D20C801D900160A3E0FAA3E0F91203D883
:10181300EF600E900132A3E0FAA3E0F91203D8D2ED
:0D1823000C900114A3E0FAA3E0F90203D831
:101FCD0090014EA3E0FAA3E0F91203D8900151A3BA
:101FDD00E0FAA3E0F91203D8900142A3E0FAA3E0DE
:101FED00F91203D8900117A3E0FAA3E0F91203D870
:101FFD0090013FA3E0FAA3E0F91203D8EF600C9033
:10200D000120A3E0FAA3E0F91203D8900145A3E063
:10201D00FAA3E0F91203D8EF600C900126A3E0FAC1
:10202D00A3E0F91203D8900157A3E0FAA3E0F91247
:10203D0003D8EF600C900129A3E0FAA3E0F9120395
:10204D00D830060EC206900135A3E0FAA3E0F912CE
:03205D0003D82283
:1027020090011AA3E0FAA3E0F91203D890014BA3B7
:10271200E0FAA3E0F91203D8EF600C900123A3E0E2
:10272200FAA3E0F91203D8900166A3E0FAA3E0F954
:0F2732001203D8900169A3E0FAA3E0F90203D8DB
:10291900AF11AE10AD0FAC0E90016F1203C0900154
:1029290073E514F0E4F511F510F50FF50EF51490B3
:0B293900011DA3E0FAA3E0F90203D89F
:10277F00300705C2071220EC300D05C20D121743AA
:10278F00300505C205121FCD300805C208122702F9
:10279F00300105C201122919E5112401F511E435A3
:0E27AF0010F510E4350FF50FE4350EF50E228F
:102177008B238A248925EFB40C00507090218AF8AC
:102187002828730221AE0221B30221B80221BD0221
:1021970021C20221C70221CC0221D10221D602216C
:1021A700DB0221E00221E5900114803590011780C0
:1021B7003090011A802B90011D80269001208021EC
:1021C700900126801C90012380179001298012908E
:1021D700012C800D90012F8008900132800390011F
:0D21E70035E523F0A3E524F0A3E525F02263
:072CE3007B017A01796F22E9
:04151C004101F9018F
:102B9D00C295E4FEEF1392CC000000D29500EFC376
:082BAD0013FFC2950EBE08ECF7
:012BB50022FD
:102BE700E4FEEFC313FF30CC03430780D295000008
:072BF70000C2950EBE08EBC1
:012BFE0022B4
:1028EB00F07F851228FEA3EFF07F871228FEA3EF5F
:0328FB00F07F89E2
:1028FE00C296000000C295000000D29600122B9DD9
:0A290E00122BE7D295000000C296DC
:01291800229C
:032B2900A3E0FD29
:102B2C00C296000000C295000000D29600122B9DA8
:0D2B3C00AF05122B9DD295000000C296221D
:072CEA007B017A0179F2225F
:102BB60078F27C017D017B007A00792B7E007F070D
:092BC600120116E49001F9F0225D
:102C1300EFD3941F5009EF25E044C1FF0228FE7F44
:022C230001228C
:10299800AC07AB05ECD3941F501CE4FD7F8E122BC3
:1029A8002CEC25E044C0FFAD03122B2C7D807F8EDC
:0929B800122B2C7F00227F01226A
:021D6000154329
:101D62009001F9E060447F811228FEA843EFF690CB
:101D720001F2E06F7003021E02A843E6F07F8312B5
:101D820028FEA843EFF6A3E06F6075A843E6122889
:101D9200EBA3EFF07F8D1228FE9001F8EFF07F8B1E
:101DA2001228FE9001F7EFF080569001F1E0FF0457
:101DB200F0EFC3940A4049E4F09001F904F0E4FD25
:101DC2007F8E122B2C9001F2E0FD7F80122B2C7F54
:101DD20082122B297F84122B29A3E0FD7F86122BEE
:101DE2002CA3E0FD7F88122B2CA3E0FD7F8A122B0F
:101DF2002CA3E0FD7F8C122B2C7D807F8E122B2C4E
:031E020005432273
:101551007F811228FE9001F2EFF07F831228FEA313
:10156100EF1228EBA3EFF07F8B1228FEA3EFF07FA1
:101571008D1228FEA3EFF0E4FD7F8E122B2C7F1E2F
:10158100122C13EF64A560047F0180027F0090019B
:10159100F2E05480FEA3E0D3945940047D0180021F
:1015A1007D00ED4EFE9001F4E0D394A440047D0152
:1015B10080027D00ED4EFE9001F5E0D394314004B0
:1015C1007D0180027D00ED4EFE9001F6E0D3941284
:1015D10040047D0180027D00ED4EFE9001F7E0D3D5
:1015E100940740047D0180027D00ED4EFE9001F8DC
:1015F100E0D3949940047D0180027D00ED4E4F605F
:1016010030782B7C007D007B007A0079237E007F7F
:1016110007120116122BB67DA57F1E12299878F2AA
:101621007C017D017B007A0079237E007F07120116
:10163100167DA97F90122B2C7D807F8E122B2C90F2
:0E164100016974FFF0A3741DF0A37460F02221
:102C3600D2C0000000D2CD000000C2C000000022B9
:0D002E00C2C0000000D2CD000000D2C022F0
:0B2A5D00122A81122A68AF05122A819C
:102A6800E4FFD2CD30C009EFC394FF50030F80F4C8
:082A7800000000C2CD000000C7
:012A80002233
:102A8100E4FEEF25E0FFC2CD00000092C00000008F
:102A9100D2CD0000000EBE08E9C2CD000000D2C0B8
:032AA10000000032
:012AA400220F
:102AC700C2CD000000D2C000E4FED2CD0000EF2549
:102AD700E0FDA2C0E4334DFF0000C2CD000EBE08EA
:012AE700E905
:012AE80022CB
:10000E00AC07122C367FA0122A81122A68AF041276
:05001E002A5D02002E26
:022B6600AD07B9
:102B6800122C367FA0122A5D122C367FA1122A81E0
:092B7800122A68122AC712002E6D
:012B81002231
:101520005501B100000000000000000000000000B4
:081530000000010000000000B2
:0300430002082D83
:10082D00C0E0C0F0C083C082C0D075D000C000C091
:10083D0001C002C003C004C005C006C007E59A3060
:10084D00E142539AFD9001B6E0FEA3E0FFC3900193
:10085D00B5E09F9001B4E09E501F9001B1E0FBA365
:10086D00E0FAA3E0F9A3E475F00112024585F082E8
:10087D00F583120155F59B800B9001B8E4F0E51F4F
:10088D006002C2B7E59A20E0030209E4539AFE30F4
:10089D000C0BC20C9001BEE4F0A3F0D209E51F646D
:1008AD0002600302093E9001BCE0FEA3E0FFA3E05D
:1008BD00FCA3E0FDC39FEC9E50719001B9E0FBA33A
:1008CD00E0FAA3E0F98D828C83E59B120182900101
:1008DD00C4E0FEA3E0FFC3ED9FEC9E50409001BC31
:1008ED00E0FCA3E0FDEF9DEE9C50329001C1E0FBDA
:1008FD00A3E0FAA3E0F99001BEE0FEA3E0FFF582CC
:10090D008E83120155FD9001B9E0FBA3E0FAA3E03F
:10091D00F98F828E831201556D6002C2099001BF5D
:10092D00E004F070069001BEE004F0851E1202098D
:10093D00E49001BCE0FEA3E0FFA3E0FCA3E0FDC357
:10094D009FEC9E50779001B9E0FBA3E0FAA3E0F98C
:10095D008D828C83E59B1201829001C4E0FEA3E0A1
:10096D00FFC3ED9FEC9E50469001BCE0FCA3E0FD63
:10097D00EF9DEE9C50389001C1E0FBA3E0FAA3E09F
:10098D00F99001BEE0FEA3E0FFF5828E83120155C2
:10099D00FD9001B9E0FBA3E0FAA3E0F98F828E830D
:1009AD001201556D60089001BE74FFF0A3F0900127
:1009BD00BFE004F070069001BEE004F09001BCE0D1
:1009CD00FEA3E0FFC39001BFE09F9001BEE09E40FB
:1009DD00069001C07401F0D007D006D005D004D028
:1009ED0003D002D001D000D0D0D082D083D0F0D0AF
:0209FD00E032E6
:022C5500154325
:0A2C57009001C0E0A843F6FFE4F08E
:032C610005432206
:0100290022B4
:101AB2008F268E258D248C2385271FE51F7002809B
:101AC2000343BA01E51F701790016C74FFF0A37411
:101AD20000F0A37429F0E4F5DBD290D2918020C209
:101AE200B7AB26AA25A924A823E47F407E9CFDFC4F
:101AF2001202E68F1EE51E7003751E01851E127509
:101B02009A10E47B04FAF9F890164F1203B012020D
:101B1200E6AB26AA25A924A8231202E6EFF404F5CF
:101B2200D7E47B04FAF9F890164F1203B01202E6DA
:101B3200AB26AA25A924A8231202E6C3E49FFFE448
:101B42009EFE74019DFDE49CFC78081203898FD6E9
:101B5200438E1443AF0190016074FFF0A3742CF024
:051B6200A37455F02200
:10285A009001B9EBF0A3EAF0A3E9F0A3ECF0A3ED41
:10286A00F09001C4E52BF0A3E52CF09001C1E52816
:10287A00F0A3E529F0A3E52AF0D20CE49001C0F018
:01288A00222B
:1028BC009001B8E070269001B1EBF0A3EAF0A3E927
:1028CC00F0E4A3F0A3F0A3ECF0A3EDF0A37401F0FB
:0F28DC00E51F6002D2B7439A027F02227F0322D8
:0B2CA9009001B8E07002FF227F0122C2
:101538005501C60000000000000000000000000087
:0815480000000100000000009A
:030023000211F4D3
:1011F400C0E0C0F0C083C082C0D075D000C000C0C1
:1012040001C002C003C004C005C006C00730993B3A
:10121400C2999001CBE0FEA3E0FFC39001CAE09F16
:101224009001C9E09E501F9001C6E0FBA3E0FAA321
:10123400E0F9A3E475F00112024585F082F583120A
:101244000155F59980059001CDE4F020980302132F
:1012540009C298300B09C20B9001D3E4F0A3F090BB
:1012640001D1E0FEA3E0FFA3E0FCA3E0FDC39FECFB
:101274009E50779001CEE0FBA3E0FAA3E0F98D82C3
:101284008C83E5991201829001D9E0FEA3E0FFC3AB
:10129400ED9FEC9E50469001D1E0FCA3E0FDEF9D54
:1012A400EE9C50389001D6E0FBA3E0FAA3E0F9905D
:1012B40001D3E0FEA3E0FFF5828E83120155FD9079
:1012C40001CEE0FBA3E0FAA3E0F98F828E83120142
:1012D400556D60089001D374FFF0A3F09001D4E041
:1012E40004F070069001D3E004F09001D1E0FEA375
:1012F400E0FFC39001D4E09F9001D3E09E400690AC
:1013040001D57401F0D007D006D005D004D003D0A5
:1013140002D001D000D0D0D082D083D0F0D0E0323F
:022C6400154316
:0A2C66009001D5E0A843F6FFE4F06A
:032C7000054322F7
:10226C008F268E258D248C23759850438E40538E4B
:10227C00FE53890FE47B04FAF9F890164F1203B061
:10228C001202E6AB26AA25A924A8231202E6EFF433
:10229C0004F58BE47B04FAF9F890164F1203B01294
:1022AC0002E6AB26AA25A924A8231202E6C3E49FC2
:1022BC00FFE49EFE74019DFDE49CFC7808120389EA
:1022CC008F8DC2ABD28ED2AC90015D74FFF0A37433
:0722DC002CF0A37464F02252
:10288B009001CEEBF0A3EAF0A3E9F0A3ECF0A3EDFB
:10289B00F09001D9E52BF0A3E52CF09001D6E528BB
:1028AB00F0A3E529F0A3E52AF0D20BE49001D5F0D3
:0128BB0022FA
:1029E9009001CDE0701F9001C6EBF0A3EAF0A3E9D6
:1029F900F0E4A3F0A3F0A3ECF0A3EDF0A37401F0CD
:082A0900D2997F02227F032213
:0B2CB4009001CDE07002FF227F0122A2
:030000000220607B
:0C206000787FE4F6D8FD7581430220A7CC
:10004600E709F608DFFA8046E709F208DFFA803E9C
:1000560088828C83E709F0A3DFFA8032E309F60889
:10006600DFFA8078E309F208DFFA807088828C83F1
:10007600E309F0A3DFFA806489828A83E0A3F608A5
:10008600DFFA805889828A83E0A3F208DFFA804C7F
:1000960080D280FA80C680D4806980F28033801056
:1000A60080A680EA809A80A880DA80E280CA8033BF
:1000B60089828A83ECFAE493A3C8C582C8CCC58337
:1000C600CCF0A3C8C582C8CCC583CCDFE9DEE78007
:1000D6000D89828A83E493A3F608DFF9ECFAA9F086
:1000E600EDFB2289828A83ECFAE0A3C8C582C8CCDC
:1000F600C583CCF0A3C8C582C8CCC583CCDFEADEF5
:10010600E880DB89828A83E493A3F208DFF980CC56
:1001160088F0EF60010E4E60C388F0ED2402B4044F
:100126000050B9F582EB2402B4040050AF232345F6
:0601360082239000967385
:10013C00BB010689828A83E0225002E722BBFE02C1
:09014C00E32289828A83E49322F4
:10015500BB010CE58229F582E5833AF583E022505F
:1001650006E92582F8E622BBFE06E92582F8E222A9
:0D017500E58229F582E5833AF583E49322C3
:10018200F8BB010DE58229F582E5833AF583E8F0B3
:10019200225006E92582C8F622BBFE05E92582C85F
:0201A200F22247
:1001A400BC000BBE0029EF8DF084FFADF022E4CC3F
:1001B400F875F008EF2FFFEE33FEEC33FCEE9DEC08
:1001C400984005FCEE9DFE0FD5F0E9E4CEFD22ED4E
:1001D400F8F5F0EE8420D21CFEADF075F008EF2F98
:1001E400FFED33FD4007985006D5F0F222C398FD89
:0501F4000FD5F0EA2226
:1001F900C2D5EC30E709B2D5E4C39DFDE49CFCEE21
:1002090030E715B2D5E4C39FFFE49EFE1201A4C3F3
:10021900E49DFDE49CFC80031201A430D507C3E4EE
:060229009FFFE49EFE228F
:10022F00C5F0F8A3E028F0C5F0F8E582158270025A
:06023F001583E038F022F7
:10024500A3F8E0C5F025F0F0E5821582700215836C
:06025500E0C838F0E822C9
:10025B00E88FF0A4CC8BF0A42CFCE98EF0A42CFC42
:10026B008AF0EDA42CFCEA8EF0A4CDA8F08BF0A4C0
:10027B002DCC3825F0FDE98FF0A42CCD35F0FCEB1F
:10028B008EF0A4FEA9F0EB8FF0A4CFC5F02ECD39E4
:0F029B00FEE43CFCEAA42DCE35F0FDE43CFC2251
:1002AA0075F008758200EF2FFFEE33FECD33CDCC0B
:1002BA0033CCC58233C5829BED9AEC99E58298408E
:1002CA000CF582EE9BFEED9AFDEC99FC0FD5F0D66B
:1002DA00E4CEFBE4CDFAE4CCF9A88222B800C1B995
:1002EA000059BA002DEC8BF084CFCECDFCE5F0CBD3
:1002FA00F97818EF2FFFEE33FEED33FDEC33FCEB0C
:10030A0033FB10D703994004EB99FB0FD8E5E4F9C6
:10031A00FA227818EF2FFFEE33FEED33FDEC33FCB3
:10032A00C933C910D7059BE99A4007EC9BFCE99AA7
:10033A00F90FD8E0E4C9FAE4CCFB2275F010EF2FEC
:10034A00FFEE33FEED33FDCC33CCC833C810D707EC
:10035A009BEC9AE899400AED9BFDEC9AFCE899F827
:0E036A000FD5F0DAE4CDFBE4CCFAE4C8F922BA
:10267E00C2D5E830E70FB2D5E4C39BFBE49AFAE487
:10268E0099F9E498F8EC30E717B2D51226B4120295
:10269E00E6E4C39BFBE49AFAE499F9E498F8800324
:1026AE001202E630D50DE4C39FFFE49EFEE49DFDCD
:0426BE00E49CFC227A
:10037800EB9FF5F0EA9E42F0E99D42F0E89C45F0DB
:010388002252
:10038900E8600FECC313FCED13FDEE13FEEF13FF52
:03039900D8F12276
:10039C00E86010ECA2E713FCED13FDEE13FEEF1377
:0403AC00FFD8F02264
:1003B000E493FC740193FD740293FE740393FF2293
:0C03C000ECF0A3EDF0A3EEF0A3EFF022B0
:0C03CC00A42582F582E5F03583F583223C
:0603D8008A838982E473B0
:10206C00020652E493A3F8E493A34003F68001F232
:10207C0008DFF48029E493A3F85407240CC8C33375
:10208C00C4540F4420C8834004F456800146F6DF44
:10209C00E4800B0102040810204080901447E47E79
:1020AC00019360BCA3FF543F30E509541FFEE49339
:1020BC00A360010ECF54C025E060A840B8E493A300
:1020CC00FAE493A3F8E493A3C8C582C8CAC583CA2B
:1020DC00F0A3C8C582C8CAC583CADFE9DEE780BEE3
:01155000009A
:00000001FF
