:101DB70000A8C0003F065B4F666D7D077F6F000878
:101DC70040014148BF86DBCFE6EDFD87FFEF1C0AE8
:101DD7002801000000010101070017010200003B74
:101DE70001023C0AC80A0102030030210109022648
:101DF7005B30303A30303A30305D20542B30303061
:101E0700204C3020463030302044303030204130B4
:0C1E1700204F303020453030300D0A00E4
:0310B00001280113
:062634007B017A007961D0
:0D263A00900001120155FD12013CFEEDFF64
:012647002270
:081EDB008B318A3289338D340A
:101EE30074FFF535F536E4FDEDC39534503EAB3163
:101EF300AA32A9338D827583001201556236E4FC40
:101F0300E53630E015E535C313FEE53613FFEE6421
:101F1300A0F535EF6401F536800BE535C313F535D0
:101F2300E53613F5360CBC08D70D80BCAE35AF369D
:011F3300228B
:0F267B00EFC4540F75F00AA4FEEF540F2EFF2288
:1024DA00AE031BEE601BED75F00A84EF2B2434F576
:1024EA0082E43400F583E5F0F0ED75F00A84FD80AE
:0224FA00DF22DF
:101F87008C328D33AA07C3E532648094805005E410
:101F9700F532F533D3E53394E7E532648094834033
:101FA700067532037533E7AE32AF337C007D6412BA
:101FB70001F9AD07AF027B011224DAEA04FFC0077B
:101FC700AE32AF337C007D641201F9D0077B020289
:021FD70024DA0A
:10190800E4FF12259BEF64A560030219A1E4F532F8
:10191800F531E53104FF12259B74332531F8A6070C
:1019280074332531F8E62532F5320531E531C394B3
:101938000540DF7F0612259BEF6532705CE4F531C8
:10194800E53175F005A424D6F582E4341DF583E469
:1019580093FF74332531F8E6FEC39F403CE53175AB
:10196800F005A424D7F582E4341DF583E493FFEE53
:10197800D39F50250531E531B405C5E4F5317433FD
:101988002531F8E6FF74002531F582E43400F5834B
:09199800EFF00531E531B405E57D
:0119A1002223
:101E2300852731E531B401067DA5E4FF8035E53131
:101E3300D394065013E53114FF74FE2531F582E483
:101E430034FFF583E0FD801BE4FDF531740025319B
:101E5300F582E43400F583E02DFD0531E531B40569
:101E6300EB7F0612000E0527E527D39407400DE408
:0C1E7300F5277D0FFC7FA07E0F121C588D
:011E7F002240
:101D4700EF901DEE93900046F0E4900048F0A3F06A
:101D5700A3F0A3F074062FF582E43400F583E06066
:101D6700259000477410F0EF700A900000E0900093
:101D770048F08018900001E0900048F0900004E0DF
:101D8700900049F080069000477403F07B017A00C9
:101D970079467D06121EDBAC06EF90004CF0AF04CF
:101DA700A3EFF07B017A0079467D087C000223418E
:1015970090004EE0FFB40205E4F531800BEF6403E1
:1015A700600302165A753101E531652A6003021698
:1015B7005A900050E0FFE53160047E0C80027E0BFC
:1015C700EE6F600302165AE4FF74502FF582E4347D
:1015D70000F583E0FEE53175F00CA4245FF582E4A5
:1015E7003400F583E5822FF582E43583F583EEF049
:1015F7000FBF0CD5743D2531F582E43400F583E443
:10160700F0AF3104A807088002C333D8FC423090FA
:10161700004FE0B4100D74062531F582E43400F56F
:1016270083E4F0E5316401702A90006FE0C394020F
:10163700400B7D147C007FB87E0B121C589000076E
:10164700E07010900072E07003FF80027F0190004D
:0316570001EFF0B0
:01165A00226D
:1023C9007B017A00794E7D0E121EDB90005CE0B530
:1023D900070BAF06A3E0B507047526012290003C60
:0923E900E0C394FF5003E004F08E
:0123F20022C8
:101A3500E5241460160470701226DEEF7079AF2A63
:101A4500121D47E4F525752401806CE5266008E440
:101A5500F52612159780490525E525C3940F4057AE
:101A6500743D252AF582E43400F583E0C3940350E0
:101A75000E743D252AF582E43400F583E004F07404
:101A85003D252AF582E43400F583E0C39403401034
:101A9500AF2A7401A807088002C333D8FCF452307A
:101AA500E4F525752402800F0525E525C394054039
:0F1AB50006632A01E4F524E5276003121E2322AD
:10081300E4F53174342531F582E43400F583740A48
:10082300F00531E531B408EBE5221460511470038F
:100833000208CE14700302092C2403600302095238
:10084300900041E0FFC4540F900034F0EF540FA325
:10085300F0A3740CF0900040E0FFC4540F900037F5
:10086300F0EF540FA3F0A3740CF090003FE0FFC42B
:10087300540F90003AF0EF540FA3F002098AE530C9
:1008830020E01BE4F53174342531F582E43400F5BE
:1008930083740CF00531E531B408EB02098A1226A2
:1008A30034AD07AC06C3EC64809480500D900034E3
:1008B300740CF0C3E49DFDE49CFC7F01121F879040
:1008C3000036E02410F0900064807CE53020E11BCA
:1008D300E4F53174342531F582E43400F583740C86
:1008E300F00531E531B408EB02098A90006CE0FFB2
:1008F30030E0047E0180027E00900034EEF0EF30A1
:10090300E1047F0180027F00900036EFF090006FDA
:10091300E0900038F07B017A00796D12263AAC063C
:10092300AD077F05121F87805EE52D6008E52F6008
:10093300047F0A8002AF28900034EFF074FF25286B
:10094300F582E434FFF583E0FD7B037F058035E525
:100953003030E0047F0180027F00900034EFF0E547
:100963003030E1047F0180027F00900035EFF0908A
:100973000069E0FD7B027F031224DA900076E0FD3C
:100983007B027F061224DA900034E0FFA3E0FDA38C
:10099300E0FBA3E0F535A3E0F536A3E0F537A3E0EC
:1009A300F538A3E0F53912253E7F0212227CEF646D
:1009B300016028E4FFE53030E0010FE53030E1036A
:1009C300430702900001E0600343070490006FE0D7
:0B09D300C39402400343070812272CC6
:0109DE0022F6
:10246C00AE031BEE601FED75F00A84E5F02430FE20
:10247C00EF2B2408F582E43400F583EEF0ED75F0D3
:06248C000A84FD80DB2242
:100D1B001226E9EF6003020E5C7B02AD297F011204
:100D2B00246C7B02AD2B7F0412246C7B02AD2C7FD9
:100D3B000712246C1226348E318F32C3E531648056
:100D4B00948050047F2D80027F2B900014EFF0C312
:100D5B00E53164809480500BC3E49532F532E49511
:100D6B0031F531D3E53294E7E53164809483400665
:100D7B007531037532E7AE31AF327C007D64120101
:100D8B00F9AD077B017F0D12246CAE31AF327C00C5
:100D9B007D641201F97B027F0E12246C900063E0DC
:100DAB00FD7B017F1212246C900064E0FD7B037FBE
:100DBB001512246C7B017A00796D12263A8E318FD5
:100DCB0032C3E531648094805005E4F531F532D3BC
:100DDB00E53294E7E5316480948340067531037501
:100DEB0032E7AE31AF327C007D641201F9AD077B87
:100DFB00017F1A12246CAE31AF327C007D6412017C
:100E0B00F97B027F1B12246C90006FE0FD7B017F4E
:100E1B001F12246CE53030E0047F0180027F00EF6D
:100E2B00243090002AF0E53030E1047F0180027F0E
:100E3B0000EF243090002BF090003CE0FD7B037F13
:100E4B002612246C7B017A0079087D2B7C001224FE
:010E5B004452
:010E5C002273
:10224500052EE52EC394024013E4F52E12271F78C0
:102255003F7C007D017E007F071201160523E523E3
:10226500C39403400FE4F523E52F70047F0180023A
:072275007F008F2F02081308
:101E8000900041E0FF12267B8F29900040E0FF1276
:101E9000267B8F2B90003FE0FF12267B8F2C90003B
:101EA00002E065297025A3E0B52B20E52CC3940240
:101EB000501990005EE0702004F0E4900033F07D53
:101EC00014FC7FB87E0B121C58800D900003E06557
:0B1ED0002B6005E490005EF0020D1B8B
:10210000E4FF122188BF0111E527700D7527017DBD
:1021100005FC7FB87E0B121C587F01122188BF017D
:1021200022900001E070047F0180027F0090000196
:10213000EFF09000077401F07D0A7C007FD07E07ED
:04214000121C5822F3
:100B8B00E4FF1220BABF01119000337401F07D0510
:100B9B007C007FDC7E05020D177F031220BAEF6409
:100BAB00017024E522B4030EE52D70047F01800251
:100BBB007F008F2D8006752203E4F52D7D057C00CB
:100BCB007FB87E0B020D177F011220BABF011EE505
:100BDB002D600E0528E528D394054011752801805A
:100BEB000C0522E522D394044003E4F5227F041282
:100BFB0020BABF011DE52D600E1528E528C3940111
:100C0B005010752805800BE52270057522048002B3
:100C1B001522E52D7003020D1AE4F5327F05122023
:100C2B00BABF0105753201800D7F021220BAEF6445
:100C3B00016003020D1AC3E5289401F531E532601A
:100C4B0050E53175F005A424D8F582E4341DF58305
:100C5B00E493FFFD74002531F582E43400F583E065
:100C6B002DFDE433FCE53175F005A424D7F582E4C2
:100C7B00341DF583E493FBD3ED9B7480F86C985093
:100C8B005574002531F582E43400F583E02FF080B4
:100C9B0045E53175F005A424D8F582E4341DF583C0
:100CAB00E493FFE53175F005A424D6F582E4341DF9
:100CBB00F583E4932FFE74002531F582E43400F5BF
:100CCB0083E0FDC39E400F74002531F582E43400B0
:100CDB00F583C3ED9FF0E53175F005A424D9F582BA
:100CEB00E4341DF583E493FFC39402500D74062F77
:100CFB00F582E43400F5837401F0E53260067E0D75
:0F0D0B007FAC80047E097FC47D037C00121C58DE
:010D1A0022B6
:1011BA001225B77D07E4FF1226FD12257E12251E91
:1011CA001226047F981222AE78317C007D007BFFC4
:1011DA007A1D79F07E007F071201161212C31227B8
:1011EA001F783F7C007D017E007F07120116E4FF15
:1011FA00EF75F005A424D5F582E4341DF583E49354
:10120A00FE74002FF582E43400F583EEF00FBF057B
:10121A00DF1219089000067401F0A3F090006D74B3
:10122A00FFF0A3F0E4FFEF901DF793FE74082FF58B
:10123A0082E43400F583EEF00FBF2BEA7F807E252F
:10124A007D007C00121CD07535027F807E257D00D2
:10125A007C0012165B753600753700753800E4F5A8
:10126A0039F53A7B017A00794E7D10FC1222DF7B38
:10127A00FF7A1A79357F01121BDB7BFF7A227945C7
:10128A007F02121BDB7BFF7A1E79807F03121BDB36
:10129A007BFF7A2179007F04121BDB7BFF7A0B79B3
:1012AA008B7F07121BDB7BFF7A2379C97F0A121B0C
:0912BA00DB12273212220780FB2F
:0926F4008B88898C88898F888904
:1010B3005200F18686008686008686008686008634
:0910C30086008686004100E60962
:03002B0002272683
:0627260053BCEFD20F329C
:0209DF00154BB6
:1009E100200F03020B88C20F9000E5E0B40900401C
:1009F10003020B6A9009FCF8282873020A43020AD1
:100A010017020A29020A55020A17020A29020A6C68
:100A1100020A17020A29AFBDEFFEADBE7C00E42D2C
:100A2100FFEC3E9000E7803CAFBDEFFEADBE7C0029
:100A3100E42DFFEC3E9000E9F0A3EFF0751A0102FE
:100A41000B70AFBDEFFEADBE7C00E42DFFEC3E9020
:100A510000EB8010AFBDEFFEADBE7C00E42DFFECDE
:100A61003E9000EDF0A3EFF0020B70AFBDEFFEADD5
:100A7100BE7C00E42DFFEC3E9000EFF0A3EFF09080
:100A810000EFE0FEA3E07807CEC313CE13D8F9A898
:100A91004BF6C394065013A84BE675F003A424F15A
:100AA100F582E43400F583E014F09000E6E014F000
:100AB1006003020B707409F0A84BE4F6A84BE6FF43
:100AC100C394064003020B70EF75F003A424F1F503
:100AD10082E43400F583E0C39480502AE6FF75F088
:100AE10003A424F2F582E43400F583E0D39480403A
:100AF10040EF75F003A424F3F582E43400F5837428
:100B010001F0F51B802BA84BE6FF75F003A424F23E
:100B1100F582E43400F583E0C394805014EF75F05E
:100B210003A424F3F582E43400F5837402F0751B09
:100B310001A84BE6FF75F003A424F1F582E434002B
:100B4100F583E0FEEF75F003A424F2F582E43400AE
:100B5100F583EEF0E675F003A424F1F582E43400A8
:100B6100F5837486F006020ABD9000E574FFF090EB
:100B710000E5E0D39407400374FFF09000E5E00442
:070B8100F09026F493F5BC8F
:030B8800054B22F8
:0226A800154BD0
:0926AA00A84BA61BE4F51BE6FF9A
:0326B300054B22B2
:0226B600154BC2
:0926B800A84BA61AE4F51AE6FF8E
:0326C100054B22A4
:1022AE008F9D75BC88439720D2AD9000BC74FFF013
:1022BE00A37409F0A374DFF0A374FFF0A37426F0E7
:1022CE00A374A8F0A374FFF0A37426F0A374B6F061
:0122DE0022DD
:070003007B017A0079E7227E
:1020BA00C3EF64809480403BD3EF648094855033AF
:1020CA00EFFD3395E0FC9000F375F003ED1203BBCE
:1020DA00EC75F003A42583F583E0FE9000F375F018
:1020EA0003ED1203BBEC75F003A42583F583E4F03A
:0520FA00AF06227F0388
:0120FF0022BE
:04241C00154B154BFC
:10242000122706A84BA60608A607A84BE6FE08E654
:0F243000FF4E600BEF24FFFFEE34FFFE12270F6D
:05243F00054B054B22D6
:10251E0053B1EF43B21012003EE4F5D975DA49D249
:10252E00DE9000B674FFF0A37424F0A3741CF022A6
:081C58008E338F348C358D367C
:101C6000122706EF4E7066AF36AE3512270FC3E56A
:101C700034940AE5339400404BE47B18FAF9F89069
:101C80001DB712039F1202E6C006C007AE33AF3481
:101C9000AB07AA06E4F9F8D007D0061202E6AB07B4
:101CA000AA06AFF9EFFEADE97C00E42DFFEC3ECFD4
:101CB0002BCF3AAD07FCAF03AE0212265AD2D8435F
:0F1CC000DA01800612003E53DAFE7F02227F0314
:011CCF0022F2
:0C26D200122706EF4E7002FF227F01224B
:1014AE00E4F58090014EE0FFB40800505F9014C246
:1014BE00F82828730214DA0214E00214E60214EC7F
:1014CE000214F20214FC021506021510C2A3C2A2E7
:1014DE008016C2A3C2A2801AC2A3C2A2801EC2A339
:1014EE00C2A28022C2A3D2A2C2A1C2A08020C2A345
:1014FE00D2A2C2A1D2A08016C2A3D2A2D2A1C2A051
:10150E00800CC2A3D2A2D2A1D2A08002D2A3C3EFDA
:10151E0064809488502990014EE0FF3395E0FE746C
:10152E00452FF58274013EF583E0FF3395E0FE749E
:10153E00BB2FF582741D3EF583E493F580801E90DB
:10154E00014EE0FFB408133395E0FE74452FF5828B
:10155E0074013EF583E0F5808003E4F5809001444C
:10156E00E0FF90014EE004FEF0D3EF6480F8EE64ED
:10157E0080984014E0D36480948850047408F0225C
:09158E00900143E090014EF022AF
:1025B700E4F5937594FF5395F043960F9000A1743B
:0B25C700FFF0A37414F0A374AEF02228
:0926FD00900143EFF0A3EDF0227F
:10253E00900145EFF0A3EDF0A3EBF0A3E535F0A38A
:10254E00E536F0A3E537F0A3E538F0A3E539F02240
:06272C0090014DEFF022C8
:1010CC000149004901509494009494009494004177
:0310DC00014F1EA3
:020F8D00154B02
:100F8F0020B206900150E014F020B306900153E018
:100F9F0014F0209706900156E014F090014FE014E2
:100FAF00F060030210AD741EF0A84BE4F6A84BE6F8
:100FBF00FFC36480948340030210ADEF3395E0FECE
:100FCF0090015075F003EF1203BBEE75F003A425EB
:100FDF0083F583E0C39480503990015175F003EF8E
:100FEF001203BBEE75F003A42583F583E0D3948041
:100FFF00405AE6FF3395E0FE90015275F003EF1271
:10100F0003BBEE75F003A42583F5837401F0F54956
:10101F00803AA84BE6FF3395E0FE90015175F0033F
:10102F00EF1203BBEE75F003A42583F583E0C394A1
:10103F0080501990015275F003EF1203BBEE75F05B
:10104F0003A42583F5837402F0754901A84BE6FFCD
:10105F00FD3395E0FC90015075F003ED1203BBECEE
:10106F0075F003A42583F583E0FE90015175F0031D
:10107F00ED1203BBEC75F003A42583F583EEF0EFBF
:10108F003395E0FE90015075F003EF1203BBEE7540
:0E109F00F003A42583F5837494F006020FBCC1
:0310AD00054B22CE
:0226C400154BB4
:0926C600A84BA649E4F549E6FF22
:0326CF00054B2296
:10257E009000A774FFF0A37426F0A374C4F090002B
:0D258E00A474FFF0A3740FF0A3748DF0226D
:10218800EF600764016003BF0233EFFD3395E0FCA5
:1021980090015275F003ED1203BBEC75F003A42512
:1021A80083F583E0FE90015275F003ED1203BBEC5A
:0F21B80075F003A42583F583E4F0AF06227F03BF
:0121C70022F5
:1010DF0055010400000000000000000000000000A7
:0C10EF00000000000000000041010300B0
:0203CD00154BCE
:1003CF00A84BE4F6A84BE6FFC36480948340030276
:1003DF00063EEF3395E0FE90010475F007EF120330
:1003EF00BBEE75F007A42583F583E0FCA3E04C700A
:1003FF000302063890010675F007EF1203BBEE7586
:10040F00F007A42583F583E0FEA3E04E70030206F8
:10041F0038E6FFFD3395E0FC90010875F007ED120B
:10042F0003BBEC75F007A42583F58374FFF5F01279
:10043F00022F45F0600302063890010675F007EDB4
:10044F001203BBEC75F007A42583F583E0FAA3E054
:10045F00FB90010875F007ED1203BBEC75F007A4D4
:10046F002583F583EAF0A3EBF0EF3395E0FE9001DF
:10047F000475F007EF1203BBEE75F007A42583F5A3
:10048F0083E0FCA3E0D39400EC648094804056A8F2
:10049F004BE6FD3395E0FC90010475F007ED120378
:1004AF00BBEC75F007A42583F58374FFF5F01202FA
:1004BF002F90010A75F007ED1203BBEC75F007A43E
:1004CF002583F583E004F0D3648094834072900118
:1004DF000A75F007EF1203BBEE75F007A42583F53D
:1004EF0083E4F0805BA84BE6FFFD3395E0FC9001C1
:1004FF000475F007ED1203BBEC75F007A42583F527
:10050F0083E475F00112022F90010A75F007ED12C6
:10051F0003BBEC75F007A42583F583E014F0C364E7
:10052F00809480501BEF3395E0FE90010A75F00721
:10053F00EF1203BBEE75F007A42583F5837403F068
:10054F00A84BE6FFFD3395E0FC90010A75F007ED2F
:10055F001203BBEC75F007A42583F583E014603C10
:10056F00146066147003020605240360030206304C
:10057F00EF14601014601924026003020630D2C118
:10058F00C2C28029900103E054F04401F00206300A
:10059F00900103E0540F4410F0020630A84BE6140C
:1005AF00601114601924027078C2C1D2C2C2C3C2D2
:1005BF00C4806E900103E054F04402F08063900118
:1005CF0003E0540F4420F08058A84BE61460111438
:1005DF0060192402704BC2C1C2C2D2C3C2C48041CF
:1005EF00900103E054F04404F08036900103E0548E
:1005FF000F4440F0802BA84BE614601114601924AF
:10060F0002701EC2C1C2C2C2C3D2C4801490010301
:10061F00E054F04408F08009900103E0540F448047
:0F062F00F0900103E0FF12272CA84B060203D323
:03063E00054B2247
:1026040053B3E143B41E53C0E19000CB74FFF0A375
:082614007403F0A374CDF02261
:101710008F4AEF3395E0FE90010475F007EF120356
:10172000BBEE75F007A42583F583E0FEA3E04E60D1
:10173000030217B8E54A600A64016006E54A6402DC
:101740007076ED60737C007E037FE81201A4AD4AE1
:10175000ED3395E0FC90010675F007ED1203BBEC4C
:1017600075F007A42583F583EEF0A3EFF090010652
:1017700075F007ED1203BBEC75F007A42583F58324
:10178000E0FEA3E0FF90010875F007ED1203BBEC4B
:1017900075F007A42583F583EEF0A3EFF090010424
:1017A00075F007ED1203BBEC75F007A42583F583F4
:0B17B000EAF0A3EBF07F02227F03228F
:10202B00EF600764016003BF023AEFFD3395E0FCFC
:10203B0090010475F007ED1203BBEC75F007A425B6
:10204B0083F583E0FAA3E0FB90010475F007ED1232
:10205B0003BBEC75F007A42583F583E4F0A3F0AE86
:07206B0002AF0322E4FEFFB7
:01207200224B
:10227C00EF600764016003BF0225EF3395E0FE9029
:10228C00010475F007EF1203BBEE75F007A425836C
:10229C00F583E0FEA3E04E60037F01227F00227FE6
:0222AC0003220B
:1010FB004100770A4100A00A4100E40A040E0000F7
:10110B0000000114004600DE0000FFFF8FFFC10D41
:10111B00C105C108C101C10E6024007CFF000AFF9C
:10112B00000AFF000AFF000AFF000AFF000AFF0087
:10113B000AFF000AFF000AFF000AFF000AFF000A6D
:10114B00603600A1FF000AFF000AFF0026FF000A1D
:10115B00FF0026FF000AFF0026FF000AFF000AFF20
:10116B00000AFF0026FF0026FF0026FF0026FF00D7
:0A117B000AFF000AFF000AFF000A45
:01000A0022D3
:030026007F002236
:10207300438E805389F07BE07A2879017800901DA4
:10208300B712039F122144EFF404F58A7BE07A2808
:1020930079017800901DB712039F122144C3E49F76
:1020A300FFE49EFE74019DFDE49CFC780812038B03
:0720B3008F8CD28CD2A92210
:03000B00021FD9F8
:041FD900C0E0C0D0D4
:101FDD00D5080A75084C300D020514D20DA20372F6
:101FED00045036150AE50A7030850C0AD207300AFE
:101FFD0017E50D6007150D438F01801D538FFEC230
:10200D00B5D51615C20A8011050BE50BD394064004
:09201D0008C203E5136002D206BB
:05202600D0D0D0E03233
:101F3400300E47C20E901DB712039F781012038B08
:101F44008E1C8F1D90007AE0FEA3E0FFE4FCFD7B75
:101F540019FAF9F812025BC006C007AE1CAF1DAB3C
:101F640007AA06E4F9F8D007D00612214478031230
:101F7400038B9000DCEEF0A3EFF09000DCE0FEA316
:021F8400E0FF7C
:011F86002238
:092706009000DEE0FEA3E0FF22DA
:09270F009000DEEEF0A3EFF022D1
:10265A009000E2EEF0A3EFF09000E0ECF0A3EDF0D2
:01266A00224D
:03003E00C2B42227
:03003B000217BBEE
:1017BB00C0E0C083C082C0D075D000C004C005C0DB
:0317CB0006C0074E
:1017CE0030DF04C2DF807D30DA04C2DA807630D9B1
:1017DE003DC2D9AFFBEFFEADEB7C00E42DFFEC3E3E
:1017EE0020000E900078F0A3EFF075DB11D2008090
:1017FE0053FE900078E0FCA3E0FDC3EF9DFFEE9C4E
:10180E00A3F0A3EFF075DB00C200D20E803630D805
:10181E0033C2D89000DEE07002A3E06022B2B49032
:10182E0000E0E0FEA3E0F5EAEEF5FAA3E0FEA3E0A9
:10183E00FF9000E1E02FF09000E0E03EF08005C266
:04184E00B453DAFEB7
:10185200D007D006D005D004D0D0D082D083D0E03B
:011862003253
:06273200122073D2AF2259
:101B50003004047F0180027F00200A047E0180029D
:101B60007E00EE5F6074E515C3950950683002365B
:101B7000750D01E515131313541FAB17AA18A919F6
:101B8000F582758300120155FFE515540704FEEF39
:101B9000A806088002C333D8FC30D7057516038029
:101BA0002F751601802AAB17AA18A91975F002E53E
:101BB00015A4F58285F083120155F50DE51575F034
:101BC00002A429F9EA35F0FA900001120155F51640
:0A1BD0000515D20A22C204438F104B
:011BDA0022E8
:1013C100900077E014F0701F740AF0D2059000A02D
:1013D100E014F07012740AF0D2089000E4E014F006
:1013E1007005740AF0D2019000A1A3E0FAA3E0F91C
:1013F1001203C79000A4A3E0FAA3E0F91203C79077
:1014010000B0A3E0FAA3E0F91203C79000BCA3E087
:10141100FAA3E0F91203C79000CBA3E0FAA3E0F925
:101421001203C79000D4A3E0FAA3E0F91203C79016
:1014310000C2A3E0FAA3E0F91203C7EF600C900029
:1014410094A3E0FAA3E0F91203C79000C5A3E0FA60
:10145100A3E0F91203C7EF600E900097A3E0FAA38F
:10146100E0F91203C7D20BE512D394004016D5124E
:101471003030090C90009AA3E0FAA3E0F91203C7F7
:10148100D20C801D9000C8A3E0FAA3E0F91203C7B3
:10149100EF600E90009AA3E0FAA3E0F91203C7D21D
:0D14A1000C90007CA3E0FAA3E0F90203C761
:1019A2009000B6A3E0FAA3E0F91203C79000B9A32E
:1019B200E0FAA3E0F91203C79000AAA3E0FAA3E0B9
:1019C200F91203C790007FA3E0FAA3E0F91203C75C
:1019D2009000A7A3E0FAA3E0F91203C7EF600C900E
:1019E2000088A3E0FAA3E0F91203C79000ADA3E0D8
:1019F200FAA3E0F91203C7EF600C90008EA3E0FA9D
:101A0200A3E0F91203C79000BFA3E0FAA3E0F91222
:101A120003C7EF600C900091A3E0FAA3E0F9120370
:101A2200C730060EC20690009DA3E0FAA3E0F912A9
:031A320003C722C5
:1021C800900082A3E0FAA3E0F91203C79000B3A33A
:1021D800E0FAA3E0F91203C7EF600C90008BA3E0CC
:1021E800FAA3E0F91203C79000CEA3E0FAA3E0F93E
:0F21F8001203C79000D1A3E0FAA3E0F90203C7D6
:10239E00AF11AE10AD0FAC0E9000D71203AF900080
:1023AE00DBE514F0E4F511F510F50FF50EF51490CC
:0B23BE000085A3E0FAA3E0F90203C7CA
:10220700300705C207121B50300D05C20D1213C14E
:10221700300505C2051219A2300805C2081221C8E7
:10222700300105C20112239EE5112401F511E435A1
:0E22370010F510E4350FF50FE4350EF50E220C
:101BDB008B318A328933EFB40C005070901BEEF8C6
:101BEB00282873021C12021C17021C1C021C210247
:101BFB001C26021C2B021C30021C35021C3A021C38
:101C0B003F021C44021C4990007C803590007F8071
:101C1B0030900082802B9000858026900088802158
:101C2B0090008E801C90008B8017900091801290FA
:101C3B000094800D900097800890009A800390008C
:0D1C4B009DE531F0A3E532F0A3E533F02272
:072718007B017A0079D72252
:0411850041016101C2
:1025D200C295E4FEEF1392CC000000D29500EFC347
:0825E20013FFC2950EBE08ECC8
:0125EA0022CE
:10261C00E4FEEFC313FF30CC03430780D2950000D8
:07262C0000C2950EBE08EB91
:012633002284
:10237000F07F85122383A3EFF07F87122383A3EFDF
:03238000F07F8962
:10238300C296000000C295000000D296001225D22A
:0A23930012261CD295000000C2962D
:01239D00221D
:03255E00A3E0FDFA
:10256100C296000000C295000000D296001225D24A
:0D257100AF051225D2D295000000C29622BF
:07271F007B017A01795A22C7
:1025EB00785A7C017D017B007A0079387E007F0769
:0925FB00120116E4900161F022C6
:10264800EFD3941F5009EF25E044C1FF0223837F95
:0226580001225D
:1023F300AC07AB05ECD3941F501CE4FD7F8E122574
:1024030061EC25E044C0FFAD031225617D807F8E22
:092413001225617F00227F0122E5
:02186300154B23
:10186500900161E060447F81122383A84BEFF690DD
:10187500015AE06F7003021905A84BE6F07F831249
:101885002383A84BEFF6A3E06F6075A84BE6122300
:1018950070A3EFF07F8D122383900160EFF07F8BB3
:1018A50012238390015FEFF08056900159E0FF0409
:1018B500F0EFC3940A4049E4F090016104F0E4FDBF
:1018C5007F8E12256190015AE0FD7F801225617F90
:1018D5008212255E7F8412255EA3E0FD7F86122598
:1018E50061A3E0FD7F88122561A3E0FD7F8A1225B3
:1018F50061A3E0FD7F8C1225617D807F8E122561BD
:03190500054B226D
:1012C3007F8112238390015AEFF07F83122383A33C
:1012D300EF122370A3EFF07F8B122383A3EFF07F32
:1012E3008D122383A3EFF0E4FD7F8E1225617F1E11
:1012F300122648EF64A560047F0180027F009001FD
:101303005AE05480FEA3E0D3945940047D01800247
:101313007D00ED4EFE90015CE0D394A440047D017A
:1013230080027D00ED4EFE90015DE0D394314004D8
:101333007D0180027D00ED4EFE90015EE0D39412AC
:1013430040047D0180027D00ED4EFE90015FE0D3FD
:10135300940740047D0180027D00ED4EFE90016004
:10136300E0D3949940047D0180027D00ED4E4F60EF
:101373003078387C007D007B007A0079317E007FF5
:10138300071201161225EB7DA57F1E1223F3785A4F
:101393007C017D017B007A0079317E007F07120199
:1013A300167DA97F901225617D807F8E1225619025
:0E13B30000D174FFF0A37418F0A37463F0224D
:10266B00D2C0000000D2CD000000C2C0000000228A
:0D002E00C2C0000000D2CD000000D2C022F0
:0B2492001224B612249DAF051224B6E0
:10249D00E4FFD2CD30C009EFC394FF50030F80F499
:0824AD00000000C2CD00000098
:0124B5002204
:1024B600E4FEEF25E0FFC2CD00000092C000000060
:1024C600D2CD0000000EBE08E9C2CD000000D2C089
:0324D60000000003
:0124D90022E0
:1024FC00C2CD000000D2C000E4FED2CD0000EF251A
:10250C00E0FDA2C0E4334DFF0000C2CD000EBE08BA
:01251C00E9D5
:01251D00229B
:10000E00AC0712266B7FA01224B612249DAF0412E9
:05001E00249202002EF7
:02259B00AD078A
:10259D0012266B7FA012249212266B7FA11224B6F5
:0925AD0012249D1224FC12002EE0
:0125B6002202
:1011890055011900000000000000000000000000E7
:0811990000000100000000004D
:0300430002064171
:10064100C0E0C0F0C083C082C0D075D000C000C07F
:1006510001C002C003C004C005C006C007E59A304E
:10066100E142539AFD90011EE0FEA3E0FFC3900119
:100671001DE09F90011CE09E501F900119E0FBA31B
:10068100E0FAA3E0F9A3E475F00112024585F082D6
:10069100F583120155F59B800B900120E4F0E51FD5
:1006A1006002C2B7E59A20E0030207F8539AFE30D0
:1006B1000C0BC20C900126E4F0A3F0D209E51F64F3
:1006C100026003020752900124E0FEA3E0FFA3E0D1
:1006D100FCA3E0FDC39FEC9E5071900121E0FBA3C0
:1006E100E0FAA3E0F98D828C83E59B1201829001EF
:1006F1002CE0FEA3E0FFC3ED9FEC9E50409001244F
:10070100E0FCA3E0FDEF9DEE9C5032900129E0FB5F
:10071100A3E0FAA3E0F9900126E0FEA3E0FFF58251
:100721008E83120155FD900121E0FBA3E0FAA3E0C5
:10073100F98F828E831201556D6002C209900127E3
:10074100E004F07006900126E004F0851E12020715
:10075100F8900124E0FEA3E0FFA3E0FCA3E0FDC3C9
:100761009FEC9E5077900121E0FBA3E0FAA3E0F912
:100771008D828C83E59B12018290012CE0FEA3E027
:10078100FFC3ED9FEC9E5046900124E0FCA3E0FDE9
:10079100EF9DEE9C5038900129E0FBA3E0FAA3E025
:1007A100F9900126E0FEA3E0FFF5828E8312015548
:1007B100FD900121E0FBA3E0FAA3E0F98F828E8393
:1007C1001201556D600890012674FFF0A3F09001AD
:1007D10027E004F07006900126E004F0900124E087
:1007E100FEA3E0FFC3900127E09F900126E09E4019
:1007F100069001287401F0D007D006D005D004D0AE
:1008010003D002D001D000D0D0D082D083D0F0D09C
:02081100E032D3
:02268A00154BEE
:0A268C00900128E0A84BF6FFE4F0EF
:03269600054B22CF
:0100290022B4
:10165B008F348E338D328C3185351FE51F700280B0
:10166B000343BA01E51F70179000D474FFF0A37405
:10167B0000F0A37429F0E4F5DBD290D2918020C264
:10168B00B7AB34AA33A932A831E47F407E9CFDFC72
:10169B001202E68F1EE51E7003751E01851E127564
:1016AB009A10E47B04FAF9F8901DB712039F12020B
:1016BB00E6AB34AA33A932A8311202E6EFF404F5F3
:1016CB00D7E47B04FAF9F8901DB712039F1202E6D8
:1016DB00AB34AA33A932A8311202E6C3E49FFFE46C
:1016EB009EFE74019DFDE49CFC78081203788FD656
:1016FB00438E1443AF019000C874FFF0A37426F01F
:05170B00A3748AF02226
:1022DF00900121EBF0A3EAF0A3E9F0A3ECF0A3ED5A
:1022EF00F090012CE539F0A3E53AF0900129E5369D
:1022FF00F0A3E537F0A3E538F0D20CE4900128F015
:01230F0022AB
:10234100900120E07026900119EBF0A3EAF0A3E9D7
:10235100F0E4A3F0A3F0A3ECF0A3EDF0A37401F07B
:0F236100E51F6002D2B7439A027F02227F032258
:0B26DE00900120E07002FF227F01222B
:1011A10055012E00000000000000000000000000BA
:0811B100000001000000000035
:03002300020E5D6D
:100E5D00C0E0C0F0C083C082C0D075D000C000C05B
:100E6D0001C002C003C004C005C006C00730993BD5
:100E7D00C299900133E0FEA3E0FFC3900132E09FE1
:100E8D00900131E09E501F90012EE0FBA3E0FAA3EC
:100E9D00E0F9A3E475F00112024585F082F58312A5
:100EAD000155F5998005900135E4F0209803020F66
:100EBD0072C298300B09C20B90013BE4F0A3F09085
:100ECD000139E0FEA3E0FFA3E0FCA3E0FDC39FEC2E
:100EDD009E5077900136E0FBA3E0FAA3E0F98D82F6
:100EED008C83E599120182900141E0FEA3E0FFC3DE
:100EFD00ED9FEC9E5046900139E0FCA3E0FDEF9D87
:100F0D00EE9C503890013EE0FBA3E0FAA3E0F9908F
:100F1D00013BE0FEA3E0FFF5828E83120155FD90AB
:100F2D000136E0FBA3E0FAA3E0F98F828E83120174
:100F3D00556D600890013B74FFF0A3F090013CE00B
:100F4D0004F0700690013BE004F0900139E0FEA33F
:100F5D00E0FFC390013CE09F90013BE09E40069076
:100F6D00013D7401F0D007D006D005D004D003D0D8
:100F7D0002D001D000D0D0D082D083D0F0D0E032DA
:02269900154BDF
:0A269B0090013DE0A84BF6FFE4F0CB
:0326A500054B22C0
:101CD0008F348E338D328C31759850438E40538EB5
:101CE000FE53890FE47B04FAF9F8901DB712039FA5
:101CF0001202E6AB34AA33A932A8311202E6EFF49D
:101D000004F58BE47B04FAF9F8901DB712039F12D7
:101D100002E6AB34AA33A932A8311202E6C3E49F2B
:101D2000FFE49EFE74019DFDE49CFC78081203789C
:101D30008F8DC2ABD28ED2AC9000C574FFF0A3746D
:071D400026F0A37499F022C4
:10231000900136EBF0A3EAF0A3E9F0A3ECF0A3ED13
:10232000F0900141E547F0A3E548F090013EE54417
:10233000F0A3E545F0A3E546F0D20BE490013DF0B3
:01234000227A
:10244400900135E0701F90012EEBF0A3EAF0A3E9B0
:10245400F0E4A3F0A3F0A3ECF0A3EDF0A37401F077
:08246400D2997F02227F0322BE
:0B26E900900135E07002FF227F01220B
:03000000021AC41D
:0C1AC400787FE4F6D8FD75814B021B0B07
:10004600E709F608DFFA8046E709F208DFFA803E9C
:1000560088828C83E709F0A3DFFA8032E309F60889
:10006600DFFA8078E309F208DFFA807088828C83F1
:10007600E309F0A3DFFA806489828A83E0A3F608A5
:10008600DFFA805889828A83E0A3F208DFFA804C7F
:1000960080D280FA80C680D4806980F28033801056
:1000A60080A680EA809A80A880DA80E280CA8033BF
:1000B60089828A83ECFAE493A3C8C582C8CCC58337
:1000C600CCF0A3C8C582C8CCC583CCDFE9DEE78007
:1000D6000D89828A83E493A3F608DFF9ECFAA9F086
:1000E600EDFB2289828A83ECFAE0A3C8C582C8CCDC
:1000F600C583CCF0A3C8C582C8CCC583CCDFEADEF5
:10010600E880DB89828A83E493A3F208DFF980CC56
:1001160088F0EF60010E4E60C388F0ED2402B4044F
:100126000050B9F582EB2402B4040050AF232345F6
:0601360082239000967385
:10013C00BB010689828A83E0225002E722BBFE02C1
:09014C00E32289828A83E49322F4
:10015500BB010CE58229F582E5833AF583E022505F
:1001650006E92582F8E622BBFE06E92582F8E222A9
:0D017500E58229F582E5833AF583E49322C3
:10018200F8BB010DE58229F582E5833AF583E8F0B3
:10019200225006E92582C8F622BBFE05E92582C85F
:0201A200F22247
:1001A400BC000BBE0029EF8DF084FFADF022E4CC3F
:1001B400F875F008EF2FFFEE33FEEC33FCEE9DEC08
:1001C400984005FCEE9DFE0FD5F0E9E4CEFD22ED4E
:1001D400F8F5F0EE8420D21CFEADF075F008EF2F98
:1001E400FFED33FD4007985006D5F0F222C398FD89
:0501F4000FD5F0EA2226
:1001F900C2D5EC30E709B2D5E4C39DFDE49CFCEE21
:1002090030E715B2D5E4C39FFFE49EFE1201A4C3F3
:10021900E49DFDE49CFC80031201A430D507C3E4EE
:060229009FFFE49EFE228F
:10022F00C5F0F8A3E028F0C5F0F8E582158270025A
:06023F001583E038F022F7
:10024500A3F8E0C5F025F0F0E5821582700215836C
:06025500E0C838F0E822C9
:10025B00E88FF0A4CC8BF0A42CFCE98EF0A42CFC42
:10026B008AF0EDA42CFCEA8EF0A4CDA8F08BF0A4C0
:10027B002DCC3825F0FDE98FF0A42CCD35F0FCEB1F
:10028B008EF0A4FEA9F0EB8FF0A4CFC5F02ECD39E4
:0F029B00FEE43CFCEAA42DCE35F0FDE43CFC2251
:1002AA0075F008758200EF2FFFEE33FECD33CDCC0B
:1002BA0033CCC58233C5829BED9AEC99E58298408E
:1002CA000CF582EE9BFEED9AFDEC99FC0FD5F0D66B
:1002DA00E4CEFBE4CDFAE4CCF9A88222B800C1B995
:1002EA000059BA002DEC8BF084CFCECDFCE5F0CBD3
:1002FA00F97818EF2FFFEE33FEED33FDEC33FCEB0C
:10030A0033FB10D703994004EB99FB0FD8E5E4F9C6
:10031A00FA227818EF2FFFEE33FEED33FDEC33FCB3
:10032A00C933C910D7059BE99A4007EC9BFCE99AA7
:10033A00F90FD8E0E4C9FAE4CCFB2275F010EF2FEC
:10034A00FFEE33FEED33FDCC33CCC833C810D707EC
:10035A009BEC9AE899400AED9BFDEC9AFCE899F827
:0E036A000FD5F0DAE4CDFBE4CCFAE4C8F922BA
:10214400C2D5E830E70FB2D5E4C39BFBE49AFAE4C6
:1021540099F9E498F8EC30E717B2D512217A120213
:10216400E6E4C39BFBE49AFAE499F9E498F8800363
:102174001202E630D50DE4C39FFFE49EFEE49DFD0C
:04218400E49CFC22B9
:10037800E8600FECC313FCED13FDEE13FEEF13FF63
:03038800D8F12287
:10038B00E86010ECA2E713FCED13FDEE13FEEF1388
:04039B00FFD8F02275
:10039F00E493FC740193FD740293FE740393FF22A4
:0C03AF00ECF0A3EDF0A3EEF0A3EFF022C1
:0C03BB00A42582F582E5F03583F583224D
:0603C7008A838982E473C1
:101AD0000211BAE493A3F8E493A34003F68001F261
:101AE00008DFF48029E493A3F85407240CC8C33317
:101AF000C4540F4420C8834004F456800146F6DFE6
:101B0000E4800B01020408102040809010B0E47EB5
:101B1000019360BCA3FF543F30E509541FFEE493DA
:101B2000A360010ECF54C025E060A840B8E493A3A1
:101B3000FAE493A3F8E493A3C8C582C8CAC583CACC
:101B4000F0A3C8C582C8CAC583CADFE9DEE780BE84
:0111B9000035
:00000001FF
