:10145A0000A8C0003F065B4F666D7D077F6F0008DE
:10146A0040014148BF86DBCFE6EDFD87FFEF1C0A4E
:10147A002801000000010101070017010200003BDA
:10148A0001023C0AC80A012508250825082608255C
:10149A0008230822082110250825082508260825DA
:1014AA0008230822082210260826082608270826C4
:1014BA0008250824082308230822082308250823C6
:1014CA0010000824082408250826082508231024C3
:1014DA0008240825082608250824082308220821A4
:1014EA002035083108350831083508310835083102
:1014FA00080203AA41434B20733D30303020743D2B
:10150A00303020723D303020643D3030300D0A00DA
:10151A0043464720543D303020413D3020483D303D
:10152A0030204D3D3030204E3D3030300D0A000025
:10153A003021010902265B30303A30303A30305DD2
:10154A0020542B303030204C30204630303020446C
:10155A00303030204130204F303020453030300D8F
:10156A000A005354412042463D3030302042503D1B
:10157A003030302043463D3030302043533D302018
:10158A00563D30303020443D3030302043503D30DD
:10159A0030302041503D303030204C3D30303030FA
:0E15AA00302052423D302052433D300D0A00A9
:071A7300013B014100FC01F1
:0634F2007B017A0079FF66
:0D34F800900001120165FD12014CFEEDFF78
:0135050022A3
:082BB4008B2E8A2F89308D3130
:102BBC0074FFF532F533E4FDEDC39531503EAB2E89
:102BCC00AA2FA9308D827583001201656233E4FC53
:102BDC00E53330E015E532C313FEE53313FFEE6445
:102BEC00A0F532EF6401F533800BE532C313F532F7
:102BFC00E53313F5330CBC08D70D80BCAE32AF33C4
:012C0C0022A5
:0F355900EFC4540F75F00AA4FEEF540F2EFF229B
:10337C00AE031BEE601BED75F00A84EF2B24C8F531
:10338C0082E43400F583E5F0F0ED75F00A84FD80FD
:02339C00DF222E
:102CB8008C258D26AA07C3E525648094805005E4F9
:102CC800F525F526D3E52694E7E525648094834029
:102CD800067525037526E7AE25AF267C007D6412B0
:102CE800021BAD07AF027B0112337CEA04FFC00769
:102CF800AE25AF267C007D6412021BD0077B020242
:022D0800337C1A
:1024DB00E4FF12343DEF64A56003022574E4F52597
:1024EB00F524E52404FF12343D74262524F8A607B1
:1024FB0074262524F8E62525F5250524E524C39423
:10250B000540DF7F0612343DEF6525705CE4F52452
:10251B00E52475F005A42479F582E43414F583E4FD
:10252B0093FF74262524F8E6FEC39F403CE52475F3
:10253B00F005A4247AF582E43414F583E493FFEEDA
:10254B00D39F50250524E524B405C5E4F524742652
:10255B002524F8E6FF74002524F582E43400F58386
:09256B00EFF00524E524B405E5B8
:012574002244
:102AFD00853A24E524B401067DA5E4FF8035E5245F
:102B0D00D394065013E52414FF74FE2524F582E4B6
:102B1D0034FFF583E0FD801BE4FDF52474002524CE
:102B2D00F582E43400F583E02DFD0524E524B4059C
:102B3D00EB7F0612000E053AE53AD39407400DE4FB
:0C2B4D00F53A7D0FFC7FA07E0F1228C817
:012B59002259
:102E3100900081E0703D900005E06F6036900005E4
:102E4100EFF07BFFBF01137A147991752F00753074
:102E51005A7531F07DFC7F7880117A1479EB752FEA
:102E6100007530107531F07DFC7FC8122C0D7F018B
:042E7100123298225F
:063529009000817401F026
:0A352F00E4900005F07F03023298DB
:1027C300EF9014FB939000DAF0E49000DCF0A3F0B8
:1027D300A3F0A3F09000FAE060129000BCE0B5070C
:1027E3000B9000DB7406F0900008801974092FF534
:1027F30082E43400F583E060259000DB7410F0EF91
:10280300700A900000E09000DCF08018900001E076
:102813009000DCF0900004E09000DDF08006900072
:10282300DB7403F07B017A0079DA7D06122BB4ACFA
:1028330006EF9000E0F0AF04A3EFF07B017A00799C
:08284300DA7D087C0002316B14
:1032E800AE031BEE601FED75F00A84E5F02430FE96
:1032F800EF2B2483F582E43400F583EEF0ED75F0CE
:063308000A84FD80DB22B7
:102EFD00AC05AA079000F9E0FD7B037F061232E8CE
:102F0D009000FBE0FD7B027F0C1232E8AD027B02EC
:102F1D007F111232E8AD047B037F161232E8900068
:102F2D00F67401F0E49000F9F09000E2F09000FAF0
:022F3D00F02280
:102390001235CAEF6003022435900000E0FD75F0AD
:1023A0000A8424309000A4F0ED75F00A84E5F0244E
:1023B00030A3F0900001E060047F0180027F00EF15
:1023C00024309000A9F0900002E0FD75F00A84240A
:1023D000309000ADF0ED75F00A84E5F02430A3F004
:1023E000900003E0FD75F00A8424309000B2F0ED17
:1023F00075F00A84E5F02430A3F0900004E0FD7548
:10240000F0648424309000B7F0ED75F00A8475F024
:102410000A84E5F02430A3F0900004E075F00A840B
:10242000E5F024309000B9F07B017A00799E7D1EA2
:062430007C001232C02204
:10096A007B017A0079BD7D08122BB49000C5E06F37
:10097A006003020B81AF069000C6E06F6003020BB2
:10098A00819000BEE0FF7003020B819000F9EFF046
:10099A009000BFE09000FBF09000C0E0641160039B
:0309AA00020A5EE0
:1009AD00A3E0FDD394174003020AE19000C2E0FDDD
:1009BD00D3943B4003020AE19000C3E0FDD3943B86
:1009CD004003020AE112360978277C007D007E0083
:1009DD007F071201269000C1E0FF75F00A84C45410
:1009ED00F0FEEF75F00A84E5F04EF529A3E0FF75F2
:1009FD00F00A84C454F0FEEF75F00A84E5F04EF56C
:100A0D0028A3E0FF75F00A84C454F0FEEF75F00AD8
:100A1D0084E5F04EF527782E7C007D007B007A0072
:100A2D0079277E007F071201261234A978D37C0026
:100A3D007D017B007A0079277E007F07120126E475
:100A4D009000F8F07D08FC7FB87E0B1228C8020BD1
:010A5D004D4B
:100A5E009000C0E0F96406705BA3E0F526A3E0F514
:100A6E0025E526C394024004AD268067E526701165
:100A7E00E525D394644015E52594FC500FAD2580F3
:100A8E0052E525D394024004AD258047AF2674016C
:100A9E00A807088002C333D8FC55437003020B6FBE
:100AAE009000BCE526F0900008E525F09000FA7461
:100ABE0001020B7AE964106007AD017F04020B722C
:100ACE009000C1E0F524A3E0F525E524C39405408C
:100ADE0007AD247F01020B72E52475F005A424797D
:100AEE00F582E43414F583E493FFE525C39F4018A3
:100AFE00E52475F005A4247AF582E43414F583E434
:100B0E0093FFE525D39F4006AD257F0180567400E7
:100B1E002524F582E43400F583E525F07D057C007F
:100B2E007FB87E0B1228C8E52475F005A4247CF549
:100B3E0082E43414F583E493F526C394024005E46D
:100B4E00FDFF802074092526F582E43400F58374B8
:100B5E0001F0AF26A807088002C333D8FC554370B6
:100B6E0006FD7F02022EFD9000BCE526F09000E20D
:030B7E007496F07A
:010B81002251
:101B91009000E3E0FFB40205E4F524800BEF640359
:101BA1006003021C96752401E524653D6003021C57
:101BB100969000E5E0FFE52460047E0C80027E0B38
:101BC100EE6F6003021C96E4FF74E52FF582E434A6
:101BD10000F583E0FEE52475F00CA424FDF582E414
:101BE1003400F583E5822FF582E43583F583EEF049
:101BF1000FBF0CD574D12524F582E43400F583E4BC
:101C0100F0AE2404A806088002C333D8FC424390F6
:101C110000E4E0FEB4100D74092524F582E43400DB
:101C2100F583E4F0E5247024900009E0701E900132
:101C310008E0FF901479E493FDEFC39D400EA3E407
:101C410093FDEFD39D5005900000EFF09000E2E08E
:101C510060199000BCE0B52412EE6410600790009A
:101C6100E4E0B40606E4FDFF122EFDE524640170F4
:101C71002490010DE0C3940240057F02122E3190A1
:101C8100000AE07010900110E07003FF80027F01F4
:051C9100900001EFF0DE
:011C9600222B
:1031F3007B017A0079E37D0E122BB49000F1E0B5E8
:10320300070BAF06A3E0B50704753901229000D080
:09321300E0C394FF5003E004F055
:01321C00228F
:101F6B00E5371460160470701235BFEF7079AF3D12
:101F7B001227C3E4F538753701806CE5396008E446
:101F8B00F539121B9180490538E538C3940F40573A
:101F9B0074D1253DF582E43400F583E0C3940350FE
:101FAB000E74D1253DF582E43400F583E004F07422
:101FBB00D1253DF582E43400F583E0C39403401052
:101FCB00AF3D7401A807088002C333D8FCF4524319
:101FDB00E4F538753702800F0538E538C3940540B2
:101FEB0006633D01E4F5379000F6E060171235CA41
:101FFB00EF70117B017A0079837D1BFC1232C0E4F8
:10200B009000F6F09000E2E0600B14F0E07006FD3B
:0D201B007F03122EFDE53A6003122AFD221C
:100F5500E4F52474C82524F582E43400F583740A85
:100F6500F00524E524B408EBE5351460511470034D
:100F750002101014700302106E2403600302109413
:100F85009000D5E0FFC4540F9000C8F0EF540FA3B4
:100F9500F0A3740CF09000D4E0FFC4540F9000CB84
:100FA500F0EF540FA3F0A3740CF09000D3E0FFC44E
:100FB500540F9000CEF0EF540FA3F00210CCE54390
:100FC50020E01BE4F52474C82524F582E43400F5FB
:100FD50083740CF00524E524B408EB0210CC12341C
:100FE500F2AD07AC06C3EC64809480500D9000C848
:100FF500740CF0C3E49DFDE49CFC7F01122CB890B9
:1010050000CAE02410F0900102807CE54320E11B3A
:10101500E4F52474C82524F582E43400F583740CC2
:10102500F00524E524B408EB0210CC90010AE0FF9A
:1010350030E0047E0180027E009000C8EEF0EF30C3
:10104500E1047F0180027F009000CAEFF090010D5E
:10105500E09000CCF07B017A01790B1234F8AC06F4
:10106500AD077F05122CB8805EE5406008E542605B
:10107500047F0A8002AF3B9000C8EFF074FF253B68
:10108500F582E434FFF583E0FD7B037F058035E5DC
:101095004330E0047F0180027F009000C8EFF0E557
:1010A5004330E1047F0180027F009000C9EFF0909A
:1010B5000107E0FD7B027F0312337C900114E0FD04
:1010C5007B027F0612337C9000C8E0FFA3E0FDA3FE
:1010D500E0FBA3E0F528A3E0F529A3E0F52AA3E0CA
:1010E500F52BA3E0F52C1233E07F02123075EF6487
:1010F500016028E4FFE54330E0010FE54330E103FB
:10110500430702900001E0600343070490010DE0EE
:0B111500C39402400343070812361683
:0111200022AC
:102A2E00E54330E0647F02123075EF6401605A9026
:102A3E0000FCE06025900101E0D39401501CE53CC0
:102A4E00C3941640157BC07AFF7D147F021221932A
:102A5E00EF640270349000FCF0229000FCE07029CC
:102A6E00900101E0C394034020E53C9406401AE532
:102A7E003C941650147B407A007D147F02122193F1
:0A2A8E00BF02069000FC7401F02264
:10330E00AE031BEE601FED75F00A84E5F02430FE6F
:10331E00EF2B240BF582E43400F583EEF0ED75F01F
:06332E000A84FD80DB2291
:04321D00E0FD7B0352
:10322100AE031BEE601FED75F00A84E5F02430FE5D
:10323100EF2B2436F582E43400F583EEF0ED75F0E2
:063241000A84FD80DB227F
:10303B008C248D25AA07AF031BEF602DAE24AF2583
:10304B007C007D0A1201C6ED2430FFEA2B2436F5F5
:10305B0082E43400F583EFF0AE24AF257C007D0ACB
:0A306B001201C68E248F2580CD22AD
:1015B8001235CAEF60030216F97B02AD3C7F0112B7
:1015C800330E7B02AD3E7F0412330E7B02AD3F7FAC
:1015D8000712330E1234F28E2A8F2BC3E52A648049
:1015E800948050047F2D80027F2B900017EFF0C36A
:1015F800E52A64809480500BC3E4952BF52BE49581
:101608002AF52AD3E52B94E7E52A648094834006DB
:10161800752A03752BE7AE2AAF2B7C007D64120276
:101628001BAD077B017F0D12330EAE2AAF2B7C005A
:101638007D6412021B7B027F0E12330E900101E0C3
:10164800FD7B017F1212330E900102E0FD7B037FC8
:101658001512330E7B017A01790B1234F88E2A8F1A
:101668002BC3E52A648094805005E4F52AF52BD332
:10167800E52B94E7E52A648094834006752A037570
:101688002BE7AE2AAF2B7C007D6412021BAD077BD3
:10169800017F1A12330EAE2AAF2B7C007D64120232
:1016A8001B7B027F1B12330E90010DE0FD7B017F37
:1016B8001F12330EE54330E0047F0180027F00EF04
:1016C800243090002DF0E54330E1047F0180027F53
:1016D80000EF243090002EF09000D0E0FD7B037FD7
:1016E8002612330E7B017A00790B7D2B7C00123297
:0116F800C031
:0116F90022CE
:10260F001235CAEF60030226A49000FE7F07123234
:10261F001D9001077F0E12321D90010AE0FD7B0312
:10262F007F15123221900110E0FD7B017F1C1232C9
:10263F002190010EE0FD7B037F2012322190010FCC
:10264F00E0FD7B037F26123221900114E0FD7B0316
:10265F007F2D1232219000F7E0FD7B037F34123281
:10266F0021900006E0FCA3E0FD7B057F3A12303B92
:10267F009000D1E0FD7B017F431232219000D2E028
:10268F00FD7B017F481232217B017A0079367D4B29
:06269F007C001232C02293
:102A98000541E541C394024013E4F5411236097833
:102AA800D37C007D017E007F071201260536E536BE
:102AB800C39403400FE4F536E54270047F018002B9
:102AC8007F008F429000C7E004F0C3940A4002E4FC
:102AD800F09000C7E0B40303122390900082E00452
:102AE800F0C3940A4002E4F0900082E0B4060312B6
:052AF800260F020F553E
:1020280012360278247C007D007E007F051201268E
:10203800E47FFF7EFFFDFCAB27AA26A925A824D3B1
:1020480012039A40067EFF7FFF8004AE26AF2790DA
:102058000006EEF0A3EFF09000F7E528F09000D529
:10206800E0FF1235598F3C9000D4E0FF1235598FAC
:102078003E9000D3E0FF1235598F3F900002E0B543
:102088003C20A3E0B53E1BE53FC3940250149000EA
:10209800F8E0701B04F0E4900081F07F01122E310B
:1020A800800D900003E0653E6005E49000F8F09034
:1020B8000005E0601B900081E07015123622EF6485
:0320C80001600DA7
:0D20CB00900005E0F529E4F0AF29122E3158
:0620D800122A2E0215B8C9
:102B5A00123628EFC3940340509000F3E0645A7091
:102B6A00489000F4E0FF64A5FEA3E06E703BEF24FA
:102B7A00FE60291460302402702F900001E0700476
:102B8A007F0180027F00900001EFF090000A74013B
:102B9A00F07D0A7C007FB87E0B0228C890010D7474
:0A2BAA0002F0FF022E31123529223D
:102E7500E4FF122F3FBF0111E53A700D753A017D50
:102E850005FC7FB87E0B1228C87F01122F3FBF01BA
:102E950022900001E070047F0180027F0090000114
:102EA500EFF090000A7401F07D0A7C007FD07E0768
:042EB5001228C822F5
:1012CD00E4FF122DEBBF010E1235297D057C007F49
:1012DD00DC7E050214567F03122DEBEF64017024A2
:1012ED00E535B4030EE54070047F0180027F008F69
:1012FD00408006753503E4F5407D057C007FB87EA2
:10130D000B0214567F01122DEBBF011EE540600E3E
:10131D00053BE53BD394054011753B01800C05352C
:10132D00E535D394044003E4F5357F04122DEBBF6E
:10133D00011DE540600E153BE53BC3940150107552
:10134D003B05800BE535700575350480021535E5D7
:10135D00407003021459E4F5257F05122DEBBF01F2
:10136D0005752501800D7F02122DEBEF64016003E1
:10137D00021459C3E53B9401F524E5256050E5249D
:10138D0075F005A4247BF582E43414F583E493FF12
:10139D00FD74002524F582E43400F583E02DFDE491
:1013AD0033FCE52475F005A4247AF582E43414F5B4
:1013BD0083E493FBD3ED9B7480F86C9850557400C7
:1013CD002524F582E43400F583E02FF08045E524F3
:1013DD0075F005A4247BF582E43414F583E493FFC2
:1013ED00E52475F005A42479F582E43414F583E43D
:1013FD00932FFE74002524F582E43400F583E0FD7F
:10140D00C39E400F74002524F582E43400F583C398
:10141D00ED9FF0E52475F005A4247CF582E43414E9
:10142D00F583E493FFC39402500D74092FF582E404
:10143D003400F5837401F0E52560067E0D7FAC80E8
:0C144D00047E097FC47D037C001228C8C7
:011459002270
:100B82001234757D07E4FF1235DE1234201233C0B1
:100B92001235681234C27F981230A778247C007D07
:100BA200007BFF7A1579397E007F07120126121C1D
:100BB2009712360978D37C007D017E007F071201EF
:100BC20026E4FF74FD2FF582E43400F583E4F0742B
:100BD200092FF582E43401F583E4F00FBF0CE4E45D
:100BE2009000D1F0A3F09000D0F0900006F0A3F0B6
:100BF2009000F7F0A3F0900081F0900005F0FFEF75
:100C020075F005A42478F582E43414F583E493FEA8
:100C120074002FF582E43400F583EEF00FBF05DF98
:100C22001224DB9000097401F0A3F090010B74FF11
:100C3200F0A3F0E4FFEF90154093FE740B2FF582C2
:100C4200E43400F583EEF00FBF2BEAE4FFEF9015DA
:100C52006C93FE74362FF582E43400F583EEF00FC8
:100C6200BF4BEAE4900082F07F807E25FDFC1229D2
:100C7200B7E49000F9F09000E2F09000FBF09000F1
:100C8200BCF09000FAF0900008F09000F6F09000AE
:020C9200C7F0A9
:100C9400F523E5239014FE93FF74832523F582E462
:100CA4003400F583EFF00523E523B41BE5E4F523D5
:100CB400E52390151A93FF749E2523F582E43400EE
:0B0CC400F583EFF00523E523B41EE5E7
:100CCF007529FF752A14752BFD752C00752D017B69
:100CDF00017A0079BD7D0A7C0012313A7528027FB6
:100CEF00807E257D007C001220DE752900752A008C
:100CFF00752B00E4F52CF52D7B017A0079E37D103F
:100D0F00FC1231097F2B1235497B017A0079F37D73
:100D1F00031235F97BFF7A1F796B7F0112284B7B0A
:100D2F00FF7A2A79987F0212284B7BFF7A20792845
:100D3F007F0312284B7BFF7A2E79757F0412284B85
:100D4F007BFF7A1279CD7F0712284B7BFF7A2B79A5
:100D5F005A7F0B12284B7BFF7A3179F37F0A1228C7
:100D6F004B7BFF7A09796A7F0912284B12361C12C6
:040D7F002FFD80FBC9
:0935D5008B88898C88898F888914
:101A7A0052018F86860086860086860086860086C4
:091A8A00860086860041018409F2
:03002B000236108A
:0636100053BCEFD20F32A3
:02112100154B6C
:10112300200F030212CAC20F900183E0B4090040EA
:10113300030212AC90113EF82828730211850211A4
:101143005902116B02119702115902116B0211AE70
:1011530002115902116BAFBDEFFEADBE7C00E42D51
:10116300FFEC3E900185803CAFBDEFFEADBE7C0041
:10117300E42DFFEC3E900187F0A3EFF075440102EC
:1011830012B2AFBDEFFEADBE7C00E42DFFEC3E908E
:1011930001898010AFBDEFFEADBE7C00E42DFFECF6
:1011A3003E90018BF0A3EFF00212B2AFBDEFFEADA4
:1011B300BE7C00E42DFFEC3E90018DF0A3EFF09098
:1011C300018DE0FEA3E07807CEC313CE13D8F9A8B0
:1011D3004BF6C394065013A84BE675F003A4248F73
:1011E300F582E43401F583E014F0900184E014F017
:1011F30060030212B27409F0A84BE4F6A84BE6FFB1
:10120300C3940640030212B2EF75F003A4248FF5D2
:1012130082E43401F583E0C39480502AE6FF75F03D
:1012230003A42490F582E43401F583E0D394804051
:1012330040EF75F003A42491F582E43401F583743F
:1012430001F0F545802BA84BE6FF75F003A424902D
:10125300F582E43401F583E0C394805014EF75F014
:1012630003A42491F582E43401F5837402F07545F7
:1012730001A84BE6FF75F003A4248FF582E4340143
:10128300F583E0FEEF75F003A42490F582E43401C6
:10129300F583EEF0E675F003A4248FF582E43401C0
:1012A300F5837486F0060211FF90018374FFF090BA
:1012B3000183E0D39407400374FFF0900183E004BB
:0712C300F09035D593F5BC56
:0312CA00054B22AF
:02359500154BD4
:09359700A84BA645E4F545E6FF4A
:0335A000054B22B6
:0235A300154BC6
:0935A500A84BA644E4F544E6FF3E
:0335AE00054B22A8
:1030A7008F9D75BC88439720D2AD90015A74FFF06D
:1030B700A37411F0A37421F0A374FFF0A37435F087
:1030C700A37495F0A374FFF0A37435F0A374A3F071
:0130D70022D6
:070003007B017A01798522DF
:102DEB00C3EF64809480403BD3EF64809485503371
:102DFB00EFFD3395E0FC90019175F003ED1203EEBE
:102E0B00EC75F003A42583F583E0FE90019175F03A
:102E1B0003ED1203EEEC75F003A42583F583E4F0C8
:052E2B00AF06227F0349
:012E3000227F
:04327000154B154B9A
:103274001235E7A84BA60608A607A84BE6FE08E603
:0F328400FF4E600BEF24FFFFEE34FFFE1235F01C
:05329300054B054B2274
:1033C00053B1EF43B21012003EE4F5D975DA49D299
:1033D000DE90015474FFF0A37432F0A37470F022F5
:0828C8008E2E8F2F8C308D3114
:1028D0001235E7EF4E7066AF31AE301235F0C3E51A
:1028E0002F940AE52E9400404BE47B18FAF9F890F7
:1028F000145A1203D2120308C006C007AE2EAF2F1F
:10290000AB07AA06E4F9F8D007D006120308AB0714
:10291000AA06AFF9EFFEADE97C00E42DFFEC3ECF57
:102920002BCF3AAD07FCAF03AE02123518D2D84315
:0F293000DA01800612003E53DAFE7F02227F0397
:01293F002275
:0C0046001235E7EF4E7002FF227F01220E
:101E8200E4F5809001FCE0FFB40800505F901E96DC
:101E9200F8282873021EAE021EB4021EBA021EC029
:101EA200021EC6021ED0021EDA021EE4C2A3C2A293
:101EB2008016C2A3C2A2801AC2A3C2A2801EC2A35B
:101EC200C2A28022C2A3D2A2C2A1C2A08020C2A367
:101ED200D2A2C2A1D2A08016C2A3D2A2D2A1C2A073
:101EE200800CC2A3D2A2D2A1D2A08002D2A3C3EFFD
:101EF2006480948850299001FCE0FF3395E0FE74E1
:101F0200F32FF58274013EF583E0FF3395E0FE7412
:101F12005E2FF58274143EF583E493F580801E9063
:101F220001FCE0FFB408133395E0FE74F32FF58251
:101F320074013EF583E0F5808003E4F5809001F2C0
:101F4200E0FF9001FCE004FEF0D3EF6480F8EE6461
:101F520080984014E0D36480948850047408F0227E
:091F62009001F1E09001FCF02275
:10347500E4F5937594FF5395F043960F90013F74CF
:0B348500FFF0A3741EF0A37482F0227D
:0935DE009001F1EFF0A3EDF022E1
:1033E0009001F3EFF0A3EDF0A3EBF0A3E528F0A339
:1033F000E529F0A3E52AF0A3E52BF0A3E52CF022C4
:063616009001FBEFF02221
:101A9300014A004901FE94940094940094940041F7
:031AA30001FD1E24
:02195000154B35
:1019520020B2069001FEE014F020B306900201E0EE
:1019620014F0209706900204E014F09001FDE014B8
:10197200F06003021A70741EF0A84BE4F6A84BE65E
:10198200FFC3648094834003021A70EF3395E0FE34
:101992009001FE75F003EF1203EEEE75F003A4253D
:1019A20083F583E0C3948050399001FF75F003EF13
:1019B2001203EEEE75F003A42583F583E0D3948041
:1019C200405AE6FF3395E0FE90020075F003EF12F5
:1019D20003EEEE75F003A42583F5837401F0F54A56
:1019E200803AA84BE6FF3395E0FE9001FF75F003C5
:1019F200EF1203EEEE75F003A42583F583E0C394A2
:101A020080501990020075F003EF1203EEEE75F0AC
:101A120003A42583F5837402F0754A01A84BE6FFFF
:101A2200FD3395E0FC9001FE75F003ED1203EEEC40
:101A320075F003A42583F583E0FE9001FF75F003A2
:101A4200ED1203EEEC75F003A42583F583EEF0EFBF
:101A52003395E0FE9001FE75F003EF1203EEEE7592
:0E1A6200F003A42583F5837494F00602197F27
:031A7000054B2201
:0235B100154BB8
:0935B300A84BA64AE4F54AE6FF24
:0335BC00054B229A
:1034200090014574FFF0A37435F0A374B1F09001DE
:0D3430004274FFF0A37419F0A37450F02251
:102F3F00EF600764016003BF0233EFFD3395E0FCE0
:102F4F0090020075F003ED1203EEEC75F003A4256B
:102F5F0083F583E0FE90020075F003ED1203EEECB3
:0F2F6F0075F003A42583F583E4F0AF06227F03FA
:012F7E002230
:101AA6005501A20000000000000000000000000038
:0C1AB60000000000000000004101A10041
:0206F600154BA2
:1006F800A84BE4F6A84BE6FFC3648094834003024A
:100708000967EF3395E0FE9001A275F007EF120339
:10071800EEEE75F007A42583F583E0FCA3E04C70AA
:10072800030209619001A475F007EF1203EEEE755C
:10073800F007A42583F583E0FEA3E04E70030209C9
:1007480061E6FFFD3395E0FC9001A675F007ED1218
:1007580003EEEC75F007A42583F58374FFF5F0121A
:10076800025145F060030209619001A475F007ED9C
:100778001203EEEC75F007A42583F583E0FAA3E0F5
:10078800FB9001A675F007ED1203EEEC75F007A4D7
:100798002583F583EAF0A3EBF0EF3395E0FE9001B3
:1007A800A275F007EF1203EEEE75F007A42583F5A6
:1007B80083E0FCA3E0D39400EC648094804056A8C6
:1007C8004BE6FD3395E0FC9001A275F007ED1203AE
:1007D800EEEC75F007A42583F58374FFF5F012029B
:1007E800519001A875F007ED1203EEEC75F007A41F
:1007F8002583F583E004F0D36480948340729001EC
:10080800A875F007EF1203EEEE75F007A42583F53F
:1008180083E4F0805BA84BE6FFFD3395E0FC900194
:10082800A275F007ED1203EEEC75F007A42583F529
:1008380083E475F0011202519001A875F007ED12DA
:1008480003EEEC75F007A42583F583E014F0C36488
:10085800809480501BEF3395E0FE9001A875F00757
:10086800EF1203EEEE75F007A42583F5837403F009
:10087800A84BE6FFFD3395E0FC9001A875F007ED65
:100888001203EEEC75F007A42583F583E014603CB1
:1008980014606614700302092E24036003020959C8
:1008A800EF14601014601924026003020959D2C1C0
:1008B800C2C280299001A1E054F04401F002095914
:1008C8009001A1E0540F4410F0020959A84BE61416
:1008D800601114601924027078C2C1D2C2C2C3C2A6
:1008E800C4806E9001A1E054F04402F0806390014E
:1008F800A1E0540F4420F08058A84BE6146011146E
:1009080060192402704BC2C1C2C2D2C3C2C48041A2
:100918009001A1E054F04404F080369001A1E05425
:100928000F4440F0802BA84BE61460111460192482
:1009380002701EC2C1C2C2C2C3D2C480149001A137
:10094800E054F04408F080099001A1E0540F44807D
:0F095800F09001A1E0FF123616A84B060206FC34
:03096700054B221B
:1034C20053B3E143B41E53C0E190016974FFF0A30A
:0834D2007406F0A374F6F02269
:102193008F2AEF3395E0FE9001A275F007EF12034B
:1021A300EEEE75F007A42583F583E0FEA3E04E6011
:1021B3000302223BE52A600A64016006E52A640201
:1021C3007076ED60737C007E037FE81201C6AD2A52
:1021D300ED3395E0FC9001A475F007ED1203EEECEE
:1021E30075F007A42583F583EEF0A3EFF09001A427
:1021F30075F007ED1203EEEC75F007A42583F58364
:10220300E0FEA3E0FF9001A675F007ED1203EEECEC
:1022130075F007A42583F583EEF0A3EFF09001A2F8
:1022230075F007ED1203EEEC75F007A42583F58333
:0B223300EAF0A3EBF07F02227F032201
:102D5C00EF600764016003BF023AEFFD3395E0FCBE
:102D6C009001A275F007ED1203EEEC75F007A425A7
:102D7C0083F583E0FAA3E0FB9001A275F007ED1256
:102D8C0003EEEC75F007A42583F583E4F0A3F0AE15
:072D9C0002AF0322E4FEFF79
:012DA300220D
:10307500EF600764016003BF0225EF3395E0FE9022
:1030850001A275F007EF1203EEEE75F007A4258394
:10309500F583E0FEA3E04E60037F01227F00227FDF
:0230A500032204
:101AC2004101150A41013E0A4101820A040E000049
:101AD200000001140046017C0000FFFF8FFFC10DD2
:101AE200C105C108C101C10E6024011AFF000AFF2D
:101AF200000AFF000AFF000AFF000AFF000AFF00B7
:101B02000AFF000AFF000AFF000AFF000AFF000A9C
:101B12006036013FFF000AFF000AFF0026FF000AAD
:101B2200FF0026FF000AFF0026FF000AFF000AFF4F
:101B3200000AFF0026FF0026FF0026FF0026FF0006
:0A1B42000AFF000AFF000AFF000A74
:01000A0022D3
:030026007F002236
:102DA400438E805389F07BE07A287901780090146F
:102DB4005A1203D2122EB9EFF404F58A7BE07A2872
:102DC4007901780090145A1203D2122EB9C3E49FE9
:102DD400FFE49EFE74019DFDE49CFC78081203BE92
:072DE4008F8CD28CD2A922D2
:03000B00022D0AB9
:042D0A00C0E0C0D095
:102D0E00D5080A75084C300D020514D20DA20372B7
:102D1E00045036150AE50A7030850C0AD207300ABF
:102D2E0017E50D6007150D438F01801D538FFEC2F1
:102D3E00B5D51615C20A8011050BE50BD3940640C6
:092D4E0008C203E5136002D2067D
:052D5700D0D0D0E032F5
:102C6500300E47C20E90145A1203D278101203BECA
:102C75008E468F47900118E0FEA3E0FFE4FCFD7B44
:102C850019FAF9F812027DC006C007AE46AF47AB88
:102C950007AA06E4F9F8D007D006122EB978031270
:102CA50003BE90017AEEF0A3EFF090017AE0FEA367
:022CB500E0FF3E
:012CB70022FA
:0935E70090017CE0FEA3E0FF224C
:0935F00090017CEEF0A3EFF02243
:10351800900180EEF0A3EFF090017EECF0A3EDF0C7
:013528002280
:03003E00C2B42227
:03003B000222E8B6
:1022E800C0E0C083C082C0D075D000C004C005C0A3
:0322F80006C00716
:1022FB0030DF04C2DF807D30DA04C2DA807630D979
:10230B003DC2D9AFFBEFFEADEB7C00E42DFFEC3E05
:10231B0020000E900116F0A3EFF075DB11D20080B8
:10232B0053FE900116E0FCA3E0FDC3EF9DFFEE9C76
:10233B00A3F0A3EFF075DB00C200D20E803630D8CD
:10234B0033C2D890017CE07002A3E06022B2B4905B
:10235B00017EE0FEA3E0F5EAEEF5FAA3E0FEA3E0D2
:10236B00FF90017FE02FF090017EE03EF08005C2F0
:04237B00B453DAFE7F
:10237F00D007D006D005D004D0D0D082D083D0E003
:01238F00321B
:06361C00122DA4D2AF2222
:102738003004047F0180027F00200A047E018002A9
:102748007E00EE5F6074E515C39509506830023667
:10275800750D01E515131313541FAB17AA18A91902
:10276800F582758300120165FFE515540704FEEF35
:10277800A806088002C333D8FC30D7057516038035
:102788002F751601802AAB17AA18A91975F002E54A
:1027980015A4F58285F083120165F50DE51575F030
:1027A80002A429F9EA35F0FA900001120165F5163C
:0A27B8000515D20A22C204438F1057
:0127C20022F4
:101D9500900115E014F0701F740AF0D20590013E11
:101DA500E014F07012740AF0D208900182E014F089
:101DB5007005740AF0D20190013FA3E0FAA3E0F99F
:101DC5001203FA900142A3E0FAA3E0F91203FA9094
:101DD500014EA3E0FAA3E0F91203FA90015AA3E039
:101DE500FAA3E0F91203FA900169A3E0FAA3E0F976
:101DF5001203FA900172A3E0FAA3E0F91203FA9034
:101E05000160A3E0FAA3E0F91203FAEF600C900178
:101E150032A3E0FAA3E0F91203FA900163A3E0FA12
:101E2500A3E0F91203FAEF600E900135A3E0FAA3DF
:101E3500E0F91203FAD20BE512D394004016D5123D
:101E45003030090C900138A3E0FAA3E0F91203FA47
:101E5500D20C801D900166A3E0FAA3E0F91203FA03
:101E6500EF600E900138A3E0FAA3E0F91203FAD26D
:0D1E75000C90011AA3E0FAA3E0F90203FAB1
:1026A500900154A3E0FAA3E0F91203FA900157A3AD
:1026B500E0FAA3E0F91203FA900148A3E0FAA3E0D7
:1026C500F91203FA90011DA3E0FAA3E0F91203FA47
:1026D500900145A3E0FAA3E0F91203FAEF600C902C
:1026E5000126A3E0FAA3E0F91203FA90014BA3E057
:1026F500FAA3E0F91203FAEF600C90012CA3E0FABB
:10270500A3E0F91203FA90015DA3E0FAA3E0F91240
:1027150003FAEF600C90012FA3E0FAA3E0F912038E
:10272500FA30060EC20690013BA3E0FAA3E0F912C7
:0327350003FA2282
:102F7F00900120A3E0FAA3E0F91203FA900151A304
:102F8F00E0FAA3E0F91203FAEF600C900129A3E035
:102F9F00FAA3E0F91203FA90016CA3E0FAA3E0F9A7
:0F2FAF001203FA90016FA3E0FAA3E0F90203FA0C
:1031C800AF11AE10AD0FAC0E9001751203E2900175
:1031D80079E514F0E4F511F510F50FF50EF51490F6
:0B31E8000123A3E0FAA3E0F90203FAC0
:102FFD00300705C207122738300D05C20D121D9579
:10300D00300505C2051226A5300805C208122F7F0E
:10301D00300105C2011231C8E5112401F511E43565
:0E302D0010F510E4350FF50FE4350EF50E2208
:10284B008B248A258926EFB40C00507090285EF8F3
:10285B0028287302288202288702288C02289102DA
:10286B00289602289B0228A00228A50228AA022843
:10287B00AF0228B40228B990011A803590011D804F
:10288B0030900120802B90012380269001268021FF
:10289B0090012C801C900129801790012F801290A1
:1028AB000132800D90013580089001388003900132
:0D28BB003BE524F0A3E525F0A3E526F0227F
:073602007B017A01797522BA
:10182A0000C400DC00F701060126014A01720188A2
:10183A0001B801EE020B024B029302E4031003709B
:10184A0003DC04160497052605C800DC00F7011519
:10185A000126014A0172019F01B801EE022A024BD8
:10186A00029302E4033F037003DC04550497052640
:10187A0005C8067D00F701150137014A0172019F6B
:10188A0001D201EE022A026E029302E4033F03A48C
:10189A0003DC045504DD057505C8067D0749010604
:1018AA000126014A015D018801B801EE020B024BD3
:1018BA00029302BA0310037003DC04160497052688
:1018CA000575062006E007B80126014A017201885B
:1018DA0001B801EE022A024B029302E403100370DC
:1018EA0003DC04550497052605C8062006E007B858
:1018FA0008AA014A0172019F01B801EE022A026E8A
:10190A00029302E4033F037003DC045504DD052659
:10191A0005C8067D06E007B808AA09B9015D01886D
:10192A0001B801D2020B024B029302BA03100370F0
:10193A0003A40416049705260575062006E0074940
:06194A00082D092D0A4DD5
:101B4C004D01E40300000000000000000000000054
:06223E008F248D258B2684
:10224400120046EF60037F0122E526D39400400686
:10225400E52694114028E526D394174006E52694F4
:1022640021401BE526D394274006E5269431400EF1
:10227400E526D394375007E524C394F950037F032C
:1022840022E526603DC4540F75F007A4FDACF0E5CB
:102294002475F015A42DFFE5F03CFEE52654077CDB
:1022A400002FFFEC3EFEEF25E0FFEE33FE74402FDF
:1022B400F58274EF3EF583E493F528740193F529D0
:1022C4008005E4F528F529AF277E007C017D77128F
:1022D40001B4AD251C1201C6AD07AC06AF29AE286A
:0322E4001228C8F5
:0122E70022D4
:04040000154B154B38
:10040400120046EF70047F0180027F009001E4E057
:10041400FEB402047D0180027D00ED5F60030206EC
:10042400F1EEB4030AE49001E2F0A3F00206F190C5
:1004340001E5E0FFB4F3047E0180027E00EFB4F135
:10044400047F0180027F00EF4E603E9001E7E0FEF2
:1004540075F06484FFEE75F00A8475F00A84ADF0DB
:10046400E075F00A84ABF075280A9001E6E02407F1
:10047400F5299001E1E0FEC4540F240AF52A752BF6
:100484000AEE5407F52C1233E09001E5E0FFB4F3D3
:10049400047E0180027E00EFB4F2047F0180027FBB
:1004A40000EF4E700302054A9001E7E0FD7C007EF8
:1004B400177F701201C6A84BA607E6F975F002A4CF
:1004C400FFC39001F0E09F9001EFE095F05070E0E1
:1004D400FEA3E0FF7C007D0B1201B4E9FBFD1201D9
:1004E400C6A84B08A6079001EFE475F00112026755
:1004F400FED3E5F09BEE94004018A84B08E624F9DF
:10050400FFE47EF0A807088005CEC313CE13D8F904
:10051400801FA84B08E6FF740F7E00A8070880051B
:10052400C333CE33CED8F97804CEA2E713CE13D892
:10053400F8A84B08F6A84B08E6FF1236168007E425
:100544009001EFF0A3F09001EBE0FEA3E0FFC39075
:1005540001EEE09F9001EDE09E40030206EB1200E5
:1005640046EF60030206F19001E8E0FBA3E0FAA382
:10057400E0F99001EDE0FEA3E0F5828E83120165BF
:10058400FFD394375003020686EF241024FC5079DD
:10059400604524FE700302063114700302064724EA
:1005A4000260030206759001E8E0FBA3E0FAA3E011
:1005B400F99001EDE475F00112025185F082F583A2
:1005C4001201659001E6F09001EEE004F07098905D
:1005D40001EDE004F080909001E8E0FBA3E0FAA3D1
:1005E400E0F99001EDE475F00112025185F082F515
:1005F400831201659001E7F09001EEE004F0706E63
:100604009001EDE004F002056B9001E8E0FBA3E04B
:10061400FAA3E0F99001EDE475F00112026785F0A8
:1006240082F5831201659001E5F002056B9001EDFE
:10063400E475F001120251AFF09001E2F0A3EFF083
:1006440002056B9001E2E0FEA3E0FF4E6012900110
:10065400EDEEF0A3EFF0E49001E2F0A3F002056BFD
:100664009001EEE004F070069001EDE004F0020564
:100674006B9001EEE004F070069001EDE004F002EE
:10068400056B9001EBE0FEA3E0FFC39001EEE09F59
:100694009001EDE09E50569001E8E0FBA3E0FAA340
:1006A400E0F99001EDE475F00112026785F082F53E
:1006B400831201659001E1F09001E6E0FFA3E0FD03
:1006C400A3E0FBA3E0FAA3E0F99001EDE475F001E7
:1006D40012026785F082F583120165F5279001E126
:0D06E400E0FB12223E80069001E47403F05A
:0506F100054B054B2242
:0F35680090015774FFF0A37404F0A37400F022D5
:102C0D009001E4E0B4030DE49001EDF0A3F0A3F026
:102C1D00A3F0C210EF60049001E7F0ED60049001A5
:102C2D00E6F0E94A60047F0180027F00E530452F20
:102C3D0060047E0180027E00EE5F60139001E8EB80
:102C4D00F0A3EAF0A3E9F0A3E52FF0A3E530F0E55A
:082C5D003160049001E5F02252
:10329800BF02047E0180027E00BF01047D0180021E
:1032A8007D00ED4EFEBF03047D0180027D00ED4EE2
:0832B80060059001E4EFF02233
:063622009001E4E0FF222C
:041B5C0041020F0132
:10349000C295E4FEEF1392CC000000D29500EFC37A
:0834A00013FFC2950EBE08ECFB
:0134A8002201
:1034DA00E4FEEFC313FF30CC03430780D29500000C
:0734EA0000C2950EBE08EBC5
:0134F10022B8
:10319A00F07F851231ADA3EFF07F871231ADA3EF37
:0331AA00F07F892A
:1031AD00C296000000C295000000D2960012349025
:0A31BD001234DAD295000000C29629
:0131C70022E5
:03340000A3E0FD49
:10340300C296000000C295000000D29600123490CC
:0D341300AF05123490D295000000C2962241
:073609007B017A027908221F
:1034A90078087C027D017B007A00792E7E007F07F7
:0934B900120126E490020FF0223A
:10350600EFD3941F5009EF25E044C1FF0231AD7F90
:02351600012290
:10324700AC07AB05ECD3941F501CE4FD7F8E123402
:1032570003EC25E044C0FFAD031234037D807F8E6D
:093267001234037F00227F0122D2
:02243600154B44
:1024380090020FE060447F811231ADA84BEFF69017
:102448000208E06F70030224D8A84BE6F07F8312DD
:1024580031ADA84BEFF6A3E06F6075A84BE61231DB
:102468009AA3EFF07F8D1231AD90020EEFF07F8BC3
:102478001231AD90020DEFF08056900207E0FF0494
:10248800F0EFC3940A4049E4F090020F04F0E4FD31
:102498007F8E123403900208E0FD7F801234037FA0
:1024A800821234007F84123400A3E0FD7F86123448
:1024B80003A3E0FD7F88123403A3E0FD7F8A123472
:1024C80003A3E0FD7F8C1234037D807F8E123403DA
:0324D800054B228F
:101C97007F811231AD900208EFF07F831231ADA33F
:101CA700EF12319AA3EFF07F8B1231ADA3EFF07FE4
:101CB7008D1231ADA3EFF0E4FD7F8E1234037F1E4A
:101CC700123506EF64A560047F0180027F00900251
:101CD70008E05480FEA3E0D3945940047D018002BC
:101CE7007D00ED4EFE90020AE0D394A440047D01EE
:101CF70080027D00ED4EFE90020BE0D3943140044C
:101D07007D0180027D00ED4EFE90020CE0D394121F
:101D170040047D0180027D00ED4EFE90020DE0D370
:101D2700940740047D0180027D00ED4EFE90020E77
:101D3700E0D3949940047D0180027D00ED4E4F6011
:101D470030782E7C007D007B007A0079247E007F2E
:101D5700071201261234A97DA57F1E123247780883
:101D67007C027D017B007A0079247E007F071201C7
:101D7700267DA97F901234037D807F8E12340390D5
:0E1D8700016F74FFF0A37424F0A37436F022F1
:10353900D2C0000000D2CD000000C2C000000022AD
:0D002E00C2C0000000D2CD000000D2C022F0
:0B33340012335812333FAF051233581C
:10333F00E4FFD2CD30C009EFC394FF50030F80F4E8
:08334F00000000C2CD000000E7
:013357002253
:10335800E4FEEF25E0FFC2CD00000092C0000000AF
:10336800D2CD0000000EBE08E9C2CD000000D2C0D8
:0333780000000052
:01337B00222F
:10339E00C2CD000000D2C000E4FED2CD0000EF2569
:1033AE00E0FDA2C0E4334DFF0000C2CD000EBE080A
:0133BE00E925
:0133BF0022EB
:10000E00AC071235397FA012335812333FAF0412AA
:05001E00333402002E46
:02343D00AD07D9
:10343F001235397FA01233341235397FA112335828
:09344F0012333F12339E12002ECD
:013458002251
:1035490053B1DF43B220C2B5C20A8F0C438F102298
:030053000229403F
:10294000C0E0C083C082C0D075D000C000C001C04C
:0329500002C003BF
:10295300200313D203751B08751300751A00E50CC9
:10296300C313F50A803AE50BC394014031E51A25F8
:10297300E0F51AE50BC394034002051AD51B21E5C4
:1029830013C3951C501A751B08AB1DAA1EA91F85DE
:102993001382758300E51A12019205138002C203A4
:0329A300750B00B1
:1029A600D003D002D001D000D0D0D082D083D0E0E6
:0129B60032EE
:0935F9008B1D8A1E891F8D1C2206
:03362800AF1322BB
:1030D8002003047F0180027F00200A047E01800211
:1030E8007E00EE5F60188B178A188919EDC313F5F7
:1030F80009C202E4F515538FEFD2047F02227F0341
:0131080022A4
:102FBE002003047F0180027F00200A047E0180022C
:102FCE007E00EE5F6026538FEF750D10751608D2DA
:102FDE000A438F018B178A188919ED75F008A4041E
:0F2FEE00F509D202E4F515D2047F02227F0322F7
:103459002003047F0180027F00200A047E0180028C
:0C3469007E00EE5F60037F00227F0122E6
:101B60005501B70000000000000000000000000068
:081B700000000100000000006C
:03004300020D8328
:100D8300C0E0C0F0C083C082C0D075D000C000C036
:100D930001C002C003C004C005C006C007E59A3005
:100DA300E142539AFD9001BCE0FEA3E0FFC3900132
:100DB300BBE09F9001BAE09E501F9001B7E0FBA3F8
:100DC300E0FAA3E0F9A3E475F00112026785F0826B
:100DD300F583120165F59B800B9001BEE4F0E549B4
:100DE3006002C2B7E59A20E003020F3A539AFE303D
:100DF3000C0BC20C9001C4E4F0A3F0D209E54964E2
:100E0300026003020E949001C2E0FEA3E0FFA3E0A0
:100E1300FCA3E0FDC39FEC9E50719001BFE0FBA3D8
:100E2300E0FAA3E0F98D828C83E59B120192900195
:100E3300CAE0FEA3E0FFC3ED9FEC9E50409001C2C9
:100E4300E0FCA3E0FDEF9DEE9C50329001C7E0FB78
:100E5300A3E0FAA3E0F99001C4E0FEA3E0FFF5826A
:100E63008E83120165FD9001BFE0FBA3E0FAA3E0CE
:100E7300F98F828E831201656D6002C2099001C5EC
:100E8300E004F070069001C4E004F0854812020FFC
:100E93003A9001C2E0FEA3E0FFA3E0FCA3E0FDC3A0
:100EA3009FEC9E50779001BFE0FBA3E0FAA3E0F92B
:100EB3008D828C83E59B1201929001CAE0FEA3E030
:100EC300FFC3ED9FEC9E50469001C2E0FCA3E0FD02
:100ED300EF9DEE9C50389001C7E0FBA3E0FAA3E03E
:100EE300F99001C4E0FEA3E0FFF5828E8312016551
:100EF300FD9001BFE0FBA3E0FAA3E0F98F828E83AC
:100F03001201656D60089001C474FFF0A3F09001B5
:100F1300C5E004F070069001C4E004F09001C2E063
:100F2300FEA3E0FFC39001C5E09F9001C4E09E4093
:100F3300069001C67401F0D007D006D005D004D0C6
:100F430003D002D001D000D0D0D082D083D0F0D053
:020F5300E0328A
:02357700154BF2
:0A3579009001C6E0A84BF6FFE4F055
:03358300054B22D3
:0100290022B4
:1020DE008F278E268D258C24852849E54970028010
:1020EE000343BA01E549701790017274FFF0A374AF
:1020FE0000F0A37429F0E4F5DBD290D2918020C2D7
:10210E00B7AB27AA26A925A824E47F407E9CFDFC18
:10211E001203088F48E5487003754801854812750B
:10212E009A10E47B04FAF9F890145A1203D21203AF
:10213E0008AB27AA26A925A824120308EFF404F554
:10214E00D7E47B04FAF9F890145A1203D21203085A
:10215E00AB27AA26A925A824120308C3E49FFFE4EF
:10216E009EFE74019DFDE49CFC78081203AB8FD695
:10217E00438E1443AF0190016674FFF0A37435F0E3
:05218E00A37477F022AC
:103109009001BFEBF0A3EAF0A3E9F0A3ECF0A3ED83
:10311900F09001CAE52CF0A3E52DF09001C7E5294F
:10312900F0A3E52AF0A3E52BF0D20CE49001C6F058
:013139002273
:10316B009001BEE070269001B7EBF0A3EAF0A3E963
:10317B00F0E4A3F0A3F0A3ECF0A3EDF0A37401F043
:0F318B00E5496002D2B7439A027F02227F0322F6
:0B35BF009001BEE07002FF227F01229D
:101B78005501CC000000000000000000000000003B
:081B8800000001000000000054
:030023000216FAC8
:1016FA00C0E0C0F0C083C082C0D075D000C000C0B6
:10170A0001C002C003C004C005C006C00730993B2F
:10171A00C2999001D1E0FEA3E0FFC39001D0E09FFF
:10172A009001CFE09E501F9001CCE0FBA3E0FAA30A
:10173A00E0F9A3E475F00112026785F082F58312DD
:10174A000165F59980059001D3E4F0209803021809
:10175A000FC298300B09C20B9001D9E4F0A3F090A4
:10176A0001D7E0FEA3E0FFA3E0FCA3E0FDC39FECEA
:10177A009E50779001D4E0FBA3E0FAA3E0F98D82B2
:10178A008C83E5991201929001DFE0FEA3E0FFC38A
:10179A00ED9FEC9E50469001D7E0FCA3E0FDEF9D43
:1017AA00EE9C50389001DCE0FBA3E0FAA3E0F9904C
:1017BA0001D9E0FEA3E0FFF5828E83120165FD9058
:1017CA0001D4E0FBA3E0FAA3E0F98F828E83120131
:1017DA00656D60089001D974FFF0A3F09001DAE01A
:1017EA0004F070069001D9E004F09001D7E0FEA35E
:1017FA00E0FFC39001DAE09F9001D9E09E40069095
:10180A0001DB7401F0D007D006D005D004D003D094
:10181A0002D001D000D0D0D082D083D0F0D0E03234
:02358600154BE3
:0A3588009001DBE0A84BF6FFE4F031
:03359200054B22C4
:1029B7008F278E268D258C24759850438E40538EF5
:1029C700FE53890FE47B04FAF9F890145A1203D2E4
:1029D700120308AB27AA26A925A824120308EFF497
:1029E70004F58BE47B04FAF9F890145A1203D21217
:1029F7000308AB27AA26A925A824120308C3E49F26
:102A0700FFE49EFE74019DFDE49CFC78081203AB75
:102A17008F8DC2ABD28ED2AC90016374FFF0A374DA
:072A270035F0A37486F022D4
:10313A009001D4EBF0A3EAF0A3E9F0A3ECF0A3ED3D
:10314A00F09001DFE52CF0A3E52DF09001DCE529F4
:10315A00F0A3E52AF0A3E52BF0D20BE49001DBF013
:01316A002242
:1032C0009001D3E0701F9001CCEBF0A3EAF0A3E9EA
:1032D000F0E4A3F0A3F0A3ECF0A3EDF0A37401F0ED
:0832E000D2997F02227F032234
:0B35CA009001D3E07002FF227F01227D
:0300000002257561
:10257500787FE4F6D8FD9000007F007E07E4F0A3A5
:0A258500DFFCDEFA75814B0225CA67
:10258F00020B82E493A3F8E493A34003F68001F2D5
:10259F0008DFF48029E493A3F85407240CC8C3334D
:1025AF00C4540F4420C8834004F456800146F6DF1C
:1025BF00E4800B0102040810204080901A73E47E1F
:1025CF00019360BCA3FF543F30E509541FFEE49311
:1025DF00A360010ECF54C025E060A840B8E493A3D8
:1025EF00FAE493A3F8E493A3C8C582C8CAC583CA03
:1025FF00F0A3C8C582C8CAC583CADFE9DEE780BEBB
:011B90000054
:10005600E709F608DFFA8046E709F208DFFA803E8C
:1000660088828C83E709F0A3DFFA8032E309F60879
:10007600DFFA8078E309F208DFFA807088828C83E1
:10008600E309F0A3DFFA806489828A83E0A3F60895
:10009600DFFA805889828A83E0A3F208DFFA804C6F
:1000A60080D280FA80C680D4806980F28033801046
:1000B60080A680EA809A80A880DA80E280CA8033AF
:1000C60089828A83ECFAE493A3C8C582C8CCC58327
:1000D600CCF0A3C8C582C8CCC583CCDFE9DEE780F7
:1000E6000D89828A83E493A3F608DFF9ECFAA9F076
:1000F600EDFB2289828A83ECFAE0A3C8C582C8CCCC
:10010600C583CCF0A3C8C582C8CCC583CCDFEADEE4
:10011600E880DB89828A83E493A3F208DFF980CC46
:1001260088F0EF60010E4E60C388F0ED2402B4043F
:100136000050B9F582EB2402B4040050AF232345E6
:0601460082239000A67365
:10014C00BB010689828A83E0225002E722BBFE02B1
:09015C00E32289828A83E49322E4
:10016500BB010CE58229F582E5833AF583E022504F
:1001750006E92582F8E622BBFE06E92582F8E22299
:0D018500E58229F582E5833AF583E49322B3
:10019200F8BB010DE58229F582E5833AF583E8F0A3
:1001A200225006E92582C8F622BBFE05E92582C84F
:0201B200F22237
:1001B400EF8DF0A4A8F0CF8CF0A428CE8DF0A42E5F
:0201C400FE2219
:1001C600BC000BBE0029EF8DF084FFADF022E4CC1D
:1001D600F875F008EF2FFFEE33FEEC33FCEE9DECE6
:1001E600984005FCEE9DFE0FD5F0E9E4CEFD22ED2C
:1001F600F8F5F0EE8420D21CFEADF075F008EF2F76
:10020600FFED33FD4007985006D5F0F222C398FD66
:050216000FD5F0EA2203
:10021B00C2D5EC30E709B2D5E4C39DFDE49CFCEEFE
:10022B0030E715B2D5E4C39FFFE49EFE1201C6C3AF
:10023B00E49DFDE49CFC80031201C630D507C3E4AA
:06024B009FFFE49EFE226D
:10025100C5F0F8A3E028F0C5F0F8E5821582700238
:060261001583E038F022D5
:10026700A3F8E0C5F025F0F0E5821582700215834A
:06027700E0C838F0E822A7
:10027D00E88FF0A4CC8BF0A42CFCE98EF0A42CFC20
:10028D008AF0EDA42CFCEA8EF0A4CDA8F08BF0A49E
:10029D002DCC3825F0FDE98FF0A42CCD35F0FCEBFD
:1002AD008EF0A4FEA9F0EB8FF0A4CFC5F02ECD39C2
:0F02BD00FEE43CFCEAA42DCE35F0FDE43CFC222F
:1002CC0075F008758200EF2FFFEE33FECD33CDCCE9
:1002DC0033CCC58233C5829BED9AEC99E58298406C
:1002EC000CF582EE9BFEED9AFDEC99FC0FD5F0D649
:1002FC00E4CEFBE4CDFAE4CCF9A88222B800C1B973
:10030C000059BA002DEC8BF084CFCECDFCE5F0CBB0
:10031C00F97818EF2FFFEE33FEED33FDEC33FCEBE9
:10032C0033FB10D703994004EB99FB0FD8E5E4F9A4
:10033C00FA227818EF2FFFEE33FEED33FDEC33FC91
:10034C00C933C910D7059BE99A4007EC9BFCE99A85
:10035C00F90FD8E0E4C9FAE4CCFB2275F010EF2FCA
:10036C00FFEE33FEED33FDCC33CCC833C810D707CA
:10037C009BEC9AE899400AED9BFDEC9AFCE899F805
:0E038C000FD5F0DAE4CDFBE4CCFAE4C8F92298
:102EB900C2D5E830E70FB2D5E4C39BFBE49AFAE444
:102EC90099F9E498F8EC30E717B2D5122EEF12030E
:102ED90008E4C39BFBE49AFAE499F9E498F88003BF
:102EE90012030830D50DE4C39FFFE49EFEE49DFD67
:042EF900E49CFC2237
:10039A00EB9FF5F0EA9E42F0E99D42F0E89C45F0B9
:0103AA002230
:1003AB00E8600FECC313FCED13FDEE13FEEF13FF30
:0303BB00D8F12254
:1003BE00E86010ECA2E713FCED13FDEE13FEEF1355
:0403CE00FFD8F02242
:1003D200E493FC740193FD740293FE740393FF2271
:0C03E200ECF0A3EDF0A3EEF0A3EFF0228E
:0C03EE00A42582F582E5F03583F583221A
:0603FA008A838982E4738E
:00000001FF
