:102C780000A8C0003F065B4F666D7D077F6F0008A8
:102C880040014148BF86DBCFE6EDFD87FFEF773592
:0F2C98000831083508310835083108350831088A
:1015C300420082FFFF410073004100A30041008CF1
:0115D3003CDB
:0B2F9E00EC120923ED90000102093540
:0825D5008B298A2A892B8D2C29
:1025DD0074FFF52DF52EE4FDEDC3952C503EAB2982
:1025ED00AA2AA92B8D827583001208F6622EE4FCAF
:1025FD00E52E30E015E52DC313FEE52E13FFEE6439
:10260D00A0F52DEF6401F52E800BE52DC313F52DEF
:10261D00E52E13F52E0CBC08D70D80BCAE2DAF2EBC
:01262D00228A
:082A91008B238A2489258D2680
:102A9900C3E5269402FD1225D58E278F28E5267CCD
:102AA9000024FEF582EC34FFF583AB23AA24A92583
:102AB900EF120935E527FFE52624FFF582EC34FFFF
:062AC900F583EF02093560
:082828008D268B238A248925EB
:10283000C3E5269402FD1225D58E278F28E526FDB7
:102840007C0024FEF582EC34FFF583AB23AA24A997
:10285000251208F6652860037F002274FF2DF5829B
:1028600074FF3CF5831208F6FDE5276D60037F00D9
:03287000227F01C3
:012873002242
:102B80008F2890008DE065286028E4FF122BB3EFBA
:102B90006401601EE52860067A007B3080047AFFBD
:102BA0007BD07D1EE4FF121E38BF020690008DE52B
:032BB00028F022E8
:102DA7008F28122E82EF701990009F745AF0A3E5B6
:102DB70028F064A5A3F07B017A00799F7D03122A8E
:022DC700522296
:102DC900900076E0701B7BFF7A2C7997752D007542
:102DD9002E10752FF07DFC7FC81226877F01122DDA
:022DE9007F2247
:053018007F03022D7F83
:10257800900073E06F6055900073EFF014601E14C4
:10258800602D14603424037043E49000A3F090009D
:1025980076F090009EF0123018E4FF80199000A2A7
:1025A800740AF0E4A3F0900076F090009EF022E424
:1025B8009000A3F07F01022B809000A37402F07FAB
:0D25C80001122B80122DC97F02122DA722B7
:102EE200900073E070047F018002E4FF12257822D3
:1020CF00E4FE900073E0FD64026004EDB40303438B
:1020DF000601900075E0600343060290009EE060E9
:1020EF0003430604900070E0600343060890008DE0
:1020FF00E06003430610900076E0600343062090F3
:10210F00008E7403F0A3EFF0A3740CF0A3EEF07B3A
:10211F00017A007992900082E0FCA3E0FD122F9EDD
:10212F009000A3E0900094F0900078E0900095F07C
:10213F00900074E0900096F0900073E0900097F09C
:10214F00E4A3F0A3F0A3F0900079E090009BF07A65
:08215F0000798E7D10022A9127
:101CCC00900084E064036003021D827B017A00793A
:101CDC00847D08122828EF700F90006FE004F070DC
:101CEC000690006EE004F022900072E004F07006A2
:101CFC00900071E004F0900085E024FA604724F62F
:101D0C006008240D70707F03805C900086E0700A80
:101D1C00900073E06004E4FF800F900086E0B40153
:101D2C000B900073E070057F01122578900087E01E
:101D3C00FFC3940A400BEFD394C8500590008CEF6E
:101D4C00F07F108021900086E0B4020B9000767436
:101D5C0001F0123018800D900086E0FFD3940150F2
:101D6C0003122B807F061220CF7B017A00798E7DA7
:071D7C00107C00122CA722CD
:062D2F00E0FD7B027F02C3
:102D3500AE031BEE601BED75F00A84EF2B247AF5CC
:102D450082E43400F583E5F0F0ED75F00A84FD804A
:022D5500DF227B
:10148D007F0890007A740AF0A3DFFCE53C600C90B5
:10149D00008CE0FD7B037F0502156FE53A147003A8
:1014AD00021541046003021558900073E0FCB4016D
:1014BD000C9000A2E0FD7B027F0602156F9000826A
:1014CD00E0F523A3E0F524C3E52364809480500563
:1014DD00E4F523F524D3E52494E7E5236480948390
:1014ED0040067523037524E7EC64026007900073D2
:1014FD00E0B403047F1A80027F0090007AEFF09031
:10150D000075E090007CF09000A3E090007EF0AEBE
:10151D0023AF247C007D641209BEAD077B017F05DE
:10152D00122D35AE23AF247C007D641209BE7B02E3
:10153D007F06802E90007A7401F0900078122D2F86
:10154D00900074E0FD7B027F06801790007A740294
:10155D00F0900071A3122D2F90006EA3E0FD7B0281
:10156D007F06122D3590007AE0FFA3E0FDA3E0FB8E
:10157D00A3E0F528A3E0F529A3E0F52AA3E0F52BD8
:10158D00A3E0F52C122E0BE4FF900073E0FE60013A
:10159D000F900075E0600343070290009EE060032A
:1015AD00430704900070E06003430708EEB40303A3
:0615BD0043073002300676
:102B0D00122FEA8F23E5236402702790007504F0DD
:102B1D00900074E004F0900073E0B402057F0302AE
:102B2D002578900073E070147D08FC7FB87E0B0251
:0C2B3D002419E523B40105E4900075F0B4
:012B49002269
:102CD600122F12BF012790009EE0C394FF5003E01D
:102CE60004F0900073E0B4021490009EE0C39403D5
:0E2CF600400B900078E004F07F031225782256
:1027D900053BE53BC39402403DE4F53B122734C376
:1027E900EF9402EE64809480402CD3EF9490EE64D1
:1027F9008094815021900082EEF0A3EFF090008C3C
:10280900E0FDEF9D7480F86E9850047F0180027F8F
:0F28190000900070EFF0E53C6002153C02148D5A
:10231500900073E0B401227D0A7C007FC47E09121F
:1023250024199000A2E0D394004003E014F090003B
:10233500A2E070057F02122578900077E004F0E0B6
:10234500C394024006E4F090009EF0900073E0B460
:102355000311900076E0700B123012EF64016003F8
:10236500122DC9900073E0B40216900070E0601061
:102375009000A3E0700A7D05FC7FAC7E0D12241948
:10238500122FF978237C007D007E007F051208D08E
:06239500900079E527F03D
:01239B00221F
:1026DF00E4FF1229D3BF011CE53A2401FFE433FEC6
:1026EF007C007D031209698D3A7D037C007FB87EE3
:1026FF000B1224197F011229D3EF64017026900069
:10270F0073E06403701E900076E070047F01800216
:10271F007F00900076EFF060081230187F03022DD3
:05272F00A7122DC922D4
:10250800E4FF122903BF0113122EE27F01122DA747
:102518007D0A7C007FD07E071224197F05122903CB
:10252800BF011B90008CE0C394C85004E0240AF05B
:10253800753C147D037C007FAC7E0D1224197F024C
:10254800122903BF011B90008CE0D3940A4004E0D9
:1025580024F6F0753C147D037C007FC47E091224A8
:10256800197F03122903BF0106753C14E4F53A22CA
:101BEF00122E9E7D07E4FF122FBD122E48122DEBF1
:101BFF00122F21122E2B122E65122EB97F2B122F80
:101C0F00027F98122BE57F03122B4A7527027F80E4
:101C1F007E257D007C00121D8375280075290075B7
:101C2F002A00E4F52BF52C7B017A0079847D08FCE2
:101C3F00122C477BFF7A2779D97F0212239C7BFFD7
:101C4F007A2379157F0312239C7BFF7A2679DF7F16
:101C5F000412239C7BFF7A2579087F0712239C7B34
:101C6F00FF7A2B790D7F0512239C7BFF7A2C79D677
:101C7F007F0612239C7BFF7A1C79CC7F0A12239C50
:101C8F00E4900075F090008DF0900070F090007669
:101C9F00F0900078F090009EF0900077F090007434
:101CAF00F09000A2F0900079F0900071F0A3F09006
:0D1CBF00006EF0A3F012300C122ACF80FB53
:092FB4008B88898C88898F88893B
:1015D4005200B0868600868600868600868600864F
:0915E40086008686004100A5097D
:03002B00023000A0
:0630000053BCEFD20F32B9
:0212E1001544B2
:1012E300200F0302148AC20F9000A4E0B409004047
:1012F3000302146C9012FEF828287302134502139C
:101303001902132B02135702131902132B02136E24
:1013130002131902132BAFBDEFFEADBE7C00E42D0B
:10132300FFEC3E9000A6803CAFBDEFFEADBE7C005F
:10133300E42DFFEC3E9000A8F0A3EFF0753D010211
:101343001472AFBDEFFEADBE7C00E42DFFEC3E900A
:1013530000AA8010AFBDEFFEADBE7C00E42DFFEC14
:101363003E9000ACF0A3EFF0021472AFBDEFFEAD00
:10137300BE7C00E42DFFEC3E9000AEF0A3EFF090B6
:1013830000AEE0FEA3E07807CEC313CE13D8F9A8CE
:1013930044F6C394065013A844E675F003A424B09E
:1013A300F582E43400F583E014F09000A5E014F036
:1013B30060030214727409F0A844E4F6A844E6FF3B
:1013C300C394064003021472EF75F003A424B0F52E
:1013D30082E43400F583E0C39480502AE6FF75F07D
:1013E30003A424B1F582E43400F583E0D394804070
:1013F30040EF75F003A424B2F582E43400F583745E
:1014030001F0F53E802BA844E6FF75F003A424B158
:10141300F582E43400F583E0C394805014EF75F053
:1014230003A424B2F582E43400F5837402F0753E1C
:1014330001A844E6FF75F003A424B0F582E4340068
:10144300F583E0FEEF75F003A424B1F582E43400E4
:10145300F583EEF0E675F003A424B0F582E43400DE
:10146300F5837486F0060213BF9000A474FFF09016
:1014730000A4E0D39407400374FFF09000A4E004B9
:07148300F0902FB493F5BCBB
:03148A00054422F4
:022F3F00154437
:092F4100A844A63EE4F53EE6FFBB
:032F4A0005442219
:022F4D00154429
:092F4F00A844A63DE4F53DE6FFAF
:032F58000544220B
:102BE5008F9D75BC88439720D2AD90004574FFF04A
:102BF500A37412F0A374E1F0A374FFF0A3742FF093
:102C0500A3743FF0A374FFF0A3742FF0A3744DF0E9
:012C1500229C
:072FF2007B017A0079A622A1
:10290300C3EF64809480403BD3EF6480948550335D
:10291300EFFD3395E0FC9000B275F003ED120B93DD
:10292300EC75F003A42583F583E0FE9000B275F007
:1029330003ED120B93EC75F003A42583F583E4F008
:05294300AF06227F0336
:01294800226C
:042D570015441544C6
:102D5B00122FC6A844A60608A607A844E6FE08E656
:0F2D6B00FF4E600BEF24FFFFEE34FFFE122FCF61
:052D7A000544054422A0
:102DEB0053B1EF43B210123020E4F5D975DA49D262
:102DFB00DE90003F74FFF0A3742DF0A37457F02204
:082419008E298F2A8C2B8D2CDB
:10242100122FC6EF4E7066AF2CAE2B122FCFC3E525
:102431002A940AE5299400404BE47B18FAF9F890B4
:102441002C78120B77120AABC006C007AE29AF2A4F
:10245100AB07AA06E4F9F8D007D006120AABAB071E
:10246100AA06AFF9EFFEADE97C00E42DFFEC3ECF0B
:102471002BCF3AAD07FCAF03AE02122ED1D2D84317
:0F248100DA01800612302053DAFE7F02227F0339
:012490002229
:0C2F9200122FC6EF4E7002FF227F0122BA
:101A1F00E4F580900108E0FFB40800505F901A339E
:101A2F00F8282873021A4B021A51021A57021A5D2C
:101A3F00021A63021A6D021A77021A81C2A3C2A296
:101A4F008016C2A3C2A2801AC2A3C2A2801EC2A3C2
:101A5F00C2A28022C2A3D2A2C2A1C2A08020C2A3CE
:101A6F00D2A2C2A1D2A08016C2A3D2A2D2A1C2A0DA
:101A7F00800CC2A3D2A2D2A1D2A08002D2A3C3EF64
:101A8F00648094885029900108E0FF3395E0FE743C
:101A9F00FF2FF58274003EF583E0FF3395E0FE746F
:101AAF007C2FF582742C3EF583E493F580801E9095
:101ABF000108E0FFB408133395E0FE74FF2FF582A1
:101ACF0074003EF583E0F5808003E4F5809000FE1E
:101ADF00E0FF900108E004FEF0D3EF6480F8EE64BD
:101AEF0080984014E0D36480948850047408F022E6
:091AFF009000FDE0900108F022C6
:102E9E00E4F5937594FF5395F043960F90002A74C2
:0B2EAE00FFF0A3741AF0A3741FF022C1
:092FBD009000FDEFF0A3EDF022FD
:102E0B009000FFEFF0A3EDF0A3EBF0A3E528F0A308
:102E1B00E529F0A3E52AF0A3E52BF0A3E52CF0229E
:06300600900107EFF0222B
:1015ED000141004101210041011E0541011F8341BF
:0315FD0001208347
:1029490020920690011FE014F090011EE014F0702F
:10295900347405F0A3E0FFC39480500EA3E0948083
:102969004018A37401F0F5418010900120E0C39450
:10297900805007A37402F0754101900120EFF09097
:05298900011F7483F042
:01298E002226
:022F5B0015441B
:092F5D00A844A641E4F541E6FF99
:032F6600054422FD
:102E2B0090003674FFF0A3742FF0A3745BF0900046
:0D2E3B003374FFF0A37429F0A37449F02252
:072FEA00900121E0FFE4F07B
:012FF10022BD
:10160000014200490115949400949400949400417F
:0316100001141EA4
:02180F0015447E
:1018110020B206900115E014F020B306900118E003
:1018210014F020970690011BE014F0900114E014CD
:10183100F0600302192F741EF0A844E4F6A844E6F0
:10184100FFC364809483400302192FEF3395E0FEB8
:1018510090011575F003EF120B93EE75F003A425BB
:1018610083F583E0C39480503990011675F003EF3E
:10187100120B93EE75F003A42583F583E0D39480D6
:10188100405AE6FF3395E0FE90011775F003EF1221
:101891000B93EE75F003A42583F5837401F0F542F3
:1018A100803AA844E6FF3395E0FE90011675F003F7
:1018B100EF120B93EE75F003A42583F583E0C39437
:1018C10080501990011775F003EF120B93EE75F02C
:1018D10003A42583F5837402F0754201A844E6FF51
:1018E100FD3395E0FC90011575F003ED120B93ECBF
:1018F10075F003A42583F583E0FE90011675F003CE
:10190100ED120B93EC75F003A42583F583EEF0EF54
:101911003395E0FE90011575F003EF120B93EE7510
:0E192100F003A42583F5837494F00602183EAB
:03192F000544224A
:022F690015440D
:092F6B00A844A642E4F542E6FF89
:032F7400054422EF
:102E480090003074FFF0A3742FF0A37469F0900021
:0D2E58002D74FFF0A37418F0A3740FF02286
:1029D300EF600764016003BF0233EFFD3395E0FC52
:1029E30090011775F003ED120B93EC75F003A4251A
:1029F30083F583E0FE90011775F003ED120B93EC62
:0F2A030075F003A42583F583E4F0AF06227F036B
:012A120022A1
:101613005500C300000000000000000000000000AF
:0C16230000000000000000004100C200B8
:020E9B001544FC
:100E9D00A844E4F6A844E6FFC364809483400302AB
:100EAD00110CEF3395E0FE9000C375F007EF120BB8
:100EBD0093EE75F007A42583F583E0FCA3E04C7059
:100ECD00030211069000C575F007EF120B93EE7536
:100EDD00F007A42583F583E0FEA3E04E7003021115
:100EED0006E6FFFD3395E0FC9000C775F007ED12A7
:100EFD000B93EC75F007A42583F58374FFF5F012C1
:100F0D0009F445F060030211069000C575F007ED78
:100F1D00120B93EC75F007A42583F583E0FAA3E09B
:100F2D00FB9000C775F007ED120B93EC75F007A45D
:100F3D002583F583EAF0A3EBF0EF3395E0FE900007
:100F4D00C375F007EF120B93EE75F007A42583F52B
:100F5D0083E0FCA3E0D39400EC648094804056A819
:100F6D0044E6FD3395E0FC9000C375F007ED120BE0
:100F7D0093EC75F007A42583F58374FFF5F0120942
:100F8D00F49000C975F007ED120B93EC75F007A402
:100F9D002583F583E004F0D3648094834072900040
:100FAD00C975F007EF120B93EE75F007A42583F5C5
:100FBD0083E4F0805BA844E6FFFD3395E0FC9000F0
:100FCD00C375F007ED120B93EC75F007A42583F5AF
:100FDD0083E475F0011209F49000C975F007ED1264
:100FED000B93EC75F007A42583F583E014F0C3642F
:100FFD00809480501BEF3395E0FE9000C975F0078B
:10100D00EF120B93EE75F007A42583F5837403F0AF
:10101D00A844E6FFFD3395E0FC9000C975F007ED9F
:10102D00120B93EC75F007A42583F583E014603C57
:10103D001460661470030210D3240360030210FEC3
:10104D00EF146010146019240260030210FED2C167
:10105D00C2C280299000C2E054F04401F00210FE9B
:10106D009000C2E0540F4410F00210FEA844E614A4
:10107D00601114601924027078C2C1D2C2C2C3C2F9
:10108D00C4806E9000C2E054F04402F08063900082
:10109D00C2E0540F4420F08058A844E614601114A7
:1010AD0060192402704BC2C1C2C2D2C3C2C48041F6
:1010BD009000C2E054F04404F080369000C2E05439
:1010CD000F4440F0802BA844E614601114601924DD
:1010DD0002701EC2C1C2C2C2C3D2C480149000C26B
:1010ED00E054F04408F080099000C2E0540F4480B1
:0F10FD00F09000C2E0FF123006A84406020EA1D8
:03110C0005442275
:102EB90053B3E143B41E53C0E190005474FFF0A32F
:082EC900740EF0A3749BF022CB
:101E38008F29EF3395E0FE9000C375F007EF120B82
:101E480093EE75F007A42583F583E0FEA3E04E60CA
:101E580003021EE0E529600A64016006E5296402C0
:101E68007076ED60737C007E037FE8120969AD2906
:101E7800ED3395E0FC9000C575F007ED120B93EC7F
:101E880075F007A42583F583EEF0A3EFF09000C565
:101E980075F007ED120B93EC75F007A42583F58315
:101EA800E0FEA3E0FF9000C775F007ED120B93EC7E
:101EB80075F007A42583F583EEF0A3EFF09000C337
:101EC80075F007ED120B93EC75F007A42583F583E5
:0B1ED800EAF0A3EBF07F02227F032260
:10287400EF600764016003BF023AEFFD3395E0FCAB
:102884009000C375F007ED120B93EC75F007A425C7
:1028940083F583E0FAA3E0FB9000C375F007ED1223
:1028A4000B93EC75F007A42583F583E4F0A3F0AE55
:0728B40002AF0322E4FEFF66
:0128BB0022FA
:102BB300EF600764016003BF0225EF3395E0FE90E9
:102BC30000C375F007EF120B93EE75F007A425838E
:102BD300F583E0FEA3E04E60037F01227F00227FA6
:022BE3000322CB
:10162F004100000A4100290A41006D0A040E000022
:10163F0000000114004600670000FFFF8FFFC10D7F
:10164F00C105C108C101C10E60240005FF3026FF8E
:10165F003026FF3026FF3026FF3026FF3026FF30A2
:10166F0026FF3026FF3026FF3026FF3026FF30269C
:10167F006036002AFF3026FF3026FF301DFF302650
:10168F00FF301DFF3026FF301DFF3026FF3026FFB5
:10169F003026FF301DFF301DFF301DFF301DFF3086
:0A16AF0026FF3026FF3026FF30260C
:013026002287
:03301D007F00220F
:1028BC00438E805389F07BE07A2879017800902C44
:1028CC0078120B7712298FEFF404F58A7BE07A28C3
:1028DC0079017800902C78120B7712298FC3E49F22
:1028EC00FFE49EFE74019DFDE49CFC7808120B50E5
:0728FC008F8CD28CD2A922BF
:03000B0002278742
:04278700C0E0C0D01E
:10278B00D5080A75084C300D020514D20DA2037240
:10279B00045036150AE50A7030850C0AD207300A48
:1027AB0017E50D6007150D438F01801D538FFEC27A
:1027BB00B5D51615C20A8011050BE50BD39406404F
:0927CB0008C203E5136002D20606
:0527D400D0D0D0E0327E
:10273400300E47C20E902C78120B777810120B5083
:102744008E238F24900003E0FEA3E0FFE4FCFD7BD6
:1027540019FAF9F8120A20C006C007AE23AF24AB59
:1027640007AA06E4F9F8D007D00612298F780312D5
:102774000B50900065EEF0A3EFF0900065E0FEA32F
:02278400E0FF74
:012786002230
:092FC600900067E0FEA3E0FF2289
:092FCF00900067EEF0A3EFF02280
:102ED10090006BEEF0A3EFF0900069ECF0A3EDF041
:012EE10022CE
:03302000C2B42215
:03003B00021F8D14
:101F8D00C0E0C083C082C0D075D000C004C005C001
:031F9D0006C00774
:101FA00030DF04C2DF807D30DA04C2DA807630D9D7
:101FB0003DC2D9AFFBEFFEADEB7C00E42DFFEC3E64
:101FC00020000E900001F0A3EFF075DB11D200802D
:101FD00053FE900001E0FCA3E0FDC3EF9DFFEE9CEB
:101FE000A3F0A3EFF075DB00C200D20E803630D82C
:101FF00033C2D8900067E07002A3E06022B2B490D0
:102000000069E0FEA3E0F5EAEEF5FAA3E0FEA3E046
:10201000FF90006AE02FF0900069E03EF08005C27A
:04202000B453DAFEDD
:10202400D007D006D005D004D0D0D082D083D0E061
:012034003279
:06300C001228BCD2AF2225
:10228A003004047F0180027F00200A047E0180025C
:10229A007E00EE5F6074E515C3950950683002361A
:1022AA00750D01E515131313541FAB17AA18A919B5
:1022BA00F5827583001208F6FFE515540704FEEF50
:1022CA00A806088002C333D8FC30D70575160380E8
:1022DA002F751601802AAB17AA18A91975F002E5FD
:1022EA0015A4F58285F0831208F6F50DE51575F04B
:1022FA0002A429F9EA35F0FA9000011208F6F51657
:0A230A000515D20A22C204438F1009
:0123140022A6
:10193200900000E014F0701F740AF0D205900029A4
:10194200E014F07012740AF0D20890006DE014F006
:101952007005740AF0D20190002AA3E0FAA3E0F91C
:10196200120B9F90002DA3E0FAA3E0F9120B9F90B7
:101972000039A3E0FAA3E0F9120B9F900045A3E01F
:10198200FAA3E0F9120B9F900054A3E0FAA3E0F946
:10199200120B9F90005DA3E0FAA3E0F9120B9F9057
:1019A200004BA3E0FAA3E0F9120B9FEF600C90004A
:1019B2001DA3E0FAA3E0F9120B9F90004EA3E0FAF8
:1019C200A3E0F9120B9FEF600E900020A3E0FAA3B0
:1019D200E0F9120B9FD20BE512D394004016D512F8
:1019E2003030090C900023A3E0FAA3E0F9120B9F18
:1019F200D20C801D900051A3E0FAA3E0F9120B9FD4
:101A0200EF600E900023A3E0FAA3E0F9120B9FD23D
:0D1A12000C900005A3E0FAA3E0F9020B9F81
:1021670090003FA3E0FAA3E0F9120B9F900042A36F
:10217700E0FAA3E0F9120B9F900033A3E0FAA3E083
:10218700F9120B9F900008A3E0FAA3E0F9120B9F46
:10219700900030A3E0FAA3E0F9120B9FEF600C90D8
:1021A7000011A3E0FAA3E0F9120B9F900036A3E019
:1021B700FAA3E0F9120B9FEF600C900017A3E0FA67
:1021C700A3E0F9120B9F900048A3E0FAA3E0F912ED
:1021D7000B9FEF600C90001AA3E0FAA3E0F9120B33
:1021E7009F30060EC206900026A3E0FAA3E0F9127C
:0321F7000B9F2219
:102A130090000BA3E0FAA3E0F9120B9F90003CA3F4
:102A2300E0FAA3E0F9120B9FEF600C900014A3E00F
:102A3300FAA3E0F9120B9F900057A3E0FAA3E0F981
:0F2A4300120B9F90005AA3E0FAA3E0F9020B9F39
:102D0400AF11AE10AD0FAC0E900060120B879000A7
:102D140064E514F0E4F511F510F50FF50EF51490D3
:0B2D2400000EA3E0FAA3E0F9020B9FF1
:102ACF00300705C20712228A300D05C20D121932C6
:102ADF00300505C205122167300805C208122A13F6
:102AEF00300105C201122D04E5112401F511E43561
:0E2AFF0010F510E4350FF50FE4350EF50E223C
:10239C008B238A248925EFB40C0050709023AFF85E
:1023AC002828730223D30223D80223DD0223E2025E
:1023BC0023E70223EC0223F10223F60223FB02247F
:1023CC000002240502240A90000580359000088044
:1023DC003090000B802B90000E80269000118021F5
:1023EC00900017801C900014801790001A80129097
:1023FC00001D800D90002080089000238003900029
:0D240C0026E523F0A3E524F0A3E525F0224A
:072FF9007B017A00796022E0
:0716B9000143004101220082
:0D2F850020A4097543019001227401F0227F
:022F77001544FF
:092F7900A844A643E4F543E6FF79
:032F8200054422E1
:102E650090003C74FFF0A3742FF0A37477F09000EA
:0D2E75003974FFF0A3742FF0A37485F022D0
:022F1200154464
:0A2F1400900122E0A844F6FFE4F06B
:032F1E0005442245
:1016E90000C400DC00F701060126014A01720188E5
:1016F90001B801EE020B024B029302E403100370DE
:1017090003DC04160497052605C800DC00F701155B
:101719000126014A0172019F01B801EE022A024B1A
:10172900029302E4033F037003DC04550497052682
:1017390005C8067D00F701150137014A0172019FAD
:1017490001D201EE022A026E029302E4033F03A4CE
:1017590003DC045504DD057505C8067D0749010646
:101769000126014A015D018801B801EE020B024B15
:10177900029302BA0310037003DC041604970526CA
:101789000575062006E007B80126014A017201889D
:1017990001B801EE022A024B029302E4031003701E
:1017A90003DC04550497052605C8062006E007B89A
:1017B90008AA014A0172019F01B801EE022A026ECC
:1017C900029302E4033F037003DC045504DD05269C
:1017D90005C8067D06E007B808AA09B9015D0188B0
:1017E90001B801D2020B024B029302BA0310037033
:1017F90003A40416049705260575062006E0074983
:06180900082D092D0A4D17
:1016C0004D00F003000000000000000000000000DA
:061EE3008F238D248B25E6
:101EE900122F92EF60037F0122E525D3940040066B
:101EF900E52594114028E525D394174006E5259456
:101F090021401BE525D394274006E5259431400E51
:101F1900E525D394375007E523C394F950037F038C
:101F290022E525603DC4540F75F007A4FDACF0E52A
:101F39002375F015A42DFFE5F03CFEE52554077C3B
:101F4900002FFFEC3EFEEF25E0FFEE33FE74FF2F7E
:101F5900F58274ED3EF583E493F527740193F52832
:101F69008005E4F527F528AF267E007C017D7712F0
:101F79000957AD241C120969AD07AC06AF28AE2775
:031F890012241906
:011F8C002232
:040BA500154415449A
:100BA900122F92EF70047F0180027F009000F0E025
:100BB900FEB402047D0180027D00ED5F6003020E38
:100BC90096EEB4030AE49000EEF0A3F0020E9690BC
:100BD90000F1E0FFB4F3047E0180027E00EFB4F17E
:100BE900047F0180027F00EF4E603E9000F3E0FE3B
:100BF90075F06484FFEE75F00A8475F00A84ADF02F
:100C0900E075F00A84ABF075280A9000F2E0240739
:100C1900F5299000EDE0FEC4540F240AF52A752B3E
:100C29000AEE5407F52C122E0B9000F1E0FFB4F3F5
:100C3900047E0180027E00EFB4F2047F0180027F0E
:100C490000EF4E7003020CEF9000F3E0FD7C007E94
:100C5900177F70120969A844A607E6F975F002A47E
:100C6900FFC39000FCE09F9000FBE095F05070E01E
:100C7900FEA3E0FF7C007D0B120957E9FBFD120979
:100C890069A84408A6079000FBE475F001120A0A56
:100C9900FED3E5F09BEE94004018A84408E624F939
:100CA900FFE47EF0A807088005CEC313CE13D8F958
:100CB900801FA84408E6FF740F7E00A80708800576
:100CC900C333CE33CED8F97804CEA2E713CE13D8E6
:100CD900F8A84408F6A84408E6FF1230068007E49D
:100CE9009000FBF0A3F09000F7E0FEA3E0FFC390B3
:100CF90000FAE09F9000F9E09E4003020E90122F47
:100D090092EF6003020E969000F4E0FBA3E0FAA3D1
:100D1900E0F99000F9E0FEA3E0F5828E831208F66F
:100D2900FFD394375003020E2BEF241024FC507983
:100D3900604524FE7003020DD6147003020DEC24E5
:100D4900026003020E1A9000F4E0FBA3E0FAA3E0AC
:100D5900F99000F9E475F0011209F485F082F58340
:100D69001208F69000F2F09000FAE004F070989002
:100D790000F9E004F080909000F4E0FBA3E0FAA30E
:100D8900E0F99000F9E475F0011209F485F082F5B3
:100D9900831208F69000F3F09000FAE004F0706E08
:100DA9009000F9E004F0020D109000F4E0FBA3E0DC
:100DB900FAA3E0F99000F9E475F001120A0A85F046
:100DC90082F5831208F69000F1F0020D109000F9F7
:100DD900E475F0011209F4AFF09000EEF0A3EFF022
:100DE900020D109000EEE0FEA3E0FF4E60129000AD
:100DF900F9EEF0A3EFF0E49000EEF0A3F0020D108D
:100E09009000FAE004F070069000F9E004F0020D99
:100E1900109000FAE004F070069000F9E004F00286
:100E29000D109000F7E0FEA3E0FFC39000FAE09FE9
:100E39009000F9E09E50569000F4E0FBA3E0FAA37D
:100E4900E0F99000F9E475F001120A0A85F082F5DB
:100E5900831208F69000EDF09000F2E0FFA3E0FDA8
:100E6900A3E0FBA3E0FAA3E0F99000F9E475F0012F
:100E7900120A0A85F082F5831208F6F5269000ED2C
:0D0E8900E0FB121EE380069000F07403F001
:050E96000544054422A3
:0F2F210090004274FFF0A3740BF0A374A5F0228C
:102687009000F0E0B4030DE49000F9F0A3F0A3F09C
:10269700A3F0C210EF60049000F3F0ED6004900027
:1026A700F2F0E94A60047F0180027F00E52E452DA4
:1026B70060047E0180027E00EE5F60139000F4EB01
:1026C700F0A3EAF0A3E9F0A3E52DF0A3E52EF0E5EA
:0826D7002F60049000F1F022D5
:102D7F00BF02047E0180027E00BF01047D0180023C
:102D8F007D00ED4EFEBF03047D0180027D00ED4E00
:082D9F0060059000F0EFF02246
:063012009000F0E0FF2237
:1021FA008B38AA077C007E037FE8120969900110D8
:10220A00EEF0A3EFF0E539FD7C007E037FE81209CA
:10221A0069A3EEF0A3EFF0AF02AB07E4FAF9F89086
:10222A000110E0FEA3E0FFE4FCFD120A20EF2432D5
:10223A00FFE43EFEE43DFDE43CFCE47B64FAF9F88D
:10224A0012298F90010AEEF0A3EFF0AF38AB07E442
:10225A00FAF9F8900112E0FEA3E0FFE4FCFD120A8D
:10226A0020EF2432FFE43EFEE43DFDE43CFCE47B47
:10227A0064FAF9F812298F90010CEEF0A3EFF0221C
:10262E00E4F526F525F524F523F527D291AF26AE50
:10263E0025AD24AC237801120B648F268E258D24B4
:10264E008C2300C291309015E4FAF9F8EF2401F5CD
:10265E0026EA3EF525E93DF524E83CF5230527E578
:10266E0027B418C700D2910000C291AF26AE25AD97
:08267E0024AC237808120B5074
:012686002231
:092FD80090010EE0FEA3E0FF22CF
:0F2EF20090010EE0FEA3E0FFE490010EF0A3F0CC
:012F010022AD
:101B0800900109E0700F3090012212262E90010EEC
:101B1800EEF0A3EFF0900109E0FF64017062051B8D
:101B2800E51B7002051AFDD3900111E09D9001108C
:101B3800E0951A5005E4F51AF51BD390010BE095D2
:101B48001B90010AE0951A4004D2908002C29005C9
:101B58001DE51D7002051CFDD3900113E09D900149
:101B680012E0951C5005E4F51CF51DD390010DE01D
:101B7800951D90010CE0951C4004D2918002C29101
:101B8800EF6402703E2090047F0180027F00E51E12
:101B980060047E0180027E00EE5F6021309110902B
:101BA800010FE004F0701690010EE004F0800E9032
:101BB800010FE024FFF090010EE034FFF0A290E462
:101BC80033F51E900109E0B4031CE51F7002D291A1
:101BD800E51FB40105C29175DB21051FE51FC394FC
:061BE800C84003E4F51FF4
:011BEE0022D4
:102B4A00900109EFF07004C2918002D291900109BC
:102B5A00E0B40310E5A254CFF5A2E4F5D975DB0180
:102B6A00D2DE8003E4F5DB90005D74FFF0A3741BF2
:062B7A00F0A37408F02234
:102F020053B1DF43B220C2B5C20A8F0C438F1022E5
:03005300022491F3
:10249100C0E0C083C082C0D075D000C000C001C000
:0324A10002C00373
:1024A400200313D203753108751300753000E50C51
:1024B400C313F50A803AE50BC394014031E5302596
:1024C400E0F530E50BC3940340020530D53121E536
:1024D40013C39532501A753108AB33AA34A9358524
:1024E4001382758300E53012093505138002C20397
:0324F400750B0065
:1024F700D003D002D001D000D0D0D082D083D0E09A
:0125070032A1
:092FE1008B338A3489358D3222CC
:03302300AF1322C6
:102C16002003047F0180027F00200A047E018002D7
:102C26007E00EE5F60188B178A188919EDC313F5BD
:102C360009C202E4F515538FEFD2047F02227F0307
:012C4600226B
:102A52002003047F0180027F00200A047E0180029D
:102A62007E00EE5F6026538FEF750D10751608D24B
:102A72000A438F018B178A188919ED75F008A4048F
:0F2A8200F509D202E4F515D2047F02227F032268
:102E82002003047F0180027F00200A047E01800269
:0C2E92007E00EE5F60037F00227F0122C3
:1016D0005500D800000000000000000000000000DD
:0816E000000001000000000001
:0300430002110F98
:10110F00C0E0C0F0C083C082C0D075D000C000C0A6
:10111F0001C002C003C004C005C006C007E59A3075
:10112F00E142539AFD9000DDE0FEA3E0FFC3900083
:10113F00DCE09F9000DBE09E501F9000D8E0FBA307
:10114F00E0FAA3E0F9A3E475F001120A0A85F08230
:10115F00F5831208F6F59B800B9000DFE4F0E54075
:10116F006002C2B7E59A20E0030212C6539AFE301E
:10117F000C0BC20C9000E5E4F0A3F0D209E540643B
:10118F000260030212209000E3E0FEA3E0FFA3E061
:10119F00FCA3E0FDC39FEC9E50719000E0E0FBA329
:1011AF00E0FAA3E0F98D828C83E59B12093590005C
:1011BF00EBE0FEA3E0FFC3ED9FEC9E50409000E3F9
:1011CF00E0FCA3E0FDEF9DEE9C50329000E8E0FBC9
:1011DF00A3E0FAA3E0F99000E5E0FEA3E0FFF582BB
:1011EF008E831208F6FD9000E0E0FBA3E0FAA3E087
:1011FF00F98F828E831208F66D6002C2099000E6A5
:10120F00E004F070069000E5E004F0853F12021252
:10121F00C69000E3E0FEA3E0FFA3E0FCA3E0FDC364
:10122F009FEC9E50779000E0E0FBA3E0FAA3E0F97B
:10123F008D828C83E59B1209359000EBE0FEA3E0D5
:10124F00FFC3ED9FEC9E50469000E3E0FCA3E0FD52
:10125F00EF9DEE9C50389000E8E0FBA3E0FAA3E08E
:10126F00F99000E5E0FEA3E0FFF5828E831208F609
:10127F00FD9000E0E0FBA3E0FAA3E0F98F828E83FC
:10128F001208F66D60089000E574FFF0A3F090006F
:10129F00E6E004F070069000E5E004F09000E3E073
:1012AF00FEA3E0FFC39000E6E09F9000E5E09E40C4
:1012BF00069000E77401F0D007D006D005D004D017
:1012CF0003D002D001D000D0D0D082D083D0F0D0C4
:0212DF00E032FB
:022F3000154446
:0A2F32009000E7E0A844F6FFE4F089
:032F3C0005442227
:013027002286
:101D83008F268E258D248C23852740E54070028085
:101D93000343BA01E540701790005D74FFF0A3742C
:101DA30030F0A37427F0E4F5DBD290D2918020C207
:101DB300B7AB26AA25A924A823E47F407E9CFDFC7B
:101DC300120AAB8F3FE53F7003753F01853F1275E4
:101DD3009A10E47B04FAF9F8902C78120B77120A24
:101DE300ABAB26AA25A924A823120AABEFF404F56A
:101DF300D7E47B04FAF9F8902C78120B77120AAB2C
:101E0300AB26AA25A924A823120AABC3E49FFFE4A7
:101E13009EFE74019DFDE49CFC7808120B3D8FD659
:101E2300438E1443AF0190005174FFF0A3742FF05D
:051E3300A37430F02251
:102C47009000E0EBF0A3EAF0A3E9F0A3ECF0A3ED2A
:102C5700F09000EBE52BF0A3E52CF09000E8E528D9
:102C6700F0A3E529F0A3E52AF0D20CE49000E7F001
:012C7700223A
:102CA7009000DFE070269000D8EBF0A3EAF0A3E9EC
:102CB700F0E4A3F0A3F0A3ECF0A3EDF0A37401F00C
:0F2CC700E5406002D2B7439A027F02227F0322C8
:0B2FA9009000DFE07002FF227F012299
:03000000022035A6
:10203500787FE4F6D8FD9000007F007E07E4F0A3EA
:0A204500DFFCDEFA75814402208AF8
:10204F00021BEFE493A3F8E493A34003F68001F29D
:10205F0008DFF48029E493A3F85407240CC8C33392
:10206F00C4540F4420C8834004F456800146F6DF61
:10207F00E4800B01020408102040809015C3E47E19
:10208F00019360BCA3FF543F30E509541FFEE49356
:10209F00A360010ECF54C025E060A840B8E493A31D
:1020AF00FAE493A3F8E493A3C8C582C8CAC583CA48
:1020BF00F0A3C8C582C8CAC583CADFE9DEE780BE00
:0116E8000001
:10080000E709F608DFFA8046E709F208DFFA803EDA
:1008100088828C83E709F0A3DFFA8032E309F608C7
:10082000DFFA8078E309F208DFFA807088828C832F
:10083000E309F0A3DFFA806489828A83E0A3F608E3
:10084000DFFA805889828A83E0A3F208DFFA804CBD
:1008500080D280FA80C680D4806980F28033801094
:1008600080A680EA809A80A880DA80E280CA8033FD
:1008700089828A83ECFAE493A3C8C582C8CCC58375
:10088000CCF0A3C8C582C8CCC583CCDFE9DEE78045
:100890000D89828A83E493A3F608DFF9ECFAA9F0C4
:1008A000EDFB2289828A83ECFAE0A3C8C582C8CC1A
:1008B000C583CCF0A3C8C582C8CCC583CCDFEADE33
:1008C000E880DB89828A83E493A3F208DFF980CC95
:1008D00088F0EF60010E4E60C388F0ED2402B4048E
:1008E0000050B9F582EB2402B4040050AF23234535
:0608F00082239008507302
:1008F600BB010CE58229F582E5833AF583E02250B7
:1009060006E92582F8E622BBFE06E92582F8E22200
:0D091600E58229F582E5833AF583E493221A
:10092300BB010689828A83F0225002F722BBFE01B3
:02093300F322AD
:10093500F8BB010DE58229F582E5833AF583E8F0F8
:10094500225006E92582C8F622BBFE05E92582C8A4
:02095500F2228C
:10095700EF8DF0A4A8F0CF8CF0A428CE8DF0A42EB4
:02096700FE226E
:10096900BC000BBE0029EF8DF084FFADF022E4CC72
:10097900F875F008EF2FFFEE33FEEC33FCEE9DEC3B
:10098900984005FCEE9DFE0FD5F0E9E4CEFD22ED81
:10099900F8F5F0EE8420D21CFEADF075F008EF2FCB
:1009A900FFED33FD4007985006D5F0F222C398FDBC
:0509B9000FD5F0EA2259
:1009BE00C2D5EC30E709B2D5E4C39DFDE49CFCEE54
:1009CE0030E715B2D5E4C39FFFE49EFE120969C35A
:1009DE00E49DFDE49CFC800312096930D507C3E455
:0609EE009FFFE49EFE22C3
:1009F400C5F0F8A3E028F0C5F0F8E582158270028E
:060A04001583E038F0222A
:100A0A00A3F8E0C5F025F0F0E5821582700215839F
:060A1A00E0C838F0E822FC
:100A2000E88FF0A4CC8BF0A42CFCE98EF0A42CFC75
:100A30008AF0EDA42CFCEA8EF0A4CDA8F08BF0A4F3
:100A40002DCC3825F0FDE98FF0A42CCD35F0FCEB52
:100A50008EF0A4FEA9F0EB8FF0A4CFC5F02ECD3917
:0F0A6000FEE43CFCEAA42DCE35F0FDE43CFC2284
:100A6F0075F008758200EF2FFFEE33FECD33CDCC3E
:100A7F0033CCC58233C5829BED9AEC99E5829840C1
:100A8F000CF582EE9BFEED9AFDEC99FC0FD5F0D69E
:100A9F00E4CEFBE4CDFAE4CCF9A88222B800C1B9C8
:100AAF000059BA002DEC8BF084CFCECDFCE5F0CB06
:100ABF00F97818EF2FFFEE33FEED33FDEC33FCEB3F
:100ACF0033FB10D703994004EB99FB0FD8E5E4F9FA
:100ADF00FA227818EF2FFFEE33FEED33FDEC33FCE7
:100AEF00C933C910D7059BE99A4007EC9BFCE99ADB
:100AFF00F90FD8E0E4C9FAE4CCFB2275F010EF2F20
:100B0F00FFEE33FEED33FDCC33CCC833C810D7071F
:100B1F009BEC9AE899400AED9BFDEC9AFCE899F85A
:0E0B2F000FD5F0DAE4CDFBE4CCFAE4C8F922ED
:10298F00C2D5E830E70FB2D5E4C39BFBE49AFAE473
:10299F0099F9E498F8EC30E717B2D51229C5120A65
:1029AF00ABE4C39BFBE49AFAE499F9E498F880034B
:1029BF00120AAB30D50DE4C39FFFE49EFEE49DFDEC
:0429CF00E49CFC2266
:100B3D00E8600FECC313FCED13FDEE13FEEF13FF96
:030B4D00D8F122BA
:100B5000E86010ECA2E713FCED13FDEE13FEEF13BB
:040B6000FFD8F022A8
:100B6400E8600FEFC333FFEE33FEED33FDEC33FCEF
:030B7400D8F12293
:100B7700E493FC740193FD740293FE740393FF22C4
:0C0B8700ECF0A3EDF0A3EEF0A3EFF022E1
:0C0B9300A42582F582E5F03583F583226D
:060B9F008A838982E473E1
:00000001FF
