:10250A0000A8C0003F065B4F666D7D077F6F00081D
:10251A0040014148BF86DBCFE6EDFD87FFEF773507
:0F252A00083108350831083508310835083108FF
:100CE30042007FFFFF41006F004100A000410089E7
:010CF3003CC4
:0B27C600EC120179ED90000102018B84
:081E67008B298A2A892B8D2C9E
:101E6F0074FFF52DF52EE4FDEDC3952C503EAB29F7
:101E7F00AA2AA92B8D8275830012014C622EE4FCD5
:101E8F00E52E30E015E52DC313FEE52E13FFEE64AE
:101E9F00A0F52DEF6401F52E800BE52DC313F52D65
:101EAF00E52E13F52E0CBC08D70D80BCAE2DAF2E32
:011EBF002200
:0822CA008B238A2489258D264F
:1022D200C3E5269402FD121E678E278F28E5267C11
:1022E2000024FEF582EC34FFF583AB23AA24A92552
:1022F200EF12018BE527FFE52624FFF582EC34FF80
:06230200F583EF02018BE0
:082016008D268B238A24892505
:10201E00C3E5269402FD121E678E278F28E526FD46
:10202E007C0024FEF582EC34FFF583AB23AA24A9B1
:10203E002512014C652860037F002274FF2DF58266
:10204E0074FF3CF58312014CFDE5276D60037F00A4
:03205E00227F01DD
:01206100225C
:1023B1008F2890008AE065286028E4FF1223E4EF6B
:1023C1006401601EE52860067A007B3080047AFF94
:1023D1007BD07D1EE4FF1215B5BF020690008AE591
:0323E10028F022BF
:1025E3008F281226C3EF701990009C745AF0A3E54C
:1025F30028F064A5A3F07B017A00799C7D03122265
:022603008B2228
:10260500900072E0701B7BFF7A257929752D007586
:102615002E10752FF07DFC7FC8121F197F01122522
:02262500BB22D6
:05003E007F030225BB59
:101D1D0090006FE06F606890006FEFF01460221418
:101D2D00603514604724037056E49000A0F09000D5
:101D3D007EF0900072F090009BF012003EE4FF8068
:101D4D002890009F7403F0E4A3F090007EF09000C3
:101D5D0072F090009BF022E49000A0F090007EF0D5
:101D6D00900072F012003E7F010223B19000A0742A
:101D7D0002F07F011223B11226057F021225E32204
:1024DA0090006FE0B40210900071E0600A90007EF4
:1024EA007401F07F03801590006FE0B4031190002F
:1024FA007EE0600B900071E070057F02121D1D22C4
:1027230090006FE070047F018002E4FF121D1D2200
:1018E900E4FE90006FE0FD64026004EDB40303437D
:1018F9000601900071E0600343060290009BE060DE
:101909000343060490006EE0600343060890008AD2
:10191900E06003430610900072E0600343062090E4
:10192900008B7403F0A3EFF0A3740CF0A3EEF07B2B
:10193900017A00798F90007FE0FCA3E0FD1227C6B1
:101949009000A0E0900091F0900074E0900092F077
:10195900900070E0900093F090006FE0900094F098
:10196900E4A3F0A3F0A3F0900075E0900098F07A5A
:0819790000798B7D100222CAE7
:1017B200900081E06403600302184E7B017A007995
:1017C200817D08122016EF700302184E900082E00D
:1017D20024FA604724F66008240D70707F03805C51
:1017E200900083E0700A90006FE06004E4FF800FD5
:1017F200900083E0B4010B90006FE070057F01124E
:101802001D1D900084E0FFC3940A400BEFD394C8DF
:101812005005900089EFF07F108021900083E0B4A2
:10182200020B9000727401F012003E800D90008352
:10183200E0FFD3940150031223B17F061218E97B13
:0D184200017A00798B7D107C00122539227F
:10262700AE031BEE601BED75F00A84EF2B2476F5E5
:1026370082E43400F583E5F0F0ED75F00A84FD805F
:02264700DF2290
:101052007F08900076740AF0A3DFFCE53C600C90F8
:101062000089E0FD7B037F0502111AE53A60030265
:1010720010FF90006FE0FCB4010C90009FE0FD7B3C
:10108200027F0602111A90007FE0F523A3E0F52407
:10109200C3E523648094805005E4F523F524D3E569
:1010A2002494E7E523648094834006752303752422
:1010B200E7EC6402600790006FE0B403047F1A80DB
:1010C200027F00900076EFF0900071E0900078F0DF
:1010D2009000A0E090007AF0AE23AF247C007D6403
:1010E200120214AD077B017F05122627AE23AF241F
:1010F2007C007D641202147B027F06801B900076C6
:101102007401F0900074E0FD7B027F0212262790AA
:101112000070E0FD7B027F06122627900076E0FF3A
:10112200A3E0FDA3E0FBA3E0F528A3E0F529A3E0FB
:10113200F52AA3E0F52BA3E0F52C122669E4FF9033
:10114200006FE0FE60010F900071E0600343070250
:1011520090009BE0600343070490006EE06003434D
:0C1162000708EEB4030343073002282600
:102416001200038F23E523B4021C9000717401F0AF
:10242600900070E004F090006FE070147D08FC7F6F
:10243600B87E0B021C2EE523B40105E4900071F072
:012446002273
:10237C00122753EF6401702C90009BE0C394FF5024
:10238C0003E004F090006FE0B4021990009BE0C3EE
:10239C0094034010900074E004F0E490007EF07F11
:0523AC0003121D1D22BB
:101DFD00053BE53BC39402403DE4F53B121F71C327
:101E0D00EF9402EE64809480402CD3EF9490EE64B6
:101E1D00809481502190007FEEF0A3EFF090008927
:101E2D00E0FDEF9D7480F86E9850047F0180027F75
:101E3D000090006EEFF01224DA90006FE0B4021102
:101E4D0090006EE060047F0180027F009000A0EFA3
:0A1E5D00F0E53C6002153C02105253
:101B2F0090006FE0B401227D0A7C007FC47E091211
:101B3F001C2E90009FE0D394004003E014F090001F
:101B4F009FE070057F02121D1D900073E004F0E00E
:101B5F00C394024006E4F090009BF090006FE0B455
:101B6F000311900072E0700B122832EF64016003D2
:101B7F0012260590006FE0B4021190006EE0600B2A
:101B8F007D057C007FAC7E0D121C2E122819782348
:101B9F007C007D007E007F05120126900075E527F1
:011BAF00F045
:011BB0002212
:10206200E4FF12220CBF0112E53A045401F53A7D55
:10207200037C007FB87E0B121C2E7F0112220CEF14
:102082006401702690006FE06403701E900072E09D
:1020920070047F0180027F00900072EFF0600812EE
:0B20A200003E7F030225E3122605220A
:101D8D00E4FF12213CBF01131227237F011225E32B
:101D9D007D0A7C007FD07E07121C2E7F0512213C10
:101DAD00BF011B900089E0C394C85004E0240AF0E1
:101DBD00753C147D037C007FAC7E0D121C2E7F02C2
:101DCD0012213CBF011B900089E0D3940A4004E02E
:101DDD0024F6F0753C147D037C007FC47E09121C33
:101DED002E7F0312213CBF0106753C14E4F53A2207
:10142B001226DF7D07E4FF1227E5122689122649D3
:10143B0012276212000E1226A61226FA7F2B1227F3
:10144B00437F981224477F031223467527027F8020
:10145B007E257D007C00121500752800752900750E
:10146B002A00E4F52BF52C7B017A0079817D08FCB1
:10147B001224A97BFF7A1D79FD7F02121BB17BFF22
:10148B007A1B792F7F03121BB17BFF7A2079627F46
:10149B0004121BB17BFF7A1D798D7F07121BB17B69
:1014AB00FF7A2479167F05121BB17BFF7A23797C97
:1014BB007F06121BB17BFF7A1779B27F0A121BB121
:1014CB00E4900071F090008AF090006EF090007242
:1014DB00F090007EF0900074F090009BF090007301
:1014EB00F0900070F090009FF0900075F012282C97
:0514FB0012230880FB34
:0927DC008B88898C88898F88891B
:100CF4005200AD868600868600868600868600863B
:090D040086008686004100A20968
:03002B0002282088
:0628200053BCEFD20F32A1
:020B3700154463
:100B3900200F03020CE0C20F9000A1E0B4090040AD
:100B490003020CC2900B54F8282873020B9B020B6A
:100B59006F020B81020BAD020B6F020B81020BC4FA
:100B6900020B6F020B81AFBDEFFEADBE7C00E42D21
:100B7900FFEC3E9000A3803CAFBDEFFEADBE7C0014
:100B8900E42DFFEC3E9000A5F0A3EFF0753D0102C6
:100B99000CC8AFBDEFFEADBE7C00E42DFFEC3E906E
:100BA90000A78010AFBDEFFEADBE7C00E42DFFECC9
:100BB9003E9000A9F0A3EFF0020CC8AFBDEFFEAD67
:100BC900BE7C00E42DFFEC3E9000ABF0A3EFF0906B
:100BD90000ABE0FEA3E07807CEC313CE13D8F9A883
:100BE90044F6C394065013A844E675F003A424AD53
:100BF900F582E43400F583E014F09000A2E014F0EB
:100C09006003020CC87409F0A844E4F6A844E6FF9E
:100C1900C394064003020CC8EF75F003A424ADF594
:100C290082E43400F583E0C39480502AE6FF75F02E
:100C390003A424AEF582E43400F583E0D394804024
:100C490040EF75F003A424AFF582E43400F5837412
:100C590001F0F53E802BA844E6FF75F003A424AE0D
:100C6900F582E43400F583E0C394805014EF75F005
:100C790003A424AFF582E43400F5837402F0753ED1
:100C890001A844E6FF75F003A424ADF582E434001D
:100C9900F583E0FEEF75F003A424AEF582E4340099
:100CA900F583EEF0E675F003A424ADF582E4340093
:100CB900F5837486F006020C159000A174FFF0907C
:100CC90000A1E0D39407400374FFF09000A1E00471
:070CD900F09027DC93F5BC4D
:030CE000054422A6
:022780001544FE
:09278200A844A63EE4F53EE6FF82
:03278B00054422E0
:02278E001544F0
:09279000A844A63DE4F53DE6FF76
:03279900054422D2
:102447008F9D75BC88439720D2AD90004574FFF0EF
:10245700A3740BF0A37437F0A374FFF0A37427F0F1
:10246700A37480F0A374FFF0A37427F0A3748EF015
:012477002242
:072812007B017A0079A3228B
:10213C00C3EF64809480403BD3EF6480948550332C
:10214C00EFFD3395E0FC9000AF75F003ED1203E961
:10215C00EC75F003A42583F583E0FE9000AF75F0D9
:10216C0003ED1203E9EC75F003A42583F583E4F089
:05217C00AF06227F0305
:01218100223B
:042593001544154492
:102597001227EEA844A60608A607A844E6FE08E602
:0F25A700FF4E600BEF24FFFFEE34FFFE1227F70D
:0525B60005440544226C
:1026490053B1EF43B21012283BE4F5D975DA49D2F8
:10265900DE90003F74FFF0A37425F0A37493F02279
:081C2E008E298F2A8C2B8D2CCE
:101C36001227EEEF4E7066AF2CAE2B1227F7C3E5D8
:101C46002A940AE5299400404BE47B18FAF9F890A7
:101C5600250A1203CD120301C006C007AE29AF2A1A
:101C6600AB07AA06E4F9F8D007D006120301AB07C2
:101C7600AA06AFF9EFFEADE97C00E42DFFEC3ECFFE
:101C86002BCF3AAD07FCAF03AE02122712D2D843D0
:0F1C9600DA01800612283B53DAFE7F02227F0319
:011CA500221C
:0C0046001227EEEF4E7002FF227F012215
:10125B00E4F580900105E0FFB40800505F90126F39
:10126B00F828287302128702128D02129302129928
:10127B0002129F0212A90212B30212BDC2A3C2A292
:10128B008016C2A3C2A2801AC2A3C2A2801EC2A38E
:10129B00C2A28022C2A3D2A2C2A1C2A08020C2A39A
:1012AB00D2A2C2A1D2A08016C2A3D2A2D2A1C2A0A6
:1012BB00800CC2A3D2A2D2A1D2A08002D2A3C3EF30
:1012CB00648094885029900105E0FF3395E0FE740B
:1012DB00FC2FF58274003EF583E0FF3395E0FE743E
:1012EB000E2FF58274253EF583E493F580801E90D6
:1012FB000105E0FFB408133395E0FE74FC2FF58273
:10130B0074003EF583E0F5808003E4F5809000FBEC
:10131B00E0FF900105E004FEF0D3EF6480F8EE648B
:10132B0080984014E0D36480948850047408F022B1
:09133B009000FAE0900105F02297
:1026DF00E4F5937594FF5395F043960F90002A7489
:0B26EF00FFF0A37412F0A3745BF02254
:0927E5009000FAEFF0A3EDF022E0
:102669009000FCEFF0A3EDF0A3EBF0A3E528F0A3B5
:10267900E529F0A3E52AF0A3E52BF0A3E52CF02248
:06282600900104EFF02216
:100D0D0001410041011E0041011B0541011C8341B0
:030D1D00011D8332
:1021820020920690011CE014F090011BE014F07004
:10219200347405F0A3E0FFC39480500EA3E0948052
:1021A2004018A37401F0F541801090011DE0C39422
:1021B200805007A37402F075410190011DEFF09069
:0521C200011C7483F014
:0121C70022F5
:02279C001544E2
:09279E00A844A641E4F541E6FF60
:0327A700054422C4
:10000E0090003674FFF0A37427F0A3749CF0900058
:0D001E003374FFF0A37421F0A37482F0226C
:0700030090011EE0FFE4F094
:01000A0022D3
:100D2000014200490112949400949400949400416B
:030D300001111E90
:020F2F00154467
:100F310020B206900112E014F020B306900115E0F2
:100F410014F0209706900118E014F0900111E014BC
:100F5100F0600302104F741EF0A844E4F6A844E6C2
:100F6100FFC364809483400302104FEF3395E0FE8A
:100F710090011275F003EF1203E9EE75F003A42559
:100F810083F583E0C39480503990011375F003EF2A
:100F91001203E9EE75F003A42583F583E0D3948071
:100FA100405AE6FF3395E0FE90011475F003EF120D
:100FB10003E9EE75F003A42583F5837401F0F5428E
:100FC100803AA844E6FF3395E0FE90011375F003E3
:100FD100EF1203E9EE75F003A42583F583E0C394D2
:100FE10080501990011475F003EF1203E9EE75F0CA
:100FF10003A42583F5837402F0754201A844E6FF3A
:10100100FD3395E0FC90011275F003ED1203E9EC5C
:1010110075F003A42583F583E0FE90011375F003B9
:10102100ED1203E9EC75F003A42583F583EEF0EFEF
:101031003395E0FE90011275F003EF1203E9EE75AE
:0E104100F003A42583F5837494F006020F5E7D
:03104F0005442233
:0227AA001544D4
:0927AC00A844A642E4F542E6FF50
:0327B500054422B6
:1026890090003074FFF0A37427F0A374AAF09000AF
:0D2699002D74FFF0A3740FF0A3742FF02236
:10220C00EF600764016003BF0233EFFD3395E0FC20
:10221C0090011475F003ED1203E9EC75F003A4259D
:10222C0083F583E0FE90011475F003ED1203E9ECE5
:0F223C0075F003A42583F583E4F0AF06227F033A
:01224B002270
:100D33005500C0000000000000000000000000009B
:0C0D430000000000000000004100BF00A4
:0206F1001544AE
:1006F300A844E4F6A844E6FFC3648094834003025D
:100703000962EF3395E0FE9000C075F007EF120326
:10071300E9EE75F007A42583F583E0FCA3E04C70B4
:100723000302095C9000C275F007EF1203E9EE754E
:10073300F007A42583F583E0FEA3E04E70030209CE
:100743005CE6FFFD3395E0FC9000C475F007ED1205
:1007530003E9EC75F007A42583F58374FFF5F01224
:10076300024A45F0600302095C9000C275F007ED90
:100773001203E9EC75F007A42583F583E0FAA3E0FF
:10078300FB9000C475F007ED1203E9EC75F007A4C4
:100793002583F583EAF0A3EBF0EF3395E0FE9000B9
:1007A300C075F007EF1203E9EE75F007A42583F592
:1007B30083E0FCA3E0D39400EC648094804056A8CB
:1007C30044E6FD3395E0FC9000C075F007ED12039D
:1007D300E9EC75F007A42583F58374FFF5F01202A5
:1007E3004A9000C675F007ED1203E9EC75F007A413
:1007F3002583F583E004F0D36480948340729000F2
:10080300C675F007EF1203E9EE75F007A42583F52B
:1008130083E4F0805BA844E6FFFD3395E0FC9000A1
:10082300C075F007ED1203E9EC75F007A42583F515
:1008330083E475F00112024A9000C675F007ED12C9
:1008430003E9EC75F007A42583F583E014F0C36492
:10085300809480501BEF3395E0FE9000C675F0073F
:10086300EF1203E9EE75F007A42583F5837403F013
:10087300A844E6FFFD3395E0FC9000C675F007ED54
:100883001203E9EC75F007A42583F583E014603CBB
:1008930014606614700302092924036003020954D7
:1008A300EF14601014601924026003020954D2C1CA
:1008B300C2C280299000BFE054F04401F002095401
:1008C3009000BFE0540F4410F0020954A844E6140A
:1008D300601114601924027078C2C1D2C2C2C3C2AB
:1008E300C4806E9000BFE054F04402F08063900037
:1008F300BFE0540F4420F08058A844E6146011145C
:1009030060192402704BC2C1C2C2D2C3C2C48041A7
:100913009000BFE054F04404F080369000BFE054F0
:100923000F4440F0802BA844E6146011146019248E
:1009330002701EC2C1C2C2C2C3D2C480149000BF1F
:10094300E054F04408F080099000BFE0540F448065
:0F095300F09000BFE0FF122826A844060206F726
:0309620005442227
:1026FA0053B3E143B41E53C0E190005474FFF0A3F6
:08270A007406F0A374F1F02243
:1015B5008F29EF3395E0FE9000C075F007EF120319
:1015C500E9EE75F007A42583F583E0FEA3E04E6000
:1015D5000302165DE529600A64016006E5296402D7
:1015E5007076ED60737C007E037FE81201BFAD2944
:1015F500ED3395E0FC9000C275F007ED1203E9ECC0
:1016050075F007A42583F583EEF0A3EFF09000C2F3
:1016150075F007ED1203E9EC75F007A42583F58352
:10162500E0FEA3E0FF9000C475F007ED1203E9ECBE
:1016350075F007A42583F583EEF0A3EFF09000C0C5
:1016450075F007ED1203E9EC75F007A42583F58322
:0B165500EAF0A3EBF07F02227F0322EB
:1020AD00EF600764016003BF023AEFFD3395E0FC7A
:1020BD009000C075F007ED1203E9EC75F007A4254B
:1020CD0083F583E0FAA3E0FB9000C075F007ED12F5
:1020DD0003E9EC75F007A42583F583E4F0A3F0AED6
:0720ED0002AF0322E4FEFF35
:0120F40022C9
:1023E400EF600764016003BF0225EF3395E0FE90C0
:1023F40000C075F007EF1203E9EE75F007A425831A
:10240400F583E0FEA3E04E60037F01227F00227F7C
:022414000322A1
:100D4F004100000A4100290A41006D0A040E00000B
:100D5F0000000114004600670000FFFF8FFFC10D68
:100D6F00C105C108C101C10E60240005FF0052FF7B
:100D7F000052FF0052FF0052FF0052FF0052FF00CF
:100D8F0052FF0052FF0052FF0052FF0052FF00526D
:100D9F006036002AFF0052FF0052FF2838FF005232
:100DAF00FF2838FF0052FF2838FF0052FF0052FF84
:100DBF000052FF2838FF2838FF2838FF2838FF0057
:0A0DCF0052FF0052FF0052FF0052D5
:01005200228B
:032838007F0022FC
:1020F500438E805389F07BE07A287901780090251A
:102105000A1203CD1221C8EFF404F58A7BE07A2880
:102115007901780090250A1203CD1221C8C3E49FE6
:10212500FFE49EFE74019DFDE49CFC78081203A665
:072135008F8CD28CD2A9228D
:03000B00021FC40D
:041FC400C0E0C0D0E9
:101FC800D5080A75084C300D020514D20DA203720B
:101FD800045036150AE50A7030850C0AD207300A13
:101FE80017E50D6007150D438F01801D538FFEC245
:101FF800B5D51615C20A8011050BE50BD39406401A
:0920080008C203E5136002D206D0
:05201100D0D0D0E03248
:101F7100300E47C20E90250A1203CD78101203A627
:101F81008E238F24900003E0FEA3E0FFE4FCFD7BA1
:101F910019FAF9F8120276C006C007AE23AF24ABD6
:101FA10007AA06E4F9F8D007D0061221C87803126F
:101FB10003A6900065EEF0A3EFF0900065E0FEA3AC
:021FC100E0FF3F
:011FC30022FB
:0927EE00900067E0FEA3E0FF2269
:0927F700900067EEF0A3EFF02260
:1027120090006BEEF0A3EFF0900069ECF0A3EDF007
:012722002294
:03283B00C2B42202
:03003B0002170A9F
:10170A00C0E0C083C082C0D075D000C004C005C08C
:03171A0006C007FF
:10171D0030DF04C2DF807D30DA04C2DA807630D962
:10172D003DC2D9AFFBEFFEADEB7C00E42DFFEC3EEF
:10173D0020000E900001F0A3EFF075DB11D20080B8
:10174D0053FE900001E0FCA3E0FDC3EF9DFFEE9C76
:10175D00A3F0A3EFF075DB00C200D20E803630D8B7
:10176D0033C2D8900067E07002A3E06022B2B4905B
:10177D000069E0FEA3E0F5EAEEF5FAA3E0FEA3E0D2
:10178D00FF90006AE02FF0900069E03EF08005C206
:04179D00B453DAFE69
:1017A100D007D006D005D004D0D0D082D083D0E0ED
:0117B1003205
:06282C001220F5D2AF22DC
:101AA4003004047F0180027F00200A047E0180024A
:101AB4007E00EE5F6074E515C39509506830023608
:101AC400750D01E515131313541FAB17AA18A919A3
:101AD400F58275830012014CFFE515540704FEEFEF
:101AE400A806088002C333D8FC30D70575160380D6
:101AF4002F751601802AAB17AA18A91975F002E5EB
:101B040015A4F58285F08312014CF50DE51575F0E9
:101B140002A429F9EA35F0FA90000112014CF516F5
:0A1B24000515D20A22C204438F10F7
:011B2E002294
:10116E00900000E014F0701F740AF0D20590002970
:10117E00E014F07012740AF0D20890006DE014F0D2
:10118E007005740AF0D20190002AA3E0FAA3E0F9E8
:10119E001203F590002DA3E0FAA3E0F91203F590E7
:1011AE000039A3E0FAA3E0F91203F5900045A3E09D
:1011BE00FAA3E0F91203F5900054A3E0FAA3E0F9C4
:1011CE001203F590005DA3E0FAA3E0F91203F59087
:1011DE00004BA3E0FAA3E0F91203F5EF600C9000C8
:1011EE001DA3E0FAA3E0F91203F590004EA3E0FA76
:1011FE00A3E0F91203F5EF600E900020A3E0FAA32E
:10120E00E0F91203F5D20BE512D394004016D51275
:10121E003030090C900023A3E0FAA3E0F91203F595
:10122E00D20C801D900051A3E0FAA3E0F91203F551
:10123E00EF600E900023A3E0FAA3E0F91203F5D2BB
:0D124E000C900005A3E0FAA3E0F90203F5FF
:1019810090003FA3E0FAA3E0F91203F5900042A30F
:10199100E0FAA3E0F91203F5900033A3E0FAA3E023
:1019A100F91203F5900008A3E0FAA3E0F91203F598
:1019B100900030A3E0FAA3E0F91203F5EF600C9078
:1019C1000011A3E0FAA3E0F91203F5900036A3E0B9
:1019D100FAA3E0F91203F5EF600C900017A3E0FA07
:1019E100A3E0F91203F5900048A3E0FAA3E0F9128D
:1019F10003F5EF600C90001AA3E0FAA3E0F91203DB
:101A0100F530060EC206900026A3E0FAA3E0F91213
:031A110003F522B8
:10224C0090000BA3E0FAA3E0F91203F590003CA375
:10225C00E0FAA3E0F91203F5EF600C900014A3E090
:10226C00FAA3E0F91203F5900057A3E0FAA3E0F902
:0F227C001203F590005AA3E0FAA3E0F90203F56C
:10256800AF11AE10AD0FAC0E9000601203DD9000FD
:1025780064E514F0E4F511F510F50FF50EF5149077
:0B258800000EA3E0FAA3E0F90203F547
:10230800300705C207121AA4300D05C20D12116E4E
:10231800300505C205121981300805C20812224C81
:10232800300105C201122568E5112401F511E435D3
:0E23380010F510E4350FF50FE4350EF50E220A
:101BB1008B238A248925EFB40C005070901BC4F844
:101BC100282873021BE8021BED021BF2021BF7021D
:101BD1001BFC021C01021C06021C0B021C10021C35
:101BE10015021C1A021C1F90000580359000088008
:101BF1003090000B802B90000E80269000118021E8
:101C0100900017801C900014801790001A80129089
:101C1100001D800D9000208008900023800390001B
:0D1C210026E523F0A3E524F0A3E525F0223D
:072819007B017A00796022C7
:070DD90001430041011F006E
:0D002E0020A40975430190011F7401F02208
:0227B8001544C6
:0927BA00A844A643E4F543E6FF40
:0327C300054422A8
:1026A60090003C74FFF0A37427F0A374B8F0900078
:0D26B6003974FFF0A37400F0A3742EF0221D
:0227530015442B
:0A27550090011FE0A844F6FFE4F035
:03275F000544220C
:100E090000C400DC00F701060126014A01720188CD
:100E190001B801EE020B024B029302E403100370C6
:100E290003DC04160497052605C800DC00F7011544
:100E39000126014A0172019F01B801EE022A024B03
:100E4900029302E4033F037003DC0455049705266B
:100E590005C8067D00F701150137014A0172019F96
:100E690001D201EE022A026E029302E4033F03A4B7
:100E790003DC045504DD057505C8067D074901062F
:100E89000126014A015D018801B801EE020B024BFE
:100E9900029302BA0310037003DC041604970526B3
:100EA9000575062006E007B80126014A0172018886
:100EB90001B801EE022A024B029302E40310037007
:100EC90003DC04550497052605C8062006E007B883
:100ED90008AA014A0172019F01B801EE022A026EB5
:100EE900029302E4033F037003DC045504DD052685
:100EF90005C8067D06E007B808AA09B9015D018899
:100F090001B801D2020B024B029302BA031003701B
:100F190003A40416049705260575062006E007496B
:060F2900082D092D0A4D00
:100DE0004D00ED03000000000000000000000000C6
:061660008F238D248B2571
:10166600120046EF60037F0122E525D39400400671
:10167600E52594114028E525D394174006E52594E1
:1016860021401BE525D394274006E5259431400EDD
:10169600E525D394375007E523C394F950037F0318
:1016A60022E525603DC4540F75F007A4FDACF0E5B6
:1016B6002375F015A42DFFE5F03CFEE52554077CC7
:1016C600002FFFEC3EFEEF25E0FFEE33FE741F2FEA
:1016D600F58274E53EF583E493F527740193F528C6
:1016E6008005E4F527F528AF267E007C017D77127C
:1016F60001ADAD241C1201BFAD07AC06AF28AE2765
:03170600121C2E84
:0117090022BD
:0403FB00154415444C
:1003FF00120046EF70047F0180027F009000EDE055
:10040F00FEB402047D0180027D00ED5F60030206F1
:10041F00ECEEB4030AE49000EBF0A3F00206EC90CC
:10042F0000EEE0FFB4F3047E0180027E00EFB4F132
:10043F00047F0180027F00EF4E603E9000F0E0FEEF
:10044F0075F06484FFEE75F00A8475F00A84ADF0E0
:10045F00E075F00A84ABF075280A9000EFE02407EE
:10046F00F5299000EAE0FEC4540F240AF52A752BF3
:10047F000AEE5407F52C1226699000EEE0FFB4F354
:10048F00047E0180027E00EFB4F2047F0180027FC0
:10049F0000EF4E70030205459000F0E0FD7C007EFA
:1004AF00177F701201BFA844A607E6F975F002A4E2
:1004BF00FFC39000F9E09F9000F8E095F05070E0D6
:1004CF00FEA3E0FF7C007D0B1201ADE9FBFD1201E5
:1004DF00BFA84408A6079000F8E475F00112026067
:1004EF00FED3E5F09BEE94004018A84408E624F9EB
:1004FF00FFE47EF0A807088005CEC313CE13D8F90A
:10050F00801FA84408E6FF740F7E00A80708800527
:10051F00C333CE33CED8F97804CEA2E713CE13D897
:10052F00F8A84408F6A84408E6FF1228268007E436
:10053F009000F8F0A3F09000F4E0FEA3E0FFC3906A
:10054F0000F7E09F9000F6E09E40030206E61200DF
:10055F0046EF60030206EC9000F1E0FBA3E0FAA384
:10056F00E0F99000F6E0FEA3E0F5828E8312014CD5
:10057F00FFD394375003020681EF241024FC5079E7
:10058F00604524FE700302062C14700302064224F9
:10059F000260030206709000F1E0FBA3E0FAA3E013
:1005AF00F99000F6E475F00112024A85F082F583A6
:1005BF0012014C9000EFF09000F7E004F07098906B
:1005CF0000F6E004F080909000F1E0FBA3E0FAA3C6
:1005DF00E0F99000F6E475F00112024A85F082F519
:1005EF008312014C9000F0F09000F7E004F0706E71
:1005FF009000F6E004F00205669000F1E0FBA3E046
:10060F00FAA3E0F99000F6E475F00112026085F0AC
:10061F0082F58312014C9000EEF00205669000F611
:10062F00E475F00112024AAFF09000EBF0A3EFF087
:10063F000205669000EBE0FEA3E0FF4E6012900013
:10064F00F6EEF0A3EFF0E49000EBF0A3F0020566F6
:10065F009000F7E004F070069000F6E004F0020559
:10066F00669000F7E004F070069000F6E004F002E8
:10067F0005669000F4E0FEA3E0FFC39000F7E09F53
:10068F009000F6E09E50569000F1E0FBA3E0FAA335
:10069F00E0F99000F6E475F00112026085F082F542
:1006AF008312014C9000EAF09000EFE0FFA3E0FD11
:1006BF00A3E0FBA3E0FAA3E0F99000F6E475F001E4
:1006CF0012026085F082F58312014CF5269000EA44
:0D06DF00E0FB12166080069000ED7403F041
:0506EC00054405442255
:0F27620090004274FFF0A37403F0A374FBF02205
:101F19009000EDE0B4030DE49000F6F0A3F0A3F017
:101F2900A3F0C210EF60049000F0F0ED600490009F
:101F3900EFF0E94A60047F0180027F00E52E452D1C
:101F490060047E0180027E00EE5F60139000F1EB79
:101F5900F0A3EAF0A3E9F0A3E52DF0A3E52EF0E55F
:081F69002F60049000EEF0224D
:1025BB00BF02047E0180027E00BF01047D01800208
:1025CB007D00ED4EFEBF03047D0180027D00ED4ECC
:0825DB0060059000EDEFF02215
:062832009000EDE0FF2222
:101A14008B38AA077C007E037FE81201BF90010D7A
:101A2400EEF0A3EFF0E539FD7C007E037FE81201C0
:101A3400BFA3EEF0A3EFF0AF02AB07E4FAF9F8901E
:101A4400010DE0FEA3E0FFE4FCFD120276EF243278
:101A5400FFE43EFEE43DFDE43CFCE47B64FAF9F87B
:101A64001221C8900107EEF0A3EFF0AF38AB07E402
:101A7400FAF9F890010FE0FEA3E0FFE4FCFD120286
:101A840076EF2432FFE43EFEE43DFDE43CFCE47BDF
:101A940064FAF9F81221C8900109EEF0A3EFF022DC
:101EC000E4F526F525F524F523F527D291AF26AEC6
:101ED00025AD24AC2378011203BA8F268E258D24DC
:101EE0008C2300C291309015E4FAF9F8EF2401F543
:101EF00026EA3EF525E93DF524E83CF5230527E5EE
:101F000027B418C700D2910000C291AF26AE25AD0C
:081F100024AC2378081203A69B
:011F180022A6
:0928000090010BE0FEA3E0FF22B1
:0F27330090010BE0FEA3E0FFE490010BF0A3F098
:012742002274
:10134400900106E0700F30900122121EC090010B34
:10135400EEF0A3EFF0900106E0FF64017062051B5C
:10136400E51B7002051AFDD390010EE09D90010D5E
:10137400E0951A5005E4F51AF51BD3900108E095A1
:101384001B900107E0951A4004D2908002C2900598
:101394001DE51D7002051CFDD3900110E09D900118
:1013A4000FE0951C5005E4F51CF51DD390010AE0EF
:1013B400951D900109E0951C4004D2918002C291D0
:1013C400EF6402703E2090047F0180027F00E51EDE
:1013D40060047E0180027E00EE5F602130911090F7
:1013E400010CE004F0701690010BE004F0800E9004
:1013F400010CE024FFF090010BE034FFF0A290E434
:1014040033F51E900106E0B4031CE51F7002D2916F
:10141400E51FB40105C29175DB21051FE51FC394C7
:06142400C84003E4F51FBF
:01142A00229F
:10234600900106EFF07004C2918002D291900106CE
:10235600E0B40310E5A254CFF5A2E4F5D975DB018C
:10236600D2DE8003E4F5DB90005D74FFF0A3741306
:06237600F0A37444F02204
:1027430053B1DF43B220C2B5C20A8F0C438F1022AC
:03005300021CA6E6
:101CA600C0E0C083C082C0D075D000C000C001C0F3
:031CB60002C00366
:101CB900200313D203753108751300753000E50C44
:101CC900C313F50A803AE50BC394014031E5302589
:101CD900E0F530E50BC3940340020530D53121E529
:101CE90013C39532501A753108AB33AA34A9358517
:101CF9001382758300E53012018B05138002C2033C
:031D0900750B0057
:101D0C00D003D002D001D000D0D0D082D083D0E08C
:011D1C003294
:092809008B338A3489358D3222AB
:03283E00AF1322B3
:102478002003047F0180027F00200A047E0180027D
:102488007E00EE5F60188B178A188919EDC313F563
:1024980009C202E4F515538FEFD2047F02227F03AD
:0124A8002211
:10228B002003047F0180027F00200A047E0180026C
:10229B007E00EE5F6026538FEF750D10751608D21A
:1022AB000A438F018B178A188919ED75F008A4045E
:0F22BB00F509D202E4F515D2047F02227F032237
:1026C3002003047F0180027F00200A047E01800230
:0C26D3007E00EE5F60037F00227F01228A
:100DF0005500D500000000000000000000000000C9
:080E00000000010000000000E9
:030043000209654A
:10096500C0E0C0F0C083C082C0D075D000C000C058
:1009750001C002C003C004C005C006C007E59A3027
:10098500E142539AFD9000DAE0FEA3E0FFC3900038
:10099500D9E09F9000D8E09E501F9000D5E0FBA3C2
:1009A500E0FAA3E0F9A3E475F00112026085F08294
:1009B500F58312014CF59B800B9000DCE4F0E540DB
:1009C5006002C2B7E59A20E003020B1C539AFE3081
:1009D5000C0BC20C9000E2E4F0A3F0D209E54064F0
:1009E500026003020A769000E0E0FEA3E0FFA3E0C8
:1009F500FCA3E0FDC39FEC9E50719000DDE0FBA3DE
:100A0500E0FAA3E0F98D828C83E59B12018B9000BF
:100A1500E8E0FEA3E0FFC3ED9FEC9E50409000E0B0
:100A2500E0FCA3E0FDEF9DEE9C50329000E5E0FB7D
:100A3500A3E0FAA3E0F99000E2E0FEA3E0FFF5826F
:100A45008E8312014CFD9000DDE0FBA3E0FAA3E0EC
:100A5500F98F828E8312014C6D6002C2099000E30A
:100A6500E004F070069000E2E004F0853F12020B0E
:100A75001C9000E0E0FEA3E0FFA3E0FCA3E0FDC3C3
:100A85009FEC9E50779000DDE0FBA3E0FAA3E0F930
:100A95008D828C83E59B12018B9000E8E0FEA3E03C
:100AA500FFC3ED9FEC9E50469000E0E0FCA3E0FD07
:100AB500EF9DEE9C50389000E5E0FBA3E0FAA3E043
:100AC500F99000E2E0FEA3E0FFF5828E8312014C6F
:100AD500FD9000DDE0FBA3E0FAA3E0F98F828E83B1
:100AE50012014C6D60089000E274FFF0A3F09000D5
:100AF500E3E004F070069000E2E004F09000E0E02E
:100B0500FEA3E0FFC39000E3E09F9000E2E09E407B
:100B1500069000E47401F0D007D006D005D004D0CB
:100B250003D002D001D000D0D0D082D083D0F0D075
:020B3500E032AC
:0227710015440D
:0A2773009000E4E0A844F6FFE4F053
:03277D00054422EE
:012841002274
:101500008F268E258D248C23852740E54070028010
:101510000343BA01E540701790005D74FFF0A374B7
:1015200028F0A37441F0E4F5DBD290D2918020C280
:10153000B7AB26AA25A924A823E47F407E9CFDFC06
:101540001203018F3FE53F7003753F01853F127520
:101550009A10E47B04FAF9F890250A1203CD1203DD
:1015600001AB26AA25A924A823120301EFF404F550
:10157000D7E47B04FAF9F890250A1203CD1203018F
:10158000AB26AA25A924A823120301C3E49FFFE4E4
:101590009EFE74019DFDE49CFC78081203938FD697
:1015A000438E1443AF0190005174FFF0A37427F0F1
:0515B000A37471F0229C
:1024A9009000DDEBF0A3EAF0A3E9F0A3ECF0A3EDD3
:1024B900F09000E8E52BF0A3E52CF09000E5E52885
:1024C900F0A3E529F0A3E52AF0D20CE49000E4F0AA
:0124D90022E0
:102539009000DCE070269000D5EBF0A3EAF0A3E967
:10254900F0E4A3F0A3F0A3ECF0A3EDF0A37401F081
:0F255900E5406002D2B7439A027F02227F03223D
:0B27D1009000DCE07002FF227F01227C
:0300000002184F94
:10184F00787FE4F6D8FD9000007F007E07E4F0A3D8
:0A185F00DFFCDEFA7581440218A4D4
:1018690002142BE493A3F8E493A34003F68001F256
:1018790008DFF48029E493A3F85407240CC8C33380
:10188900C4540F4420C8834004F456800146F6DF4F
:10189900E4800B0102040810204080900CE3E47EF0
:1018A900019360BCA3FF543F30E509541FFEE49344
:1018B900A360010ECF54C025E060A840B8E493A30B
:1018C900FAE493A3F8E493A3C8C582C8CAC583CA36
:1018D900F0A3C8C582C8CAC583CADFE9DEE780BEEE
:010E080000E9
:10005600E709F608DFFA8046E709F208DFFA803E8C
:1000660088828C83E709F0A3DFFA8032E309F60879
:10007600DFFA8078E309F208DFFA807088828C83E1
:10008600E309F0A3DFFA806489828A83E0A3F60895
:10009600DFFA805889828A83E0A3F208DFFA804C6F
:1000A60080D280FA80C680D4806980F28033801046
:1000B60080A680EA809A80A880DA80E280CA8033AF
:1000C60089828A83ECFAE493A3C8C582C8CCC58327
:1000D600CCF0A3C8C582C8CCC583CCDFE9DEE780F7
:1000E6000D89828A83E493A3F608DFF9ECFAA9F076
:1000F600EDFB2289828A83ECFAE0A3C8C582C8CCCC
:10010600C583CCF0A3C8C582C8CCC583CCDFEADEE4
:10011600E880DB89828A83E493A3F208DFF980CC46
:1001260088F0EF60010E4E60C388F0ED2402B4043F
:100136000050B9F582EB2402B4040050AF232345E6
:0601460082239000A67365
:10014C00BB010CE58229F582E5833AF583E0225068
:10015C0006E92582F8E622BBFE06E92582F8E222B2
:0D016C00E58229F582E5833AF583E49322CC
:10017900BB010689828A83F0225002F722BBFE0165
:02018900F3225F
:10018B00F8BB010DE58229F582E5833AF583E8F0AA
:10019B00225006E92582C8F622BBFE05E92582C856
:0201AB00F2223E
:1001AD00EF8DF0A4A8F0CF8CF0A428CE8DF0A42E66
:0201BD00FE2220
:1001BF00BC000BBE0029EF8DF084FFADF022E4CC24
:1001CF00F875F008EF2FFFEE33FEEC33FCEE9DECED
:1001DF00984005FCEE9DFE0FD5F0E9E4CEFD22ED33
:1001EF00F8F5F0EE8420D21CFEADF075F008EF2F7D
:1001FF00FFED33FD4007985006D5F0F222C398FD6E
:05020F000FD5F0EA220A
:10021400C2D5EC30E709B2D5E4C39DFDE49CFCEE05
:1002240030E715B2D5E4C39FFFE49EFE1201BFC3BD
:10023400E49DFDE49CFC80031201BF30D507C3E4B8
:060244009FFFE49EFE2274
:10024A00C5F0F8A3E028F0C5F0F8E582158270023F
:06025A001583E038F022DC
:10026000A3F8E0C5F025F0F0E58215827002158351
:06027000E0C838F0E822AE
:10027600E88FF0A4CC8BF0A42CFCE98EF0A42CFC27
:100286008AF0EDA42CFCEA8EF0A4CDA8F08BF0A4A5
:100296002DCC3825F0FDE98FF0A42CCD35F0FCEB04
:1002A6008EF0A4FEA9F0EB8FF0A4CFC5F02ECD39C9
:0F02B600FEE43CFCEAA42DCE35F0FDE43CFC2236
:1002C50075F008758200EF2FFFEE33FECD33CDCCF0
:1002D50033CCC58233C5829BED9AEC99E582984073
:1002E5000CF582EE9BFEED9AFDEC99FC0FD5F0D650
:1002F500E4CEFBE4CDFAE4CCF9A88222B800C1B97A
:100305000059BA002DEC8BF084CFCECDFCE5F0CBB7
:10031500F97818EF2FFFEE33FEED33FDEC33FCEBF0
:1003250033FB10D703994004EB99FB0FD8E5E4F9AB
:10033500FA227818EF2FFFEE33FEED33FDEC33FC98
:10034500C933C910D7059BE99A4007EC9BFCE99A8C
:10035500F90FD8E0E4C9FAE4CCFB2275F010EF2FD1
:10036500FFEE33FEED33FDCC33CCC833C810D707D1
:100375009BEC9AE899400AED9BFDEC9AFCE899F80C
:0E0385000FD5F0DAE4CDFBE4CCFAE4C8F9229F
:1021C800C2D5E830E70FB2D5E4C39BFBE49AFAE442
:1021D80099F9E498F8EC30E717B2D51221FE12030A
:1021E80001E4C39BFBE49AFAE499F9E498F88003C4
:1021F80012030130D50DE4C39FFFE49EFEE49DFD6C
:04220800E49CFC2234
:10039300E8600FECC313FCED13FDEE13FEEF13FF48
:0303A300D8F1226C
:1003A600E86010ECA2E713FCED13FDEE13FEEF136D
:0403B600FFD8F0225A
:1003BA00E8600FEFC333FFEE33FEED33FDEC33FCA1
:0303CA00D8F12245
:1003CD00E493FC740193FD740293FE740393FF2276
:0C03DD00ECF0A3EDF0A3EEF0A3EFF02293
:0C03E900A42582F582E5F03583F583221F
:0603F5008A838982E47393
:00000001FF
