:102CB40000A8C0003F065B4F666D7D077F6F00086C
:102CC40040014148BF86DBCFE6EDFD87FFEF773556
:0F2CD4000831083508310835083108350831084E
:10148D0042007FFFFF41006F004100A00041008935
:01149D003C12
:0B2FA600EC120923ED90000102093538
:082611008B298A2A892B8D2CEC
:1026190074FFF52DF52EE4FDEDC3952C503EAB2945
:10262900AA2AA92B8D827583001208F6622EE4FC72
:10263900E52E30E015E52DC313FEE52E13FFEE64FC
:10264900A0F52DEF6401F52E800BE52DC313F52DB3
:10265900E52E13F52E0CBC08D70D80BCAE2DAF2E80
:01266900224E
:082A74008B238A2489258D269D
:102A7C00C3E5269402FD1226118E278F28E5267CAD
:102A8C000024FEF582EC34FFF583AB23AA24A925A0
:102A9C00EF120935E527FFE52624FFF582EC34FF1C
:062AAC00F583EF0209357D
:0827C0008D268B238A24892554
:1027C800C3E5269402FD1226118E278F28E526FDE3
:1027D8007C0024FEF582EC34FFF583AB23AA24A900
:1027E800251208F6652860037F002274FF2DF58204
:1027F80074FF3CF5831208F6FDE5276D60037F0042
:03280800227F012B
:01280B0022AA
:102B5B008F2890008AE065286028E4FF122B8EEF07
:102B6B006401601EE52860067A007B3080047AFFE2
:102B7B007BD07D1EE4FF121D5FBF020690008AE52D
:032B8B0028F0220D
:102D8D008F28122E8AEF701990009C745AF0A3E5CB
:102D9D0028F064A5A3F07B017A00799C7D03122AAB
:022DAD003522CD
:102DAF00900072E0701B7BFF7A2C79D3752D007524
:102DBF002E10752FF07DFC7FC81226C37F01122DB8
:022DCF0065227B
:053020007F03022D6595
:1024C70090006FE06F606890006FEFF01460221467
:1024D700603514604724037056E49000A0F0900024
:1024E7007EF0900072F090009BF0123020E4FF80A5
:1024F7002890009F7403F0E4A3F090007EF0900012
:1025070072F090009BF022E49000A0F090007EF023
:10251700900072F01230207F01022B5B9000A074B4
:1025270002F07F01122B5B122DAF7F02122D8D223D
:102C840090006FE0B40210900071E0600A90007E42
:102C94007401F07F03801590006FE0B4031190007D
:102CA4007EE0600B900071E070057F021224C72261
:102EEA0090006FE070047F018002E4FF1224C72281
:10209300E4FE90006FE0FD64026004EDB4030343CB
:1020A3000601900071E0600343060290009BE0602C
:1020B3000343060490006EE0600343060890008A21
:1020C300E06003430610900072E060034306209033
:1020D300008B7403F0A3EFF0A3740CF0A3EEF07B7A
:1020E300017A00798F90007FE0FCA3E0FD122FA618
:1020F3009000A0E0900091F0900074E0900092F0C6
:10210300900070E0900093F090006FE0900094F0E6
:10211300E4A3F0A3F0A3F0900075E0900098F07AA8
:0821230000798B7D10022A7483
:101F5C00900081E064036003021FF87B017A007932
:101F6C00817D081227C0EF7003021FF8900082E0F9
:101F7C0024FA604724F66008240D70707F03805C9F
:101F8C00900083E0700A90006FE06004E4FF800F23
:101F9C00900083E0B4010B90006FE070057F01129C
:101FAC0024C7900084E0FFC3940A400BEFD394C87D
:101FBC005005900089EFF07F108021900083E0B4F1
:101FCC00020B9000727401F0123020800D9000838F
:101FDC00E0FFD394015003122B5B7F061220937BFE
:0D1FEC00017A00798B7D107C00122CE3221D
:102DD100AE031BEE601BED75F00A84EF2B2476F534
:102DE10082E43400F583E5F0F0ED75F00A84FD80AE
:022DF100DF22DF
:1017FC007F08900076740AF0A3DFFCE53C600C9047
:10180C000089E0FD7B037F050218C4E53A60030202
:10181C0018A990006FE0FCB4010C90009FE0FD7BD8
:10182C00027F060218C490007FE0F523A3E0F524A4
:10183C00C3E523648094805005E4F523F524D3E5B7
:10184C002494E7E523648094834006752303752470
:10185C00E7EC6402600790006FE0B403047F1A8029
:10186C00027F00900076EFF0900071E0900078F02D
:10187C009000A0E090007AF0AE23AF247C007D6451
:10188C001209BEAD077B017F05122DD1AE23AF240B
:10189C007C007D641209BE7B027F06801B90007663
:1018AC007401F0900074E0FD7B027F02122DD19048
:1018BC000070E0FD7B027F06122DD1900076E0FFD8
:1018CC00A3E0FDA3E0FBA3E0F528A3E0F529A3E04A
:1018DC00F52AA3E0F52BA3E0F52C122E13E4FF90D0
:1018EC00006FE0FE60010F900071E060034307029F
:1018FC0090009BE0600343070490006EE06003439C
:0C190C000708EEB4030343073002300E5E
:102BC000122FF28F23E523B4021C9000717401F0E0
:102BD000900070E004F090006FE070147D08FC7FBE
:102BE000B87E0B0223D8E523B40105E4900071F010
:012BF00022C2
:102B2600122F1AEF6401702C90009BE0C394FF50A3
:102B360003E004F090006FE0B4021990009BE0C33C
:102B460094034010900074E004F0E490007EF07F5F
:052B5600031224C72258
:1025A700053BE53BC39402403DE4F53B12271BC3C3
:1025B700EF9402EE64809480402CD3EF9490EE6405
:1025C700809481502190007FEEF0A3EFF090008976
:1025D700E0FDEF9D7480F86E9850047F0180027FC4
:1025E7000090006EEFF0122C8490006FE0B402119F
:1025F70090006EE060047F0180027F009000A0EFF2
:0A260700F0E53C6002153C0217FCF0
:1022D90090006FE0B401227D0A7C007FC47E091260
:1022E90023D890009FE0D394004003E014F09000BD
:1022F9009FE070057F021224C7900073E004F0E0AC
:10230900C394024006E4F090009BF090006FE0B4A3
:102319000311900072E0700B12301AEF6401600330
:10232900122DAF90006FE0B4021190006EE0600BC7
:102339007D057C007FAC7E0D1223D81230017823F5
:102349007C007D007E007F051208D0900075E5278E
:01235900F093
:01235A002260
:10280C00E4FF1229B6BF0112E53A045401F53A7DF2
:10281C00037C007FB87E0B1223D87F011229B6EF00
:10282C006401702690006FE06403701E900072E0EB
:10283C0070047F0180027F00900072EFF06008123C
:0B284C0030207F03022D8D122DAF22E3
:10253700E4FF1228E6BF0113122EEA7F01122D8D48
:102547007D0A7C007FD07E071223D87F051228E6FC
:10255700BF011B900089E0C394C85004E0240AF02F
:10256700753C147D037C007FAC7E0D1223D87F025F
:102577001228E6BF011B900089E0D3940A4004E0CB
:1025870024F6F0753C147D037C007FC47E0912237A
:10259700D87F031228E6BF0106753C14E4F53A22FA
:101BD500122EA67D07E4FF122FC5122E50122DF3EB
:101BE500122F29122E33122E6D122EC17F2B122F7A
:101BF5000A7F98122BF17F03122AF07527027F8046
:101C05007E257D007C00121CAA75280075290075AB
:101C15002A00E4F52BF52C7B017A0079817D08FCFF
:101C2500122C537BFF7A2579A77F0212235B7BFF5A
:101C35007A2279D97F0312235B7BFF7A28790C7F7F
:101C45000412235B7BFF7A2579377F0712235B7BA1
:101C5500FF7A2B79C07F0512235B7BFF7A2B7926D0
:101C65007F0612235B7BFF7A1F795C7F0A12235B59
:101C7500E4900071F090008AF090006EF090007290
:101C8500F090007EF0900074F090009BF09000734F
:101C9500F0900070F090009FF0900075F0123014F5
:051CA500122AB280FBD1
:092FBC008B88898C88898F888933
:10149E005200AD8686008686008686008686008689
:0914AE0086008686004100A209B7
:03002B0002300898
:0630080053BCEFD20F32B1
:0212E1001544B2
:1012E300200F0302148AC20F9000A1E0B40900404A
:1012F3000302146C9012FEF828287302134502139C
:101303001902132B02135702131902132B02136E24
:1013130002131902132BAFBDEFFEADBE7C00E42D0B
:10132300FFEC3E9000A3803CAFBDEFFEADBE7C0062
:10133300E42DFFEC3E9000A5F0A3EFF0753D010214
:101343001472AFBDEFFEADBE7C00E42DFFEC3E900A
:1013530000A78010AFBDEFFEADBE7C00E42DFFEC17
:101363003E9000A9F0A3EFF0021472AFBDEFFEAD03
:10137300BE7C00E42DFFEC3E9000ABF0A3EFF090B9
:1013830000ABE0FEA3E07807CEC313CE13D8F9A8D1
:1013930044F6C394065013A844E675F003A424ADA1
:1013A300F582E43400F583E014F09000A2E014F039
:1013B30060030214727409F0A844E4F6A844E6FF3B
:1013C300C394064003021472EF75F003A424ADF531
:1013D30082E43400F583E0C39480502AE6FF75F07D
:1013E30003A424AEF582E43400F583E0D394804073
:1013F30040EF75F003A424AFF582E43400F5837461
:1014030001F0F53E802BA844E6FF75F003A424AE5B
:10141300F582E43400F583E0C394805014EF75F053
:1014230003A424AFF582E43400F5837402F0753E1F
:1014330001A844E6FF75F003A424ADF582E434006B
:10144300F583E0FEEF75F003A424AEF582E43400E7
:10145300F583EEF0E675F003A424ADF582E43400E1
:10146300F5837486F0060213BF9000A174FFF09019
:1014730000A1E0D39407400374FFF09000A1E004BF
:07148300F0902FBC93F5BCB3
:03148A00054422F4
:022F470015442F
:092F4900A844A63EE4F53EE6FFB3
:032F520005442211
:022F5500154421
:092F5700A844A63DE4F53DE6FFA7
:032F600005442203
:102BF1008F9D75BC88439720D2AD90004574FFF03E
:102C0100A37412F0A374E1F0A374FFF0A3742FF086
:102C1100A37447F0A374FFF0A3742FF0A37455F0CD
:012C21002290
:072FFA007B017A0079A3229C
:1028E600C3EF64809480403BD3EF6480948550337B
:1028F600EFFD3395E0FC9000AF75F003ED120B93FE
:10290600EC75F003A42583F583E0FE9000AF75F027
:1029160003ED120B93EC75F003A42583F583E4F025
:05292600AF06227F0353
:01292B002289
:042D3D0015441544E0
:102D4100122FCEA844A60608A607A844E6FE08E668
:0F2D5100FF4E600BEF24FFFFEE34FFFE122FD773
:052D60000544054422BA
:102DF30053B1EF43B210123028E4F5D975DA49D252
:102E0300DE90003F74FFF0A3742DF0A3743DF02215
:0823D8008E298F2A8C2B8D2C1D
:1023E000122FCEEF4E7066AF2CAE2B122FD7C3E557
:1023F0002A940AE5299400404BE47B18FAF9F890F6
:102400002CB4120B77120AABC006C007AE29AF2A54
:10241000AB07AA06E4F9F8D007D006120AABAB075F
:10242000AA06AFF9EFFEADE97C00E42DFFEC3ECF4C
:102430002BCF3AAD07FCAF03AE02122ED9D2D84350
:0F244000DA01800612302853DAFE7F02227F0372
:01244F00226A
:0C2F9A00122FCEEF4E7002FF227F0122AA
:101A0500E4F580900105E0FFB40800505F901A19D5
:101A1500F8282873021A31021A37021A3D021A43AE
:101A2500021A49021A53021A5D021A67C2A3C2A218
:101A35008016C2A3C2A2801AC2A3C2A2801EC2A3DC
:101A4500C2A28022C2A3D2A2C2A1C2A08020C2A3E8
:101A5500D2A2C2A1D2A08016C2A3D2A2D2A1C2A0F4
:101A6500800CC2A3D2A2D2A1D2A08002D2A3C3EF7E
:101A7500648094885029900105E0FF3395E0FE7459
:101A8500FC2FF58274003EF583E0FF3395E0FE748C
:101A9500B82FF582742C3EF583E493F580801E9073
:101AA5000105E0FFB408133395E0FE74FC2FF582C1
:101AB50074003EF583E0F5808003E4F5809000FB3B
:101AC500E0FF900105E004FEF0D3EF6480F8EE64DA
:101AD50080984014E0D36480948850047408F02200
:091AE5009000FAE0900105F022E6
:102EA600E4F5937594FF5395F043960F90002A74BA
:0B2EB600FFF0A3741AF0A37405F022D3
:092FC5009000FAEFF0A3EDF022F8
:102E13009000FCEFF0A3EDF0A3EBF0A3E528F0A303
:102E2300E529F0A3E52AF0A3E52BF0A3E52CF02296
:06300E00900104EFF02226
:1014B70001410041011E0041011B0541011C8341FF
:0314C700011D8381
:10292C0020920690011CE014F090011BE014F07052
:10293C00347405F0A3E0FFC39480500EA3E09480A0
:10294C004018A37401F0F541801090011DE0C39470
:10295C00805007A37402F075410190011DEFF090B7
:05296C00011C7483F062
:012971002243
:022F6300154413
:092F6500A844A641E4F541E6FF91
:032F6E00054422F5
:102E330090003674FFF0A3742FF0A37463F0900036
:0D2E43003374FFF0A37429F0A3742CF02267
:072FF20090011EE0FFE4F076
:012FF90022B5
:1014CA0001420049011294940094940094940041BA
:0314DA0001111EDF
:0216D9001544B6
:1016DB0020B206900112E014F020B306900115E041
:1016EB0014F0209706900118E014F0900111E0140B
:1016FB00F060030217F9741EF0A844E4F6A844E660
:10170B00FFC36480948340030217F9EF3395E0FE27
:10171B0090011275F003EF120B93EE75F003A425F5
:10172B0083F583E0C39480503990011375F003EF78
:10173B00120B93EE75F003A42583F583E0D394800D
:10174B00405AE6FF3395E0FE90011475F003EF125B
:10175B000B93EE75F003A42583F5837401F0F5422A
:10176B00803AA844E6FF3395E0FE90011375F00331
:10177B00EF120B93EE75F003A42583F583E0C3946E
:10178B0080501990011475F003EF120B93EE75F066
:10179B0003A42583F5837402F0754201A844E6FF88
:1017AB00FD3395E0FC90011275F003ED120B93ECF9
:1017BB0075F003A42583F583E0FE90011375F00308
:1017CB00ED120B93EC75F003A42583F583EEF0EF8C
:1017DB003395E0FE90011275F003EF120B93EE754B
:0E17EB00F003A42583F5837494F0060217081A
:0317F90005442282
:022F7100154405
:092F7300A844A642E4F542E6FF81
:032F7C00054422E7
:102E500090003074FFF0A3742FF0A37471F0900011
:0D2E60002D74FFF0A37416F0A374D9F022B6
:1029B600EF600764016003BF0233EFFD3395E0FC6F
:1029C60090011475F003ED120B93EC75F003A4253A
:1029D60083F583E0FE90011475F003ED120B93EC82
:0F29E60075F003A42583F583E4F0AF06227F0389
:0129F50022BF
:1014DD005500C000000000000000000000000000EA
:0C14ED0000000000000000004100BF00F3
:020E9B001544FC
:100E9D00A844E4F6A844E6FFC364809483400302AB
:100EAD00110CEF3395E0FE9000C075F007EF120BBB
:100EBD0093EE75F007A42583F583E0FCA3E04C7059
:100ECD00030211069000C275F007EF120B93EE7539
:100EDD00F007A42583F583E0FEA3E04E7003021115
:100EED0006E6FFFD3395E0FC9000C475F007ED12AA
:100EFD000B93EC75F007A42583F58374FFF5F012C1
:100F0D0009F445F060030211069000C275F007ED7B
:100F1D00120B93EC75F007A42583F583E0FAA3E09B
:100F2D00FB9000C475F007ED120B93EC75F007A460
:100F3D002583F583EAF0A3EBF0EF3395E0FE900007
:100F4D00C075F007EF120B93EE75F007A42583F52E
:100F5D0083E0FCA3E0D39400EC648094804056A819
:100F6D0044E6FD3395E0FC9000C075F007ED120BE3
:100F7D0093EC75F007A42583F58374FFF5F0120942
:100F8D00F49000C675F007ED120B93EC75F007A405
:100F9D002583F583E004F0D3648094834072900040
:100FAD00C675F007EF120B93EE75F007A42583F5C8
:100FBD0083E4F0805BA844E6FFFD3395E0FC9000F0
:100FCD00C075F007ED120B93EC75F007A42583F5B2
:100FDD0083E475F0011209F49000C675F007ED1267
:100FED000B93EC75F007A42583F583E014F0C3642F
:100FFD00809480501BEF3395E0FE9000C675F0078E
:10100D00EF120B93EE75F007A42583F5837403F0AF
:10101D00A844E6FFFD3395E0FC9000C675F007EDA2
:10102D00120B93EC75F007A42583F583E014603C57
:10103D001460661470030210D3240360030210FEC3
:10104D00EF146010146019240260030210FED2C167
:10105D00C2C280299000BFE054F04401F00210FE9E
:10106D009000BFE0540F4410F00210FEA844E614A7
:10107D00601114601924027078C2C1D2C2C2C3C2F9
:10108D00C4806E9000BFE054F04402F08063900085
:10109D00BFE0540F4420F08058A844E614601114AA
:1010AD0060192402704BC2C1C2C2D2C3C2C48041F6
:1010BD009000BFE054F04404F080369000BFE0543F
:1010CD000F4440F0802BA844E614601114601924DD
:1010DD0002701EC2C1C2C2C2C3D2C480149000BF6E
:1010ED00E054F04408F080099000BFE0540F4480B4
:0F10FD00F09000BFE0FF12300EA84406020EA1D3
:03110C0005442275
:102EC10053B3E143B41E53C0E190005474FFF0A327
:082ED100740EF0A3749BF022C3
:101D5F008F29EF3395E0FE9000C075F007EF120B5F
:101D6F0093EE75F007A42583F583E0FEA3E04E60A4
:101D7F0003021E07E529600A64016006E529640273
:101D8F007076ED60737C007E037FE8120969AD29E0
:101D9F00ED3395E0FC9000C275F007ED120B93EC5C
:101DAF0075F007A42583F583EEF0A3EFF09000C242
:101DBF0075F007ED120B93EC75F007A42583F583EF
:101DCF00E0FEA3E0FF9000C475F007ED120B93EC5B
:101DDF0075F007A42583F583EEF0A3EFF09000C014
:101DEF0075F007ED120B93EC75F007A42583F583BF
:0B1DFF00EAF0A3EBF07F02227F03223A
:10285700EF600764016003BF023AEFFD3395E0FCC8
:102867009000C075F007ED120B93EC75F007A425E7
:1028770083F583E0FAA3E0FB9000C075F007ED1243
:102887000B93EC75F007A42583F583E4F0A3F0AE72
:0728970002AF0322E4FEFF83
:01289E002217
:102B8E00EF600764016003BF0225EF3395E0FE900E
:102B9E0000C075F007EF120B93EE75F007A42583B6
:102BAE00F583E0FEA3E04E60037F01227F00227FCB
:022BBE000322F0
:1014F9004100000A4100290A41006D0A040E00005A
:1015090000000114004600670000FFFF8FFFC10DB6
:10151900C105C108C101C10E60240005FF302EFFBD
:10152900302EFF302EFF302EFF302EFF302EFF30B1
:101539002EFF302EFF302EFF302EFF302EFF302EA3
:101549006036002AFF302EFF302EFF3025FF302E67
:10155900FF3025FF302EFF3025FF302EFF302EFFC4
:10156900302EFF3025FF3025FF3025FF3025FF3095
:0A1579002EFF302EFF302EFF302E23
:01302E00227F
:033025007F002207
:10289F00438E805389F07BE07A2879017800902C61
:1028AF00B4120B77122972EFF404F58A7BE07A28C1
:1028BF0079017800902CB4120B77122972C3E49F20
:1028CF00FFE49EFE74019DFDE49CFC7808120B5002
:0728DF008F8CD28CD2A922DC
:03000B0002276E5B
:04276E00C0E0C0D037
:10277200D5080A75084C300D020514D20DA2037259
:10278200045036150AE50A7030850C0AD207300A61
:1027920017E50D6007150D438F01801D538FFEC293
:1027A200B5D51615C20A8011050BE50BD394064068
:0927B20008C203E5136002D2061F
:0527BB00D0D0D0E03297
:10271B00300E47C20E902CB4120B777810120B5060
:10272B008E238F24900003E0FEA3E0FFE4FCFD7BEF
:10273B0019FAF9F8120A20C006C007AE23AF24AB72
:10274B0007AA06E4F9F8D007D0061229727803120B
:10275B000B50900065EEF0A3EFF0900065E0FEA348
:02276B00E0FF8D
:01276D002249
:092FCE00900067E0FEA3E0FF2281
:092FD700900067EEF0A3EFF02278
:102ED90090006BEEF0A3EFF0900069ECF0A3EDF039
:012EE90022C6
:03302800C2B4220D
:03003B00021EB4EE
:101EB400C0E0C083C082C0D075D000C004C005C0DB
:031EC40006C0074E
:101EC70030DF04C2DF807D30DA04C2DA807630D9B1
:101ED7003DC2D9AFFBEFFEADEB7C00E42DFFEC3E3E
:101EE70020000E900001F0A3EFF075DB11D2008007
:101EF70053FE900001E0FCA3E0FDC3EF9DFFEE9CC5
:101F0700A3F0A3EFF075DB00C200D20E803630D805
:101F170033C2D8900067E07002A3E06022B2B490A9
:101F27000069E0FEA3E0F5EAEEF5FAA3E0FEA3E020
:101F3700FF90006AE02FF0900069E03EF08005C254
:041F4700B453DAFEB7
:101F4B00D007D006D005D004D0D0D082D083D0E03B
:011F5B003253
:0630140012289FD2AF223A
:10224E003004047F0180027F00200A047E01800298
:10225E007E00EE5F6074E515C39509506830023656
:10226E00750D01E515131313541FAB17AA18A919F1
:10227E00F5827583001208F6FFE515540704FEEF8C
:10228E00A806088002C333D8FC30D7057516038024
:10229E002F751601802AAB17AA18A91975F002E539
:1022AE0015A4F58285F0831208F6F50DE51575F087
:1022BE0002A429F9EA35F0FA9000011208F6F51693
:0A22CE000515D20A22C204438F1046
:0122D80022E3
:10191800900000E014F0701F740AF0D205900029BE
:10192800E014F07012740AF0D20890006DE014F020
:101938007005740AF0D20190002AA3E0FAA3E0F936
:10194800120B9F90002DA3E0FAA3E0F9120B9F90D1
:101958000039A3E0FAA3E0F9120B9F900045A3E039
:10196800FAA3E0F9120B9F900054A3E0FAA3E0F960
:10197800120B9F90005DA3E0FAA3E0F9120B9F9071
:10198800004BA3E0FAA3E0F9120B9FEF600C900064
:101998001DA3E0FAA3E0F9120B9F90004EA3E0FA12
:1019A800A3E0F9120B9FEF600E900020A3E0FAA3CA
:1019B800E0F9120B9FD20BE512D394004016D51212
:1019C8003030090C900023A3E0FAA3E0F9120B9F32
:1019D800D20C801D900051A3E0FAA3E0F9120B9FEE
:1019E800EF600E900023A3E0FAA3E0F9120B9FD258
:0D19F8000C900005A3E0FAA3E0F9020B9F9C
:10212B0090003FA3E0FAA3E0F9120B9F900042A3AB
:10213B00E0FAA3E0F9120B9F900033A3E0FAA3E0BF
:10214B00F9120B9F900008A3E0FAA3E0F9120B9F82
:10215B00900030A3E0FAA3E0F9120B9FEF600C9014
:10216B000011A3E0FAA3E0F9120B9F900036A3E055
:10217B00FAA3E0F9120B9FEF600C900017A3E0FAA3
:10218B00A3E0F9120B9F900048A3E0FAA3E0F91229
:10219B000B9FEF600C90001AA3E0FAA3E0F9120B6F
:1021AB009F30060EC206900026A3E0FAA3E0F912B8
:0321BB000B9F2255
:1029F60090000BA3E0FAA3E0F9120B9F90003CA312
:102A0600E0FAA3E0F9120B9FEF600C900014A3E02C
:102A1600FAA3E0F9120B9F900057A3E0FAA3E0F99E
:0F2A2600120B9F90005AA3E0FAA3E0F9020B9F56
:102D1200AF11AE10AD0FAC0E900060120B87900099
:102D220064E514F0E4F511F510F50FF50EF51490C5
:0B2D3200000EA3E0FAA3E0F9020B9FE3
:102AB200300705C20712224E300D05C20D12191839
:102AC200300505C20512212B300805C2081229F66D
:102AD200300105C201122D12E5112401F511E43570
:0E2AE20010F510E4350FF50FE4350EF50E2259
:10235B008B238A248925EFB40C00507090236EF8E0
:10236B0028287302239202239702239C0223A102A3
:10237B0023A60223AB0223B00223B50223BA022306
:10238B00BF0223C40223C99000058035900008804A
:10239B003090000B802B90000E8026900011802136
:1023AB00900017801C900014801790001A801290D8
:1023BB00001D800D9000208008900023800390006A
:0D23CB0026E523F0A3E524F0A3E525F0228C
:073001007B017A00796022D7
:0715830001430041011F00BC
:0D2F8D0020A40975430190011F7401F0227A
:022F7F001544F7
:092F8100A844A643E4F543E6FF71
:032F8A00054422D9
:102E6D0090003C74FFF0A3742FF0A3747FF09000DA
:0D2E7D003974FFF0A3742FF0A3748DF022C0
:022F1A0015445C
:0A2F1C0090011FE0A844F6FFE4F066
:032F26000544223D
:1015B30000C400DC00F701060126014A017201881C
:1015C30001B801EE020B024B029302E40310037015
:1015D30003DC04160497052605C800DC00F7011593
:1015E3000126014A0172019F01B801EE022A024B52
:1015F300029302E4033F037003DC045504970526BA
:1016030005C8067D00F701150137014A0172019FE4
:1016130001D201EE022A026E029302E4033F03A405
:1016230003DC045504DD057505C8067D074901067D
:101633000126014A015D018801B801EE020B024B4C
:10164300029302BA0310037003DC04160497052601
:101653000575062006E007B80126014A01720188D4
:1016630001B801EE022A024B029302E40310037055
:1016730003DC04550497052605C8062006E007B8D1
:1016830008AA014A0172019F01B801EE022A026E03
:10169300029302E4033F037003DC045504DD0526D3
:1016A30005C8067D06E007B808AA09B9015D0188E7
:1016B30001B801D2020B024B029302BA031003706A
:1016C30003A40416049705260575062006E00749BA
:0616D300082D092D0A4D4F
:10158A004D00ED0300000000000000000000000014
:061E0A008F238D248B25BF
:101E1000122F9AEF60037F0122E525D3940040063C
:101E2000E52594114028E525D394174006E525942F
:101E300021401BE525D394274006E5259431400E2B
:101E4000E525D394375007E523C394F950037F0366
:101E500022E525603DC4540F75F007A4FDACF0E504
:101E60002375F015A42DFFE5F03CFEE52554077C15
:101E7000002FFFEC3EFEEF25E0FFEE33FE74C92F8E
:101E8000F58274EC3EF583E493F527740193F5280D
:101E90008005E4F527F528AF267E007C017D7712CA
:101EA0000957AD241C120969AD07AC06AF28AE274F
:031EB0001223D822
:011EB300220C
:040BA500154415449A
:100BA900122F9AEF70047F0180027F009000EDE020
:100BB900FEB402047D0180027D00ED5F6003020E38
:100BC90096EEB4030AE49000EBF0A3F0020E9690BF
:100BD90000EEE0FFB4F3047E0180027E00EFB4F181
:100BE900047F0180027F00EF4E603E9000F0E0FE3E
:100BF90075F06484FFEE75F00A8475F00A84ADF02F
:100C0900E075F00A84ABF075280A9000EFE024073C
:100C1900F5299000EAE0FEC4540F240AF52A752B41
:100C29000AEE5407F52C122E139000EEE0FFB4F3F0
:100C3900047E0180027E00EFB4F2047F0180027F0E
:100C490000EF4E7003020CEF9000F0E0FD7C007E97
:100C5900177F70120969A844A607E6F975F002A47E
:100C6900FFC39000F9E09F9000F8E095F05070E024
:100C7900FEA3E0FF7C007D0B120957E9FBFD120979
:100C890069A84408A6079000F8E475F001120A0A59
:100C9900FED3E5F09BEE94004018A84408E624F939
:100CA900FFE47EF0A807088005CEC313CE13D8F958
:100CB900801FA84408E6FF740F7E00A80708800576
:100CC900C333CE33CED8F97804CEA2E713CE13D8E6
:100CD900F8A84408F6A84408E6FF12300E8007E495
:100CE9009000F8F0A3F09000F4E0FEA3E0FFC390B9
:100CF90000F7E09F9000F6E09E4003020E90122F4D
:100D09009AEF6003020E969000F1E0FBA3E0FAA3CC
:100D1900E0F99000F6E0FEA3E0F5828E831208F672
:100D2900FFD394375003020E2BEF241024FC507983
:100D3900604524FE7003020DD6147003020DEC24E5
:100D4900026003020E1A9000F1E0FBA3E0FAA3E0AF
:100D5900F99000F6E475F0011209F485F082F58343
:100D69001208F69000EFF09000F7E004F070989008
:100D790000F6E004F080909000F1E0FBA3E0FAA314
:100D8900E0F99000F6E475F0011209F485F082F5B6
:100D9900831208F69000F0F09000F7E004F0706E0E
:100DA9009000F6E004F0020D109000F1E0FBA3E0E2
:100DB900FAA3E0F99000F6E475F001120A0A85F049
:100DC90082F5831208F69000EEF0020D109000F6FD
:100DD900E475F0011209F4AFF09000EBF0A3EFF025
:100DE900020D109000EBE0FEA3E0FF4E60129000B0
:100DF900F6EEF0A3EFF0E49000EBF0A3F0020D1093
:100E09009000F7E004F070069000F6E004F0020D9F
:100E1900109000F7E004F070069000F6E004F0028C
:100E29000D109000F4E0FEA3E0FFC39000F7E09FEF
:100E39009000F6E09E50569000F1E0FBA3E0FAA383
:100E4900E0F99000F6E475F001120A0A85F082F5DE
:100E5900831208F69000EAF09000EFE0FFA3E0FDAE
:100E6900A3E0FBA3E0FAA3E0F99000F6E475F00132
:100E7900120A0A85F082F5831208F6F5269000EA2F
:0D0E8900E0FB121E0A80069000ED7403F0DD
:050E96000544054422A3
:0F2F290090004274FFF0A3740BF0A374A5F02284
:1026C3009000EDE0B4030DE49000F6F0A3F0A3F066
:1026D300A3F0C210EF60049000F0F0ED60049000EE
:1026E300EFF0E94A60047F0180027F00E52E452D6B
:1026F30060047E0180027E00EE5F60139000F1EBC8
:10270300F0A3EAF0A3E9F0A3E52DF0A3E52EF0E5AD
:082713002F60049000EEF0229B
:102D6500BF02047E0180027E00BF01047D01800256
:102D75007D00ED4EFEBF03047D0180027D00ED4E1A
:082D850060059000EDEFF02263
:06301A009000EDE0FF2232
:1021BE008B38AA077C007E037FE812096990010D17
:1021CE00EEF0A3EFF0E539FD7C007E037FE8120907
:1021DE0069A3EEF0A3EFF0AF02AB07E4FAF9F890C3
:1021EE00010DE0FEA3E0FFE4FCFD120A20EF243215
:1021FE00FFE43EFEE43DFDE43CFCE47B64FAF9F8CA
:10220E00122972900107EEF0A3EFF0AF38AB07E49E
:10221E00FAF9F890010FE0FEA3E0FFE4FCFD120ACC
:10222E0020EF2432FFE43EFEE43DFDE43CFCE47B83
:10223E0064FAF9F8122972900109EEF0A3EFF02278
:10266A00E4F526F525F524F523F527D291AF26AE14
:10267A0025AD24AC237801120B648F268E258D2478
:10268A008C2300C291309015E4FAF9F8EF2401F591
:10269A0026EA3EF525E93DF524E83CF5230527E53C
:1026AA0027B418C700D2910000C291AF26AE25AD5B
:0826BA0024AC237808120B5038
:0126C20022F5
:092FE00090010BE0FEA3E0FF22CA
:0F2EFA0090010BE0FEA3E0FFE490010BF0A3F0CA
:012F090022A5
:101AEE00900106E0700F3090012212266A90010BD1
:101AFE00EEF0A3EFF0900106E0FF64017062051BAB
:101B0E00E51B7002051AFDD390010EE09D90010DAC
:101B1E00E0951A5005E4F51AF51BD3900108E095EF
:101B2E001B900107E0951A4004D2908002C29005E6
:101B3E001DE51D7002051CFDD3900110E09D900166
:101B4E000FE0951C5005E4F51CF51DD390010AE03D
:101B5E00951D900109E0951C4004D2918002C2911E
:101B6E00EF6402703E2090047F0180027F00E51E2C
:101B7E0060047E0180027E00EE5F60213091109045
:101B8E00010CE004F0701690010BE004F0800E9052
:101B9E00010CE024FFF090010BE034FFF0A290E482
:101BAE0033F51E900106E0B4031CE51F7002D291BE
:101BBE00E51FB40105C29175DB21051FE51FC39416
:061BCE00C84003E4F51F0E
:011BD40022EE
:102AF000900106EFF07004C2918002D2919001061D
:102B0000E0B40310E5A254CFF5A2E4F5D975DB01DA
:102B1000D2DE8003E4F5DB90005D74FFF0A3741A4D
:062B2000F0A374EEF022A8
:102F0A0053B1DF43B220C2B5C20A8F0C438F1022DD
:0300530002245034
:10245000C0E0C083C082C0D075D000C000C001C041
:0324600002C003B4
:10246300200313D203753108751300753000E50C92
:10247300C313F50A803AE50BC394014031E53025D7
:10248300E0F530E50BC3940340020530D53121E577
:1024930013C39532501A753108AB33AA34A9358565
:1024A3001382758300E53012093505138002C203D8
:0324B300750B00A6
:1024B600D003D002D001D000D0D0D082D083D0E0DB
:0124C60032E3
:092FE9008B338A3489358D3222C4
:03302B00AF1322BE
:102C22002003047F0180027F00200A047E018002CB
:102C32007E00EE5F60188B178A188919EDC313F5B1
:102C420009C202E4F515538FEFD2047F02227F03FB
:012C5200225F
:102A35002003047F0180027F00200A047E018002BA
:102A45007E00EE5F6026538FEF750D10751608D268
:102A55000A438F018B178A188919ED75F008A404AC
:0F2A6500F509D202E4F515D2047F02227F032285
:102E8A002003047F0180027F00200A047E01800261
:0C2E9A007E00EE5F60037F00227F0122BB
:10159A005500D50000000000000000000000000017
:0815AA00000001000000000038
:0300430002110F98
:10110F00C0E0C0F0C083C082C0D075D000C000C0A6
:10111F0001C002C003C004C005C006C007E59A3075
:10112F00E142539AFD9000DAE0FEA3E0FFC3900086
:10113F00D9E09F9000D8E09E501F9000D5E0FBA310
:10114F00E0FAA3E0F9A3E475F001120A0A85F08230
:10115F00F5831208F6F59B800B9000DCE4F0E54078
:10116F006002C2B7E59A20E0030212C6539AFE301E
:10117F000C0BC20C9000E2E4F0A3F0D209E540643E
:10118F000260030212209000E0E0FEA3E0FFA3E064
:10119F00FCA3E0FDC39FEC9E50719000DDE0FBA32C
:1011AF00E0FAA3E0F98D828C83E59B12093590005C
:1011BF00E8E0FEA3E0FFC3ED9FEC9E50409000E0FF
:1011CF00E0FCA3E0FDEF9DEE9C50329000E5E0FBCC
:1011DF00A3E0FAA3E0F99000E2E0FEA3E0FFF582BE
:1011EF008E831208F6FD9000DDE0FBA3E0FAA3E08A
:1011FF00F98F828E831208F66D6002C2099000E3A8
:10120F00E004F070069000E2E004F0853F12021255
:10121F00C69000E0E0FEA3E0FFA3E0FCA3E0FDC367
:10122F009FEC9E50779000DDE0FBA3E0FAA3E0F97E
:10123F008D828C83E59B1209359000E8E0FEA3E0D8
:10124F00FFC3ED9FEC9E50469000E0E0FCA3E0FD55
:10125F00EF9DEE9C50389000E5E0FBA3E0FAA3E091
:10126F00F99000E2E0FEA3E0FFF5828E831208F60C
:10127F00FD9000DDE0FBA3E0FAA3E0F98F828E83FF
:10128F001208F66D60089000E274FFF0A3F0900072
:10129F00E3E004F070069000E2E004F09000E0E07C
:1012AF00FEA3E0FFC39000E3E09F9000E2E09E40CA
:1012BF00069000E47401F0D007D006D005D004D01A
:1012CF0003D002D001D000D0D0D082D083D0F0D0C4
:0212DF00E032FB
:022F380015443E
:0A2F3A009000E4E0A844F6FFE4F084
:032F44000544221F
:01302F00227E
:101CAA008F268E258D248C23852740E5407002805F
:101CBA000343BA01E540701790005D74FFF0A37406
:101CCA0030F0A3742FF0E4F5DBD290D2918020C2D9
:101CDA00B7AB26AA25A924A823E47F407E9CFDFC55
:101CEA00120AAB8F3FE53F7003753F01853F1275BE
:101CFA009A10E47B04FAF9F8902CB4120B77120AC2
:101D0A00ABAB26AA25A924A823120AABEFF404F543
:101D1A00D7E47B04FAF9F8902CB4120B77120AABC9
:101D2A00AB26AA25A924A823120AABC3E49FFFE481
:101D3A009EFE74019DFDE49CFC7808120B3D8FD633
:101D4A00438E1443AF0190005174FFF0A3742FF037
:051D5A00A37438F02223
:102C53009000DDEBF0A3EAF0A3E9F0A3ECF0A3ED21
:102C6300F09000E8E52BF0A3E52CF09000E5E528D3
:102C7300F0A3E529F0A3E52AF0D20CE49000E4F0F8
:012C8300222E
:102CE3009000DCE070269000D5EBF0A3EAF0A3E9B6
:102CF300F0E4A3F0A3F0A3ECF0A3EDF0A37401F0D0
:0F2D0300E5406002D2B7439A027F02227F03228B
:0B2FB1009000DCE07002FF227F012294
:03000000021FF9E3
:101FF900787FE4F6D8FD9000007F007E07E4F0A327
:0A200900DFFCDEFA75814402204E70
:10201300021BD5E493A3F8E493A34003F68001F2F3
:1020230008DFF48029E493A3F85407240CC8C333CE
:10203300C4540F4420C8834004F456800146F6DF9D
:10204300E4800B010204081020408090148DE47E8C
:10205300019360BCA3FF543F30E509541FFEE49392
:10206300A360010ECF54C025E060A840B8E493A359
:10207300FAE493A3F8E493A3C8C582C8CAC583CA84
:10208300F0A3C8C582C8CAC583CADFE9DEE780BE3C
:0115B2000038
:10080000E709F608DFFA8046E709F208DFFA803EDA
:1008100088828C83E709F0A3DFFA8032E309F608C7
:10082000DFFA8078E309F208DFFA807088828C832F
:10083000E309F0A3DFFA806489828A83E0A3F608E3
:10084000DFFA805889828A83E0A3F208DFFA804CBD
:1008500080D280FA80C680D4806980F28033801094
:1008600080A680EA809A80A880DA80E280CA8033FD
:1008700089828A83ECFAE493A3C8C582C8CCC58375
:10088000CCF0A3C8C582C8CCC583CCDFE9DEE78045
:100890000D89828A83E493A3F608DFF9ECFAA9F0C4
:1008A000EDFB2289828A83ECFAE0A3C8C582C8CC1A
:1008B000C583CCF0A3C8C582C8CCC583CCDFEADE33
:1008C000E880DB89828A83E493A3F208DFF980CC95
:1008D00088F0EF60010E4E60C388F0ED2402B4048E
:1008E0000050B9F582EB2402B4040050AF23234535
:0608F00082239008507302
:1008F600BB010CE58229F582E5833AF583E02250B7
:1009060006E92582F8E622BBFE06E92582F8E22200
:0D091600E58229F582E5833AF583E493221A
:10092300BB010689828A83F0225002F722BBFE01B3
:02093300F322AD
:10093500F8BB010DE58229F582E5833AF583E8F0F8
:10094500225006E92582C8F622BBFE05E92582C8A4
:02095500F2228C
:10095700EF8DF0A4A8F0CF8CF0A428CE8DF0A42EB4
:02096700FE226E
:10096900BC000BBE0029EF8DF084FFADF022E4CC72
:10097900F875F008EF2FFFEE33FEEC33FCEE9DEC3B
:10098900984005FCEE9DFE0FD5F0E9E4CEFD22ED81
:10099900F8F5F0EE8420D21CFEADF075F008EF2FCB
:1009A900FFED33FD4007985006D5F0F222C398FDBC
:0509B9000FD5F0EA2259
:1009BE00C2D5EC30E709B2D5E4C39DFDE49CFCEE54
:1009CE0030E715B2D5E4C39FFFE49EFE120969C35A
:1009DE00E49DFDE49CFC800312096930D507C3E455
:0609EE009FFFE49EFE22C3
:1009F400C5F0F8A3E028F0C5F0F8E582158270028E
:060A04001583E038F0222A
:100A0A00A3F8E0C5F025F0F0E5821582700215839F
:060A1A00E0C838F0E822FC
:100A2000E88FF0A4CC8BF0A42CFCE98EF0A42CFC75
:100A30008AF0EDA42CFCEA8EF0A4CDA8F08BF0A4F3
:100A40002DCC3825F0FDE98FF0A42CCD35F0FCEB52
:100A50008EF0A4FEA9F0EB8FF0A4CFC5F02ECD3917
:0F0A6000FEE43CFCEAA42DCE35F0FDE43CFC2284
:100A6F0075F008758200EF2FFFEE33FECD33CDCC3E
:100A7F0033CCC58233C5829BED9AEC99E5829840C1
:100A8F000CF582EE9BFEED9AFDEC99FC0FD5F0D69E
:100A9F00E4CEFBE4CDFAE4CCF9A88222B800C1B9C8
:100AAF000059BA002DEC8BF084CFCECDFCE5F0CB06
:100ABF00F97818EF2FFFEE33FEED33FDEC33FCEB3F
:100ACF0033FB10D703994004EB99FB0FD8E5E4F9FA
:100ADF00FA227818EF2FFFEE33FEED33FDEC33FCE7
:100AEF00C933C910D7059BE99A4007EC9BFCE99ADB
:100AFF00F90FD8E0E4C9FAE4CCFB2275F010EF2F20
:100B0F00FFEE33FEED33FDCC33CCC833C810D7071F
:100B1F009BEC9AE899400AED9BFDEC9AFCE899F85A
:0E0B2F000FD5F0DAE4CDFBE4CCFAE4C8F922ED
:10297200C2D5E830E70FB2D5E4C39BFBE49AFAE490
:1029820099F9E498F8EC30E717B2D51229A8120A9F
:10299200ABE4C39BFBE49AFAE499F9E498F8800368
:1029A200120AAB30D50DE4C39FFFE49EFEE49DFD09
:0429B200E49CFC2283
:100B3D00E8600FECC313FCED13FDEE13FEEF13FF96
:030B4D00D8F122BA
:100B5000E86010ECA2E713FCED13FDEE13FEEF13BB
:040B6000FFD8F022A8
:100B6400E8600FEFC333FFEE33FEED33FDEC33FCEF
:030B7400D8F12293
:100B7700E493FC740193FD740293FE740393FF22C4
:0C0B8700ECF0A3EDF0A3EEF0A3EFF022E1
:0C0B9300A42582F582E5F03583F583226D
:060B9F008A838982E473E1
:00000001FF
