:1024DF0000A8C0003F065B4F666D7D077F6F000849
:1024EF0040014148BF86DBCFE6EDFD87FFEF3508A2
:0E24FF00310835083108350831083508310834
:100CE300420082FFFF410073004100A30041008CDA
:010CF3003CC4
:0B277100EC120179ED90000102018BD9
:081DFE008B298A2A892B8D2C08
:101E060074FFF52DF52EE4FDEDC3952C503EAB2960
:101E1600AA2AA92B8D8275830012014C622EE4FC3E
:101E2600E52E30E015E52DC313FEE52E13FFEE6417
:101E3600A0F52DEF6401F52E800BE52DC313F52DCE
:101E4600E52E13F52E0CBC08D70D80BCAE2DAF2E9B
:011E56002269
:08225F008B238A2489258D26BA
:10226700C3E5269402FD121DFE8E278F28E5267CE6
:102277000024FEF582EC34FFF583AB23AA24A925BD
:10228700EF12018BE527FFE52624FFF582EC34FFEB
:06229700F583EF02018B4C
:081FAD008D268B238A2489256F
:101FB500C3E5269402FD121DFE8E278F28E526FD1A
:101FC5007C0024FEF582EC34FFF583AB23AA24A91B
:101FD5002512014C652860037F002274FF2DF582D0
:101FE50074FF3CF58312014CFDE5276D60037F000E
:031FF500227F0147
:011FF80022C6
:10238A008F2890008DE065286028E4FF1223BDEFB6
:10239A006401601EE52860067A007B3080047AFFBB
:1023AA007BD07D1EE4FF12166ABF020690008DE5FF
:0323BA0028F022E6
:1025B0008F2812266EEF701990009F745AF0A3E5D1
:1025C00028F064A5A3F07B017A00799F7D03122295
:0225D0002022C7
:1025D200900076E0701B7BFF7A2479FD752D0075E3
:1025E2002E10752FF07DFC7FC8121EB07F011225C0
:0225F20088223D
:06277C009000767401F0EC
:052782007F0302258821
:101DA100900073E06F6055900073EFF014601E14A3
:101DB100602D14603424037043E49000A3F090007C
:101DC10076F090009EF0122782E4FF80199000A225
:101DD100740AF0E4A3F0900076F090009EF022E403
:101DE1009000A3F07F0102238A9000A37402F07F88
:0D1DF1000112238A1225D27F021225B02292
:1026CE00900073E070047F018002E4FF121DA122CE
:10190100E4FE900073E0FD64026004EDB403034360
:101911000601900075E0600343060290009EE060BE
:1019210003430604900070E0600343060890008DB5
:10193100E06003430610900076E0600343062090C8
:10194100008E7403F0A3EFF0A3740CF0A3EEF07B10
:10195100017A007992900082E0FCA3E0FD122771E8
:101961009000A3E0900094F0900078E0900095F052
:10197100900074E0900096F0900073E0900097F072
:10198100E4A3F0A3F0A3F0900079E090009BF07A3B
:0819910000798E7D1002225F37
:1015B900900084E0640360030216697B017A007974
:1015C900847D08121FADEF700F90006FE004F0707A
:1015D9000690006EE004F022900072E004F07006BC
:1015E900900071E004F0900085E024FA604724F649
:1015F9006008240D706A7F038056900086E0700AA7
:10160900900073E06004E4FF800F900086E0B4016D
:101619000B900073E070057F01121DA1900087E017
:10162900FFC3940A400BEFD394C8500590008CEF88
:10163900F07F10801B900086E0B4020512277C80A1
:101649000D900086E0FFD39401500312238A7F0690
:101659001219017B017A00798E7D107C0012248297
:01166900225E
:06253800E0FD7B027F02C2
:10253E00AE031BEE601BED75F00A84EF2B247AF5CB
:10254E0082E43400F583E5F0F0ED75F00A84FD8049
:02255E00DF227A
:101052007F0890007A740AF0A3DFFCE53A1470036B
:101062000210EC0460030210FF900073E0FCB40174
:10107200069000A20210FB900082E0F523A3E0F5A7
:1010820024C3E523648094805005E4F523F524D33A
:10109200E52494E7E5236480948340067523037571
:1010A20024E7EC64026007900073E0B403047F015C
:1010B20080027F0090007AEFF0900075E090007C53
:1010C200F09000A3E090007EF0AE23AF247C007D80
:1010D20064120214AD077B017F0512253EAE23AFD9
:1010E200247C007D64120214802690007A7401F040
:1010F200900078122538900074E0FD801390007AF9
:101102007402F0900071A312253890006EA3E0FDE6
:101112007B027F0612253E90007AE0FFA3E0FDA34A
:10112200E0FBA3E0F528A3E0F529A3E0F52AA3E07C
:10113200F52BA3E0F52C122614E4FF900073E0FED9
:1011420060010F900075E0600343070290009EE08B
:101152006003430704900070E06003430708EEB4A5
:0811620003034307300227DC00
:1022DB001200038F23E5236402702790007504F02E
:1022EB00900074E004F0900073E0B402057F0302E9
:1022FB001DA1900073E070147D08FC7FB87E0B026B
:0C230B001C4BE523B40105E4900075F0C4
:0123170022A3
:1024B1001226FEBF012790009EE0C394FF5003E067
:1024C10004F0900073E0B4021490009EE0C3940302
:0E24D100400B900078E004F07F03121DA12262
:101FF900053BE53BC39402403DE4F53B121F08C392
:10200900EF9402EE64809480402CD3EF9490EE64B8
:102019008094815021900082EEF0A3EFF090008C23
:10202900E0FDEF9D7480F86E9850047F0180027F77
:0920390000900070EFF00210525B
:101B4700900073E0B401227D0A7C007FC47E0912F5
:101B57001C4B9000A2E0D394004003E014F09000E7
:101B6700A2E070057F02121DA1900077E004F0E06B
:101B7700C394024006E4F090009EF0900073E0B436
:101B87000311900076E0700B1227E8EF6401600301
:101B97001225D2900073E0B40216900070E0601036
:101BA7009000A3E0700A7D05FC7FAC7E0D121C4BF4
:101BB7001227CF78237C007D007E007F0512012647
:061BC700900079E527F013
:011BCD0022F5
:10231800E4FF1221A1BF011CE53A2401FFE433FECA
:102328007C007D031201BF8D3A7D037C007FB87E5F
:102338000B121C4B7F011221A1BF010F900073E00B
:0C234800B4030812277C7F031225B0228A
:101D3A00E4FF1220D1BF01131226CE7F011225B073
:101D4A007D0A7C007FD07E07121C4B7F051220D1B2
:101D5A00BF011890008CE0C394C85004E0240AF034
:101D6A007D037C007FAC7E0D121C4B7F021220D1BA
:101D7A00BF011890008CE0D3940A4004E024F6F0E6
:101D8A007D037C007FC47E09121C4B7F031220D185
:071D9A00BF0103E4F53A224A
:1014270012268A7D07E4FF12279B1226341225F421
:1014370012270D12000E1226511226A57F2B1226F7
:10144700EE7F981223EF7F031223547527027F80C4
:101457007E257D007C00121504752800752900750E
:101467002A00E4F52BF52C7B017A0079847D08FCB2
:101477001224517BFF7A1F79F97F02121BCE7BFF63
:101487007A1B79477F03121BCE7BFF7A2379187F5C
:1014970004121BCE7BFF7A1D793A7F07121BCE7B86
:1014A700FF7A2279DB7F05121BCE7BFF7A2479B185
:1014B7007F06121BCE7BFF7A1579B97F0A121BCEE6
:1014C700E4900075F090008DF0900070F090007639
:1014D700F0900078F090009EF0900077F090007404
:1014E700F09000A2F0900079F0900071F0A3F090D6
:0D14F700006EF0A3F01227E212229D80FB90
:092792008B88898C88898F888965
:100CF4005200B08686008686008686008686008638
:090D040086008686004100A50965
:03002B000227D6D3
:0627D60053BCEFD20F32EC
:020B3700154364
:100B3900200F03020CE0C20F9000A4E0B4090040AA
:100B490003020CC2900B54F8282873020B9B020B6A
:100B59006F020B81020BAD020B6F020B81020BC4FA
:100B6900020B6F020B81AFBDEFFEADBE7C00E42D21
:100B7900FFEC3E9000A6803CAFBDEFFEADBE7C0011
:100B8900E42DFFEC3E9000A8F0A3EFF0753C0102C4
:100B99000CC8AFBDEFFEADBE7C00E42DFFEC3E906E
:100BA90000AA8010AFBDEFFEADBE7C00E42DFFECC6
:100BB9003E9000ACF0A3EFF0020CC8AFBDEFFEAD64
:100BC900BE7C00E42DFFEC3E9000AEF0A3EFF09068
:100BD90000AEE0FEA3E07807CEC313CE13D8F9A880
:100BE90043F6C394065013A843E675F003A424B052
:100BF900F582E43400F583E014F09000A5E014F0E8
:100C09006003020CC87409F0A843E4F6A843E6FFA0
:100C1900C394064003020CC8EF75F003A424B0F591
:100C290082E43400F583E0C39480502AE6FF75F02E
:100C390003A424B1F582E43400F583E0D394804021
:100C490040EF75F003A424B2F582E43400F583740F
:100C590001F0F53D802BA843E6FF75F003A424B10C
:100C6900F582E43400F583E0C394805014EF75F005
:100C790003A424B2F582E43400F5837402F0753DCF
:100C890001A843E6FF75F003A424B0F582E434001B
:100C9900F583E0FEEF75F003A424B1F582E4340096
:100CA900F583EEF0E675F003A424B0F582E4340090
:100CB900F5837486F006020C159000A474FFF09079
:100CC90000A4E0D39407400374FFF09000A4E0046B
:070CD900F090279293F5BC97
:030CE000054322A7
:02272B00154354
:09272D00A843A63DE4F53DE6FFDA
:0327360005432236
:02273900154346
:09273B00A843A63CE4F53CE6FFCE
:0327440005432228
:1023EF008F9D75BC88439720D2AD90004574FFF048
:1023FF00A3740BF0A37437F0A374FFF0A37427F04A
:10240F00A3742BF0A374FFF0A37427F0A37439F017
:01241F00229A
:0727C8007B017A0079A622D3
:1020D100C3EF64809480403BD3EF64809485503398
:1020E100EFFD3395E0FC9000B275F003ED1203E9CA
:1020F100EC75F003A42583F583E0FE9000B275F042
:1021010003ED1203E9EC75F003A42583F583E4F0F4
:05211100AF06227F0370
:0121160022A6
:0425600015431543C7
:102564001227A4A843A60608A607A843E6FE08E681
:0F257400FF4E600BEF24FFFFEE34FFFE1227AD8A
:052583000543054322A1
:1025F40053B1EF43B2101227EEE4F5D975DA49D29C
:10260400DE90003F74FFF0A37425F0A37460F02201
:081C4B008E298F2A8C2B8D2CB1
:101C53001227A4EF4E7066AF2CAE2B1227ADC3E54F
:101C63002A940AE5299400404BE47B18FAF9F8908A
:101C730024DF1203CD120301C006C007AE29AF2A29
:101C8300AB07AA06E4F9F8D007D006120301AB07A5
:101C9300AA06AFF9EFFEADE97C00E42DFFEC3ECFE1
:101CA3002BCF3AAD07FCAF03AE021226BDD2D84309
:0F1CB300DA0180061227EE53DAFE7F02227F034A
:011CC20022FF
:0C0046001227A4EF4E7002FF227F01225F
:10125700E4F580900108E0FFB40800505F90126B3E
:10126700F828287302128302128902128F0212953C
:1012770002129B0212A50212AF0212B9C2A3C2A2A6
:101287008016C2A3C2A2801AC2A3C2A2801EC2A392
:10129700C2A28022C2A3D2A2C2A1C2A08020C2A39E
:1012A700D2A2C2A1D2A08016C2A3D2A2D2A1C2A0AA
:1012B700800CC2A3D2A2D2A1D2A08002D2A3C3EF34
:1012C700648094885029900108E0FF3395E0FE740C
:1012D700FF2FF58274003EF583E0FF3395E0FE743F
:1012E700E32FF58274243EF583E493F580801E9006
:1012F7000108E0FFB408133395E0FE74FF2FF58271
:1013070074003EF583E0F5808003E4F5809000FEED
:10131700E0FF900108E004FEF0D3EF6480F8EE648C
:1013270080984014E0D36480948850047408F022B5
:091337009000FDE0900108F02295
:10268A00E4F5937594FF5395F043960F90002A74DE
:0B269A00FFF0A37412F0A37457F022AD
:09279B009000FDEFF0A3EDF02227
:102614009000FFEFF0A3EDF0A3EBF0A3E528F0A307
:10262400E529F0A3E52AF0A3E52BF0A3E52CF0229D
:0627DC00900107EFF0225E
:100D0D000140004101210041011E0541011F8341A8
:030D1D000120832F
:1021170020920690011FE014F090011EE014F07069
:10212700347405F0A3E0FFC39480500EA3E09480BD
:102137004018A37401F0F5408010900120E0C3948B
:10214700805007A37402F0754001900120EFF090D2
:05215700011F7483F07C
:01215C002260
:02274700154338
:09274900A843A640E4F540E6FFB8
:032752000543221A
:10000E0090003674FFF0A37427F0A37447F09000AD
:0D001E003374FFF0A37421F0A37417F022D7
:07000300900121E0FFE4F091
:01000A0022D3
:100D20000141004901159494009494009494004169
:030D300001141E8D
:020F2F00154368
:100F310020B206900115E014F020B306900118E0EC
:100F410014F020970690011BE014F0900114E014B6
:100F5100F0600302104F741EF0A843E4F6A843E6C4
:100F6100FFC364809483400302104FEF3395E0FE8A
:100F710090011575F003EF1203E9EE75F003A42556
:100F810083F583E0C39480503990011675F003EF27
:100F91001203E9EE75F003A42583F583E0D3948071
:100FA100405AE6FF3395E0FE90011775F003EF120A
:100FB10003E9EE75F003A42583F5837401F0F5418F
:100FC100803AA843E6FF3395E0FE90011675F003E1
:100FD100EF1203E9EE75F003A42583F583E0C394D2
:100FE10080501990011775F003EF1203E9EE75F0C7
:100FF10003A42583F5837402F0754101A843E6FF3C
:10100100FD3395E0FC90011575F003ED1203E9EC59
:1010110075F003A42583F583E0FE90011675F003B6
:10102100ED1203E9EC75F003A42583F583EEF0EFEF
:101031003395E0FE90011575F003EF1203E9EE75AB
:0E104100F003A42583F5837494F006020F5E7D
:03104F0005432234
:0227550015432A
:09275700A843A641E4F541E6FFA8
:032760000543220C
:1026340090003074FFF0A37427F0A37455F0900059
:0D2644002D74FFF0A3740FF0A3742FF0228B
:1021A100EF600764016003BF0233EFFD3395E0FC8C
:1021B10090011775F003ED1203E9EC75F003A42506
:1021C10083F583E0FE90011775F003ED1203E9EC4E
:0F21D10075F003A42583F583E4F0AF06227F03A6
:0121E00022DC
:100D33005500C30000000000000000000000000098
:0C0D430000000000000000004100C200A1
:0206F1001543AF
:1006F300A843E4F6A843E6FFC3648094834003025F
:100703000962EF3395E0FE9000C375F007EF120323
:10071300E9EE75F007A42583F583E0FCA3E04C70B4
:100723000302095C9000C575F007EF1203E9EE754B
:10073300F007A42583F583E0FEA3E04E70030209CE
:100743005CE6FFFD3395E0FC9000C775F007ED1202
:1007530003E9EC75F007A42583F58374FFF5F01224
:10076300024A45F0600302095C9000C575F007ED8D
:100773001203E9EC75F007A42583F583E0FAA3E0FF
:10078300FB9000C775F007ED1203E9EC75F007A4C1
:100793002583F583EAF0A3EBF0EF3395E0FE9000B9
:1007A300C375F007EF1203E9EE75F007A42583F58F
:1007B30083E0FCA3E0D39400EC648094804056A8CB
:1007C30043E6FD3395E0FC9000C375F007ED12039B
:1007D300E9EC75F007A42583F58374FFF5F01202A5
:1007E3004A9000C975F007ED1203E9EC75F007A410
:1007F3002583F583E004F0D36480948340729000F2
:10080300C975F007EF1203E9EE75F007A42583F528
:1008130083E4F0805BA843E6FFFD3395E0FC9000A2
:10082300C375F007ED1203E9EC75F007A42583F512
:1008330083E475F00112024A9000C975F007ED12C6
:1008430003E9EC75F007A42583F583E014F0C36492
:10085300809480501BEF3395E0FE9000C975F0073C
:10086300EF1203E9EE75F007A42583F5837403F013
:10087300A843E6FFFD3395E0FC9000C975F007ED52
:100883001203E9EC75F007A42583F583E014603CBB
:1008930014606614700302092924036003020954D7
:1008A300EF14601014601924026003020954D2C1CA
:1008B300C2C280299000C2E054F04401F0020954FE
:1008C3009000C2E0540F4410F0020954A843E61408
:1008D300601114601924027078C2C1D2C2C2C3C2AB
:1008E300C4806E9000C2E054F04402F08063900034
:1008F300C2E0540F4420F08058A843E6146011145A
:1009030060192402704BC2C1C2C2D2C3C2C48041A7
:100913009000C2E054F04404F080369000C2E054EA
:100923000F4440F0802BA843E6146011146019248F
:1009330002701EC2C1C2C2C2C3D2C480149000C21C
:10094300E054F04408F080099000C2E0540F448062
:0F095300F09000C2E0FF1227DCA843060206F76F
:0309620005432228
:1026A50053B3E143B41E53C0E190005474FFF0A34B
:0826B5007406F0A374F1F02299
:10166A008F29EF3395E0FE9000C375F007EF120360
:10167A00E9EE75F007A42583F583E0FEA3E04E604A
:10168A0003021712E529600A64016006E52964026B
:10169A007076ED60737C007E037FE81201BFAD298E
:1016AA00ED3395E0FC9000C575F007ED1203E9EC07
:1016BA0075F007A42583F583EEF0A3EFF09000C53B
:1016CA0075F007ED1203E9EC75F007A42583F5839D
:1016DA00E0FEA3E0FF9000C775F007ED1203E9EC06
:1016EA0075F007A42583F583EEF0A3EFF09000C30D
:1016FA0075F007ED1203E9EC75F007A42583F5836D
:0B170A00EAF0A3EBF07F02227F032235
:10204200EF600764016003BF023AEFFD3395E0FCE5
:102052009000C375F007ED1203E9EC75F007A425B3
:1020620083F583E0FAA3E0FB9000C375F007ED125D
:1020720003E9EC75F007A42583F583E4F0A3F0AE41
:0720820002AF0322E4FEFFA0
:012089002234
:1023BD00EF600764016003BF0225EF3395E0FE90E7
:1023CD0000C375F007EF1203E9EE75F007A425833E
:1023DD00F583E0FEA3E04E60037F01227F00227FA4
:0223ED000322C9
:100D4F004100000A4100290A41006D0A040E00000B
:100D5F0000000114004600670000FFFF8FFFC10D68
:100D6F00C105C108C101C10E60240005FF0041FF8C
:100D7F000041FF0041FF0041FF0041FF0041FF0024
:100D8F0041FF0041FF0041FF0041FF0041FF0041D3
:100D9F006036002AFF0041FF0041FF003EFF004187
:100DAF00FF003EFF0041FF003EFF0041FF0041FFFB
:100DBF000041FF003EFF003EFF003EFF003EFF00F0
:0A0DCF0041FF0041FF0041FF004119
:01004100229C
:03003E007F00221E
:10208A00438E805389F07BE07A2879017800902486
:10209A00DF1203CD12215DEFF404F58A7BE07A2882
:1020AA00790178009024DF1203CD12215DC3E49FE9
:1020BA00FFE49EFE74019DFDE49CFC78081203A6D1
:0720CA008F8CD28CD2A922F9
:03000B00021F5B76
:041F5B00C0E0C0D052
:101F5F00D5080A75084C300D020514D20DA2037274
:101F6F00045036150AE50A7030850C0AD207300A7C
:101F7F0017E50D6007150D438F01801D538FFEC2AE
:101F8F00B5D51615C20A8011050BE50BD394064083
:091F9F0008C203E5136002D2063A
:051FA800D0D0D0E032B2
:101F0800300E47C20E9024DF1203CD78101203A6BC
:101F18008E238F24900003E0FEA3E0FFE4FCFD7B0A
:101F280019FAF9F8120276C006C007AE23AF24AB3F
:101F380007AA06E4F9F8D007D00612215D78031243
:101F480003A6900065EEF0A3EFF0900065E0FEA315
:021F5800E0FFA8
:011F5A002264
:0927A400900067E0FEA3E0FF22B3
:0927AD00900067EEF0A3EFF022AA
:1026BD0090006BEEF0A3EFF0900069ECF0A3EDF05D
:0126CD0022EA
:0327EE00C2B42250
:03003B000217BFEA
:1017BF00C0E0C083C082C0D075D000C004C005C0D7
:0317CF0006C0074A
:1017D20030DF04C2DF807D30DA04C2DA807630D9AD
:1017E2003DC2D9AFFBEFFEADEB7C00E42DFFEC3E3A
:1017F20020000E900001F0A3EFF075DB11D2008003
:1018020053FE900001E0FCA3E0FDC3EF9DFFEE9CC0
:10181200A3F0A3EFF075DB00C200D20E803630D801
:1018220033C2D8900067E07002A3E06022B2B490A5
:101832000069E0FEA3E0F5EAEEF5FAA3E0FEA3E01C
:10184200FF90006AE02FF0900069E03EF08005C250
:04185200B453DAFEB3
:10185600D007D006D005D004D0D0D082D083D0E037
:01186600324F
:0627E20012208AD2AF2292
:101ABC003004047F0180027F00200A047E01800232
:101ACC007E00EE5F6074E515C395095068300236F0
:101ADC00750D01E515131313541FAB17AA18A9198B
:101AEC00F58275830012014CFFE515540704FEEFD7
:101AFC00A806088002C333D8FC30D70575160380BE
:101B0C002F751601802AAB17AA18A91975F002E5D2
:101B1C0015A4F58285F08312014CF50DE51575F0D1
:101B2C0002A429F9EA35F0FA90000112014CF516DD
:0A1B3C000515D20A22C204438F10DF
:011B4600227C
:10116A00900000E014F0701F740AF0D20590002974
:10117A00E014F07012740AF0D20890006DE014F0D6
:10118A007005740AF0D20190002AA3E0FAA3E0F9EC
:10119A001203F590002DA3E0FAA3E0F91203F590EB
:1011AA000039A3E0FAA3E0F91203F5900045A3E0A1
:1011BA00FAA3E0F91203F5900054A3E0FAA3E0F9C8
:1011CA001203F590005DA3E0FAA3E0F91203F5908B
:1011DA00004BA3E0FAA3E0F91203F5EF600C9000CC
:1011EA001DA3E0FAA3E0F91203F590004EA3E0FA7A
:1011FA00A3E0F91203F5EF600E900020A3E0FAA332
:10120A00E0F91203F5D20BE512D394004016D51279
:10121A003030090C900023A3E0FAA3E0F91203F599
:10122A00D20C801D900051A3E0FAA3E0F91203F555
:10123A00EF600E900023A3E0FAA3E0F91203F5D2BF
:0D124A000C900005A3E0FAA3E0F90203F503
:1019990090003FA3E0FAA3E0F91203F5900042A3F7
:1019A900E0FAA3E0F91203F5900033A3E0FAA3E00B
:1019B900F91203F5900008A3E0FAA3E0F91203F580
:1019C900900030A3E0FAA3E0F91203F5EF600C9060
:1019D9000011A3E0FAA3E0F91203F5900036A3E0A1
:1019E900FAA3E0F91203F5EF600C900017A3E0FAEF
:1019F900A3E0F91203F5900048A3E0FAA3E0F91275
:101A090003F5EF600C90001AA3E0FAA3E0F91203C2
:101A1900F530060EC206900026A3E0FAA3E0F912FB
:031A290003F522A0
:1021E10090000BA3E0FAA3E0F91203F590003CA3E1
:1021F100E0FAA3E0F91203F5EF600C900014A3E0FC
:10220100FAA3E0F91203F5900057A3E0FAA3E0F96D
:0F2211001203F590005AA3E0FAA3E0F90203F5D7
:10250D00AF11AE10AD0FAC0E9000601203DD900058
:10251D0064E514F0E4F511F510F50FF50EF51490D2
:0B252D00000EA3E0FAA3E0F90203F5A2
:10229D00300705C207121ABC300D05C20D12116AA6
:1022AD00300505C205121999300805C2081221E141
:1022BD00300105C20112250DE5112401F511E4359A
:0E22CD0010F510E4350FF50FE4350EF50E2276
:101BCE008B238A248925EFB40C005070901BE1F80A
:101BDE00282873021C05021C0A021C0F021C140288
:101BEE001C19021C1E021C23021C28021C2D021C86
:101BFE0032021C37021C3C90000580359000088094
:101C0E003090000B802B90000E80269000118021CA
:101C1E00900017801C900014801790001A8012906C
:101C2E00001D800D900020800890002380039000FE
:0D1C3E0026E523F0A3E524F0A3E525F02220
:0727CF007B017A0079602212
:070DD900014200410122006C
:0D002E0020A4097542019001227401F02206
:0227630015431C
:09276500A843A642E4F542E6FF98
:03276E00054322FE
:1026510090003C74FFF0A37427F0A37463F0900022
:0D2661003974FFF0A37400F0A3742EF02272
:0226FE00154382
:0A270000900122E0A843F6FFE4F088
:03270A0005432262
:100E090000C400DC00F701060126014A01720188CD
:100E190001B801EE020B024B029302E403100370C6
:100E290003DC04160497052605C800DC00F7011544
:100E39000126014A0172019F01B801EE022A024B03
:100E4900029302E4033F037003DC0455049705266B
:100E590005C8067D00F701150137014A0172019F96
:100E690001D201EE022A026E029302E4033F03A4B7
:100E790003DC045504DD057505C8067D074901062F
:100E89000126014A015D018801B801EE020B024BFE
:100E9900029302BA0310037003DC041604970526B3
:100EA9000575062006E007B80126014A0172018886
:100EB90001B801EE022A024B029302E40310037007
:100EC90003DC04550497052605C8062006E007B883
:100ED90008AA014A0172019F01B801EE022A026EB5
:100EE900029302E4033F037003DC045504DD052685
:100EF90005C8067D06E007B808AA09B9015D018899
:100F090001B801D2020B024B029302BA031003701B
:100F190003A40416049705260575062006E007496B
:060F2900082D092D0A4D00
:100DE0004D00F003000000000000000000000000C3
:061715008F238D248B25BB
:10171B00120046EF60037F0122E525D394004006BB
:10172B00E52594114028E525D394174006E525942B
:10173B0021401BE525D394274006E5259431400E27
:10174B00E525D394375007E523C394F950037F0362
:10175B0022E525603DC4540F75F007A4FDACF0E500
:10176B002375F015A42DFFE5F03CFEE52554077C11
:10177B00002FFFEC3EFEEF25E0FFEE33FE741F2F34
:10178B00F58274E53EF583E493F527740193F52810
:10179B008005E4F527F528AF267E007C017D7712C6
:1017AB0001ADAD241C1201BFAD07AC06AF28AE27AF
:0317BB00121C4BB2
:0117BE002208
:0403FB00154315434E
:1003FF00120046EF70047F0180027F009000F0E052
:10040F00FEB402047D0180027D00ED5F60030206F1
:10041F00ECEEB4030AE49000EEF0A3F00206EC90C9
:10042F0000F1E0FFB4F3047E0180027E00EFB4F12F
:10043F00047F0180027F00EF4E603E9000F3E0FEEC
:10044F0075F06484FFEE75F00A8475F00A84ADF0E0
:10045F00E075F00A84ABF075280A9000F2E02407EB
:10046F00F5299000EDE0FEC4540F240AF52A752BF0
:10047F000AEE5407F52C1226149000F1E0FFB4F3A6
:10048F00047E0180027E00EFB4F2047F0180027FC0
:10049F0000EF4E70030205459000F3E0FD7C007EF7
:1004AF00177F701201BFA843A607E6F975F002A4E3
:1004BF00FFC39000FCE09F9000FBE095F05070E0D0
:1004CF00FEA3E0FF7C007D0B1201ADE9FBFD1201E5
:1004DF00BFA84308A6079000FBE475F00112026065
:1004EF00FED3E5F09BEE94004018A84308E624F9EC
:1004FF00FFE47EF0A807088005CEC313CE13D8F90A
:10050F00801FA84308E6FF740F7E00A80708800528
:10051F00C333CE33CED8F97804CEA2E713CE13D897
:10052F00F8A84308F6A84308E6FF1227DC8007E483
:10053F009000FBF0A3F09000F7E0FEA3E0FFC39064
:10054F0000FAE09F9000F9E09E40030206E61200D9
:10055F0046EF60030206EC9000F4E0FBA3E0FAA381
:10056F00E0F99000F9E0FEA3E0F5828E8312014CD2
:10057F00FFD394375003020681EF241024FC5079E7
:10058F00604524FE700302062C14700302064224F9
:10059F000260030206709000F4E0FBA3E0FAA3E010
:1005AF00F99000F9E475F00112024A85F082F583A3
:1005BF0012014C9000F2F09000FAE004F070989065
:1005CF0000F9E004F080909000F4E0FBA3E0FAA3C0
:1005DF00E0F99000F9E475F00112024A85F082F516
:1005EF008312014C9000F3F09000FAE004F0706E6B
:1005FF009000F9E004F00205669000F4E0FBA3E040
:10060F00FAA3E0F99000F9E475F00112026085F0A9
:10061F0082F58312014C9000F1F00205669000F90B
:10062F00E475F00112024AAFF09000EEF0A3EFF084
:10063F000205669000EEE0FEA3E0FF4E6012900010
:10064F00F9EEF0A3EFF0E49000EEF0A3F0020566F0
:10065F009000FAE004F070069000F9E004F0020553
:10066F00669000FAE004F070069000F9E004F002E2
:10067F0005669000F7E0FEA3E0FFC39000FAE09F4D
:10068F009000F9E09E50569000F4E0FBA3E0FAA32F
:10069F00E0F99000F9E475F00112026085F082F53F
:1006AF008312014C9000EDF09000F2E0FFA3E0FD0B
:1006BF00A3E0FBA3E0FAA3E0F99000F9E475F001E1
:1006CF0012026085F082F58312014CF5269000ED41
:0D06DF00E0FB12171580069000F07403F088
:0506EC00054305432257
:0F270D0090004274FFF0A37403F0A374FBF0225A
:101EB0009000F0E0B4030DE49000F9F0A3F0A3F07B
:101EC000A3F0C210EF60049000F3F0ED6004900006
:101ED000F2F0E94A60047F0180027F00E52E452D83
:101EE00060047E0180027E00EE5F60139000F4EBE0
:101EF000F0A3EAF0A3E9F0A3E52DF0A3E52EF0E5C9
:081F00002F60049000F1F022B3
:10258800BF02047E0180027E00BF01047D0180023B
:102598007D00ED4EFEBF03047D0180027D00ED4EFF
:0825A80060059000F0EFF02245
:0627E8009000F0E0FF226A
:101A2C008B38AA077C007E037FE81201BF9001105F
:101A3C00EEF0A3EFF0E539FD7C007E037FE81201A8
:101A4C00BFA3EEF0A3EFF0AF02AB07E4FAF9F89006
:101A5C000110E0FEA3E0FFE4FCFD120276EF24325D
:101A6C00FFE43EFEE43DFDE43CFCE47B64FAF9F863
:101A7C0012215D90010AEEF0A3EFF0AF38AB07E452
:101A8C00FAF9F8900112E0FEA3E0FFE4FCFD12026B
:101A9C0076EF2432FFE43EFEE43DFDE43CFCE47BC7
:101AAC0064FAF9F812215D90010CEEF0A3EFF0222C
:101E5700E4F526F525F524F523F527D291AF26AE2F
:101E670025AD24AC2378011203BA8F268E258D2445
:101E77008C2300C291309015E4FAF9F8EF2401F5AC
:101E870026EA3EF525E93DF524E83CF5230527E557
:101E970027B418C700D2910000C291AF26AE25AD76
:081EA70024AC2378081203A605
:011EAF002210
:0927B60090010EE0FEA3E0FF22F9
:0F26DE0090010EE0FEA3E0FFE490010EF0A3F0E8
:0126ED0022CA
:10134000900109E0700F30900122121E5790010E9B
:10135000EEF0A3EFF0900109E0FF64017062051B5D
:10136000E51B7002051AFDD3900111E09D9001105C
:10137000E0951A5005E4F51AF51BD390010BE095A2
:101380001B90010AE0951A4004D2908002C2900599
:101390001DE51D7002051CFDD3900113E09D900119
:1013A00012E0951C5005E4F51CF51DD390010DE0ED
:1013B000951D90010CE0951C4004D2918002C291D1
:1013C000EF6402703E2090047F0180027F00E51EE2
:1013D00060047E0180027E00EE5F602130911090FB
:1013E000010FE004F0701690010EE004F0800E9002
:1013F000010FE024FFF090010EE034FFF0A290E432
:1014000033F51E900109E0B4031CE51F7002D29170
:10141000E51FB40105C29175DB21051FE51FC394CB
:06142000C84003E4F51FC3
:0114260022A3
:10235400900109EFF07004C2918002D291900109BA
:10236400E0B40310E5A254CFF5A2E4F5D975DB017E
:10237400D2DE8003E4F5DB90005D74FFF0A37413F8
:06238400F0A37440F022FA
:1026EE0053B1DF43B220C2B5C20A8F0C438F102202
:03005300021CC3C9
:101CC300C0E0C083C082C0D075D000C000C001C0D6
:031CD30002C00349
:101CD600200313D203753108751300753000E50C27
:101CE600C313F50A803AE50BC394014031E530256C
:101CF600E0F530E50BC3940340020530D53121E50C
:101D060013C39532501A753108AB33AA34A93585F9
:101D16001382758300E53012018B05138002C2031E
:031D2600750B003A
:101D2900D003D002D001D000D0D0D082D083D0E06F
:011D39003277
:0927BF008B338A3489358D3222F6
:0327F100AF132201
:102420002003047F0180027F00200A047E018002D5
:102430007E00EE5F60188B178A188919EDC313F5BB
:1024400009C202E4F515538FEFD2047F02227F0305
:012450002269
:102220002003047F0180027F00200A047E018002D7
:102230007E00EE5F6026538FEF750D10751608D285
:102240000A438F018B178A188919ED75F008A404C9
:0F225000F509D202E4F515D2047F02227F0322A2
:10266E002003047F0180027F00200A047E01800285
:0C267E007E00EE5F60037F00227F0122DF
:100DF0005500D800000000000000000000000000C6
:080E00000000010000000000E9
:030043000209654A
:10096500C0E0C0F0C083C082C0D075D000C000C058
:1009750001C002C003C004C005C006C007E59A3027
:10098500E142539AFD9000DDE0FEA3E0FFC3900035
:10099500DCE09F9000DBE09E501F9000D8E0FBA3B9
:1009A500E0FAA3E0F9A3E475F00112026085F08294
:1009B500F58312014CF59B800B9000DFE4F0E53FD9
:1009C5006002C2B7E59A20E003020B1C539AFE3081
:1009D5000C0BC20C9000E5E4F0A3F0D209E53F64EE
:1009E500026003020A769000E3E0FEA3E0FFA3E0C5
:1009F500FCA3E0FDC39FEC9E50719000E0E0FBA3DB
:100A0500E0FAA3E0F98D828C83E59B12018B9000BF
:100A1500EBE0FEA3E0FFC3ED9FEC9E50409000E3AA
:100A2500E0FCA3E0FDEF9DEE9C50329000E8E0FB7A
:100A3500A3E0FAA3E0F99000E5E0FEA3E0FFF5826C
:100A45008E8312014CFD9000E0E0FBA3E0FAA3E0E9
:100A5500F98F828E8312014C6D6002C2099000E607
:100A6500E004F070069000E5E004F0853E12020B0C
:100A75001C9000E3E0FEA3E0FFA3E0FCA3E0FDC3C0
:100A85009FEC9E50779000E0E0FBA3E0FAA3E0F92D
:100A95008D828C83E59B12018B9000EBE0FEA3E039
:100AA500FFC3ED9FEC9E50469000E3E0FCA3E0FD04
:100AB500EF9DEE9C50389000E8E0FBA3E0FAA3E040
:100AC500F99000E5E0FEA3E0FFF5828E8312014C6C
:100AD500FD9000E0E0FBA3E0FAA3E0F98F828E83AE
:100AE50012014C6D60089000E574FFF0A3F09000D2
:100AF500E6E004F070069000E5E004F09000E3E025
:100B0500FEA3E0FFC39000E6E09F9000E5E09E4075
:100B1500069000E77401F0D007D006D005D004D0C8
:100B250003D002D001D000D0D0D082D083D0F0D075
:020B3500E032AC
:02271C00154363
:0A271E009000E7E0A843F6FFE4F0A6
:0327280005432244
:01004200229B
:101504008F268E258D248C2385273FE53F7002800E
:101514000343BA01E53F701790005D74FFF0A374B4
:1015240000F0A37442F0E4F5DBD290D2918020C2A3
:10153400B7AB26AA25A924A823E47F407E9CFDFC02
:101544001203018F3EE53E7003753E01853E127520
:101554009A10E47B04FAF9F89024DF1203CD120305
:1015640001AB26AA25A924A823120301EFF404F54C
:10157400D7E47B04FAF9F89024DF1203CD120301B7
:10158400AB26AA25A924A823120301C3E49FFFE4E0
:101594009EFE74019DFDE49CFC78081203938FD693
:1015A400438E1443AF0190005174FFF0A37427F0ED
:0515B400A3741CF022ED
:102451009000E0EBF0A3EAF0A3E9F0A3ECF0A3ED28
:10246100F09000EBE52BF0A3E52CF09000E8E528D7
:10247100F0A3E529F0A3E52AF0D20CE49000E7F0FF
:012481002238
:102482009000DFE070269000D8EBF0A3EAF0A3E919
:10249200F0E4A3F0A3F0A3ECF0A3EDF0A37401F039
:0F24A200E53F6002D2B7439A027F02227F0322F6
:0B2787009000DFE07002FF227F0122C3
:030000000218677C
:10186700787FE4F6D8FD9000007F007E07E4F0A3C0
:0A187700DFFCDEFA7581430218BCA5
:10188100021427E493A3F8E493A34003F68001F242
:1018910008DFF48029E493A3F85407240CC8C33368
:1018A100C4540F4420C8834004F456800146F6DF37
:1018B100E4800B0102040810204080900CE3E47ED8
:1018C100019360BCA3FF543F30E509541FFEE4932C
:1018D100A360010ECF54C025E060A840B8E493A3F3
:1018E100FAE493A3F8E493A3C8C582C8CAC583CA1E
:1018F100F0A3C8C582C8CAC583CADFE9DEE780BED6
:010E080000E9
:10005600E709F608DFFA8046E709F208DFFA803E8C
:1000660088828C83E709F0A3DFFA8032E309F60879
:10007600DFFA8078E309F208DFFA807088828C83E1
:10008600E309F0A3DFFA806489828A83E0A3F60895
:10009600DFFA805889828A83E0A3F208DFFA804C6F
:1000A60080D280FA80C680D4806980F28033801046
:1000B60080A680EA809A80A880DA80E280CA8033AF
:1000C60089828A83ECFAE493A3C8C582C8CCC58327
:1000D600CCF0A3C8C582C8CCC583CCDFE9DEE780F7
:1000E6000D89828A83E493A3F608DFF9ECFAA9F076
:1000F600EDFB2289828A83ECFAE0A3C8C582C8CCCC
:10010600C583CCF0A3C8C582C8CCC583CCDFEADEE4
:10011600E880DB89828A83E493A3F208DFF980CC46
:1001260088F0EF60010E4E60C388F0ED2402B4043F
:100136000050B9F582EB2402B4040050AF232345E6
:0601460082239000A67365
:10014C00BB010CE58229F582E5833AF583E0225068
:10015C0006E92582F8E622BBFE06E92582F8E222B2
:0D016C00E58229F582E5833AF583E49322CC
:10017900BB010689828A83F0225002F722BBFE0165
:02018900F3225F
:10018B00F8BB010DE58229F582E5833AF583E8F0AA
:10019B00225006E92582C8F622BBFE05E92582C856
:0201AB00F2223E
:1001AD00EF8DF0A4A8F0CF8CF0A428CE8DF0A42E66
:0201BD00FE2220
:1001BF00BC000BBE0029EF8DF084FFADF022E4CC24
:1001CF00F875F008EF2FFFEE33FEEC33FCEE9DECED
:1001DF00984005FCEE9DFE0FD5F0E9E4CEFD22ED33
:1001EF00F8F5F0EE8420D21CFEADF075F008EF2F7D
:1001FF00FFED33FD4007985006D5F0F222C398FD6E
:05020F000FD5F0EA220A
:10021400C2D5EC30E709B2D5E4C39DFDE49CFCEE05
:1002240030E715B2D5E4C39FFFE49EFE1201BFC3BD
:10023400E49DFDE49CFC80031201BF30D507C3E4B8
:060244009FFFE49EFE2274
:10024A00C5F0F8A3E028F0C5F0F8E582158270023F
:06025A001583E038F022DC
:10026000A3F8E0C5F025F0F0E58215827002158351
:06027000E0C838F0E822AE
:10027600E88FF0A4CC8BF0A42CFCE98EF0A42CFC27
:100286008AF0EDA42CFCEA8EF0A4CDA8F08BF0A4A5
:100296002DCC3825F0FDE98FF0A42CCD35F0FCEB04
:1002A6008EF0A4FEA9F0EB8FF0A4CFC5F02ECD39C9
:0F02B600FEE43CFCEAA42DCE35F0FDE43CFC2236
:1002C50075F008758200EF2FFFEE33FECD33CDCCF0
:1002D50033CCC58233C5829BED9AEC99E582984073
:1002E5000CF582EE9BFEED9AFDEC99FC0FD5F0D650
:1002F500E4CEFBE4CDFAE4CCF9A88222B800C1B97A
:100305000059BA002DEC8BF084CFCECDFCE5F0CBB7
:10031500F97818EF2FFFEE33FEED33FDEC33FCEBF0
:1003250033FB10D703994004EB99FB0FD8E5E4F9AB
:10033500FA227818EF2FFFEE33FEED33FDEC33FC98
:10034500C933C910D7059BE99A4007EC9BFCE99A8C
:10035500F90FD8E0E4C9FAE4CCFB2275F010EF2FD1
:10036500FFEE33FEED33FDCC33CCC833C810D707D1
:100375009BEC9AE899400AED9BFDEC9AFCE899F80C
:0E0385000FD5F0DAE4CDFBE4CCFAE4C8F9229F
:10215D00C2D5E830E70FB2D5E4C39BFBE49AFAE4AD
:10216D0099F9E498F8EC30E717B2D51221931203E0
:10217D0001E4C39BFBE49AFAE499F9E498F880032F
:10218D0012030130D50DE4C39FFFE49EFEE49DFDD7
:04219D00E49CFC22A0
:10039300E8600FECC313FCED13FDEE13FEEF13FF48
:0303A300D8F1226C
:1003A600E86010ECA2E713FCED13FDEE13FEEF136D
:0403B600FFD8F0225A
:1003BA00E8600FEFC333FFEE33FEED33FDEC33FCA1
:0303CA00D8F12245
:1003CD00E493FC740193FD740293FE740393FF2276
:0C03DD00ECF0A3EDF0A3EEF0A3EFF02293
:0C03E900A42582F582E5F03583F583221F
:0603F5008A838982E47393
:00000001FF
