:1024C40000A8C0003F065B4F666D7D077F6F000864
:1024D40040014148BF86DBCFE6EDFD87FFEF3508BD
:0E24E40031083508310835083108350831084F
:100CE300420082FFFF410073004100A30041008CDA
:010CF3003CC4
:0B275600EC120179ED90000102018BF4
:081DDD008B298A2A892B8D2C29
:101DE50074FFF52DF52EE4FDEDC3952C503EAB2982
:101DF500AA2AA92B8D8275830012014C622EE4FC60
:101E0500E52E30E015E52DC313FEE52E13FFEE6438
:101E1500A0F52DEF6401F52E800BE52DC313F52DEF
:101E2500E52E13F52E0CBC08D70D80BCAE2DAF2EBC
:011E3500228A
:082280008B238A2489258D2699
:10228800C3E5269402FD121DDD8E278F28E5267CE6
:102298000024FEF582EC34FFF583AB23AA24A9259C
:1022A800EF12018BE527FFE52624FFF582EC34FFCA
:0622B800F583EF02018B2B
:081F8C008D268B238A24892590
:101F9400C3E5269402FD121DDD8E278F28E526FD5C
:101FA4007C0024FEF582EC34FFF583AB23AA24A93C
:101FB4002512014C652860037F002274FF2DF582F1
:101FC40074FF3CF58312014CFDE5276D60037F002F
:031FD400227F0168
:011FD70022E7
:10236F008F2890008DE065286028E4FF1223A2EFEC
:10237F006401601EE52860067A007B3080047AFFD6
:10238F007BD07D1EE4FF1215B9BF020690008DE5CC
:03239F0028F02201
:102595008F28122653EF701990009F745AF0A3E507
:1025A50028F064A5A3F07B017A00799F7D031222B0
:0225B5004122C1
:1025B700900076E0701B7BFF7A2479E2752D007519
:1025C7002E10752FF07DFC7FC8121E8F7F011225FC
:0225D7006D2273
:05003E007F0302256DA7
:101D8000900073E06F6055900073EFF014601E14C4
:101D9000602D14603424037043E49000A3F090009D
:101DA00076F090009EF012003EE4FF80199000A2B1
:101DB000740AF0E4A3F0900076F090009EF022E424
:101DC0009000A3F07F0102236F9000A37402F07FC4
:0D1DD0000112236F1225B77F021225952204
:1026B300900073E070047F018002E4FF121D80220A
:10198000E4FE900073E0FD64026004EDB4030343E1
:101990000601900075E0600343060290009EE0603F
:1019A00003430604900070E0600343060890008D36
:1019B000E0600343061090008E7403F0A3EFF0A3E1
:1019C000740CF0A3EEF07B017A007992900082E033
:1019D000FCA3E0FD1227569000A3E0900094F09045
:1019E0000078E0900095F0900074E0900096F09000
:1019F0000073E0900097F0E4A3F0A3F0A3F0900050
:0F1A000079E090009BF07A00798E7D10022280B1
:1017B600900084E06403600302185C7B017A007980
:1017C600847D08121F8CEF700F90006FE004F0709C
:1017D6000690006EE004F022900072E004F07006BD
:1017E600900071E004F0900085E024FA604724F64A
:1017F6006008240D70607F03804C900086E0700ABC
:10180600900073E06004E4FF800F900086E0B4016E
:101816000B900073E070057F01121D80900087E039
:10182600FFC3940A400BEFD394C8500590008CEF89
:10183600F07F108011900086E060047F0180027FB7
:101846000012236F7F061219807B017A00798E7D44
:07185600107C001224672240
:06251D00E0FD7B027F02DD
:10252300AE031BEE601BED75F00A84EF2B247AF5E6
:1025330082E43400F583E5F0F0ED75F00A84FD8064
:02254300DF2295
:101052007F0890007A740AF0A3DFFCE53A1470036B
:101062000210EC0460030210FF900073E0FCB40174
:10107200069000A20210FB900082E0F523A3E0F5A7
:1010820024C3E523648094805005E4F523F524D33A
:10109200E52494E7E5236480948340067523037571
:1010A20024E7EC64026007900073E0B403047F015C
:1010B20080027F0090007AEFF0900075E090007C53
:1010C200F09000A3E090007EF0AE23AF247C007D80
:1010D20064120214AD077B017F05122523AE23AFF4
:1010E200247C007D64120214802690007A7401F040
:1010F20090007812251D900074E0FD801390007A14
:101102007402F0900071A312251D90006EA3E0FD01
:101112007B027F0612252390007AE0FFA3E0FDA365
:10112200E0FBA3E0F528A3E0F529A3E0F52AA3E07C
:10113200F52BA3E0F52C1225F9E4FF900073E0FEF5
:1011420060010F900075E0600343070290009EE08B
:101152006003430704900070E06003430708EEB4A5
:0811620003034307300227B626
:1022FC001200038F23E5236402702790007504F00D
:10230C00900074E004F0900073E0B402057F0302C7
:10231C001D80900073E070147D08FC7FB87E0B026A
:0C232C001C2AE523B40105E4900075F0C4
:012338002282
:102496001226E3BF012790009EE0C394FF5003E09D
:1024A60004F0900073E0B4021490009EE0C394031D
:0E24B600400B900078E004F07F03121D80229E
:101FD800053BE53BC39402403DE4F53B121EE7C3D5
:101FE800EF9402EE64809480402CD3EF9490EE64DA
:101FF8008094815021900082EEF0A3EFF090008C45
:10200800E0FDEF9D7480F86E9850047F0180027F98
:0920180000900070EFF00210527C
:101B2600900073E0B401227D0A7C007FC47E091216
:101B36001C2A9000A2E0D394004003E014F0900029
:101B4600A2E070057F02121D80900077E004F0E0AD
:101B5600C394024006E4F090009EF0900073E0B457
:101B66000311900076E0700B1227C2EF6401600348
:101B76001225B7900073E0B40216900070E0601072
:101B86009000A3E0700A7D05FC7FAC7E0D121C2A36
:101B96001227A978237C007D007E007F051201268E
:061BA600900079E527F034
:011BAC002216
:10218000E4FF1221C2BF011CE53A2401FFE433FE43
:102190007C007D031201BF8D3A7D037C007FB87EF9
:1021A0000B121C2A7F011221C2BF0115900073E09F
:1021B000B4030E9000767401F012003E7F031225E6
:0221C000952266
:101D1900E4FF1220B0BF01131226B37F01122595EB
:101D29007D0A7C007FD07E07121C2A7F051220B015
:101D3900BF011890008CE0C394C85004E0240AF055
:101D49007D037C007FAC7E0D121C2A7F021220B01D
:101D5900BF011890008CE0D3940A4004E024F6F007
:101D69007D037C007FC47E09121C2A7F031220B0E8
:071D7900BF0103E4F53A226B
:1014270012266F7D07E4FF1227751226191225D998
:101437001226F212000E12263612268A7F2B122649
:10144700D37F981223D47F031223397527027F8015
:101457007E257D007C00121504752800752900750E
:101467002A00E4F52BF52C7B017A0079847D08FCB2
:101477001224367BFF7A1F79D87F02121BAD7BFFC0
:101487007A1B79267F03121BAD7BFF7A2179807F38
:1014970004121BAD7BFF7A1D79197F07121BAD7BE9
:1014A700FF7A2279FC7F05121BAD7BFF7A247996A0
:1014B7007F06121BAD7BFF7A1779B67F0A121BAD29
:1014C700E4900075F090008DF0900070F090007639
:1014D700F0900078F090009EF0900077F090007404
:1014E700F09000A2F0900079F0900071F0A3F090D6
:0D14F700006EF0A3F01227BC1222BE80FB95
:09276C008B88898C88898F88898B
:100CF4005200B08686008686008686008686008638
:090D040086008686004100A50965
:03002B000227B0F9
:0627B00053BCEFD20F3212
:020B3700154364
:100B3900200F03020CE0C20F9000A4E0B4090040AA
:100B490003020CC2900B54F8282873020B9B020B6A
:100B59006F020B81020BAD020B6F020B81020BC4FA
:100B6900020B6F020B81AFBDEFFEADBE7C00E42D21
:100B7900FFEC3E9000A6803CAFBDEFFEADBE7C0011
:100B8900E42DFFEC3E9000A8F0A3EFF0753C0102C4
:100B99000CC8AFBDEFFEADBE7C00E42DFFEC3E906E
:100BA90000AA8010AFBDEFFEADBE7C00E42DFFECC6
:100BB9003E9000ACF0A3EFF0020CC8AFBDEFFEAD64
:100BC900BE7C00E42DFFEC3E9000AEF0A3EFF09068
:100BD90000AEE0FEA3E07807CEC313CE13D8F9A880
:100BE90043F6C394065013A843E675F003A424B052
:100BF900F582E43400F583E014F09000A5E014F0E8
:100C09006003020CC87409F0A843E4F6A843E6FFA0
:100C1900C394064003020CC8EF75F003A424B0F591
:100C290082E43400F583E0C39480502AE6FF75F02E
:100C390003A424B1F582E43400F583E0D394804021
:100C490040EF75F003A424B2F582E43400F583740F
:100C590001F0F53D802BA843E6FF75F003A424B10C
:100C6900F582E43400F583E0C394805014EF75F005
:100C790003A424B2F582E43400F5837402F0753DCF
:100C890001A843E6FF75F003A424B0F582E434001B
:100C9900F583E0FEEF75F003A424B1F582E4340096
:100CA900F583EEF0E675F003A424B0F582E4340090
:100CB900F5837486F006020C159000A474FFF09079
:100CC90000A4E0D39407400374FFF09000A4E0046B
:070CD900F090276C93F5BCBD
:030CE000054322A7
:0227100015436F
:09271200A843A63DE4F53DE6FFF5
:03271B0005432251
:02271E00154361
:09272000A843A63CE4F53CE6FFE9
:0327290005432243
:1023D4008F9D75BC88439720D2AD90004574FFF063
:1023E400A3740BF0A37437F0A374FFF0A37427F065
:1023F400A37410F0A374FFF0A37427F0A3741EF069
:0124040022B5
:0727A2007B017A0079A622F9
:1020B000C3EF64809480403BD3EF648094855033B9
:1020C000EFFD3395E0FC9000B275F003ED1203E9EB
:1020D000EC75F003A42583F583E0FE9000B275F063
:1020E00003ED1203E9EC75F003A42583F583E4F016
:0520F000AF06227F0392
:0120F50022C8
:0425450015431543E2
:1025490012277EA843A60608A607A843E6FE08E6C2
:0F255900FF4E600BEF24FFFFEE34FFFE122787CB
:052568000543054322BC
:1025D90053B1EF43B2101227CBE4F5D975DA49D2DA
:1025E900DE90003F74FFF0A37425F0A37445F02238
:081C2A008E298F2A8C2B8D2CD2
:101C320012277EEF4E7066AF2CAE2B122787C3E5BC
:101C42002A940AE5299400404BE47B18FAF9F890AB
:101C520024C41203CD120301C006C007AE29AF2A65
:101C6200AB07AA06E4F9F8D007D006120301AB07C6
:101C7200AA06AFF9EFFEADE97C00E42DFFEC3ECF02
:101C82002BCF3AAD07FCAF03AE021226A2D2D84345
:0F1C9200DA0180061227CB53DAFE7F02227F038E
:011CA1002220
:0C00460012277EEF4E7002FF227F012285
:10125700E4F580900108E0FFB40800505F90126B3E
:10126700F828287302128302128902128F0212953C
:1012770002129B0212A50212AF0212B9C2A3C2A2A6
:101287008016C2A3C2A2801AC2A3C2A2801EC2A392
:10129700C2A28022C2A3D2A2C2A1C2A08020C2A39E
:1012A700D2A2C2A1D2A08016C2A3D2A2D2A1C2A0AA
:1012B700800CC2A3D2A2D2A1D2A08002D2A3C3EF34
:1012C700648094885029900108E0FF3395E0FE740C
:1012D700FF2FF58274003EF583E0FF3395E0FE743F
:1012E700C82FF58274243EF583E493F580801E9021
:1012F7000108E0FFB408133395E0FE74FF2FF58271
:1013070074003EF583E0F5808003E4F5809000FEED
:10131700E0FF900108E004FEF0D3EF6480F8EE648C
:1013270080984014E0D36480948850047408F022B5
:091337009000FDE0900108F02295
:10266F00E4F5937594FF5395F043960F90002A74F9
:0B267F00FFF0A37412F0A37457F022C8
:092775009000FDEFF0A3EDF0224D
:1025F9009000FFEFF0A3EDF0A3EBF0A3E528F0A323
:10260900E529F0A3E52AF0A3E52BF0A3E52CF022B8
:0627B600900107EFF02284
:100D0D000140004101210041011E0541011F8341A8
:030D1D000120832F
:1020F60020920690011FE014F090011EE014F0708B
:10210600347405F0A3E0FFC39480500EA3E09480DE
:102116004018A37401F0F5408010900120E0C394AC
:10212600805007A37402F0754001900120EFF090F3
:05213600011F7483F09D
:01213B002281
:02272C00154353
:09272E00A843A640E4F540E6FFD3
:0327370005432235
:10000E0090003674FFF0A37427F0A3742CF09000C8
:0D001E003374FFF0A37420F0A374F6F022F9
:07000300900121E0FFE4F091
:01000A0022D3
:100D20000141004901159494009494009494004169
:030D300001141E8D
:020F2F00154368
:100F310020B206900115E014F020B306900118E0EC
:100F410014F020970690011BE014F0900114E014B6
:100F5100F0600302104F741EF0A843E4F6A843E6C4
:100F6100FFC364809483400302104FEF3395E0FE8A
:100F710090011575F003EF1203E9EE75F003A42556
:100F810083F583E0C39480503990011675F003EF27
:100F91001203E9EE75F003A42583F583E0D3948071
:100FA100405AE6FF3395E0FE90011775F003EF120A
:100FB10003E9EE75F003A42583F5837401F0F5418F
:100FC100803AA843E6FF3395E0FE90011675F003E1
:100FD100EF1203E9EE75F003A42583F583E0C394D2
:100FE10080501990011775F003EF1203E9EE75F0C7
:100FF10003A42583F5837402F0754101A843E6FF3C
:10100100FD3395E0FC90011575F003ED1203E9EC59
:1010110075F003A42583F583E0FE90011675F003B6
:10102100ED1203E9EC75F003A42583F583EEF0EFEF
:101031003395E0FE90011575F003EF1203E9EE75AB
:0E104100F003A42583F5837494F006020F5E7D
:03104F0005432234
:02273A00154345
:09273C00A843A641E4F541E6FFC3
:0327450005432227
:1026190090003074FFF0A37427F0A3743AF090008F
:0D2629002D74FFF0A3740FF0A3742FF022A6
:1021C200EF600764016003BF0233EFFD3395E0FC6B
:1021D20090011775F003ED1203E9EC75F003A425E5
:1021E20083F583E0FE90011775F003ED1203E9EC2D
:0F21F20075F003A42583F583E4F0AF06227F0385
:0122010022BA
:100D33005500C30000000000000000000000000098
:0C0D430000000000000000004100C200A1
:0206F1001543AF
:1006F300A843E4F6A843E6FFC3648094834003025F
:100703000962EF3395E0FE9000C375F007EF120323
:10071300E9EE75F007A42583F583E0FCA3E04C70B4
:100723000302095C9000C575F007EF1203E9EE754B
:10073300F007A42583F583E0FEA3E04E70030209CE
:100743005CE6FFFD3395E0FC9000C775F007ED1202
:1007530003E9EC75F007A42583F58374FFF5F01224
:10076300024A45F0600302095C9000C575F007ED8D
:100773001203E9EC75F007A42583F583E0FAA3E0FF
:10078300FB9000C775F007ED1203E9EC75F007A4C1
:100793002583F583EAF0A3EBF0EF3395E0FE9000B9
:1007A300C375F007EF1203E9EE75F007A42583F58F
:1007B30083E0FCA3E0D39400EC648094804056A8CB
:1007C30043E6FD3395E0FC9000C375F007ED12039B
:1007D300E9EC75F007A42583F58374FFF5F01202A5
:1007E3004A9000C975F007ED1203E9EC75F007A410
:1007F3002583F583E004F0D36480948340729000F2
:10080300C975F007EF1203E9EE75F007A42583F528
:1008130083E4F0805BA843E6FFFD3395E0FC9000A2
:10082300C375F007ED1203E9EC75F007A42583F512
:1008330083E475F00112024A9000C975F007ED12C6
:1008430003E9EC75F007A42583F583E014F0C36492
:10085300809480501BEF3395E0FE9000C975F0073C
:10086300EF1203E9EE75F007A42583F5837403F013
:10087300A843E6FFFD3395E0FC9000C975F007ED52
:100883001203E9EC75F007A42583F583E014603CBB
:1008930014606614700302092924036003020954D7
:1008A300EF14601014601924026003020954D2C1CA
:1008B300C2C280299000C2E054F04401F0020954FE
:1008C3009000C2E0540F4410F0020954A843E61408
:1008D300601114601924027078C2C1D2C2C2C3C2AB
:1008E300C4806E9000C2E054F04402F08063900034
:1008F300C2E0540F4420F08058A843E6146011145A
:1009030060192402704BC2C1C2C2D2C3C2C48041A7
:100913009000C2E054F04404F080369000C2E054EA
:100923000F4440F0802BA843E6146011146019248F
:1009330002701EC2C1C2C2C2C3D2C480149000C21C
:10094300E054F04408F080099000C2E0540F448062
:0F095300F09000C2E0FF1227B6A843060206F795
:0309620005432228
:10268A0053B3E143B41E53C0E190005474FFF0A366
:08269A007406F0A374F1F022B4
:1015B9008F29EF3395E0FE9000C375F007EF120312
:1015C900E9EE75F007A42583F583E0FEA3E04E60FC
:1015D90003021661E529600A64016006E5296402CF
:1015E9007076ED60737C007E037FE81201BFAD2940
:1015F900ED3395E0FC9000C575F007ED1203E9ECB9
:1016090075F007A42583F583EEF0A3EFF09000C5EC
:1016190075F007ED1203E9EC75F007A42583F5834E
:10162900E0FEA3E0FF9000C775F007ED1203E9ECB7
:1016390075F007A42583F583EEF0A3EFF09000C3BE
:1016490075F007ED1203E9EC75F007A42583F5831E
:0B165900EAF0A3EBF07F02227F0322E7
:10202100EF600764016003BF023AEFFD3395E0FC06
:102031009000C375F007ED1203E9EC75F007A425D4
:1020410083F583E0FAA3E0FB9000C375F007ED127E
:1020510003E9EC75F007A42583F583E4F0A3F0AE62
:0720610002AF0322E4FEFFC1
:012068002255
:1023A200EF600764016003BF0225EF3395E0FE9002
:1023B20000C375F007EF1203E9EE75F007A4258359
:1023C200F583E0FEA3E04E60037F01227F00227FBF
:0223D2000322E4
:100D4F004100000A4100290A41006D0A040E00000B
:100D5F0000000114004600670000FFFF8FFFC10D68
:100D6F00C105C108C101C10E60240005FF0052FF7B
:100D7F000052FF0052FF0052FF0052FF0052FF00CF
:100D8F0052FF0052FF0052FF0052FF0052FF00526D
:100D9F006036002AFF0052FF0052FF27C8FF0052A3
:100DAF00FF27C8FF0052FF27C8FF0052FF0052FF66
:100DBF000052FF27C8FF27C8FF27C8FF27C8FF001B
:0A0DCF0052FF0052FF0052FF0052D5
:01005200228B
:0327C8007F00226D
:10206900438E805389F07BE07A28790178009024A7
:10207900C41203CD12213CEFF404F58A7BE07A28DF
:10208900790178009024C41203CD12213CC3E49F46
:10209900FFE49EFE74019DFDE49CFC78081203A6F2
:0720A9008F8CD28CD2A9221A
:03000B00021F3A97
:041F3A00C0E0C0D073
:101F3E00D5080A75084C300D020514D20DA2037295
:101F4E00045036150AE50A7030850C0AD207300A9D
:101F5E0017E50D6007150D438F01801D538FFEC2CF
:101F6E00B5D51615C20A8011050BE50BD3940640A4
:091F7E0008C203E5136002D2065B
:051F8700D0D0D0E032D3
:101EE700300E47C20E9024C41203CD78101203A6F9
:101EF7008E238F24900003E0FEA3E0FFE4FCFD7B2C
:101F070019FAF9F8120276C006C007AE23AF24AB60
:101F170007AA06E4F9F8D007D00612213C78031285
:101F270003A6900065EEF0A3EFF0900065E0FEA336
:021F3700E0FFC9
:011F39002285
:09277E00900067E0FEA3E0FF22D9
:09278700900067EEF0A3EFF022D0
:1026A20090006BEEF0A3EFF0900069ECF0A3EDF078
:0126B2002205
:0327CB00C2B42273
:03003B0002170E9B
:10170E00C0E0C083C082C0D075D000C004C005C088
:03171E0006C007FB
:1017210030DF04C2DF807D30DA04C2DA807630D95E
:101731003DC2D9AFFBEFFEADEB7C00E42DFFEC3EEB
:1017410020000E900001F0A3EFF075DB11D20080B4
:1017510053FE900001E0FCA3E0FDC3EF9DFFEE9C72
:10176100A3F0A3EFF075DB00C200D20E803630D8B3
:1017710033C2D8900067E07002A3E06022B2B49057
:101781000069E0FEA3E0F5EAEEF5FAA3E0FEA3E0CE
:10179100FF90006AE02FF0900069E03EF08005C202
:0417A100B453DAFE65
:1017A500D007D006D005D004D0D0D082D083D0E0E9
:0117B5003201
:0627BC00122069D2AF22D9
:101A9B003004047F0180027F00200A047E01800253
:101AAB007E00EE5F6074E515C39509506830023611
:101ABB00750D01E515131313541FAB17AA18A919AC
:101ACB00F58275830012014CFFE515540704FEEFF8
:101ADB00A806088002C333D8FC30D70575160380DF
:101AEB002F751601802AAB17AA18A91975F002E5F4
:101AFB0015A4F58285F08312014CF50DE51575F0F3
:101B0B0002A429F9EA35F0FA90000112014CF516FE
:0A1B1B000515D20A22C204438F1000
:011B2500229D
:10116A00900000E014F0701F740AF0D20590002974
:10117A00E014F07012740AF0D20890006DE014F0D6
:10118A007005740AF0D20190002AA3E0FAA3E0F9EC
:10119A001203F590002DA3E0FAA3E0F91203F590EB
:1011AA000039A3E0FAA3E0F91203F5900045A3E0A1
:1011BA00FAA3E0F91203F5900054A3E0FAA3E0F9C8
:1011CA001203F590005DA3E0FAA3E0F91203F5908B
:1011DA00004BA3E0FAA3E0F91203F5EF600C9000CC
:1011EA001DA3E0FAA3E0F91203F590004EA3E0FA7A
:1011FA00A3E0F91203F5EF600E900020A3E0FAA332
:10120A00E0F91203F5D20BE512D394004016D51279
:10121A003030090C900023A3E0FAA3E0F91203F599
:10122A00D20C801D900051A3E0FAA3E0F91203F555
:10123A00EF600E900023A3E0FAA3E0F91203F5D2BF
:0D124A000C900005A3E0FAA3E0F90203F503
:10185D0090003FA3E0FAA3E0F91203F5900042A334
:10186D00E0FAA3E0F91203F5900033A3E0FAA3E048
:10187D00F91203F5900008A3E0FAA3E0F91203F5BD
:10188D00900030A3E0FAA3E0F91203F5EF600C909D
:10189D000011A3E0FAA3E0F91203F5900036A3E0DE
:1018AD00FAA3E0F91203F5EF600C900017A3E0FA2C
:1018BD00A3E0F91203F5900048A3E0FAA3E0F912B2
:1018CD0003F5EF600C90001AA3E0FAA3E0F9120300
:1018DD00F530060EC206900026A3E0FAA3E0F91239
:0318ED0003F522DE
:1022020090000BA3E0FAA3E0F91203F590003CA3BF
:10221200E0FAA3E0F91203F5EF600C900014A3E0DA
:10222200FAA3E0F91203F5900057A3E0FAA3E0F94C
:0F2232001203F590005AA3E0FAA3E0F90203F5B6
:1024F200AF11AE10AD0FAC0E9000601203DD900074
:1025020064E514F0E4F511F510F50FF50EF51490ED
:0B251200000EA3E0FAA3E0F90203F5BD
:1022BE00300705C207121A9B300D05C20D12116AA6
:1022CE00300505C20512185D300805C2081222023B
:1022DE00300105C2011224F2E5112401F511E43595
:0E22EE0010F510E4350FF50FE4350EF50E2255
:101BAD008B238A248925EFB40C005070901BC0F84C
:101BBD00282873021BE4021BE9021BEE021BF30231
:101BCD001BF8021BFD021C02021C07021C0C021C4E
:101BDD0011021C16021C1B90000580359000088018
:101BED003090000B802B90000E80269000118021EC
:101BFD00900017801C900014801790001A8012908E
:101C0D00001D800D9000208008900023800390001F
:0D1C1D0026E523F0A3E524F0A3E525F02241
:0727A9007B017A0079602238
:070DD900014200410122006C
:0D002E0020A4097542019001227401F02206
:02274800154337
:09274A00A843A642E4F542E6FFB3
:0327530005432219
:1026360090003C74FFF0A37427F0A37448F0900058
:0D2646003974FFF0A37400F0A3742EF0228D
:0226E30015439D
:0A26E500900122E0A843F6FFE4F0A4
:0326EF000543227E
:100E090000C400DC00F701060126014A01720188CD
:100E190001B801EE020B024B029302E403100370C6
:100E290003DC04160497052605C800DC00F7011544
:100E39000126014A0172019F01B801EE022A024B03
:100E4900029302E4033F037003DC0455049705266B
:100E590005C8067D00F701150137014A0172019F96
:100E690001D201EE022A026E029302E4033F03A4B7
:100E790003DC045504DD057505C8067D074901062F
:100E89000126014A015D018801B801EE020B024BFE
:100E9900029302BA0310037003DC041604970526B3
:100EA9000575062006E007B80126014A0172018886
:100EB90001B801EE022A024B029302E40310037007
:100EC90003DC04550497052605C8062006E007B883
:100ED90008AA014A0172019F01B801EE022A026EB5
:100EE900029302E4033F037003DC045504DD052685
:100EF90005C8067D06E007B808AA09B9015D018899
:100F090001B801D2020B024B029302BA031003701B
:100F190003A40416049705260575062006E007496B
:060F2900082D092D0A4D00
:100DE0004D00F003000000000000000000000000C3
:061664008F238D248B256D
:10166A00120046EF60037F0122E525D3940040066D
:10167A00E52594114028E525D394174006E52594DD
:10168A0021401BE525D394274006E5259431400ED9
:10169A00E525D394375007E523C394F950037F0314
:1016AA0022E525603DC4540F75F007A4FDACF0E5B2
:1016BA002375F015A42DFFE5F03CFEE52554077CC3
:1016CA00002FFFEC3EFEEF25E0FFEE33FE741F2FE6
:1016DA00F58274E53EF583E493F527740193F528C2
:1016EA008005E4F527F528AF267E007C017D771278
:1016FA0001ADAD241C1201BFAD07AC06AF28AE2761
:03170A00121C2A84
:01170D0022B9
:0403FB00154315434E
:1003FF00120046EF70047F0180027F009000F0E052
:10040F00FEB402047D0180027D00ED5F60030206F1
:10041F00ECEEB4030AE49000EEF0A3F00206EC90C9
:10042F0000F1E0FFB4F3047E0180027E00EFB4F12F
:10043F00047F0180027F00EF4E603E9000F3E0FEEC
:10044F0075F06484FFEE75F00A8475F00A84ADF0E0
:10045F00E075F00A84ABF075280A9000F2E02407EB
:10046F00F5299000EDE0FEC4540F240AF52A752BF0
:10047F000AEE5407F52C1225F99000F1E0FFB4F3C2
:10048F00047E0180027E00EFB4F2047F0180027FC0
:10049F0000EF4E70030205459000F3E0FD7C007EF7
:1004AF00177F701201BFA843A607E6F975F002A4E3
:1004BF00FFC39000FCE09F9000FBE095F05070E0D0
:1004CF00FEA3E0FF7C007D0B1201ADE9FBFD1201E5
:1004DF00BFA84308A6079000FBE475F00112026065
:1004EF00FED3E5F09BEE94004018A84308E624F9EC
:1004FF00FFE47EF0A807088005CEC313CE13D8F90A
:10050F00801FA84308E6FF740F7E00A80708800528
:10051F00C333CE33CED8F97804CEA2E713CE13D897
:10052F00F8A84308F6A84308E6FF1227B68007E4A9
:10053F009000FBF0A3F09000F7E0FEA3E0FFC39064
:10054F0000FAE09F9000F9E09E40030206E61200D9
:10055F0046EF60030206EC9000F4E0FBA3E0FAA381
:10056F00E0F99000F9E0FEA3E0F5828E8312014CD2
:10057F00FFD394375003020681EF241024FC5079E7
:10058F00604524FE700302062C14700302064224F9
:10059F000260030206709000F4E0FBA3E0FAA3E010
:1005AF00F99000F9E475F00112024A85F082F583A3
:1005BF0012014C9000F2F09000FAE004F070989065
:1005CF0000F9E004F080909000F4E0FBA3E0FAA3C0
:1005DF00E0F99000F9E475F00112024A85F082F516
:1005EF008312014C9000F3F09000FAE004F0706E6B
:1005FF009000F9E004F00205669000F4E0FBA3E040
:10060F00FAA3E0F99000F9E475F00112026085F0A9
:10061F0082F58312014C9000F1F00205669000F90B
:10062F00E475F00112024AAFF09000EEF0A3EFF084
:10063F000205669000EEE0FEA3E0FF4E6012900010
:10064F00F9EEF0A3EFF0E49000EEF0A3F0020566F0
:10065F009000FAE004F070069000F9E004F0020553
:10066F00669000FAE004F070069000F9E004F002E2
:10067F0005669000F7E0FEA3E0FFC39000FAE09F4D
:10068F009000F9E09E50569000F4E0FBA3E0FAA32F
:10069F00E0F99000F9E475F00112026085F082F53F
:1006AF008312014C9000EDF09000F2E0FFA3E0FD0B
:1006BF00A3E0FBA3E0FAA3E0F99000F9E475F001E1
:1006CF0012026085F082F58312014CF5269000ED41
:0D06DF00E0FB12166480069000F07403F03A
:0506EC00054305432257
:0F26F20090004274FFF0A37403F0A374FBF02276
:101E8F009000F0E0B4030DE49000F9F0A3F0A3F09C
:101E9F00A3F0C210EF60049000F3F0ED6004900027
:101EAF00F2F0E94A60047F0180027F00E52E452DA4
:101EBF0060047E0180027E00EE5F60139000F4EB01
:101ECF00F0A3EAF0A3E9F0A3E52DF0A3E52EF0E5EA
:081EDF002F60049000F1F022D5
:10256D00BF02047E0180027E00BF01047D01800256
:10257D007D00ED4EFEBF03047D0180027D00ED4E1A
:08258D0060059000F0EFF02260
:0627C2009000F0E0FF2290
:1018F0008B38AA077C007E037FE81201BF9001109D
:10190000EEF0A3EFF0E539FD7C007E037FE81201E5
:10191000BFA3EEF0A3EFF0AF02AB07E4FAF9F89043
:101920000110E0FEA3E0FFE4FCFD120276EF24329A
:10193000FFE43EFEE43DFDE43CFCE47B64FAF9F8A0
:1019400012213C90010AEEF0A3EFF0AF38AB07E4B0
:10195000FAF9F8900112E0FEA3E0FFE4FCFD1202A8
:1019600076EF2432FFE43EFEE43DFDE43CFCE47B04
:1019700064FAF9F812213C90010CEEF0A3EFF0228A
:101E3600E4F526F525F524F523F527D291AF26AE50
:101E460025AD24AC2378011203BA8F268E258D2466
:101E56008C2300C291309015E4FAF9F8EF2401F5CD
:101E660026EA3EF525E93DF524E83CF5230527E578
:101E760027B418C700D2910000C291AF26AE25AD97
:081E860024AC2378081203A626
:011E8E002231
:0927900090010EE0FEA3E0FF221F
:0F26C30090010EE0FEA3E0FFE490010EF0A3F003
:0126D20022E5
:10134000900109E0700F30900122121E3690010EBC
:10135000EEF0A3EFF0900109E0FF64017062051B5D
:10136000E51B7002051AFDD3900111E09D9001105C
:10137000E0951A5005E4F51AF51BD390010BE095A2
:101380001B90010AE0951A4004D2908002C2900599
:101390001DE51D7002051CFDD3900113E09D900119
:1013A00012E0951C5005E4F51CF51DD390010DE0ED
:1013B000951D90010CE0951C4004D2918002C291D1
:1013C000EF6402703E2090047F0180027F00E51EE2
:1013D00060047E0180027E00EE5F602130911090FB
:1013E000010FE004F0701690010EE004F0800E9002
:1013F000010FE024FFF090010EE034FFF0A290E432
:1014000033F51E900109E0B4031CE51F7002D29170
:10141000E51FB40105C29175DB21051FE51FC394CB
:06142000C84003E4F51FC3
:0114260022A3
:10233900900109EFF07004C2918002D291900109D5
:10234900E0B40310E5A254CFF5A2E4F5D975DB0199
:10235900D2DE8003E4F5DB90005D74FFF0A3741313
:06236900F0A37440F02215
:1026D30053B1DF43B220C2B5C20A8F0C438F10221D
:03005300021CA2EA
:101CA200C0E0C083C082C0D075D000C000C001C0F7
:031CB20002C0036A
:101CB500200313D203753108751300753000E50C48
:101CC500C313F50A803AE50BC394014031E530258D
:101CD500E0F530E50BC3940340020530D53121E52D
:101CE50013C39532501A753108AB33AA34A935851B
:101CF5001382758300E53012018B05138002C20340
:031D0500750B005B
:101D0800D003D002D001D000D0D0D082D083D0E090
:011D18003298
:092799008B338A3489358D32221C
:0327CE00AF132224
:102405002003047F0180027F00200A047E018002F0
:102415007E00EE5F60188B178A188919EDC313F5D6
:1024250009C202E4F515538FEFD2047F02227F0320
:012435002284
:102241002003047F0180027F00200A047E018002B6
:102251007E00EE5F6026538FEF750D10751608D264
:102261000A438F018B178A188919ED75F008A404A8
:0F227100F509D202E4F515D2047F02227F032281
:102653002003047F0180027F00200A047E018002A0
:0C2663007E00EE5F60037F00227F0122FA
:100DF0005500D800000000000000000000000000C6
:080E00000000010000000000E9
:030043000209654A
:10096500C0E0C0F0C083C082C0D075D000C000C058
:1009750001C002C003C004C005C006C007E59A3027
:10098500E142539AFD9000DDE0FEA3E0FFC3900035
:10099500DCE09F9000DBE09E501F9000D8E0FBA3B9
:1009A500E0FAA3E0F9A3E475F00112026085F08294
:1009B500F58312014CF59B800B9000DFE4F0E53FD9
:1009C5006002C2B7E59A20E003020B1C539AFE3081
:1009D5000C0BC20C9000E5E4F0A3F0D209E53F64EE
:1009E500026003020A769000E3E0FEA3E0FFA3E0C5
:1009F500FCA3E0FDC39FEC9E50719000E0E0FBA3DB
:100A0500E0FAA3E0F98D828C83E59B12018B9000BF
:100A1500EBE0FEA3E0FFC3ED9FEC9E50409000E3AA
:100A2500E0FCA3E0FDEF9DEE9C50329000E8E0FB7A
:100A3500A3E0FAA3E0F99000E5E0FEA3E0FFF5826C
:100A45008E8312014CFD9000E0E0FBA3E0FAA3E0E9
:100A5500F98F828E8312014C6D6002C2099000E607
:100A6500E004F070069000E5E004F0853E12020B0C
:100A75001C9000E3E0FEA3E0FFA3E0FCA3E0FDC3C0
:100A85009FEC9E50779000E0E0FBA3E0FAA3E0F92D
:100A95008D828C83E59B12018B9000EBE0FEA3E039
:100AA500FFC3ED9FEC9E50469000E3E0FCA3E0FD04
:100AB500EF9DEE9C50389000E8E0FBA3E0FAA3E040
:100AC500F99000E5E0FEA3E0FFF5828E8312014C6C
:100AD500FD9000E0E0FBA3E0FAA3E0F98F828E83AE
:100AE50012014C6D60089000E574FFF0A3F09000D2
:100AF500E6E004F070069000E5E004F09000E3E025
:100B0500FEA3E0FFC39000E6E09F9000E5E09E4075
:100B1500069000E77401F0D007D006D005D004D0C8
:100B250003D002D001D000D0D0D082D083D0F0D075
:020B3500E032AC
:0227010015437E
:0A2703009000E7E0A843F6FFE4F0C1
:03270D000543225F
:0127D10022E5
:101504008F268E258D248C2385273FE53F7002800E
:101514000343BA01E53F701790005D74FFF0A374B4
:1015240027F0A374D1F0E4F5DBD290D2918020C2ED
:10153400B7AB26AA25A924A823E47F407E9CFDFC02
:101544001203018F3EE53E7003753E01853E127520
:101554009A10E47B04FAF9F89024C41203CD120320
:1015640001AB26AA25A924A823120301EFF404F54C
:10157400D7E47B04FAF9F89024C41203CD120301D2
:10158400AB26AA25A924A823120301C3E49FFFE4E0
:101594009EFE74019DFDE49CFC78081203938FD693
:1015A400438E1443AF0190005174FFF0A37427F0ED
:0515B400A37401F02208
:102436009000E0EBF0A3EAF0A3E9F0A3ECF0A3ED43
:10244600F09000EBE52BF0A3E52CF09000E8E528F2
:10245600F0A3E529F0A3E52AF0D20CE49000E7F01A
:012466002253
:102467009000DFE070269000D8EBF0A3EAF0A3E934
:10247700F0E4A3F0A3F0A3ECF0A3EDF0A37401F054
:0F248700E53F6002D2B7439A027F02227F032211
:0B2761009000DFE07002FF227F0122E9
:03000000021A0FD2
:0C1A0F00787FE4F6D8FD758143021A567A
:10005600E709F608DFFA8046E709F208DFFA803E8C
:1000660088828C83E709F0A3DFFA8032E309F60879
:10007600DFFA8078E309F208DFFA807088828C83E1
:10008600E309F0A3DFFA806489828A83E0A3F60895
:10009600DFFA805889828A83E0A3F208DFFA804C6F
:1000A60080D280FA80C680D4806980F28033801046
:1000B60080A680EA809A80A880DA80E280CA8033AF
:1000C60089828A83ECFAE493A3C8C582C8CCC58327
:1000D600CCF0A3C8C582C8CCC583CCDFE9DEE780F7
:1000E6000D89828A83E493A3F608DFF9ECFAA9F076
:1000F600EDFB2289828A83ECFAE0A3C8C582C8CCCC
:10010600C583CCF0A3C8C582C8CCC583CCDFEADEE4
:10011600E880DB89828A83E493A3F208DFF980CC46
:1001260088F0EF60010E4E60C388F0ED2402B4043F
:100136000050B9F582EB2402B4040050AF232345E6
:0601460082239000A67365
:10014C00BB010CE58229F582E5833AF583E0225068
:10015C0006E92582F8E622BBFE06E92582F8E222B2
:0D016C00E58229F582E5833AF583E49322CC
:10017900BB010689828A83F0225002F722BBFE0165
:02018900F3225F
:10018B00F8BB010DE58229F582E5833AF583E8F0AA
:10019B00225006E92582C8F622BBFE05E92582C856
:0201AB00F2223E
:1001AD00EF8DF0A4A8F0CF8CF0A428CE8DF0A42E66
:0201BD00FE2220
:1001BF00BC000BBE0029EF8DF084FFADF022E4CC24
:1001CF00F875F008EF2FFFEE33FEEC33FCEE9DECED
:1001DF00984005FCEE9DFE0FD5F0E9E4CEFD22ED33
:1001EF00F8F5F0EE8420D21CFEADF075F008EF2F7D
:1001FF00FFED33FD4007985006D5F0F222C398FD6E
:05020F000FD5F0EA220A
:10021400C2D5EC30E709B2D5E4C39DFDE49CFCEE05
:1002240030E715B2D5E4C39FFFE49EFE1201BFC3BD
:10023400E49DFDE49CFC80031201BF30D507C3E4B8
:060244009FFFE49EFE2274
:10024A00C5F0F8A3E028F0C5F0F8E582158270023F
:06025A001583E038F022DC
:10026000A3F8E0C5F025F0F0E58215827002158351
:06027000E0C838F0E822AE
:10027600E88FF0A4CC8BF0A42CFCE98EF0A42CFC27
:100286008AF0EDA42CFCEA8EF0A4CDA8F08BF0A4A5
:100296002DCC3825F0FDE98FF0A42CCD35F0FCEB04
:1002A6008EF0A4FEA9F0EB8FF0A4CFC5F02ECD39C9
:0F02B600FEE43CFCEAA42DCE35F0FDE43CFC2236
:1002C50075F008758200EF2FFFEE33FECD33CDCCF0
:1002D50033CCC58233C5829BED9AEC99E582984073
:1002E5000CF582EE9BFEED9AFDEC99FC0FD5F0D650
:1002F500E4CEFBE4CDFAE4CCF9A88222B800C1B97A
:100305000059BA002DEC8BF084CFCECDFCE5F0CBB7
:10031500F97818EF2FFFEE33FEED33FDEC33FCEBF0
:1003250033FB10D703994004EB99FB0FD8E5E4F9AB
:10033500FA227818EF2FFFEE33FEED33FDEC33FC98
:10034500C933C910D7059BE99A4007EC9BFCE99A8C
:10035500F90FD8E0E4C9FAE4CCFB2275F010EF2FD1
:10036500FFEE33FEED33FDCC33CCC833C810D707D1
:100375009BEC9AE899400AED9BFDEC9AFCE899F80C
:0E0385000FD5F0DAE4CDFBE4CCFAE4C8F9229F
:10213C00C2D5E830E70FB2D5E4C39BFBE49AFAE4CE
:10214C0099F9E498F8EC30E717B2D5122172120322
:10215C0001E4C39BFBE49AFAE499F9E498F8800350
:10216C0012030130D50DE4C39FFFE49EFEE49DFDF8
:04217C00E49CFC22C1
:10039300E8600FECC313FCED13FDEE13FEEF13FF48
:0303A300D8F1226C
:1003A600E86010ECA2E713FCED13FDEE13FEEF136D
:0403B600FFD8F0225A
:1003BA00E8600FEFC333FFEE33FEED33FDEC33FCA1
:0303CA00D8F12245
:1003CD00E493FC740193FD740293FE740393FF2276
:0C03DD00ECF0A3EDF0A3EEF0A3EFF02293
:0C03E900A42582F582E5F03583F583221F
:0603F5008A838982E47393
:101A1B00021427E493A3F8E493A34003F68001F2A6
:101A2B0008DFF48029E493A3F85407240CC8C333CC
:101A3B00C4540F4420C8834004F456800146F6DF9B
:101A4B00E4800B0102040810204080900CE3E47E3C
:101A5B00019360BCA3FF543F30E509541FFEE49390
:101A6B00A360010ECF54C025E060A840B8E493A357
:101A7B00FAE493A3F8E493A3C8C582C8CAC583CA82
:101A8B00F0A3C8C582C8CAC583CADFE9DEE780BE3A
:010E080000E9
:00000001FF
