:10248F0000A8C0003F065B4F666D7D077F6F000899
:10249F0040014148BF86DBCFE6EDFD87FFEF3508F2
:0E24AF00310835083108350831083508310884
:100CE300420082FFFF410073004100A30041008CDA
:010CF3003CC4
:0B272100EC120179ED90000102018B29
:081DA8008B298A2A892B8D2C5E
:101DB00074FFF52DF52EE4FDEDC3952C503EAB29B7
:101DC000AA2AA92B8D8275830012014C622EE4FC95
:101DD000E52E30E015E52DC313FEE52E13FFEE646E
:101DE000A0F52DEF6401F52E800BE52DC313F52D25
:101DF000E52E13F52E0CBC08D70D80BCAE2DAF2EF2
:011E000022BF
:08224B008B238A2489258D26CE
:10225300C3E5269402FD121DA88E278F28E5267C50
:102263000024FEF582EC34FFF583AB23AA24A925D1
:10227300EF12018BE527FFE52624FFF582EC34FFFF
:06228300F583EF02018B60
:081F57008D268B238A248925C5
:101F5F00C3E5269402FD121DA88E278F28E526FDC6
:101F6F007C0024FEF582EC34FFF583AB23AA24A971
:101F7F002512014C652860037F002274FF2DF58226
:101F8F0074FF3CF58312014CFDE5276D60037F0064
:031F9F00227F019D
:011FA200221C
:10233A008F2890008DE065286028E4FF12236DEF56
:10234A006401601EE52860067A007B3080047AFF0B
:10235A007BD07D1EE4FF1214DCBF020690008DE5DF
:03236A0028F02236
:102560008F2812261EEF701990009F745AF0A3E571
:1025700028F064A5A3F07B017A00799F7D031222E5
:022580000C222B
:10258200900076E0701B7BFF7A2479AD752D007583
:102592002E10752FF07DFC7FC8121E5A7F01122566
:0225A2003822DD
:05003E007F03022538DC
:101D4B00900073E06F6055900073EFF014601E14F9
:101D5B00602D14603424037043E49000A3F09000D2
:101D6B0076F090009EF012003EE4FF80199000A2E6
:101D7B00740AF0E4A3F0900076F090009EF022E459
:101D8B009000A3F07F0102233A9000A37402F07F2E
:0D1D9B000112233A1225827F0212256022D8
:10267E00900073E070047F018002E4FF121D4B2274
:10194B00E4FE900073E0FD64026004EDB403034316
:10195B000601900075E0600343060290009EE06074
:10196B0003430604900070E0600343060890008D6B
:10197B00E0600343061090008E7403F0A3EFF0A316
:10198B00740CF0A3EEF07B017A007992900082E068
:10199B00FCA3E0FD1227219000A3E0900094F090AF
:1019AB000078E0900095F0900074E0900096F09035
:1019BB000073E0900097F0E4A3F0A3F0A3F0900085
:0F19CB0079E090009BF07A00798E7D1002224B1C
:10178100900084E0640360030218277B017A0079EA
:10179100847D08121F57EF700F90006FE004F07006
:1017A1000690006EE004F022900072E004F07006F2
:1017B100900071E004F0900085E024FA604724F67F
:1017C1006008240D70607F03804C900086E0700AF1
:1017D100900073E06004E4FF800F900086E0B401A4
:1017E1000B900073E070057F01121D4B900087E0A4
:1017F100FFC3940A400BEFD394C8500590008CEFBF
:10180100F07F108011900086E060047F0180027FEC
:101811000012233A7F0612194B7B017A00798E7DE3
:07182100107C0012243222AA
:0624E800E0FD7B027F0213
:1024EE00AE031BEE601BED75F00A84EF2B247AF51C
:1024FE0082E43400F583E5F0F0ED75F00A84FD809A
:02250E00DF22CA
:101052007F0890007A740AF0A3DFFCE53A1470036B
:101062000210EC0460030210FF900073E0FCB40174
:10107200069000A20210FB900082E0F523A3E0F5A7
:1010820024C3E523648094805005E4F523F524D33A
:10109200E52494E7E5236480948340067523037571
:1010A20024E7EC64026007900073E0B403047F015C
:1010B20080027F0090007AEFF0900075E090007C53
:1010C200F09000A3E090007EF0AE23AF247C007D80
:1010D20064120214AD077B017F051224EEAE23AF2A
:1010E200247C007D64120214802690007A7401F040
:1010F2009000781224E8900074E0FD801390007A4A
:101102007402F0900071A31224E890006EA3E0FD37
:101112007B027F061224EE90007AE0FFA3E0FDA39B
:10112200E0FBA3E0F528A3E0F529A3E0F52AA3E07C
:10113200F52BA3E0F52C1225C4E4FF900073E0FE2A
:1011420060010F900075E0600343070290009EE08B
:101152006003430704900070E06003430708EEB4A5
:0811620003034307300227815B
:1022C7001200038F23E5236402702790007504F042
:1022D700900074E004F0900073E0B402057F0302FD
:1022E7001D4B900073E070147D08FC7FB87E0B02D5
:0C22F7001BF5E523B40105E4900075F030
:0123030022B7
:102461001226AEBF012790009EE0C394FF5003E007
:1024710004F0900073E0B4021490009EE0C3940352
:0E248100400B900078E004F07F03121D4B2208
:101FA300053BE53BC39402403DE4F53B121EB2C33F
:101FB300EF9402EE64809480402CD3EF9490EE640F
:101FC3008094815021900082EEF0A3EFF090008C7A
:101FD300E0FDEF9D7480F86E9850047F0180027FCE
:091FE30000900070EFF0021052B2
:101AF100900073E0B401227D0A7C007FC47E09124C
:101B01001BF59000A2E0D394004003E014F0900094
:101B1100A2E070057F02121D4B900077E004F0E017
:101B2100C394024006E4F090009EF0900073E0B48C
:101B31000311900076E0700B12278DEF64016003B2
:101B4100122582900073E0B40216900070E06010DC
:101B51009000A3E0700A7D05FC7FAC7E0D121BF5A1
:101B610012277478237C007D007E007F05120126F8
:061B7100900079E527F069
:011B7700224B
:10214B00E4FF12218DBF011CE53A2401FFE433FEAD
:10215B007C007D031201BF8D3A7D037C007FB87E2E
:10216B000B121BF57F0112218DBF0115900073E03F
:10217B00B4030E9000767401F012003E7F0312251B
:02218B006022D0
:101CE400E4FF12207BBF011312267E7F01122560C0
:101CF4007D0A7C007FD07E07121BF57F0512207BB6
:101D0400BF011890008CE0C394C85004E0240AF08A
:101D14007D037C007FAC7E0D121BF57F0212207BBD
:101D2400BF011890008CE0D3940A4004E024F6F03C
:101D34007D037C007FC47E09121BF57F0312207B88
:071D4400BF0103E4F53A22A0
:1016310012263A7D07E4FF1227401225E41225A461
:101641001226BD12000E1226011226557F2B1226DC
:101651009E7F9812239F7F031223047527027F80A8
:101661007E257D007C0012142775280075290075E0
:101671002A00E4F52BF52C7B017A0079847D08FCA6
:101681001224017BFF7A1F79A37F02121B787BFF53
:101691007A1A79F17F03121B787BFF7A21794B7FCC
:1016A10004121B787BFF7A1C79E47F07121B787B7D
:1016B100FF7A2279C77F05121B787BFF7A24796133
:1016C1007F06121B787BFF7A1779817F0A121B78BC
:0816D10012278712228980FB19
:092737008B88898C88898F8889C0
:100CF4005200B08686008686008686008686008638
:090D040086008686004100A50965
:03002B0002277B2E
:06277B0053BCEFD20F3247
:020B3700154364
:100B3900200F03020CE0C20F9000A4E0B4090040AA
:100B490003020CC2900B54F8282873020B9B020B6A
:100B59006F020B81020BAD020B6F020B81020BC4FA
:100B6900020B6F020B81AFBDEFFEADBE7C00E42D21
:100B7900FFEC3E9000A6803CAFBDEFFEADBE7C0011
:100B8900E42DFFEC3E9000A8F0A3EFF0753C0102C4
:100B99000CC8AFBDEFFEADBE7C00E42DFFEC3E906E
:100BA90000AA8010AFBDEFFEADBE7C00E42DFFECC6
:100BB9003E9000ACF0A3EFF0020CC8AFBDEFFEAD64
:100BC900BE7C00E42DFFEC3E9000AEF0A3EFF09068
:100BD90000AEE0FEA3E07807CEC313CE13D8F9A880
:100BE90043F6C394065013A843E675F003A424B052
:100BF900F582E43400F583E014F09000A5E014F0E8
:100C09006003020CC87409F0A843E4F6A843E6FFA0
:100C1900C394064003020CC8EF75F003A424B0F591
:100C290082E43400F583E0C39480502AE6FF75F02E
:100C390003A424B1F582E43400F583E0D394804021
:100C490040EF75F003A424B2F582E43400F583740F
:100C590001F0F53D802BA843E6FF75F003A424B10C
:100C6900F582E43400F583E0C394805014EF75F005
:100C790003A424B2F582E43400F5837402F0753DCF
:100C890001A843E6FF75F003A424B0F582E434001B
:100C9900F583E0FEEF75F003A424B1F582E4340096
:100CA900F583EEF0E675F003A424B0F582E4340090
:100CB900F5837486F006020C159000A474FFF09079
:100CC90000A4E0D39407400374FFF09000A4E0046B
:070CD900F090273793F5BCF2
:030CE000054322A7
:0226DB001543A5
:0926DD00A843A63DE4F53DE6FF2B
:0326E60005432287
:0226E900154397
:0926EB00A843A63CE4F53CE6FF1F
:0326F40005432279
:10239F008F9D75BC88439720D2AD90004574FFF098
:1023AF00A3740BF0A37437F0A374FFF0A37426F09B
:1023BF00A374DBF0A374FFF0A37426F0A374E9F009
:0123CF0022EB
:07276D007B017A0079A6222E
:10207B00C3EF64809480403BD3EF648094855033EE
:10208B00EFFD3395E0FC9000B275F003ED1203E920
:10209B00EC75F003A42583F583E0FE9000B275F098
:1020AB0003ED1203E9EC75F003A42583F583E4F04B
:0520BB00AF06227F03C7
:0120C00022FD
:042510001543154317
:10251400122749A843A60608A607A843E6FE08E62C
:0F252400FF4E600BEF24FFFFEE34FFFE12275235
:052533000543054322F1
:1025A40053B1EF43B210122796E4F5D975DA49D244
:1025B400DE90003F74FFF0A37425F0A37410F022A2
:081BF5008E298F2A8C2B8D2C08
:101BFD00122749EF4E7066AF2CAE2B122752C3E55C
:101C0D002A940AE5299400404BE47B18FAF9F890E0
:101C1D00248F1203CD120301C006C007AE29AF2ACF
:101C2D00AB07AA06E4F9F8D007D006120301AB07FB
:101C3D00AA06AFF9EFFEADE97C00E42DFFEC3ECF37
:101C4D002BCF3AAD07FCAF03AE0212266DD2D843AF
:0F1C5D00DA01800612279653DAFE7F02227F03F8
:011C6C002255
:0C004600122749EF4E7002FF227F0122BA
:10125700E4F580900108E0FFB40800505F90126B3E
:10126700F828287302128302128902128F0212953C
:1012770002129B0212A50212AF0212B9C2A3C2A2A6
:101287008016C2A3C2A2801AC2A3C2A2801EC2A392
:10129700C2A28022C2A3D2A2C2A1C2A08020C2A39E
:1012A700D2A2C2A1D2A08016C2A3D2A2D2A1C2A0AA
:1012B700800CC2A3D2A2D2A1D2A08002D2A3C3EF34
:1012C700648094885029900108E0FF3395E0FE740C
:1012D700FF2FF58274003EF583E0FF3395E0FE743F
:1012E700932FF58274243EF583E493F580801E9056
:1012F7000108E0FFB408133395E0FE74FF2FF58271
:1013070074003EF583E0F5808003E4F5809000FEED
:10131700E0FF900108E004FEF0D3EF6480F8EE648C
:1013270080984014E0D36480948850047408F022B5
:091337009000FDE0900108F02295
:10263A00E4F5937594FF5395F043960F90002A742E
:0B264A00FFF0A37412F0A37457F022FD
:092740009000FDEFF0A3EDF02282
:1025C4009000FFEFF0A3EDF0A3EBF0A3E528F0A358
:1025D400E529F0A3E52AF0A3E52BF0A3E52CF022EE
:06278100900107EFF022B9
:100D0D000140004101210041011E0541011F8341A8
:030D1D000120832F
:1020C10020920690011FE014F090011EE014F070C0
:1020D100347405F0A3E0FFC39480500EA3E0948014
:1020E1004018A37401F0F5408010900120E0C394E2
:1020F100805007A37402F0754001900120EFF09029
:05210100011F7483F0D2
:0121060022B6
:0226F700154389
:0926F900A843A640E4F540E6FF09
:032702000543226A
:10000E0090003674FFF0A37426F0A374F7F09000FE
:0D001E003374FFF0A37420F0A374C1F0222E
:07000300900121E0FFE4F091
:01000A0022D3
:100D20000141004901159494009494009494004169
:030D300001141E8D
:020F2F00154368
:100F310020B206900115E014F020B306900118E0EC
:100F410014F020970690011BE014F0900114E014B6
:100F5100F0600302104F741EF0A843E4F6A843E6C4
:100F6100FFC364809483400302104FEF3395E0FE8A
:100F710090011575F003EF1203E9EE75F003A42556
:100F810083F583E0C39480503990011675F003EF27
:100F91001203E9EE75F003A42583F583E0D3948071
:100FA100405AE6FF3395E0FE90011775F003EF120A
:100FB10003E9EE75F003A42583F5837401F0F5418F
:100FC100803AA843E6FF3395E0FE90011675F003E1
:100FD100EF1203E9EE75F003A42583F583E0C394D2
:100FE10080501990011775F003EF1203E9EE75F0C7
:100FF10003A42583F5837402F0754101A843E6FF3C
:10100100FD3395E0FC90011575F003ED1203E9EC59
:1010110075F003A42583F583E0FE90011675F003B6
:10102100ED1203E9EC75F003A42583F583EEF0EFEF
:101031003395E0FE90011575F003EF1203E9EE75AB
:0E104100F003A42583F5837494F006020F5E7D
:03104F0005432234
:0227050015437A
:09270700A843A641E4F541E6FFF8
:032710000543225C
:1025E40090003074FFF0A37427F0A37405F09000FA
:0D25F4002D74FFF0A3740FF0A3742FF022DC
:10218D00EF600764016003BF0233EFFD3395E0FCA0
:10219D0090011775F003ED1203E9EC75F003A4251A
:1021AD0083F583E0FE90011775F003ED1203E9EC62
:0F21BD0075F003A42583F583E4F0AF06227F03BA
:0121CC0022F0
:100D33005500C30000000000000000000000000098
:0C0D430000000000000000004100C200A1
:0206F1001543AF
:1006F300A843E4F6A843E6FFC3648094834003025F
:100703000962EF3395E0FE9000C375F007EF120323
:10071300E9EE75F007A42583F583E0FCA3E04C70B4
:100723000302095C9000C575F007EF1203E9EE754B
:10073300F007A42583F583E0FEA3E04E70030209CE
:100743005CE6FFFD3395E0FC9000C775F007ED1202
:1007530003E9EC75F007A42583F58374FFF5F01224
:10076300024A45F0600302095C9000C575F007ED8D
:100773001203E9EC75F007A42583F583E0FAA3E0FF
:10078300FB9000C775F007ED1203E9EC75F007A4C1
:100793002583F583EAF0A3EBF0EF3395E0FE9000B9
:1007A300C375F007EF1203E9EE75F007A42583F58F
:1007B30083E0FCA3E0D39400EC648094804056A8CB
:1007C30043E6FD3395E0FC9000C375F007ED12039B
:1007D300E9EC75F007A42583F58374FFF5F01202A5
:1007E3004A9000C975F007ED1203E9EC75F007A410
:1007F3002583F583E004F0D36480948340729000F2
:10080300C975F007EF1203E9EE75F007A42583F528
:1008130083E4F0805BA843E6FFFD3395E0FC9000A2
:10082300C375F007ED1203E9EC75F007A42583F512
:1008330083E475F00112024A9000C975F007ED12C6
:1008430003E9EC75F007A42583F583E014F0C36492
:10085300809480501BEF3395E0FE9000C975F0073C
:10086300EF1203E9EE75F007A42583F5837403F013
:10087300A843E6FFFD3395E0FC9000C975F007ED52
:100883001203E9EC75F007A42583F583E014603CBB
:1008930014606614700302092924036003020954D7
:1008A300EF14601014601924026003020954D2C1CA
:1008B300C2C280299000C2E054F04401F0020954FE
:1008C3009000C2E0540F4410F0020954A843E61408
:1008D300601114601924027078C2C1D2C2C2C3C2AB
:1008E300C4806E9000C2E054F04402F08063900034
:1008F300C2E0540F4420F08058A843E6146011145A
:1009030060192402704BC2C1C2C2D2C3C2C48041A7
:100913009000C2E054F04404F080369000C2E054EA
:100923000F4440F0802BA843E6146011146019248F
:1009330002701EC2C1C2C2C2C3D2C480149000C21C
:10094300E054F04408F080099000C2E0540F448062
:0F095300F09000C2E0FF122781A843060206F7CA
:0309620005432228
:1026550053B3E143B41E53C0E190005474FFF0A39B
:082665007406F0A374F1F022E9
:1014DC008F29EF3395E0FE9000C375F007EF1203F0
:1014EC00E9EE75F007A42583F583E0FEA3E04E60DA
:1014FC0003021584E529600A64016006E52964028B
:10150C007076ED60737C007E037FE81201BFAD291D
:10151C00ED3395E0FC9000C575F007ED1203E9EC96
:10152C0075F007A42583F583EEF0A3EFF09000C5CA
:10153C0075F007ED1203E9EC75F007A42583F5832C
:10154C00E0FEA3E0FF9000C775F007ED1203E9EC95
:10155C0075F007A42583F583EEF0A3EFF09000C39C
:10156C0075F007ED1203E9EC75F007A42583F583FC
:0B157C00EAF0A3EBF07F02227F0322C5
:101FEC00EF600764016003BF023AEFFD3395E0FC3C
:101FFC009000C375F007ED1203E9EC75F007A4250A
:10200C0083F583E0FAA3E0FB9000C375F007ED12B3
:10201C0003E9EC75F007A42583F583E4F0A3F0AE97
:07202C0002AF0322E4FEFFF6
:01203300228A
:10236D00EF600764016003BF0225EF3395E0FE9037
:10237D0000C375F007EF1203E9EE75F007A425838E
:10238D00F583E0FEA3E04E60037F01227F00227FF4
:02239D00032219
:100D4F004100000A4100290A41006D0A040E00000B
:100D5F0000000114004600670000FFFF8FFFC10D68
:100D6F00C105C108C101C10E60240005FF0052FF7B
:100D7F000052FF0052FF0052FF0052FF0052FF00CF
:100D8F0052FF0052FF0052FF0052FF0052FF00526D
:100D9F006036002AFF0052FF0052FF2793FF0052D8
:100DAF00FF2793FF0052FF2793FF0052FF0052FFD0
:100DBF000052FF2793FF2793FF2793FF2793FF00EF
:0A0DCF0052FF0052FF0052FF0052D5
:01005200228B
:032793007F0022A2
:10203400438E805389F07BE07A28790178009024DC
:102044008F1203CD122107EFF404F58A7BE07A287E
:102054007901780090248F1203CD122107C3E49FE5
:10206400FFE49EFE74019DFDE49CFC78081203A627
:072074008F8CD28CD2A9224F
:03000B00021F05CC
:041F0500C0E0C0D0A8
:101F0900D5080A75084C300D020514D20DA20372CA
:101F1900045036150AE50A7030850C0AD207300AD2
:101F290017E50D6007150D438F01801D538FFEC204
:101F3900B5D51615C20A8011050BE50BD3940640D9
:091F490008C203E5136002D20690
:051F5200D0D0D0E03208
:101EB200300E47C20E90248F1203CD78101203A663
:101EC2008E238F24900003E0FEA3E0FFE4FCFD7B61
:101ED20019FAF9F8120276C006C007AE23AF24AB96
:101EE20007AA06E4F9F8D007D006122107780312F0
:101EF20003A6900065EEF0A3EFF0900065E0FEA36C
:021F0200E0FFFE
:011F040022BA
:09274900900067E0FEA3E0FF220E
:09275200900067EEF0A3EFF02205
:10266D0090006BEEF0A3EFF0900069ECF0A3EDF0AD
:01267D00223A
:03279600C2B422A8
:03003B000216D9D1
:1016D900C0E0C083C082C0D075D000C004C005C0BE
:0316E90006C00731
:1016EC0030DF04C2DF807D30DA04C2DA807630D994
:1016FC003DC2D9AFFBEFFEADEB7C00E42DFFEC3E21
:10170C0020000E900001F0A3EFF075DB11D20080E9
:10171C0053FE900001E0FCA3E0FDC3EF9DFFEE9CA7
:10172C00A3F0A3EFF075DB00C200D20E803630D8E8
:10173C0033C2D8900067E07002A3E06022B2B4908C
:10174C000069E0FEA3E0F5EAEEF5FAA3E0FEA3E003
:10175C00FF90006AE02FF0900069E03EF08005C237
:04176C00B453DAFE9A
:10177000D007D006D005D004D0D0D082D083D0E01E
:011780003236
:06278700122034D2AF2243
:101A66003004047F0180027F00200A047E01800288
:101A76007E00EE5F6074E515C39509506830023646
:101A8600750D01E515131313541FAB17AA18A919E1
:101A9600F58275830012014CFFE515540704FEEF2D
:101AA600A806088002C333D8FC30D7057516038014
:101AB6002F751601802AAB17AA18A91975F002E529
:101AC60015A4F58285F08312014CF50DE51575F028
:101AD60002A429F9EA35F0FA90000112014CF51634
:0A1AE6000515D20A22C204438F1036
:011AF00022D3
:10116A00900000E014F0701F740AF0D20590002974
:10117A00E014F07012740AF0D20890006DE014F0D6
:10118A007005740AF0D20190002AA3E0FAA3E0F9EC
:10119A001203F590002DA3E0FAA3E0F91203F590EB
:1011AA000039A3E0FAA3E0F91203F5900045A3E0A1
:1011BA00FAA3E0F91203F5900054A3E0FAA3E0F9C8
:1011CA001203F590005DA3E0FAA3E0F91203F5908B
:1011DA00004BA3E0FAA3E0F91203F5EF600C9000CC
:1011EA001DA3E0FAA3E0F91203F590004EA3E0FA7A
:1011FA00A3E0F91203F5EF600E900020A3E0FAA332
:10120A00E0F91203F5D20BE512D394004016D51279
:10121A003030090C900023A3E0FAA3E0F91203F599
:10122A00D20C801D900051A3E0FAA3E0F91203F555
:10123A00EF600E900023A3E0FAA3E0F91203F5D2BF
:0D124A000C900005A3E0FAA3E0F90203F503
:1018280090003FA3E0FAA3E0F91203F5900042A369
:10183800E0FAA3E0F91203F5900033A3E0FAA3E07D
:10184800F91203F5900008A3E0FAA3E0F91203F5F2
:10185800900030A3E0FAA3E0F91203F5EF600C90D2
:101868000011A3E0FAA3E0F91203F5900036A3E013
:10187800FAA3E0F91203F5EF600C900017A3E0FA61
:10188800A3E0F91203F5900048A3E0FAA3E0F912E7
:1018980003F5EF600C90001AA3E0FAA3E0F9120335
:1018A800F530060EC206900026A3E0FAA3E0F9126E
:0318B80003F52213
:1021CD0090000BA3E0FAA3E0F91203F590003CA3F5
:1021DD00E0FAA3E0F91203F5EF600C900014A3E010
:1021ED00FAA3E0F91203F5900057A3E0FAA3E0F982
:0F21FD001203F590005AA3E0FAA3E0F90203F5EC
:1024BD00AF11AE10AD0FAC0E9000601203DD9000A9
:1024CD0064E514F0E4F511F510F50FF50EF5149023
:0B24DD00000EA3E0FAA3E0F90203F5F3
:10228900300705C207121A66300D05C20D12116A10
:10229900300505C205121828300805C2081221CDDB
:1022A900300105C2011224BDE5112401F511E435FF
:0E22B90010F510E4350FF50FE4350EF50E228A
:101B78008B238A248925EFB40C005070901B8BF8B6
:101B8800282873021BAF021BB4021BB9021BBE023A
:101B98001BC3021BC8021BCD021BD2021BD7021B90
:101BA800DC021BE1021BE6900005803590000880EE
:101BB8003090000B802B90000E8026900011802121
:101BC800900017801C900014801790001A801290C3
:101BD800001D800D90002080089000238003900055
:0D1BE80026E523F0A3E524F0A3E525F02277
:072774007B017A007960226D
:070DD900014200410122006C
:0D002E0020A4097542019001227401F02206
:0227130015436C
:09271500A843A642E4F542E6FFE8
:03271E000543224E
:1026010090003C74FFF0A37427F0A37413F09000C2
:0D2611003974FFF0A37400F0A3742EF022C2
:0226AE001543D2
:0A26B000900122E0A843F6FFE4F0D9
:0326BA00054322B3
:100E090000C400DC00F701060126014A01720188CD
:100E190001B801EE020B024B029302E403100370C6
:100E290003DC04160497052605C800DC00F7011544
:100E39000126014A0172019F01B801EE022A024B03
:100E4900029302E4033F037003DC0455049705266B
:100E590005C8067D00F701150137014A0172019F96
:100E690001D201EE022A026E029302E4033F03A4B7
:100E790003DC045504DD057505C8067D074901062F
:100E89000126014A015D018801B801EE020B024BFE
:100E9900029302BA0310037003DC041604970526B3
:100EA9000575062006E007B80126014A0172018886
:100EB90001B801EE022A024B029302E40310037007
:100EC90003DC04550497052605C8062006E007B883
:100ED90008AA014A0172019F01B801EE022A026EB5
:100EE900029302E4033F037003DC045504DD052685
:100EF90005C8067D06E007B808AA09B9015D018899
:100F090001B801D2020B024B029302BA031003701B
:100F190003A40416049705260575062006E007496B
:060F2900082D092D0A4D00
:100DE0004D00F003000000000000000000000000C3
:061587008F238D248B254B
:10158D00120046EF60037F0122E525D3940040064B
:10159D00E52594114028E525D394174006E52594BB
:1015AD0021401BE525D394274006E5259431400EB7
:1015BD00E525D394375007E523C394F950037F03F2
:1015CD0022E525603DC4540F75F007A4FDACF0E590
:1015DD002375F015A42DFFE5F03CFEE52554077CA1
:1015ED00002FFFEC3EFEEF25E0FFEE33FE741F2FC4
:1015FD00F58274E53EF583E493F527740193F528A0
:10160D008005E4F527F528AF267E007C017D771255
:10161D0001ADAD241C1201BFAD07AC06AF28AE273E
:03162D00121BF598
:011630002297
:0403FB00154315434E
:1003FF00120046EF70047F0180027F009000F0E052
:10040F00FEB402047D0180027D00ED5F60030206F1
:10041F00ECEEB4030AE49000EEF0A3F00206EC90C9
:10042F0000F1E0FFB4F3047E0180027E00EFB4F12F
:10043F00047F0180027F00EF4E603E9000F3E0FEEC
:10044F0075F06484FFEE75F00A8475F00A84ADF0E0
:10045F00E075F00A84ABF075280A9000F2E02407EB
:10046F00F5299000EDE0FEC4540F240AF52A752BF0
:10047F000AEE5407F52C1225C49000F1E0FFB4F3F7
:10048F00047E0180027E00EFB4F2047F0180027FC0
:10049F0000EF4E70030205459000F3E0FD7C007EF7
:1004AF00177F701201BFA843A607E6F975F002A4E3
:1004BF00FFC39000FCE09F9000FBE095F05070E0D0
:1004CF00FEA3E0FF7C007D0B1201ADE9FBFD1201E5
:1004DF00BFA84308A6079000FBE475F00112026065
:1004EF00FED3E5F09BEE94004018A84308E624F9EC
:1004FF00FFE47EF0A807088005CEC313CE13D8F90A
:10050F00801FA84308E6FF740F7E00A80708800528
:10051F00C333CE33CED8F97804CEA2E713CE13D897
:10052F00F8A84308F6A84308E6FF1227818007E4DE
:10053F009000FBF0A3F09000F7E0FEA3E0FFC39064
:10054F0000FAE09F9000F9E09E40030206E61200D9
:10055F0046EF60030206EC9000F4E0FBA3E0FAA381
:10056F00E0F99000F9E0FEA3E0F5828E8312014CD2
:10057F00FFD394375003020681EF241024FC5079E7
:10058F00604524FE700302062C14700302064224F9
:10059F000260030206709000F4E0FBA3E0FAA3E010
:1005AF00F99000F9E475F00112024A85F082F583A3
:1005BF0012014C9000F2F09000FAE004F070989065
:1005CF0000F9E004F080909000F4E0FBA3E0FAA3C0
:1005DF00E0F99000F9E475F00112024A85F082F516
:1005EF008312014C9000F3F09000FAE004F0706E6B
:1005FF009000F9E004F00205669000F4E0FBA3E040
:10060F00FAA3E0F99000F9E475F00112026085F0A9
:10061F0082F58312014C9000F1F00205669000F90B
:10062F00E475F00112024AAFF09000EEF0A3EFF084
:10063F000205669000EEE0FEA3E0FF4E6012900010
:10064F00F9EEF0A3EFF0E49000EEF0A3F0020566F0
:10065F009000FAE004F070069000F9E004F0020553
:10066F00669000FAE004F070069000F9E004F002E2
:10067F0005669000F7E0FEA3E0FFC39000FAE09F4D
:10068F009000F9E09E50569000F4E0FBA3E0FAA32F
:10069F00E0F99000F9E475F00112026085F082F53F
:1006AF008312014C9000EDF09000F2E0FFA3E0FD0B
:1006BF00A3E0FBA3E0FAA3E0F99000F9E475F001E1
:1006CF0012026085F082F58312014CF5269000ED41
:0D06DF00E0FB12158780069000F07403F018
:0506EC00054305432257
:0F26BD0090004274FFF0A37403F0A374FBF022AB
:101E5A009000F0E0B4030DE49000F9F0A3F0A3F0D1
:101E6A00A3F0C210EF60049000F3F0ED600490005C
:101E7A00F2F0E94A60047F0180027F00E52E452DD9
:101E8A0060047E0180027E00EE5F60139000F4EB36
:101E9A00F0A3EAF0A3E9F0A3E52DF0A3E52EF0E51F
:081EAA002F60049000F1F0220A
:10253800BF02047E0180027E00BF01047D0180028B
:102548007D00ED4EFEBF03047D0180027D00ED4E4F
:0825580060059000F0EFF02295
:06278D009000F0E0FF22C5
:1018BB008B38AA077C007E037FE81201BF900110D2
:1018CB00EEF0A3EFF0E539FD7C007E037FE812011B
:1018DB00BFA3EEF0A3EFF0AF02AB07E4FAF9F89079
:1018EB000110E0FEA3E0FFE4FCFD120276EF2432D0
:1018FB00FFE43EFEE43DFDE43CFCE47B64FAF9F8D6
:10190B0012210790010AEEF0A3EFF0AF38AB07E41A
:10191B00FAF9F8900112E0FEA3E0FFE4FCFD1202DD
:10192B0076EF2432FFE43EFEE43DFDE43CFCE47B39
:10193B0064FAF9F812210790010CEEF0A3EFF022F4
:101E0100E4F526F525F524F523F527D291AF26AE85
:101E110025AD24AC2378011203BA8F268E258D249B
:101E21008C2300C291309015E4FAF9F8EF2401F502
:101E310026EA3EF525E93DF524E83CF5230527E5AD
:101E410027B418C700D2910000C291AF26AE25ADCC
:081E510024AC2378081203A65B
:011E59002266
:09275B0090010EE0FEA3E0FF2254
:0F268E0090010EE0FEA3E0FFE490010EF0A3F038
:01269D00221A
:10134000900109E0700F30900122121E0190010EF1
:10135000EEF0A3EFF0900109E0FF64017062051B5D
:10136000E51B7002051AFDD3900111E09D9001105C
:10137000E0951A5005E4F51AF51BD390010BE095A2
:101380001B90010AE0951A4004D2908002C2900599
:101390001DE51D7002051CFDD3900113E09D900119
:1013A00012E0951C5005E4F51CF51DD390010DE0ED
:1013B000951D90010CE0951C4004D2918002C291D1
:1013C000EF6402703E2090047F0180027F00E51EE2
:1013D00060047E0180027E00EE5F602130911090FB
:1013E000010FE004F0701690010EE004F0800E9002
:1013F000010FE024FFF090010EE034FFF0A290E432
:1014000033F51E900109E0B4031CE51F7002D29170
:10141000E51FB40105C29175DB21051FE51FC394CB
:06142000C84003E4F51FC3
:0114260022A3
:10230400900109EFF07004C2918002D2919001090A
:10231400E0B40310E5A254CFF5A2E4F5D975DB01CE
:10232400D2DE8003E4F5DB90005D74FFF0A3741348
:06233400F0A37440F0224A
:10269E0053B1DF43B220C2B5C20A8F0C438F102252
:03005300021C6D1F
:101C6D00C0E0C083C082C0D075D000C000C001C02C
:031C7D0002C0039F
:101C8000200313D203753108751300753000E50C7D
:101C9000C313F50A803AE50BC394014031E53025C2
:101CA000E0F530E50BC3940340020530D53121E562
:101CB00013C39532501A753108AB33AA34A9358550
:101CC0001382758300E53012018B05138002C20375
:031CD000750B0091
:101CD300D003D002D001D000D0D0D082D083D0E0C6
:011CE30032CE
:092764008B338A3489358D322251
:03279900AF132259
:1023D0002003047F0180027F00200A047E01800226
:1023E0007E00EE5F60188B178A188919EDC313F50C
:1023F00009C202E4F515538FEFD2047F02227F0356
:0124000022B9
:10220C002003047F0180027F00200A047E018002EB
:10221C007E00EE5F6026538FEF750D10751608D299
:10222C000A438F018B178A188919ED75F008A404DD
:0F223C00F509D202E4F515D2047F02227F0322B6
:10261E002003047F0180027F00200A047E018002D5
:0C262E007E00EE5F60037F00227F01222F
:100DF0005500D800000000000000000000000000C6
:080E00000000010000000000E9
:030043000209654A
:10096500C0E0C0F0C083C082C0D075D000C000C058
:1009750001C002C003C004C005C006C007E59A3027
:10098500E142539AFD9000DDE0FEA3E0FFC3900035
:10099500DCE09F9000DBE09E501F9000D8E0FBA3B9
:1009A500E0FAA3E0F9A3E475F00112026085F08294
:1009B500F58312014CF59B800B9000DFE4F0E53FD9
:1009C5006002C2B7E59A20E003020B1C539AFE3081
:1009D5000C0BC20C9000E5E4F0A3F0D209E53F64EE
:1009E500026003020A769000E3E0FEA3E0FFA3E0C5
:1009F500FCA3E0FDC39FEC9E50719000E0E0FBA3DB
:100A0500E0FAA3E0F98D828C83E59B12018B9000BF
:100A1500EBE0FEA3E0FFC3ED9FEC9E50409000E3AA
:100A2500E0FCA3E0FDEF9DEE9C50329000E8E0FB7A
:100A3500A3E0FAA3E0F99000E5E0FEA3E0FFF5826C
:100A45008E8312014CFD9000E0E0FBA3E0FAA3E0E9
:100A5500F98F828E8312014C6D6002C2099000E607
:100A6500E004F070069000E5E004F0853E12020B0C
:100A75001C9000E3E0FEA3E0FFA3E0FCA3E0FDC3C0
:100A85009FEC9E50779000E0E0FBA3E0FAA3E0F92D
:100A95008D828C83E59B12018B9000EBE0FEA3E039
:100AA500FFC3ED9FEC9E50469000E3E0FCA3E0FD04
:100AB500EF9DEE9C50389000E8E0FBA3E0FAA3E040
:100AC500F99000E5E0FEA3E0FFF5828E8312014C6C
:100AD500FD9000E0E0FBA3E0FAA3E0F98F828E83AE
:100AE50012014C6D60089000E574FFF0A3F09000D2
:100AF500E6E004F070069000E5E004F09000E3E025
:100B0500FEA3E0FFC39000E6E09F9000E5E09E4075
:100B1500069000E77401F0D007D006D005D004D0C8
:100B250003D002D001D000D0D0D082D083D0F0D075
:020B3500E032AC
:0226CC001543B4
:0A26CE009000E7E0A843F6FFE4F0F7
:0326D80005432295
:01279C00221A
:101427008F268E258D248C2385273FE53F700280EC
:101437000343BA01E53F701790005D74FFF0A37492
:1014470027F0A3749CF0E4F5DBD290D2918020C200
:10145700B7AB26AA25A924A823E47F407E9CFDFCE0
:101467001203018F3EE53E7003753E01853E1275FE
:101477009A10E47B04FAF9F890248F1203CD120333
:1014870001AB26AA25A924A823120301EFF404F52A
:10149700D7E47B04FAF9F890248F1203CD120301E5
:1014A700AB26AA25A924A823120301C3E49FFFE4BE
:1014B7009EFE74019DFDE49CFC78081203938FD671
:1014C700438E1443AF0190005174FFF0A37426F0CC
:0514D700A374CCF0221B
:102401009000E0EBF0A3EAF0A3E9F0A3ECF0A3ED78
:10241100F09000EBE52BF0A3E52CF09000E8E52827
:10242100F0A3E529F0A3E52AF0D20CE49000E7F04F
:012431002288
:102432009000DFE070269000D8EBF0A3EAF0A3E969
:10244200F0E4A3F0A3F0A3ECF0A3EDF0A37401F089
:0F245200E53F6002D2B7439A027F02227F032246
:0B272C009000DFE07002FF227F01221E
:030000000219DA08
:0C19DA00787FE4F6D8FD758143021A21E5
:10005600E709F608DFFA8046E709F208DFFA803E8C
:1000660088828C83E709F0A3DFFA8032E309F60879
:10007600DFFA8078E309F208DFFA807088828C83E1
:10008600E309F0A3DFFA806489828A83E0A3F60895
:10009600DFFA805889828A83E0A3F208DFFA804C6F
:1000A60080D280FA80C680D4806980F28033801046
:1000B60080A680EA809A80A880DA80E280CA8033AF
:1000C60089828A83ECFAE493A3C8C582C8CCC58327
:1000D600CCF0A3C8C582C8CCC583CCDFE9DEE780F7
:1000E6000D89828A83E493A3F608DFF9ECFAA9F076
:1000F600EDFB2289828A83ECFAE0A3C8C582C8CCCC
:10010600C583CCF0A3C8C582C8CCC583CCDFEADEE4
:10011600E880DB89828A83E493A3F208DFF980CC46
:1001260088F0EF60010E4E60C388F0ED2402B4043F
:100136000050B9F582EB2402B4040050AF232345E6
:0601460082239000A67365
:10014C00BB010CE58229F582E5833AF583E0225068
:10015C0006E92582F8E622BBFE06E92582F8E222B2
:0D016C00E58229F582E5833AF583E49322CC
:10017900BB010689828A83F0225002F722BBFE0165
:02018900F3225F
:10018B00F8BB010DE58229F582E5833AF583E8F0AA
:10019B00225006E92582C8F622BBFE05E92582C856
:0201AB00F2223E
:1001AD00EF8DF0A4A8F0CF8CF0A428CE8DF0A42E66
:0201BD00FE2220
:1001BF00BC000BBE0029EF8DF084FFADF022E4CC24
:1001CF00F875F008EF2FFFEE33FEEC33FCEE9DECED
:1001DF00984005FCEE9DFE0FD5F0E9E4CEFD22ED33
:1001EF00F8F5F0EE8420D21CFEADF075F008EF2F7D
:1001FF00FFED33FD4007985006D5F0F222C398FD6E
:05020F000FD5F0EA220A
:10021400C2D5EC30E709B2D5E4C39DFDE49CFCEE05
:1002240030E715B2D5E4C39FFFE49EFE1201BFC3BD
:10023400E49DFDE49CFC80031201BF30D507C3E4B8
:060244009FFFE49EFE2274
:10024A00C5F0F8A3E028F0C5F0F8E582158270023F
:06025A001583E038F022DC
:10026000A3F8E0C5F025F0F0E58215827002158351
:06027000E0C838F0E822AE
:10027600E88FF0A4CC8BF0A42CFCE98EF0A42CFC27
:100286008AF0EDA42CFCEA8EF0A4CDA8F08BF0A4A5
:100296002DCC3825F0FDE98FF0A42CCD35F0FCEB04
:1002A6008EF0A4FEA9F0EB8FF0A4CFC5F02ECD39C9
:0F02B600FEE43CFCEAA42DCE35F0FDE43CFC2236
:1002C50075F008758200EF2FFFEE33FECD33CDCCF0
:1002D50033CCC58233C5829BED9AEC99E582984073
:1002E5000CF582EE9BFEED9AFDEC99FC0FD5F0D650
:1002F500E4CEFBE4CDFAE4CCF9A88222B800C1B97A
:100305000059BA002DEC8BF084CFCECDFCE5F0CBB7
:10031500F97818EF2FFFEE33FEED33FDEC33FCEBF0
:1003250033FB10D703994004EB99FB0FD8E5E4F9AB
:10033500FA227818EF2FFFEE33FEED33FDEC33FC98
:10034500C933C910D7059BE99A4007EC9BFCE99A8C
:10035500F90FD8E0E4C9FAE4CCFB2275F010EF2FD1
:10036500FFEE33FEED33FDCC33CCC833C810D707D1
:100375009BEC9AE899400AED9BFDEC9AFCE899F80C
:0E0385000FD5F0DAE4CDFBE4CCFAE4C8F9229F
:10210700C2D5E830E70FB2D5E4C39BFBE49AFAE403
:1021170099F9E498F8EC30E717B2D512213D12038C
:1021270001E4C39BFBE49AFAE499F9E498F8800385
:1021370012030130D50DE4C39FFFE49EFEE49DFD2D
:04214700E49CFC22F6
:10039300E8600FECC313FCED13FDEE13FEEF13FF48
:0303A300D8F1226C
:1003A600E86010ECA2E713FCED13FDEE13FEEF136D
:0403B600FFD8F0225A
:1003BA00E8600FEFC333FFEE33FEED33FDEC33FCA1
:0303CA00D8F12245
:1003CD00E493FC740193FD740293FE740393FF2276
:0C03DD00ECF0A3EDF0A3EEF0A3EFF02293
:0C03E900A42582F582E5F03583F583221F
:0603F5008A838982E47393
:1019E600021631E493A3F8E493A34003F68001F2D0
:1019F60008DFF48029E493A3F85407240CC8C33302
:101A0600C4540F4420C8834004F456800146F6DFD0
:101A1600E4800B0102040810204080900CE3E47E71
:101A2600019360BCA3FF543F30E509541FFEE493C5
:101A3600A360010ECF54C025E060A840B8E493A38C
:101A4600FAE493A3F8E493A3C8C582C8CAC583CAB7
:101A5600F0A3C8C582C8CAC583CADFE9DEE780BE6F
:010E080000E9
:00000001FF
